{
  "contracts/BlueDream.sol": {
    "BlueDream": {
      "abi": [
        {
          "inputs": [
            {
              "internalType": "address",
              "name": "_controller",
              "type": "address"
            }
          ],
          "stateMutability": "nonpayable",
          "type": "constructor"
        },
        {
          "inputs": [],
          "name": "ApprovalCallerNotOwnerNorApproved",
          "type": "error"
        },
        {
          "inputs": [],
          "name": "ApprovalQueryForNonexistentToken",
          "type": "error"
        },
        {
          "inputs": [],
          "name": "ApproveToCaller",
          "type": "error"
        },
        {
          "inputs": [],
          "name": "BalanceQueryForZeroAddress",
          "type": "error"
        },
        {
          "inputs": [],
          "name": "MintERC2309QuantityExceedsLimit",
          "type": "error"
        },
        {
          "inputs": [],
          "name": "MintToZeroAddress",
          "type": "error"
        },
        {
          "inputs": [],
          "name": "MintZeroQuantity",
          "type": "error"
        },
        {
          "inputs": [],
          "name": "OwnerQueryForNonexistentToken",
          "type": "error"
        },
        {
          "inputs": [],
          "name": "OwnershipNotInitializedForExtraData",
          "type": "error"
        },
        {
          "inputs": [],
          "name": "TransferCallerNotOwnerNorApproved",
          "type": "error"
        },
        {
          "inputs": [],
          "name": "TransferFromIncorrectOwner",
          "type": "error"
        },
        {
          "inputs": [],
          "name": "TransferToNonERC721ReceiverImplementer",
          "type": "error"
        },
        {
          "inputs": [],
          "name": "TransferToZeroAddress",
          "type": "error"
        },
        {
          "inputs": [],
          "name": "URIQueryForNonexistentToken",
          "type": "error"
        },
        {
          "anonymous": false,
          "inputs": [
            {
              "indexed": true,
              "internalType": "address",
              "name": "owner",
              "type": "address"
            },
            {
              "indexed": true,
              "internalType": "address",
              "name": "approved",
              "type": "address"
            },
            {
              "indexed": true,
              "internalType": "uint256",
              "name": "tokenId",
              "type": "uint256"
            }
          ],
          "name": "Approval",
          "type": "event"
        },
        {
          "anonymous": false,
          "inputs": [
            {
              "indexed": true,
              "internalType": "address",
              "name": "owner",
              "type": "address"
            },
            {
              "indexed": true,
              "internalType": "address",
              "name": "operator",
              "type": "address"
            },
            {
              "indexed": false,
              "internalType": "bool",
              "name": "approved",
              "type": "bool"
            }
          ],
          "name": "ApprovalForAll",
          "type": "event"
        },
        {
          "anonymous": false,
          "inputs": [
            {
              "indexed": true,
              "internalType": "uint256",
              "name": "fromTokenId",
              "type": "uint256"
            },
            {
              "indexed": false,
              "internalType": "uint256",
              "name": "toTokenId",
              "type": "uint256"
            },
            {
              "indexed": true,
              "internalType": "address",
              "name": "from",
              "type": "address"
            },
            {
              "indexed": true,
              "internalType": "address",
              "name": "to",
              "type": "address"
            }
          ],
          "name": "ConsecutiveTransfer",
          "type": "event"
        },
        {
          "anonymous": false,
          "inputs": [
            {
              "indexed": true,
              "internalType": "address",
              "name": "previousOwner",
              "type": "address"
            },
            {
              "indexed": true,
              "internalType": "address",
              "name": "newOwner",
              "type": "address"
            }
          ],
          "name": "OwnershipTransferred",
          "type": "event"
        },
        {
          "anonymous": false,
          "inputs": [
            {
              "indexed": false,
              "internalType": "address",
              "name": "account",
              "type": "address"
            }
          ],
          "name": "Paused",
          "type": "event"
        },
        {
          "anonymous": false,
          "inputs": [
            {
              "indexed": true,
              "internalType": "address",
              "name": "from",
              "type": "address"
            },
            {
              "indexed": true,
              "internalType": "address",
              "name": "to",
              "type": "address"
            },
            {
              "indexed": true,
              "internalType": "uint256",
              "name": "tokenId",
              "type": "uint256"
            }
          ],
          "name": "Transfer",
          "type": "event"
        },
        {
          "anonymous": false,
          "inputs": [
            {
              "indexed": false,
              "internalType": "address",
              "name": "account",
              "type": "address"
            }
          ],
          "name": "Unpaused",
          "type": "event"
        },
        {
          "anonymous": false,
          "inputs": [],
          "name": "mintOK",
          "type": "event"
        },
        {
          "anonymous": false,
          "inputs": [],
          "name": "nameChangeOK",
          "type": "event"
        },
        {
          "inputs": [
            {
              "internalType": "address",
              "name": "to",
              "type": "address"
            },
            {
              "internalType": "uint256",
              "name": "tokenId",
              "type": "uint256"
            }
          ],
          "name": "approve",
          "outputs": [],
          "stateMutability": "nonpayable",
          "type": "function"
        },
        {
          "inputs": [
            {
              "internalType": "address",
              "name": "owner",
              "type": "address"
            }
          ],
          "name": "balanceOf",
          "outputs": [
            {
              "internalType": "uint256",
              "name": "",
              "type": "uint256"
            }
          ],
          "stateMutability": "view",
          "type": "function"
        },
        {
          "inputs": [
            {
              "internalType": "uint256",
              "name": "tokenId",
              "type": "uint256"
            },
            {
              "internalType": "string",
              "name": "name",
              "type": "string"
            }
          ],
          "name": "changeName",
          "outputs": [],
          "stateMutability": "payable",
          "type": "function"
        },
        {
          "inputs": [
            {
              "internalType": "uint256",
              "name": "startIndex",
              "type": "uint256"
            },
            {
              "internalType": "uint256",
              "name": "total",
              "type": "uint256"
            }
          ],
          "name": "getAllTokens",
          "outputs": [
            {
              "components": [
                {
                  "internalType": "uint256",
                  "name": "id",
                  "type": "uint256"
                },
                {
                  "internalType": "string",
                  "name": "name",
                  "type": "string"
                },
                {
                  "internalType": "bytes32",
                  "name": "dna",
                  "type": "bytes32"
                },
                {
                  "internalType": "bytes32",
                  "name": "attributes",
                  "type": "bytes32"
                },
                {
                  "internalType": "address",
                  "name": "owner",
                  "type": "address"
                }
              ],
              "internalType": "struct BlueDream.t_token[]",
              "name": "",
              "type": "tuple[]"
            }
          ],
          "stateMutability": "view",
          "type": "function"
        },
        {
          "inputs": [
            {
              "internalType": "uint256",
              "name": "tokenId",
              "type": "uint256"
            }
          ],
          "name": "getApproved",
          "outputs": [
            {
              "internalType": "address",
              "name": "",
              "type": "address"
            }
          ],
          "stateMutability": "view",
          "type": "function"
        },
        {
          "inputs": [
            {
              "internalType": "uint256",
              "name": "tokenId",
              "type": "uint256"
            }
          ],
          "name": "getToken",
          "outputs": [
            {
              "components": [
                {
                  "internalType": "uint256",
                  "name": "id",
                  "type": "uint256"
                },
                {
                  "internalType": "string",
                  "name": "name",
                  "type": "string"
                },
                {
                  "internalType": "bytes32",
                  "name": "dna",
                  "type": "bytes32"
                },
                {
                  "internalType": "bytes32",
                  "name": "attributes",
                  "type": "bytes32"
                },
                {
                  "internalType": "address",
                  "name": "owner",
                  "type": "address"
                }
              ],
              "internalType": "struct BlueDream.t_token",
              "name": "",
              "type": "tuple"
            }
          ],
          "stateMutability": "view",
          "type": "function"
        },
        {
          "inputs": [
            {
              "internalType": "address",
              "name": "owner",
              "type": "address"
            },
            {
              "internalType": "uint256",
              "name": "startIndex",
              "type": "uint256"
            },
            {
              "internalType": "uint256",
              "name": "total",
              "type": "uint256"
            }
          ],
          "name": "getTokensOfOwner",
          "outputs": [
            {
              "components": [
                {
                  "internalType": "uint256",
                  "name": "id",
                  "type": "uint256"
                },
                {
                  "internalType": "string",
                  "name": "name",
                  "type": "string"
                },
                {
                  "internalType": "bytes32",
                  "name": "dna",
                  "type": "bytes32"
                },
                {
                  "internalType": "bytes32",
                  "name": "attributes",
                  "type": "bytes32"
                },
                {
                  "internalType": "address",
                  "name": "owner",
                  "type": "address"
                }
              ],
              "internalType": "struct BlueDream.t_token[]",
              "name": "",
              "type": "tuple[]"
            }
          ],
          "stateMutability": "view",
          "type": "function"
        },
        {
          "inputs": [
            {
              "internalType": "address",
              "name": "owner",
              "type": "address"
            },
            {
              "internalType": "address",
              "name": "operator",
              "type": "address"
            }
          ],
          "name": "isApprovedForAll",
          "outputs": [
            {
              "internalType": "bool",
              "name": "",
              "type": "bool"
            }
          ],
          "stateMutability": "view",
          "type": "function"
        },
        {
          "inputs": [
            {
              "internalType": "address",
              "name": "owner",
              "type": "address"
            },
            {
              "internalType": "string",
              "name": "name",
              "type": "string"
            }
          ],
          "name": "mint",
          "outputs": [],
          "stateMutability": "payable",
          "type": "function"
        },
        {
          "inputs": [],
          "name": "name",
          "outputs": [
            {
              "internalType": "string",
              "name": "",
              "type": "string"
            }
          ],
          "stateMutability": "view",
          "type": "function"
        },
        {
          "inputs": [],
          "name": "owner",
          "outputs": [
            {
              "internalType": "address",
              "name": "",
              "type": "address"
            }
          ],
          "stateMutability": "view",
          "type": "function"
        },
        {
          "inputs": [
            {
              "internalType": "uint256",
              "name": "tokenId",
              "type": "uint256"
            }
          ],
          "name": "ownerOf",
          "outputs": [
            {
              "internalType": "address",
              "name": "",
              "type": "address"
            }
          ],
          "stateMutability": "view",
          "type": "function"
        },
        {
          "inputs": [],
          "name": "paused",
          "outputs": [
            {
              "internalType": "bool",
              "name": "",
              "type": "bool"
            }
          ],
          "stateMutability": "view",
          "type": "function"
        },
        {
          "inputs": [],
          "name": "renounceOwnership",
          "outputs": [],
          "stateMutability": "nonpayable",
          "type": "function"
        },
        {
          "inputs": [
            {
              "internalType": "address",
              "name": "from",
              "type": "address"
            },
            {
              "internalType": "address",
              "name": "to",
              "type": "address"
            },
            {
              "internalType": "uint256",
              "name": "tokenId",
              "type": "uint256"
            }
          ],
          "name": "safeTransferFrom",
          "outputs": [],
          "stateMutability": "nonpayable",
          "type": "function"
        },
        {
          "inputs": [
            {
              "internalType": "address",
              "name": "from",
              "type": "address"
            },
            {
              "internalType": "address",
              "name": "to",
              "type": "address"
            },
            {
              "internalType": "uint256",
              "name": "tokenId",
              "type": "uint256"
            },
            {
              "internalType": "bytes",
              "name": "_data",
              "type": "bytes"
            }
          ],
          "name": "safeTransferFrom",
          "outputs": [],
          "stateMutability": "nonpayable",
          "type": "function"
        },
        {
          "inputs": [
            {
              "internalType": "address",
              "name": "operator",
              "type": "address"
            },
            {
              "internalType": "bool",
              "name": "approved",
              "type": "bool"
            }
          ],
          "name": "setApprovalForAll",
          "outputs": [],
          "stateMutability": "nonpayable",
          "type": "function"
        },
        {
          "inputs": [
            {
              "internalType": "bytes4",
              "name": "interfaceId",
              "type": "bytes4"
            }
          ],
          "name": "supportsInterface",
          "outputs": [
            {
              "internalType": "bool",
              "name": "",
              "type": "bool"
            }
          ],
          "stateMutability": "view",
          "type": "function"
        },
        {
          "inputs": [],
          "name": "symbol",
          "outputs": [
            {
              "internalType": "string",
              "name": "",
              "type": "string"
            }
          ],
          "stateMutability": "view",
          "type": "function"
        },
        {
          "inputs": [
            {
              "internalType": "uint256",
              "name": "tokenId",
              "type": "uint256"
            }
          ],
          "name": "tokenURI",
          "outputs": [
            {
              "internalType": "string",
              "name": "",
              "type": "string"
            }
          ],
          "stateMutability": "view",
          "type": "function"
        },
        {
          "inputs": [],
          "name": "totalSupply",
          "outputs": [
            {
              "internalType": "uint256",
              "name": "",
              "type": "uint256"
            }
          ],
          "stateMutability": "view",
          "type": "function"
        },
        {
          "inputs": [
            {
              "internalType": "address",
              "name": "from",
              "type": "address"
            },
            {
              "internalType": "address",
              "name": "to",
              "type": "address"
            },
            {
              "internalType": "uint256",
              "name": "tokenId",
              "type": "uint256"
            }
          ],
          "name": "transferFrom",
          "outputs": [],
          "stateMutability": "nonpayable",
          "type": "function"
        },
        {
          "inputs": [
            {
              "internalType": "address",
              "name": "newOwner",
              "type": "address"
            }
          ],
          "name": "transferOwnership",
          "outputs": [],
          "stateMutability": "nonpayable",
          "type": "function"
        },
        {
          "inputs": [],
          "name": "withdrawVault",
          "outputs": [],
          "stateMutability": "nonpayable",
          "type": "function"
        }
      ],
      "evm": {
        "bytecode": {
          "linkReferences": {},
          "object": "60806040523480156200001157600080fd5b5060405162004284380380620042848339818101604052810190620000379190620003b9565b6040518060400160405280600a81526020017f426c756520447265616d000000000000000000000000000000000000000000008152506040518060400160405280600281526020017f4d550000000000000000000000000000000000000000000000000000000000008152508160029080519060200190620000bb9291906200029f565b508060039080519060200190620000d49291906200029f565b50620000e5620001c860201b60201c565b60008190555050506200010d62000101620001d160201b60201c565b620001d960201b60201c565b6000600860146101000a81548160ff021916908315150217905550600160098190555080600a60006101000a81548173ffffffffffffffffffffffffffffffffffffffff021916908373ffffffffffffffffffffffffffffffffffffffff16021790555060405180602001604052806000815250600b9080519060200190620001989291906200029f565b5060405180602001604052806000815250600c9080519060200190620001c09291906200029f565b505062000450565b60006001905090565b600033905090565b6000600860009054906101000a900473ffffffffffffffffffffffffffffffffffffffff16905081600860006101000a81548173ffffffffffffffffffffffffffffffffffffffff021916908373ffffffffffffffffffffffffffffffffffffffff1602179055508173ffffffffffffffffffffffffffffffffffffffff168173ffffffffffffffffffffffffffffffffffffffff167f8be0079c531659141344cd1fd0a4f28419497f9722a3daafe3b4186f6b6457e060405160405180910390a35050565b828054620002ad906200041a565b90600052602060002090601f016020900481019282620002d157600085556200031d565b82601f10620002ec57805160ff19168380011785556200031d565b828001600101855582156200031d579182015b828111156200031c578251825591602001919060010190620002ff565b5b5090506200032c919062000330565b5090565b5b808211156200034b57600081600090555060010162000331565b5090565b600080fd5b600073ffffffffffffffffffffffffffffffffffffffff82169050919050565b6000620003818262000354565b9050919050565b620003938162000374565b81146200039f57600080fd5b50565b600081519050620003b38162000388565b92915050565b600060208284031215620003d257620003d16200034f565b5b6000620003e284828501620003a2565b91505092915050565b7f4e487b7100000000000000000000000000000000000000000000000000000000600052602260045260246000fd5b600060028204905060018216806200043357607f821691505b602082108114156200044a5762000449620003eb565b5b50919050565b613e2480620004606000396000f3fe60806040526004361061014b5760003560e01c80638da5cb5b116100b6578063c87b56dd1161006f578063c87b56dd14610495578063d0d0ed05146104d2578063d0def521146104e9578063e4b50cb814610505578063e985e9c514610542578063f2fde38b1461057f5761014b565b80638da5cb5b1461039457806395d89b41146103bf5780639a043832146103ea578063a22cb46514610427578063b88d4fde14610450578063c39cbef1146104795761014b565b806342842e0e1161010857806342842e0e146102725780635c975abb1461029b5780636352211e146102c657806370a0823114610303578063715018a61461034057806389edc438146103575761014b565b806301ffc9a71461015057806306fdde031461018d578063081812fc146101b8578063095ea7b3146101f557806318160ddd1461021e57806323b872dd14610249575b600080fd5b34801561015c57600080fd5b5061017760048036038101906101729190612ade565b6105a8565b6040516101849190612b26565b60405180910390f35b34801561019957600080fd5b506101a261063a565b6040516101af9190612bda565b60405180910390f35b3480156101c457600080fd5b506101df60048036038101906101da9190612c32565b6106cc565b6040516101ec9190612ca0565b60405180910390f35b34801561020157600080fd5b5061021c60048036038101906102179190612ce7565b61074b565b005b34801561022a57600080fd5b5061023361088f565b6040516102409190612d36565b60405180910390f35b34801561025557600080fd5b50610270600480360381019061026b9190612d51565b6108a6565b005b34801561027e57600080fd5b5061029960048036038101906102949190612d51565b610bcb565b005b3480156102a757600080fd5b506102b0610beb565b6040516102bd9190612b26565b60405180910390f35b3480156102d257600080fd5b506102ed60048036038101906102e89190612c32565b610c02565b6040516102fa9190612ca0565b60405180910390f35b34801561030f57600080fd5b5061032a60048036038101906103259190612da4565b610c14565b6040516103379190612d36565b60405180910390f35b34801561034c57600080fd5b50610355610ccd565b005b34801561036357600080fd5b5061037e60048036038101906103799190612dd1565b610ce1565b60405161038b9190612fdd565b60405180910390f35b3480156103a057600080fd5b506103a9610fb5565b6040516103b69190612ca0565b60405180910390f35b3480156103cb57600080fd5b506103d4610fdf565b6040516103e19190612bda565b60405180910390f35b3480156103f657600080fd5b50610411600480360381019061040c9190612fff565b611071565b60405161041e9190612fdd565b60405180910390f35b34801561043357600080fd5b5061044e6004803603810190610449919061306b565b6112ad565b005b34801561045c57600080fd5b50610477600480360381019061047291906131e0565b611425565b005b610493600480360381019061048e9190613304565b611498565b005b3480156104a157600080fd5b506104bc60048036038101906104b79190612c32565b61162d565b6040516104c99190612bda565b60405180910390f35b3480156104de57600080fd5b506104e76116cc565b005b61050360048036038101906104fe91906133c0565b6117d9565b005b34801561051157600080fd5b5061052c60048036038101906105279190612c32565b611aef565b6040516105399190613496565b60405180910390f35b34801561054e57600080fd5b50610569600480360381019061056491906134b8565b611c47565b6040516105769190612b26565b60405180910390f35b34801561058b57600080fd5b506105a660048036038101906105a19190612da4565b611cdb565b005b60006301ffc9a760e01b827bffffffffffffffffffffffffffffffffffffffffffffffffffffffff1916148061060357506380ac58cd60e01b827bffffffffffffffffffffffffffffffffffffffffffffffffffffffff1916145b806106335750635b5e139f60e01b827bffffffffffffffffffffffffffffffffffffffffffffffffffffffff1916145b9050919050565b60606002805461064990613527565b80601f016020809104026020016040519081016040528092919081815260200182805461067590613527565b80156106c25780601f10610697576101008083540402835291602001916106c2565b820191906000526020600020905b8154815290600101906020018083116106a557829003601f168201915b5050505050905090565b60006106d782611d5f565b61070d576040517fcf4700e400000000000000000000000000000000000000000000000000000000815260040160405180910390fd5b6006600083815260200190815260200160002060000160009054906101000a900473ffffffffffffffffffffffffffffffffffffffff169050919050565b600061075682610c02565b90508073ffffffffffffffffffffffffffffffffffffffff16610777611dbe565b73ffffffffffffffffffffffffffffffffffffffff16146107da576107a38161079e611dbe565b611c47565b6107d9576040517fcfb3b94200000000000000000000000000000000000000000000000000000000815260040160405180910390fd5b5b826006600084815260200190815260200160002060000160006101000a81548173ffffffffffffffffffffffffffffffffffffffff021916908373ffffffffffffffffffffffffffffffffffffffff160217905550818373ffffffffffffffffffffffffffffffffffffffff168273ffffffffffffffffffffffffffffffffffffffff167f8c5be1e5ebec7d5bd14f71427d1e84f3dd0314c0f7b2291e5b200ac8c7c3b92560405160405180910390a4505050565b6000610899611dc6565b6001546000540303905090565b60006108b182611dcf565b90508373ffffffffffffffffffffffffffffffffffffffff168173ffffffffffffffffffffffffffffffffffffffff1614610918576040517fa114810000000000000000000000000000000000000000000000000000000000815260040160405180910390fd5b60008061092484611e9d565b9150915061093a8187610935611dbe565b611ec4565b6109865761094f8661094a611dbe565b611c47565b610985576040517f59c896be00000000000000000000000000000000000000000000000000000000815260040160405180910390fd5b5b600073ffffffffffffffffffffffffffffffffffffffff168573ffffffffffffffffffffffffffffffffffffffff1614156109ed576040517fea553b3400000000000000000000000000000000000000000000000000000000815260040160405180910390fd5b6109fa8686866001611f08565b8015610a0557600082555b600560008773ffffffffffffffffffffffffffffffffffffffff1673ffffffffffffffffffffffffffffffffffffffff168152602001908152602001600020600081546001900391905081905550600560008673ffffffffffffffffffffffffffffffffffffffff1673ffffffffffffffffffffffffffffffffffffffff1681526020019081526020016000206000815460010191905081905550610ad385610aaf888887611f0e565b7c020000000000000000000000000000000000000000000000000000000017611f36565b600460008681526020019081526020016000208190555060007c020000000000000000000000000000000000000000000000000000000084161415610b5b576000600185019050600060046000838152602001908152602001600020541415610b59576000548114610b58578360046000838152602001908152602001600020819055505b5b505b838573ffffffffffffffffffffffffffffffffffffffff168773ffffffffffffffffffffffffffffffffffffffff167fddf252ad1be2c89b69c2b068fc378daa952ba7f163c4a11628f55a4df523b3ef60405160405180910390a4610bc38686866001611f61565b505050505050565b610be683838360405180602001604052806000815250611425565b505050565b6000600860149054906101000a900460ff16905090565b6000610c0d82611dcf565b9050919050565b60008073ffffffffffffffffffffffffffffffffffffffff168273ffffffffffffffffffffffffffffffffffffffff161415610c7c576040517f8f4eb60400000000000000000000000000000000000000000000000000000000815260040160405180910390fd5b67ffffffffffffffff600560008473ffffffffffffffffffffffffffffffffffffffff1673ffffffffffffffffffffffffffffffffffffffff16815260200190815260200160002054169050919050565b610cd5611f72565b610cdf6000611ff0565b565b60606000600e60008673ffffffffffffffffffffffffffffffffffffffff1673ffffffffffffffffffffffffffffffffffffffff168152602001908152602001600020805480602002602001604051908101604052809291908181526020018280548015610d6e57602002820191906000526020600020905b815481526020019060010190808311610d5a575b5050505050905080518410610d8257600093505b6000831480610d9c5750838151610d999190613588565b83115b15610db157838151610dae9190613588565b92505b60008367ffffffffffffffff811115610dcd57610dcc6130b5565b5b604051908082528060200260200182016040528015610e0657816020015b610df3612984565b815260200190600190039081610deb5790505b509050600082511415610e1d578092505050610fae565b6000805b85811015610fa657838188610e3691906135bc565b81518110610e4757610e46613612565b5b60200260200101519150600d60008381526020019081526020016000206040518060a001604052908160008201548152602001600182018054610e8990613527565b80601f0160208091040260200160405190810160405280929190818152602001828054610eb590613527565b8015610f025780601f10610ed757610100808354040283529160200191610f02565b820191906000526020600020905b815481529060010190602001808311610ee557829003601f168201915b5050505050815260200160028201548152602001600382015481526020016004820160009054906101000a900473ffffffffffffffffffffffffffffffffffffffff1673ffffffffffffffffffffffffffffffffffffffff1673ffffffffffffffffffffffffffffffffffffffff1681525050838281518110610f8857610f87613612565b5b60200260200101819052508080610f9e90613641565b915050610e21565b508193505050505b9392505050565b6000600860009054906101000a900473ffffffffffffffffffffffffffffffffffffffff16905090565b606060038054610fee90613527565b80601f016020809104026020016040519081016040528092919081815260200182805461101a90613527565b80156110675780601f1061103c57610100808354040283529160200191611067565b820191906000526020600020905b81548152906001019060200180831161104a57829003601f168201915b5050505050905090565b6060600061107d61088f565b9050600084148061108d57508084115b1561109757600193505b60008314806110b0575083816110ad9190613588565b83115b156110c45783816110c19190613588565b92505b60008367ffffffffffffffff8111156110e0576110df6130b5565b5b60405190808252806020026020018201604052801561111957816020015b611106612984565b8152602001906001900390816110fe5790505b509050600082141561112f5780925050506112a7565b60005b848110156112a0576000600d6000838961114c91906135bc565b81526020019081526020016000209050806040518060a00160405290816000820154815260200160018201805461118290613527565b80601f01602080910402602001604051908101604052809291908181526020018280546111ae90613527565b80156111fb5780601f106111d0576101008083540402835291602001916111fb565b820191906000526020600020905b8154815290600101906020018083116111de57829003601f168201915b5050505050815260200160028201548152602001600382015481526020016004820160009054906101000a900473ffffffffffffffffffffffffffffffffffffffff1673ffffffffffffffffffffffffffffffffffffffff1673ffffffffffffffffffffffffffffffffffffffff168152505083838151811061128157611280613612565b5b602002602001018190525050808061129890613641565b915050611132565b5080925050505b92915050565b6112b5611dbe565b73ffffffffffffffffffffffffffffffffffffffff168273ffffffffffffffffffffffffffffffffffffffff16141561131a576040517fb06307db00000000000000000000000000000000000000000000000000000000815260040160405180910390fd5b8060076000611327611dbe565b73ffffffffffffffffffffffffffffffffffffffff1673ffffffffffffffffffffffffffffffffffffffff16815260200190815260200160002060008473ffffffffffffffffffffffffffffffffffffffff1673ffffffffffffffffffffffffffffffffffffffff16815260200190815260200160002060006101000a81548160ff0219169083151502179055508173ffffffffffffffffffffffffffffffffffffffff166113d4611dbe565b73ffffffffffffffffffffffffffffffffffffffff167f17307eab39ab6107e8899845ad3d59bd9653f200f220920489ca2b5937696c31836040516114199190612b26565b60405180910390a35050565b6114308484846108a6565b60008373ffffffffffffffffffffffffffffffffffffffff163b146114925761145b848484846120b6565b611491576040517fd1a57ed600000000000000000000000000000000000000000000000000000000815260040160405180910390fd5b5b50505050565b600a60009054906101000a900473ffffffffffffffffffffffffffffffffffffffff1673ffffffffffffffffffffffffffffffffffffffff166114d9611dbe565b73ffffffffffffffffffffffffffffffffffffffff161461152f576040517f08c379a0000000000000000000000000000000000000000000000000000000008152600401611526906136fc565b60405180910390fd5b60026009541415611575576040517f08c379a000000000000000000000000000000000000000000000000000000000815260040161156c90613768565b60405180910390fd5b600260098190555061158682612216565b60208151106115ca576040517f08c379a00000000000000000000000000000000000000000000000000000000081526004016115c1906137d4565b60405180910390fd5b80600d600084815260200190815260200160002060010190805190602001906115f49291906129cf565b507f7a01d97180cb1a63fc0324e7fb74b4914563c02e6d0dbf5653ea4fb10bd0d19260405160405180910390a160016009819055505050565b606061163882611d5f565b61166e576040517fa14c4b5000000000000000000000000000000000000000000000000000000000815260040160405180910390fd5b60006116786122f6565b905060008151141561169957604051806020016040528060008152506116c4565b806116a384612388565b6040516020016116b4929190613830565b6040516020818303038152906040525b915050919050565b60026009541415611712576040517f08c379a000000000000000000000000000000000000000000000000000000000815260040161170990613768565b60405180910390fd5b6002600981905550611722611f72565b60003373ffffffffffffffffffffffffffffffffffffffff164760405161174890613885565b60006040518083038185875af1925050503d8060008114611785576040519150601f19603f3d011682016040523d82523d6000602084013e61178a565b606091505b50509050806117ce576040517f08c379a00000000000000000000000000000000000000000000000000000000081526004016117c5906138e6565b60405180910390fd5b506001600981905550565b600a60009054906101000a900473ffffffffffffffffffffffffffffffffffffffff1673ffffffffffffffffffffffffffffffffffffffff1661181a611dbe565b73ffffffffffffffffffffffffffffffffffffffff1614611870576040517f08c379a0000000000000000000000000000000000000000000000000000000008152600401611867906136fc565b60405180910390fd5b6118786123e2565b600260095414156118be576040517f08c379a00000000000000000000000000000000000000000000000000000000081526004016118b590613768565b60405180910390fd5b60026009819055506127106118d161088f565b10611911576040517f08c379a000000000000000000000000000000000000000000000000000000000815260040161190890613952565b60405180910390fd5b600061191b61242c565b9050611928846001612435565b6040518060a0016040528082815260200184848080601f016020809104026020016040519081016040528093929190818152602001838380828437600081840152601f19601f82011690508083019250505050505050815260200161198b612453565b8152602001611998612453565b81526020018573ffffffffffffffffffffffffffffffffffffffff16815250600d60008381526020019081526020016000206000820151816000015560208201518160010190805190602001906119f09291906129cf565b50604082015181600201556060820151816003015560808201518160040160006101000a81548173ffffffffffffffffffffffffffffffffffffffff021916908373ffffffffffffffffffffffffffffffffffffffff160217905550905050600e60003373ffffffffffffffffffffffffffffffffffffffff1673ffffffffffffffffffffffffffffffffffffffff1681526020019081526020016000208190806001815401808255809150506001900390600052602060002001600090919091909150557f2bd97f55f36ba4381547ce09e7c83bad49675c9c38a7c9096a31f20ac07dbf4e60405160405180910390a1506001600981905550505050565b611af7612984565b6000611b0161088f565b90506000831480611b1157508083115b15611b1b57600192505b600d60008481526020019081526020016000206040518060a001604052908160008201548152602001600182018054611b5390613527565b80601f0160208091040260200160405190810160405280929190818152602001828054611b7f90613527565b8015611bcc5780601f10611ba157610100808354040283529160200191611bcc565b820191906000526020600020905b815481529060010190602001808311611baf57829003601f168201915b5050505050815260200160028201548152602001600382015481526020016004820160009054906101000a900473ffffffffffffffffffffffffffffffffffffffff1673ffffffffffffffffffffffffffffffffffffffff1673ffffffffffffffffffffffffffffffffffffffff1681525050915050919050565b6000600760008473ffffffffffffffffffffffffffffffffffffffff1673ffffffffffffffffffffffffffffffffffffffff16815260200190815260200160002060008373ffffffffffffffffffffffffffffffffffffffff1673ffffffffffffffffffffffffffffffffffffffff16815260200190815260200160002060009054906101000a900460ff16905092915050565b611ce3611f72565b600073ffffffffffffffffffffffffffffffffffffffff168173ffffffffffffffffffffffffffffffffffffffff161415611d53576040517f08c379a0000000000000000000000000000000000000000000000000000000008152600401611d4a906139e4565b60405180910390fd5b611d5c81611ff0565b50565b600081611d6a611dc6565b11158015611d79575060005482105b8015611db7575060007c0100000000000000000000000000000000000000000000000000000000600460008581526020019081526020016000205416145b9050919050565b600033905090565b60006001905090565b60008082905080611dde611dc6565b11611e6657600054811015611e655760006004600083815260200190815260200160002054905060007c010000000000000000000000000000000000000000000000000000000082161415611e63575b6000811415611e59576004600083600190039350838152602001908152602001600020549050611e2e565b8092505050611e98565b505b5b6040517fdf2d9b4200000000000000000000000000000000000000000000000000000000815260040160405180910390fd5b919050565b60008060006006600085815260200190815260200160002090508092508254915050915091565b600073ffffffffffffffffffffffffffffffffffffffff8316925073ffffffffffffffffffffffffffffffffffffffff821691508382148383141790509392505050565b50505050565b60008060e883901c905060e8611f258686846124a6565b62ffffff16901b9150509392505050565b600073ffffffffffffffffffffffffffffffffffffffff83169250814260a01b178317905092915050565b611f6c8484846124af565b50505050565b611f7a612712565b73ffffffffffffffffffffffffffffffffffffffff16611f98610fb5565b73ffffffffffffffffffffffffffffffffffffffff1614611fee576040517f08c379a0000000000000000000000000000000000000000000000000000000008152600401611fe590613a50565b60405180910390fd5b565b6000600860009054906101000a900473ffffffffffffffffffffffffffffffffffffffff16905081600860006101000a81548173ffffffffffffffffffffffffffffffffffffffff021916908373ffffffffffffffffffffffffffffffffffffffff1602179055508173ffffffffffffffffffffffffffffffffffffffff168173ffffffffffffffffffffffffffffffffffffffff167f8be0079c531659141344cd1fd0a4f28419497f9722a3daafe3b4186f6b6457e060405160405180910390a35050565b60008373ffffffffffffffffffffffffffffffffffffffff1663150b7a026120dc611dbe565b8786866040518563ffffffff1660e01b81526004016120fe9493929190613ac5565b602060405180830381600087803b15801561211857600080fd5b505af192505050801561214957506040513d601f19601f820116820180604052508101906121469190613b26565b60015b6121c3573d8060008114612179576040519150601f19603f3d011682016040523d82523d6000602084013e61217e565b606091505b506000815114156121bb576040517fd1a57ed600000000000000000000000000000000000000000000000000000000815260040160405180910390fd5b805181602001fd5b63150b7a0260e01b7bffffffffffffffffffffffffffffffffffffffffffffffffffffffff1916817bffffffffffffffffffffffffffffffffffffffffffffffffffffffff191614915050949350505050565b6000600d6000838152602001908152602001600020600001541415612270576040517f08c379a000000000000000000000000000000000000000000000000000000000815260040161226790613b9f565b60405180910390fd5b600061227b82610c02565b90508073ffffffffffffffffffffffffffffffffffffffff1661229c611dbe565b73ffffffffffffffffffffffffffffffffffffffff16146122f2576040517f08c379a00000000000000000000000000000000000000000000000000000000081526004016122e990613c0b565b60405180910390fd5b5050565b6060600c805461230590613527565b80601f016020809104026020016040519081016040528092919081815260200182805461233190613527565b801561237e5780601f106123535761010080835404028352916020019161237e565b820191906000526020600020905b81548152906001019060200180831161236157829003601f168201915b5050505050905090565b60606080604051019050806040528082600183039250600a81066030018353600a810490505b80156123ce57600183039250600a81066030018353600a810490506123ae565b508181036020830392508083525050919050565b6123ea610beb565b1561242a576040517f08c379a000000000000000000000000000000000000000000000000000000000815260040161242190613c77565b60405180910390fd5b565b60008054905090565b61244f82826040518060200160405280600081525061271a565b5050565b600042436080436124649190613cc6565b4218610100436124749190613cc6565b42173360405160200161248b959493929190613d60565b60405160208183030381529060405280519060200120905090565b60009392505050565b81600d600083815260200190815260200160002060040160006101000a81548173ffffffffffffffffffffffffffffffffffffffff021916908373ffffffffffffffffffffffffffffffffffffffff160217905550600073ffffffffffffffffffffffffffffffffffffffff168373ffffffffffffffffffffffffffffffffffffffff16146126a757600e60008473ffffffffffffffffffffffffffffffffffffffff1673ffffffffffffffffffffffffffffffffffffffff1681526020019081526020016000206001600e60008673ffffffffffffffffffffffffffffffffffffffff1673ffffffffffffffffffffffffffffffffffffffff168152602001908152602001600020805490506125c69190613588565b815481106125d7576125d6613612565b5b9060005260206000200154600e60008573ffffffffffffffffffffffffffffffffffffffff1673ffffffffffffffffffffffffffffffffffffffff168152602001908152602001600020828154811061263357612632613612565b5b9060005260206000200181905550600e60008473ffffffffffffffffffffffffffffffffffffffff1673ffffffffffffffffffffffffffffffffffffffff1681526020019081526020016000208054806126905761268f613dbf565b5b600190038181906000526020600020016000905590555b600e60008373ffffffffffffffffffffffffffffffffffffffff1673ffffffffffffffffffffffffffffffffffffffff168152602001908152602001600020819080600181540180825580915050600190039060005260206000200160009091909190915055505050565b600033905090565b61272483836127b7565b60008373ffffffffffffffffffffffffffffffffffffffff163b146127b257600080549050600083820390505b61276460008683806001019450866120b6565b61279a576040517fd1a57ed600000000000000000000000000000000000000000000000000000000815260040160405180910390fd5b8181106127515781600054146127af57600080fd5b50505b505050565b60008054905060008214156127f8576040517fb562e8dd00000000000000000000000000000000000000000000000000000000815260040160405180910390fd5b6128056000848385611f08565b600160406001901b178202600560008573ffffffffffffffffffffffffffffffffffffffff1673ffffffffffffffffffffffffffffffffffffffff1681526020019081526020016000206000828254019250508190555061287c8361286d6000866000611f0e565b61287685612974565b17611f36565b6004600083815260200190815260200160002081905550600080838301905073ffffffffffffffffffffffffffffffffffffffff85169150828260007fddf252ad1be2c89b69c2b068fc378daa952ba7f163c4a11628f55a4df523b3ef600080a4600183015b81811461291d57808360007fddf252ad1be2c89b69c2b068fc378daa952ba7f163c4a11628f55a4df523b3ef600080a46001810190506128e2565b506000821415612959576040517f2e07630000000000000000000000000000000000000000000000000000000000815260040160405180910390fd5b80600081905550505061296f6000848385611f61565b505050565b60006001821460e11b9050919050565b6040518060a0016040528060008152602001606081526020016000801916815260200160008019168152602001600073ffffffffffffffffffffffffffffffffffffffff1681525090565b8280546129db90613527565b90600052602060002090601f0160209004810192826129fd5760008555612a44565b82601f10612a1657805160ff1916838001178555612a44565b82800160010185558215612a44579182015b82811115612a43578251825591602001919060010190612a28565b5b509050612a519190612a55565b5090565b5b80821115612a6e576000816000905550600101612a56565b5090565b6000604051905090565b600080fd5b600080fd5b60007fffffffff0000000000000000000000000000000000000000000000000000000082169050919050565b612abb81612a86565b8114612ac657600080fd5b50565b600081359050612ad881612ab2565b92915050565b600060208284031215612af457612af3612a7c565b5b6000612b0284828501612ac9565b91505092915050565b60008115159050919050565b612b2081612b0b565b82525050565b6000602082019050612b3b6000830184612b17565b92915050565b600081519050919050565b600082825260208201905092915050565b60005b83811015612b7b578082015181840152602081019050612b60565b83811115612b8a576000848401525b50505050565b6000601f19601f8301169050919050565b6000612bac82612b41565b612bb68185612b4c565b9350612bc6818560208601612b5d565b612bcf81612b90565b840191505092915050565b60006020820190508181036000830152612bf48184612ba1565b905092915050565b6000819050919050565b612c0f81612bfc565b8114612c1a57600080fd5b50565b600081359050612c2c81612c06565b92915050565b600060208284031215612c4857612c47612a7c565b5b6000612c5684828501612c1d565b91505092915050565b600073ffffffffffffffffffffffffffffffffffffffff82169050919050565b6000612c8a82612c5f565b9050919050565b612c9a81612c7f565b82525050565b6000602082019050612cb56000830184612c91565b92915050565b612cc481612c7f565b8114612ccf57600080fd5b50565b600081359050612ce181612cbb565b92915050565b60008060408385031215612cfe57612cfd612a7c565b5b6000612d0c85828601612cd2565b9250506020612d1d85828601612c1d565b9150509250929050565b612d3081612bfc565b82525050565b6000602082019050612d4b6000830184612d27565b92915050565b600080600060608486031215612d6a57612d69612a7c565b5b6000612d7886828701612cd2565b9350506020612d8986828701612cd2565b9250506040612d9a86828701612c1d565b9150509250925092565b600060208284031215612dba57612db9612a7c565b5b6000612dc884828501612cd2565b91505092915050565b600080600060608486031215612dea57612de9612a7c565b5b6000612df886828701612cd2565b9350506020612e0986828701612c1d565b9250506040612e1a86828701612c1d565b9150509250925092565b600081519050919050565b600082825260208201905092915050565b6000819050602082019050919050565b612e5981612bfc565b82525050565b600082825260208201905092915050565b6000612e7b82612b41565b612e858185612e5f565b9350612e95818560208601612b5d565b612e9e81612b90565b840191505092915050565b6000819050919050565b612ebc81612ea9565b82525050565b612ecb81612c7f565b82525050565b600060a083016000830151612ee96000860182612e50565b5060208301518482036020860152612f018282612e70565b9150506040830151612f166040860182612eb3565b506060830151612f296060860182612eb3565b506080830151612f3c6080860182612ec2565b508091505092915050565b6000612f538383612ed1565b905092915050565b6000602082019050919050565b6000612f7382612e24565b612f7d8185612e2f565b935083602082028501612f8f85612e40565b8060005b85811015612fcb5784840389528151612fac8582612f47565b9450612fb783612f5b565b925060208a01995050600181019050612f93565b50829750879550505050505092915050565b60006020820190508181036000830152612ff78184612f68565b905092915050565b6000806040838503121561301657613015612a7c565b5b600061302485828601612c1d565b925050602061303585828601612c1d565b9150509250929050565b61304881612b0b565b811461305357600080fd5b50565b6000813590506130658161303f565b92915050565b6000806040838503121561308257613081612a7c565b5b600061309085828601612cd2565b92505060206130a185828601613056565b9150509250929050565b600080fd5b600080fd5b7f4e487b7100000000000000000000000000000000000000000000000000000000600052604160045260246000fd5b6130ed82612b90565b810181811067ffffffffffffffff8211171561310c5761310b6130b5565b5b80604052505050565b600061311f612a72565b905061312b82826130e4565b919050565b600067ffffffffffffffff82111561314b5761314a6130b5565b5b61315482612b90565b9050602081019050919050565b82818337600083830152505050565b600061318361317e84613130565b613115565b90508281526020810184848401111561319f5761319e6130b0565b5b6131aa848285613161565b509392505050565b600082601f8301126131c7576131c66130ab565b5b81356131d7848260208601613170565b91505092915050565b600080600080608085870312156131fa576131f9612a7c565b5b600061320887828801612cd2565b945050602061321987828801612cd2565b935050604061322a87828801612c1d565b925050606085013567ffffffffffffffff81111561324b5761324a612a81565b5b613257878288016131b2565b91505092959194509250565b600067ffffffffffffffff82111561327e5761327d6130b5565b5b61328782612b90565b9050602081019050919050565b60006132a76132a284613263565b613115565b9050828152602081018484840111156132c3576132c26130b0565b5b6132ce848285613161565b509392505050565b600082601f8301126132eb576132ea6130ab565b5b81356132fb848260208601613294565b91505092915050565b6000806040838503121561331b5761331a612a7c565b5b600061332985828601612c1d565b925050602083013567ffffffffffffffff81111561334a57613349612a81565b5b613356858286016132d6565b9150509250929050565b600080fd5b600080fd5b60008083601f8401126133805761337f6130ab565b5b8235905067ffffffffffffffff81111561339d5761339c613360565b5b6020830191508360018202830111156133b9576133b8613365565b5b9250929050565b6000806000604084860312156133d9576133d8612a7c565b5b60006133e786828701612cd2565b935050602084013567ffffffffffffffff81111561340857613407612a81565b5b6134148682870161336a565b92509250509250925092565b600060a0830160008301516134386000860182612e50565b50602083015184820360208601526134508282612e70565b91505060408301516134656040860182612eb3565b5060608301516134786060860182612eb3565b50608083015161348b6080860182612ec2565b508091505092915050565b600060208201905081810360008301526134b08184613420565b905092915050565b600080604083850312156134cf576134ce612a7c565b5b60006134dd85828601612cd2565b92505060206134ee85828601612cd2565b9150509250929050565b7f4e487b7100000000000000000000000000000000000000000000000000000000600052602260045260246000fd5b6000600282049050600182168061353f57607f821691505b60208210811415613553576135526134f8565b5b50919050565b7f4e487b7100000000000000000000000000000000000000000000000000000000600052601160045260246000fd5b600061359382612bfc565b915061359e83612bfc565b9250828210156135b1576135b0613559565b5b828203905092915050565b60006135c782612bfc565b91506135d283612bfc565b9250827fffffffffffffffffffffffffffffffffffffffffffffffffffffffffffffffff0382111561360757613606613559565b5b828201905092915050565b7f4e487b7100000000000000000000000000000000000000000000000000000000600052603260045260246000fd5b600061364c82612bfc565b91507fffffffffffffffffffffffffffffffffffffffffffffffffffffffffffffffff82141561367f5761367e613559565b5b600182019050919050565b7f53454e4445525f4e4f545f5448455f434f4e54524f4c4c45525f41444452455360008201527f5300000000000000000000000000000000000000000000000000000000000000602082015250565b60006136e6602183612b4c565b91506136f18261368a565b604082019050919050565b60006020820190508181036000830152613715816136d9565b9050919050565b7f5265656e7472616e637947756172643a207265656e7472616e742063616c6c00600082015250565b6000613752601f83612b4c565b915061375d8261371c565b602082019050919050565b6000602082019050818103600083015261378181613745565b9050919050565b7f4e414d455f544f4f5f4c4f4e4700000000000000000000000000000000000000600082015250565b60006137be600d83612b4c565b91506137c982613788565b602082019050919050565b600060208201905081810360008301526137ed816137b1565b9050919050565b600081905092915050565b600061380a82612b41565b61381481856137f4565b9350613824818560208601612b5d565b80840191505092915050565b600061383c82856137ff565b915061384882846137ff565b91508190509392505050565b600081905092915050565b50565b600061386f600083613854565b915061387a8261385f565b600082019050919050565b600061389082613862565b9150819050919050565b7f54524541535552595f5452414e534645525f4641494c45440000000000000000600082015250565b60006138d0601883612b4c565b91506138db8261389a565b602082019050919050565b600060208201905081810360008301526138ff816138c3565b9050919050565b7f4d494e5445445f4f555400000000000000000000000000000000000000000000600082015250565b600061393c600a83612b4c565b915061394782613906565b602082019050919050565b6000602082019050818103600083015261396b8161392f565b9050919050565b7f4f776e61626c653a206e6577206f776e657220697320746865207a65726f206160008201527f6464726573730000000000000000000000000000000000000000000000000000602082015250565b60006139ce602683612b4c565b91506139d982613972565b604082019050919050565b600060208201905081810360008301526139fd816139c1565b9050919050565b7f4f776e61626c653a2063616c6c6572206973206e6f7420746865206f776e6572600082015250565b6000613a3a602083612b4c565b9150613a4582613a04565b602082019050919050565b60006020820190508181036000830152613a6981613a2d565b9050919050565b600081519050919050565b600082825260208201905092915050565b6000613a9782613a70565b613aa18185613a7b565b9350613ab1818560208601612b5d565b613aba81612b90565b840191505092915050565b6000608082019050613ada6000830187612c91565b613ae76020830186612c91565b613af46040830185612d27565b8181036060830152613b068184613a8c565b905095945050505050565b600081519050613b2081612ab2565b92915050565b600060208284031215613b3c57613b3b612a7c565b5b6000613b4a84828501613b11565b91505092915050565b7f544f4b454e5f444f45535f4e4f545f4558495354000000000000000000000000600082015250565b6000613b89601483612b4c565b9150613b9482613b53565b602082019050919050565b60006020820190508181036000830152613bb881613b7c565b9050919050565b7f53454e4445525f4e4f545f544f4b454e5f4f574e455200000000000000000000600082015250565b6000613bf5601683612b4c565b9150613c0082613bbf565b602082019050919050565b60006020820190508181036000830152613c2481613be8565b9050919050565b7f5061757361626c653a2070617573656400000000000000000000000000000000600082015250565b6000613c61601083612b4c565b9150613c6c82613c2b565b602082019050919050565b60006020820190508181036000830152613c9081613c54565b9050919050565b7f4e487b7100000000000000000000000000000000000000000000000000000000600052601260045260246000fd5b6000613cd182612bfc565b9150613cdc83612bfc565b925082613cec57613ceb613c97565b5b828206905092915050565b6000819050919050565b613d12613d0d82612bfc565b613cf7565b82525050565b60008160601b9050919050565b6000613d3082613d18565b9050919050565b6000613d4282613d25565b9050919050565b613d5a613d5582612c7f565b613d37565b82525050565b6000613d6c8288613d01565b602082019150613d7c8287613d01565b602082019150613d8c8286613d01565b602082019150613d9c8285613d01565b602082019150613dac8284613d49565b6014820191508190509695505050505050565b7f4e487b7100000000000000000000000000000000000000000000000000000000600052603160045260246000fdfea26469706673582212207d7927c3175b5ccf90fd702e4d0cc6c12cc882db2b453d5fd5111351acb1a39a64736f6c63430008090033",
          "opcodes": "PUSH1 0x80 PUSH1 0x40 MSTORE CALLVALUE DUP1 ISZERO PUSH3 0x11 JUMPI PUSH1 0x0 DUP1 REVERT JUMPDEST POP PUSH1 0x40 MLOAD PUSH3 0x4284 CODESIZE SUB DUP1 PUSH3 0x4284 DUP4 CODECOPY DUP2 DUP2 ADD PUSH1 0x40 MSTORE DUP2 ADD SWAP1 PUSH3 0x37 SWAP2 SWAP1 PUSH3 0x3B9 JUMP JUMPDEST PUSH1 0x40 MLOAD DUP1 PUSH1 0x40 ADD PUSH1 0x40 MSTORE DUP1 PUSH1 0xA DUP2 MSTORE PUSH1 0x20 ADD PUSH32 0x426C756520447265616D00000000000000000000000000000000000000000000 DUP2 MSTORE POP PUSH1 0x40 MLOAD DUP1 PUSH1 0x40 ADD PUSH1 0x40 MSTORE DUP1 PUSH1 0x2 DUP2 MSTORE PUSH1 0x20 ADD PUSH32 0x4D55000000000000000000000000000000000000000000000000000000000000 DUP2 MSTORE POP DUP2 PUSH1 0x2 SWAP1 DUP1 MLOAD SWAP1 PUSH1 0x20 ADD SWAP1 PUSH3 0xBB SWAP3 SWAP2 SWAP1 PUSH3 0x29F JUMP JUMPDEST POP DUP1 PUSH1 0x3 SWAP1 DUP1 MLOAD SWAP1 PUSH1 0x20 ADD SWAP1 PUSH3 0xD4 SWAP3 SWAP2 SWAP1 PUSH3 0x29F JUMP JUMPDEST POP PUSH3 0xE5 PUSH3 0x1C8 PUSH1 0x20 SHL PUSH1 0x20 SHR JUMP JUMPDEST PUSH1 0x0 DUP2 SWAP1 SSTORE POP POP POP PUSH3 0x10D PUSH3 0x101 PUSH3 0x1D1 PUSH1 0x20 SHL PUSH1 0x20 SHR JUMP JUMPDEST PUSH3 0x1D9 PUSH1 0x20 SHL PUSH1 0x20 SHR JUMP JUMPDEST PUSH1 0x0 PUSH1 0x8 PUSH1 0x14 PUSH2 0x100 EXP DUP2 SLOAD DUP2 PUSH1 0xFF MUL NOT AND SWAP1 DUP4 ISZERO ISZERO MUL OR SWAP1 SSTORE POP PUSH1 0x1 PUSH1 0x9 DUP2 SWAP1 SSTORE POP DUP1 PUSH1 0xA PUSH1 0x0 PUSH2 0x100 EXP DUP2 SLOAD DUP2 PUSH20 0xFFFFFFFFFFFFFFFFFFFFFFFFFFFFFFFFFFFFFFFF MUL NOT AND SWAP1 DUP4 PUSH20 0xFFFFFFFFFFFFFFFFFFFFFFFFFFFFFFFFFFFFFFFF AND MUL OR SWAP1 SSTORE POP PUSH1 0x40 MLOAD DUP1 PUSH1 0x20 ADD PUSH1 0x40 MSTORE DUP1 PUSH1 0x0 DUP2 MSTORE POP PUSH1 0xB SWAP1 DUP1 MLOAD SWAP1 PUSH1 0x20 ADD SWAP1 PUSH3 0x198 SWAP3 SWAP2 SWAP1 PUSH3 0x29F JUMP JUMPDEST POP PUSH1 0x40 MLOAD DUP1 PUSH1 0x20 ADD PUSH1 0x40 MSTORE DUP1 PUSH1 0x0 DUP2 MSTORE POP PUSH1 0xC SWAP1 DUP1 MLOAD SWAP1 PUSH1 0x20 ADD SWAP1 PUSH3 0x1C0 SWAP3 SWAP2 SWAP1 PUSH3 0x29F JUMP JUMPDEST POP POP PUSH3 0x450 JUMP JUMPDEST PUSH1 0x0 PUSH1 0x1 SWAP1 POP SWAP1 JUMP JUMPDEST PUSH1 0x0 CALLER SWAP1 POP SWAP1 JUMP JUMPDEST PUSH1 0x0 PUSH1 0x8 PUSH1 0x0 SWAP1 SLOAD SWAP1 PUSH2 0x100 EXP SWAP1 DIV PUSH20 0xFFFFFFFFFFFFFFFFFFFFFFFFFFFFFFFFFFFFFFFF AND SWAP1 POP DUP2 PUSH1 0x8 PUSH1 0x0 PUSH2 0x100 EXP DUP2 SLOAD DUP2 PUSH20 0xFFFFFFFFFFFFFFFFFFFFFFFFFFFFFFFFFFFFFFFF MUL NOT AND SWAP1 DUP4 PUSH20 0xFFFFFFFFFFFFFFFFFFFFFFFFFFFFFFFFFFFFFFFF AND MUL OR SWAP1 SSTORE POP DUP2 PUSH20 0xFFFFFFFFFFFFFFFFFFFFFFFFFFFFFFFFFFFFFFFF AND DUP2 PUSH20 0xFFFFFFFFFFFFFFFFFFFFFFFFFFFFFFFFFFFFFFFF AND PUSH32 0x8BE0079C531659141344CD1FD0A4F28419497F9722A3DAAFE3B4186F6B6457E0 PUSH1 0x40 MLOAD PUSH1 0x40 MLOAD DUP1 SWAP2 SUB SWAP1 LOG3 POP POP JUMP JUMPDEST DUP3 DUP1 SLOAD PUSH3 0x2AD SWAP1 PUSH3 0x41A JUMP JUMPDEST SWAP1 PUSH1 0x0 MSTORE PUSH1 0x20 PUSH1 0x0 KECCAK256 SWAP1 PUSH1 0x1F ADD PUSH1 0x20 SWAP1 DIV DUP2 ADD SWAP3 DUP3 PUSH3 0x2D1 JUMPI PUSH1 0x0 DUP6 SSTORE PUSH3 0x31D JUMP JUMPDEST DUP3 PUSH1 0x1F LT PUSH3 0x2EC JUMPI DUP1 MLOAD PUSH1 0xFF NOT AND DUP4 DUP1 ADD OR DUP6 SSTORE PUSH3 0x31D JUMP JUMPDEST DUP3 DUP1 ADD PUSH1 0x1 ADD DUP6 SSTORE DUP3 ISZERO PUSH3 0x31D JUMPI SWAP2 DUP3 ADD JUMPDEST DUP3 DUP2 GT ISZERO PUSH3 0x31C JUMPI DUP3 MLOAD DUP3 SSTORE SWAP2 PUSH1 0x20 ADD SWAP2 SWAP1 PUSH1 0x1 ADD SWAP1 PUSH3 0x2FF JUMP JUMPDEST JUMPDEST POP SWAP1 POP PUSH3 0x32C SWAP2 SWAP1 PUSH3 0x330 JUMP JUMPDEST POP SWAP1 JUMP JUMPDEST JUMPDEST DUP1 DUP3 GT ISZERO PUSH3 0x34B JUMPI PUSH1 0x0 DUP2 PUSH1 0x0 SWAP1 SSTORE POP PUSH1 0x1 ADD PUSH3 0x331 JUMP JUMPDEST POP SWAP1 JUMP JUMPDEST PUSH1 0x0 DUP1 REVERT JUMPDEST PUSH1 0x0 PUSH20 0xFFFFFFFFFFFFFFFFFFFFFFFFFFFFFFFFFFFFFFFF DUP3 AND SWAP1 POP SWAP2 SWAP1 POP JUMP JUMPDEST PUSH1 0x0 PUSH3 0x381 DUP3 PUSH3 0x354 JUMP JUMPDEST SWAP1 POP SWAP2 SWAP1 POP JUMP JUMPDEST PUSH3 0x393 DUP2 PUSH3 0x374 JUMP JUMPDEST DUP2 EQ PUSH3 0x39F JUMPI PUSH1 0x0 DUP1 REVERT JUMPDEST POP JUMP JUMPDEST PUSH1 0x0 DUP2 MLOAD SWAP1 POP PUSH3 0x3B3 DUP2 PUSH3 0x388 JUMP JUMPDEST SWAP3 SWAP2 POP POP JUMP JUMPDEST PUSH1 0x0 PUSH1 0x20 DUP3 DUP5 SUB SLT ISZERO PUSH3 0x3D2 JUMPI PUSH3 0x3D1 PUSH3 0x34F JUMP JUMPDEST JUMPDEST PUSH1 0x0 PUSH3 0x3E2 DUP5 DUP3 DUP6 ADD PUSH3 0x3A2 JUMP JUMPDEST SWAP2 POP POP SWAP3 SWAP2 POP POP JUMP JUMPDEST PUSH32 0x4E487B7100000000000000000000000000000000000000000000000000000000 PUSH1 0x0 MSTORE PUSH1 0x22 PUSH1 0x4 MSTORE PUSH1 0x24 PUSH1 0x0 REVERT JUMPDEST PUSH1 0x0 PUSH1 0x2 DUP3 DIV SWAP1 POP PUSH1 0x1 DUP3 AND DUP1 PUSH3 0x433 JUMPI PUSH1 0x7F DUP3 AND SWAP2 POP JUMPDEST PUSH1 0x20 DUP3 LT DUP2 EQ ISZERO PUSH3 0x44A JUMPI PUSH3 0x449 PUSH3 0x3EB JUMP JUMPDEST JUMPDEST POP SWAP2 SWAP1 POP JUMP JUMPDEST PUSH2 0x3E24 DUP1 PUSH3 0x460 PUSH1 0x0 CODECOPY PUSH1 0x0 RETURN INVALID PUSH1 0x80 PUSH1 0x40 MSTORE PUSH1 0x4 CALLDATASIZE LT PUSH2 0x14B JUMPI PUSH1 0x0 CALLDATALOAD PUSH1 0xE0 SHR DUP1 PUSH4 0x8DA5CB5B GT PUSH2 0xB6 JUMPI DUP1 PUSH4 0xC87B56DD GT PUSH2 0x6F JUMPI DUP1 PUSH4 0xC87B56DD EQ PUSH2 0x495 JUMPI DUP1 PUSH4 0xD0D0ED05 EQ PUSH2 0x4D2 JUMPI DUP1 PUSH4 0xD0DEF521 EQ PUSH2 0x4E9 JUMPI DUP1 PUSH4 0xE4B50CB8 EQ PUSH2 0x505 JUMPI DUP1 PUSH4 0xE985E9C5 EQ PUSH2 0x542 JUMPI DUP1 PUSH4 0xF2FDE38B EQ PUSH2 0x57F JUMPI PUSH2 0x14B JUMP JUMPDEST DUP1 PUSH4 0x8DA5CB5B EQ PUSH2 0x394 JUMPI DUP1 PUSH4 0x95D89B41 EQ PUSH2 0x3BF JUMPI DUP1 PUSH4 0x9A043832 EQ PUSH2 0x3EA JUMPI DUP1 PUSH4 0xA22CB465 EQ PUSH2 0x427 JUMPI DUP1 PUSH4 0xB88D4FDE EQ PUSH2 0x450 JUMPI DUP1 PUSH4 0xC39CBEF1 EQ PUSH2 0x479 JUMPI PUSH2 0x14B JUMP JUMPDEST DUP1 PUSH4 0x42842E0E GT PUSH2 0x108 JUMPI DUP1 PUSH4 0x42842E0E EQ PUSH2 0x272 JUMPI DUP1 PUSH4 0x5C975ABB EQ PUSH2 0x29B JUMPI DUP1 PUSH4 0x6352211E EQ PUSH2 0x2C6 JUMPI DUP1 PUSH4 0x70A08231 EQ PUSH2 0x303 JUMPI DUP1 PUSH4 0x715018A6 EQ PUSH2 0x340 JUMPI DUP1 PUSH4 0x89EDC438 EQ PUSH2 0x357 JUMPI PUSH2 0x14B JUMP JUMPDEST DUP1 PUSH4 0x1FFC9A7 EQ PUSH2 0x150 JUMPI DUP1 PUSH4 0x6FDDE03 EQ PUSH2 0x18D JUMPI DUP1 PUSH4 0x81812FC EQ PUSH2 0x1B8 JUMPI DUP1 PUSH4 0x95EA7B3 EQ PUSH2 0x1F5 JUMPI DUP1 PUSH4 0x18160DDD EQ PUSH2 0x21E JUMPI DUP1 PUSH4 0x23B872DD EQ PUSH2 0x249 JUMPI JUMPDEST PUSH1 0x0 DUP1 REVERT JUMPDEST CALLVALUE DUP1 ISZERO PUSH2 0x15C JUMPI PUSH1 0x0 DUP1 REVERT JUMPDEST POP PUSH2 0x177 PUSH1 0x4 DUP1 CALLDATASIZE SUB DUP2 ADD SWAP1 PUSH2 0x172 SWAP2 SWAP1 PUSH2 0x2ADE JUMP JUMPDEST PUSH2 0x5A8 JUMP JUMPDEST PUSH1 0x40 MLOAD PUSH2 0x184 SWAP2 SWAP1 PUSH2 0x2B26 JUMP JUMPDEST PUSH1 0x40 MLOAD DUP1 SWAP2 SUB SWAP1 RETURN JUMPDEST CALLVALUE DUP1 ISZERO PUSH2 0x199 JUMPI PUSH1 0x0 DUP1 REVERT JUMPDEST POP PUSH2 0x1A2 PUSH2 0x63A JUMP JUMPDEST PUSH1 0x40 MLOAD PUSH2 0x1AF SWAP2 SWAP1 PUSH2 0x2BDA JUMP JUMPDEST PUSH1 0x40 MLOAD DUP1 SWAP2 SUB SWAP1 RETURN JUMPDEST CALLVALUE DUP1 ISZERO PUSH2 0x1C4 JUMPI PUSH1 0x0 DUP1 REVERT JUMPDEST POP PUSH2 0x1DF PUSH1 0x4 DUP1 CALLDATASIZE SUB DUP2 ADD SWAP1 PUSH2 0x1DA SWAP2 SWAP1 PUSH2 0x2C32 JUMP JUMPDEST PUSH2 0x6CC JUMP JUMPDEST PUSH1 0x40 MLOAD PUSH2 0x1EC SWAP2 SWAP1 PUSH2 0x2CA0 JUMP JUMPDEST PUSH1 0x40 MLOAD DUP1 SWAP2 SUB SWAP1 RETURN JUMPDEST CALLVALUE DUP1 ISZERO PUSH2 0x201 JUMPI PUSH1 0x0 DUP1 REVERT JUMPDEST POP PUSH2 0x21C PUSH1 0x4 DUP1 CALLDATASIZE SUB DUP2 ADD SWAP1 PUSH2 0x217 SWAP2 SWAP1 PUSH2 0x2CE7 JUMP JUMPDEST PUSH2 0x74B JUMP JUMPDEST STOP JUMPDEST CALLVALUE DUP1 ISZERO PUSH2 0x22A JUMPI PUSH1 0x0 DUP1 REVERT JUMPDEST POP PUSH2 0x233 PUSH2 0x88F JUMP JUMPDEST PUSH1 0x40 MLOAD PUSH2 0x240 SWAP2 SWAP1 PUSH2 0x2D36 JUMP JUMPDEST PUSH1 0x40 MLOAD DUP1 SWAP2 SUB SWAP1 RETURN JUMPDEST CALLVALUE DUP1 ISZERO PUSH2 0x255 JUMPI PUSH1 0x0 DUP1 REVERT JUMPDEST POP PUSH2 0x270 PUSH1 0x4 DUP1 CALLDATASIZE SUB DUP2 ADD SWAP1 PUSH2 0x26B SWAP2 SWAP1 PUSH2 0x2D51 JUMP JUMPDEST PUSH2 0x8A6 JUMP JUMPDEST STOP JUMPDEST CALLVALUE DUP1 ISZERO PUSH2 0x27E JUMPI PUSH1 0x0 DUP1 REVERT JUMPDEST POP PUSH2 0x299 PUSH1 0x4 DUP1 CALLDATASIZE SUB DUP2 ADD SWAP1 PUSH2 0x294 SWAP2 SWAP1 PUSH2 0x2D51 JUMP JUMPDEST PUSH2 0xBCB JUMP JUMPDEST STOP JUMPDEST CALLVALUE DUP1 ISZERO PUSH2 0x2A7 JUMPI PUSH1 0x0 DUP1 REVERT JUMPDEST POP PUSH2 0x2B0 PUSH2 0xBEB JUMP JUMPDEST PUSH1 0x40 MLOAD PUSH2 0x2BD SWAP2 SWAP1 PUSH2 0x2B26 JUMP JUMPDEST PUSH1 0x40 MLOAD DUP1 SWAP2 SUB SWAP1 RETURN JUMPDEST CALLVALUE DUP1 ISZERO PUSH2 0x2D2 JUMPI PUSH1 0x0 DUP1 REVERT JUMPDEST POP PUSH2 0x2ED PUSH1 0x4 DUP1 CALLDATASIZE SUB DUP2 ADD SWAP1 PUSH2 0x2E8 SWAP2 SWAP1 PUSH2 0x2C32 JUMP JUMPDEST PUSH2 0xC02 JUMP JUMPDEST PUSH1 0x40 MLOAD PUSH2 0x2FA SWAP2 SWAP1 PUSH2 0x2CA0 JUMP JUMPDEST PUSH1 0x40 MLOAD DUP1 SWAP2 SUB SWAP1 RETURN JUMPDEST CALLVALUE DUP1 ISZERO PUSH2 0x30F JUMPI PUSH1 0x0 DUP1 REVERT JUMPDEST POP PUSH2 0x32A PUSH1 0x4 DUP1 CALLDATASIZE SUB DUP2 ADD SWAP1 PUSH2 0x325 SWAP2 SWAP1 PUSH2 0x2DA4 JUMP JUMPDEST PUSH2 0xC14 JUMP JUMPDEST PUSH1 0x40 MLOAD PUSH2 0x337 SWAP2 SWAP1 PUSH2 0x2D36 JUMP JUMPDEST PUSH1 0x40 MLOAD DUP1 SWAP2 SUB SWAP1 RETURN JUMPDEST CALLVALUE DUP1 ISZERO PUSH2 0x34C JUMPI PUSH1 0x0 DUP1 REVERT JUMPDEST POP PUSH2 0x355 PUSH2 0xCCD JUMP JUMPDEST STOP JUMPDEST CALLVALUE DUP1 ISZERO PUSH2 0x363 JUMPI PUSH1 0x0 DUP1 REVERT JUMPDEST POP PUSH2 0x37E PUSH1 0x4 DUP1 CALLDATASIZE SUB DUP2 ADD SWAP1 PUSH2 0x379 SWAP2 SWAP1 PUSH2 0x2DD1 JUMP JUMPDEST PUSH2 0xCE1 JUMP JUMPDEST PUSH1 0x40 MLOAD PUSH2 0x38B SWAP2 SWAP1 PUSH2 0x2FDD JUMP JUMPDEST PUSH1 0x40 MLOAD DUP1 SWAP2 SUB SWAP1 RETURN JUMPDEST CALLVALUE DUP1 ISZERO PUSH2 0x3A0 JUMPI PUSH1 0x0 DUP1 REVERT JUMPDEST POP PUSH2 0x3A9 PUSH2 0xFB5 JUMP JUMPDEST PUSH1 0x40 MLOAD PUSH2 0x3B6 SWAP2 SWAP1 PUSH2 0x2CA0 JUMP JUMPDEST PUSH1 0x40 MLOAD DUP1 SWAP2 SUB SWAP1 RETURN JUMPDEST CALLVALUE DUP1 ISZERO PUSH2 0x3CB JUMPI PUSH1 0x0 DUP1 REVERT JUMPDEST POP PUSH2 0x3D4 PUSH2 0xFDF JUMP JUMPDEST PUSH1 0x40 MLOAD PUSH2 0x3E1 SWAP2 SWAP1 PUSH2 0x2BDA JUMP JUMPDEST PUSH1 0x40 MLOAD DUP1 SWAP2 SUB SWAP1 RETURN JUMPDEST CALLVALUE DUP1 ISZERO PUSH2 0x3F6 JUMPI PUSH1 0x0 DUP1 REVERT JUMPDEST POP PUSH2 0x411 PUSH1 0x4 DUP1 CALLDATASIZE SUB DUP2 ADD SWAP1 PUSH2 0x40C SWAP2 SWAP1 PUSH2 0x2FFF JUMP JUMPDEST PUSH2 0x1071 JUMP JUMPDEST PUSH1 0x40 MLOAD PUSH2 0x41E SWAP2 SWAP1 PUSH2 0x2FDD JUMP JUMPDEST PUSH1 0x40 MLOAD DUP1 SWAP2 SUB SWAP1 RETURN JUMPDEST CALLVALUE DUP1 ISZERO PUSH2 0x433 JUMPI PUSH1 0x0 DUP1 REVERT JUMPDEST POP PUSH2 0x44E PUSH1 0x4 DUP1 CALLDATASIZE SUB DUP2 ADD SWAP1 PUSH2 0x449 SWAP2 SWAP1 PUSH2 0x306B JUMP JUMPDEST PUSH2 0x12AD JUMP JUMPDEST STOP JUMPDEST CALLVALUE DUP1 ISZERO PUSH2 0x45C JUMPI PUSH1 0x0 DUP1 REVERT JUMPDEST POP PUSH2 0x477 PUSH1 0x4 DUP1 CALLDATASIZE SUB DUP2 ADD SWAP1 PUSH2 0x472 SWAP2 SWAP1 PUSH2 0x31E0 JUMP JUMPDEST PUSH2 0x1425 JUMP JUMPDEST STOP JUMPDEST PUSH2 0x493 PUSH1 0x4 DUP1 CALLDATASIZE SUB DUP2 ADD SWAP1 PUSH2 0x48E SWAP2 SWAP1 PUSH2 0x3304 JUMP JUMPDEST PUSH2 0x1498 JUMP JUMPDEST STOP JUMPDEST CALLVALUE DUP1 ISZERO PUSH2 0x4A1 JUMPI PUSH1 0x0 DUP1 REVERT JUMPDEST POP PUSH2 0x4BC PUSH1 0x4 DUP1 CALLDATASIZE SUB DUP2 ADD SWAP1 PUSH2 0x4B7 SWAP2 SWAP1 PUSH2 0x2C32 JUMP JUMPDEST PUSH2 0x162D JUMP JUMPDEST PUSH1 0x40 MLOAD PUSH2 0x4C9 SWAP2 SWAP1 PUSH2 0x2BDA JUMP JUMPDEST PUSH1 0x40 MLOAD DUP1 SWAP2 SUB SWAP1 RETURN JUMPDEST CALLVALUE DUP1 ISZERO PUSH2 0x4DE JUMPI PUSH1 0x0 DUP1 REVERT JUMPDEST POP PUSH2 0x4E7 PUSH2 0x16CC JUMP JUMPDEST STOP JUMPDEST PUSH2 0x503 PUSH1 0x4 DUP1 CALLDATASIZE SUB DUP2 ADD SWAP1 PUSH2 0x4FE SWAP2 SWAP1 PUSH2 0x33C0 JUMP JUMPDEST PUSH2 0x17D9 JUMP JUMPDEST STOP JUMPDEST CALLVALUE DUP1 ISZERO PUSH2 0x511 JUMPI PUSH1 0x0 DUP1 REVERT JUMPDEST POP PUSH2 0x52C PUSH1 0x4 DUP1 CALLDATASIZE SUB DUP2 ADD SWAP1 PUSH2 0x527 SWAP2 SWAP1 PUSH2 0x2C32 JUMP JUMPDEST PUSH2 0x1AEF JUMP JUMPDEST PUSH1 0x40 MLOAD PUSH2 0x539 SWAP2 SWAP1 PUSH2 0x3496 JUMP JUMPDEST PUSH1 0x40 MLOAD DUP1 SWAP2 SUB SWAP1 RETURN JUMPDEST CALLVALUE DUP1 ISZERO PUSH2 0x54E JUMPI PUSH1 0x0 DUP1 REVERT JUMPDEST POP PUSH2 0x569 PUSH1 0x4 DUP1 CALLDATASIZE SUB DUP2 ADD SWAP1 PUSH2 0x564 SWAP2 SWAP1 PUSH2 0x34B8 JUMP JUMPDEST PUSH2 0x1C47 JUMP JUMPDEST PUSH1 0x40 MLOAD PUSH2 0x576 SWAP2 SWAP1 PUSH2 0x2B26 JUMP JUMPDEST PUSH1 0x40 MLOAD DUP1 SWAP2 SUB SWAP1 RETURN JUMPDEST CALLVALUE DUP1 ISZERO PUSH2 0x58B JUMPI PUSH1 0x0 DUP1 REVERT JUMPDEST POP PUSH2 0x5A6 PUSH1 0x4 DUP1 CALLDATASIZE SUB DUP2 ADD SWAP1 PUSH2 0x5A1 SWAP2 SWAP1 PUSH2 0x2DA4 JUMP JUMPDEST PUSH2 0x1CDB JUMP JUMPDEST STOP JUMPDEST PUSH1 0x0 PUSH4 0x1FFC9A7 PUSH1 0xE0 SHL DUP3 PUSH28 0xFFFFFFFFFFFFFFFFFFFFFFFFFFFFFFFFFFFFFFFFFFFFFFFFFFFFFFFF NOT AND EQ DUP1 PUSH2 0x603 JUMPI POP PUSH4 0x80AC58CD PUSH1 0xE0 SHL DUP3 PUSH28 0xFFFFFFFFFFFFFFFFFFFFFFFFFFFFFFFFFFFFFFFFFFFFFFFFFFFFFFFF NOT AND EQ JUMPDEST DUP1 PUSH2 0x633 JUMPI POP PUSH4 0x5B5E139F PUSH1 0xE0 SHL DUP3 PUSH28 0xFFFFFFFFFFFFFFFFFFFFFFFFFFFFFFFFFFFFFFFFFFFFFFFFFFFFFFFF NOT AND EQ JUMPDEST SWAP1 POP SWAP2 SWAP1 POP JUMP JUMPDEST PUSH1 0x60 PUSH1 0x2 DUP1 SLOAD PUSH2 0x649 SWAP1 PUSH2 0x3527 JUMP JUMPDEST DUP1 PUSH1 0x1F ADD PUSH1 0x20 DUP1 SWAP2 DIV MUL PUSH1 0x20 ADD PUSH1 0x40 MLOAD SWAP1 DUP2 ADD PUSH1 0x40 MSTORE DUP1 SWAP3 SWAP2 SWAP1 DUP2 DUP2 MSTORE PUSH1 0x20 ADD DUP3 DUP1 SLOAD PUSH2 0x675 SWAP1 PUSH2 0x3527 JUMP JUMPDEST DUP1 ISZERO PUSH2 0x6C2 JUMPI DUP1 PUSH1 0x1F LT PUSH2 0x697 JUMPI PUSH2 0x100 DUP1 DUP4 SLOAD DIV MUL DUP4 MSTORE SWAP2 PUSH1 0x20 ADD SWAP2 PUSH2 0x6C2 JUMP JUMPDEST DUP3 ADD SWAP2 SWAP1 PUSH1 0x0 MSTORE PUSH1 0x20 PUSH1 0x0 KECCAK256 SWAP1 JUMPDEST DUP2 SLOAD DUP2 MSTORE SWAP1 PUSH1 0x1 ADD SWAP1 PUSH1 0x20 ADD DUP1 DUP4 GT PUSH2 0x6A5 JUMPI DUP3 SWAP1 SUB PUSH1 0x1F AND DUP3 ADD SWAP2 JUMPDEST POP POP POP POP POP SWAP1 POP SWAP1 JUMP JUMPDEST PUSH1 0x0 PUSH2 0x6D7 DUP3 PUSH2 0x1D5F JUMP JUMPDEST PUSH2 0x70D JUMPI PUSH1 0x40 MLOAD PUSH32 0xCF4700E400000000000000000000000000000000000000000000000000000000 DUP2 MSTORE PUSH1 0x4 ADD PUSH1 0x40 MLOAD DUP1 SWAP2 SUB SWAP1 REVERT JUMPDEST PUSH1 0x6 PUSH1 0x0 DUP4 DUP2 MSTORE PUSH1 0x20 ADD SWAP1 DUP2 MSTORE PUSH1 0x20 ADD PUSH1 0x0 KECCAK256 PUSH1 0x0 ADD PUSH1 0x0 SWAP1 SLOAD SWAP1 PUSH2 0x100 EXP SWAP1 DIV PUSH20 0xFFFFFFFFFFFFFFFFFFFFFFFFFFFFFFFFFFFFFFFF AND SWAP1 POP SWAP2 SWAP1 POP JUMP JUMPDEST PUSH1 0x0 PUSH2 0x756 DUP3 PUSH2 0xC02 JUMP JUMPDEST SWAP1 POP DUP1 PUSH20 0xFFFFFFFFFFFFFFFFFFFFFFFFFFFFFFFFFFFFFFFF AND PUSH2 0x777 PUSH2 0x1DBE JUMP JUMPDEST PUSH20 0xFFFFFFFFFFFFFFFFFFFFFFFFFFFFFFFFFFFFFFFF AND EQ PUSH2 0x7DA JUMPI PUSH2 0x7A3 DUP2 PUSH2 0x79E PUSH2 0x1DBE JUMP JUMPDEST PUSH2 0x1C47 JUMP JUMPDEST PUSH2 0x7D9 JUMPI PUSH1 0x40 MLOAD PUSH32 0xCFB3B94200000000000000000000000000000000000000000000000000000000 DUP2 MSTORE PUSH1 0x4 ADD PUSH1 0x40 MLOAD DUP1 SWAP2 SUB SWAP1 REVERT JUMPDEST JUMPDEST DUP3 PUSH1 0x6 PUSH1 0x0 DUP5 DUP2 MSTORE PUSH1 0x20 ADD SWAP1 DUP2 MSTORE PUSH1 0x20 ADD PUSH1 0x0 KECCAK256 PUSH1 0x0 ADD PUSH1 0x0 PUSH2 0x100 EXP DUP2 SLOAD DUP2 PUSH20 0xFFFFFFFFFFFFFFFFFFFFFFFFFFFFFFFFFFFFFFFF MUL NOT AND SWAP1 DUP4 PUSH20 0xFFFFFFFFFFFFFFFFFFFFFFFFFFFFFFFFFFFFFFFF AND MUL OR SWAP1 SSTORE POP DUP2 DUP4 PUSH20 0xFFFFFFFFFFFFFFFFFFFFFFFFFFFFFFFFFFFFFFFF AND DUP3 PUSH20 0xFFFFFFFFFFFFFFFFFFFFFFFFFFFFFFFFFFFFFFFF AND PUSH32 0x8C5BE1E5EBEC7D5BD14F71427D1E84F3DD0314C0F7B2291E5B200AC8C7C3B925 PUSH1 0x40 MLOAD PUSH1 0x40 MLOAD DUP1 SWAP2 SUB SWAP1 LOG4 POP POP POP JUMP JUMPDEST PUSH1 0x0 PUSH2 0x899 PUSH2 0x1DC6 JUMP JUMPDEST PUSH1 0x1 SLOAD PUSH1 0x0 SLOAD SUB SUB SWAP1 POP SWAP1 JUMP JUMPDEST PUSH1 0x0 PUSH2 0x8B1 DUP3 PUSH2 0x1DCF JUMP JUMPDEST SWAP1 POP DUP4 PUSH20 0xFFFFFFFFFFFFFFFFFFFFFFFFFFFFFFFFFFFFFFFF AND DUP2 PUSH20 0xFFFFFFFFFFFFFFFFFFFFFFFFFFFFFFFFFFFFFFFF AND EQ PUSH2 0x918 JUMPI PUSH1 0x40 MLOAD PUSH32 0xA114810000000000000000000000000000000000000000000000000000000000 DUP2 MSTORE PUSH1 0x4 ADD PUSH1 0x40 MLOAD DUP1 SWAP2 SUB SWAP1 REVERT JUMPDEST PUSH1 0x0 DUP1 PUSH2 0x924 DUP5 PUSH2 0x1E9D JUMP JUMPDEST SWAP2 POP SWAP2 POP PUSH2 0x93A DUP2 DUP8 PUSH2 0x935 PUSH2 0x1DBE JUMP JUMPDEST PUSH2 0x1EC4 JUMP JUMPDEST PUSH2 0x986 JUMPI PUSH2 0x94F DUP7 PUSH2 0x94A PUSH2 0x1DBE JUMP JUMPDEST PUSH2 0x1C47 JUMP JUMPDEST PUSH2 0x985 JUMPI PUSH1 0x40 MLOAD PUSH32 0x59C896BE00000000000000000000000000000000000000000000000000000000 DUP2 MSTORE PUSH1 0x4 ADD PUSH1 0x40 MLOAD DUP1 SWAP2 SUB SWAP1 REVERT JUMPDEST JUMPDEST PUSH1 0x0 PUSH20 0xFFFFFFFFFFFFFFFFFFFFFFFFFFFFFFFFFFFFFFFF AND DUP6 PUSH20 0xFFFFFFFFFFFFFFFFFFFFFFFFFFFFFFFFFFFFFFFF AND EQ ISZERO PUSH2 0x9ED JUMPI PUSH1 0x40 MLOAD PUSH32 0xEA553B3400000000000000000000000000000000000000000000000000000000 DUP2 MSTORE PUSH1 0x4 ADD PUSH1 0x40 MLOAD DUP1 SWAP2 SUB SWAP1 REVERT JUMPDEST PUSH2 0x9FA DUP7 DUP7 DUP7 PUSH1 0x1 PUSH2 0x1F08 JUMP JUMPDEST DUP1 ISZERO PUSH2 0xA05 JUMPI PUSH1 0x0 DUP3 SSTORE JUMPDEST PUSH1 0x5 PUSH1 0x0 DUP8 PUSH20 0xFFFFFFFFFFFFFFFFFFFFFFFFFFFFFFFFFFFFFFFF AND PUSH20 0xFFFFFFFFFFFFFFFFFFFFFFFFFFFFFFFFFFFFFFFF AND DUP2 MSTORE PUSH1 0x20 ADD SWAP1 DUP2 MSTORE PUSH1 0x20 ADD PUSH1 0x0 KECCAK256 PUSH1 0x0 DUP2 SLOAD PUSH1 0x1 SWAP1 SUB SWAP2 SWAP1 POP DUP2 SWAP1 SSTORE POP PUSH1 0x5 PUSH1 0x0 DUP7 PUSH20 0xFFFFFFFFFFFFFFFFFFFFFFFFFFFFFFFFFFFFFFFF AND PUSH20 0xFFFFFFFFFFFFFFFFFFFFFFFFFFFFFFFFFFFFFFFF AND DUP2 MSTORE PUSH1 0x20 ADD SWAP1 DUP2 MSTORE PUSH1 0x20 ADD PUSH1 0x0 KECCAK256 PUSH1 0x0 DUP2 SLOAD PUSH1 0x1 ADD SWAP2 SWAP1 POP DUP2 SWAP1 SSTORE POP PUSH2 0xAD3 DUP6 PUSH2 0xAAF DUP9 DUP9 DUP8 PUSH2 0x1F0E JUMP JUMPDEST PUSH29 0x200000000000000000000000000000000000000000000000000000000 OR PUSH2 0x1F36 JUMP JUMPDEST PUSH1 0x4 PUSH1 0x0 DUP7 DUP2 MSTORE PUSH1 0x20 ADD SWAP1 DUP2 MSTORE PUSH1 0x20 ADD PUSH1 0x0 KECCAK256 DUP2 SWAP1 SSTORE POP PUSH1 0x0 PUSH29 0x200000000000000000000000000000000000000000000000000000000 DUP5 AND EQ ISZERO PUSH2 0xB5B JUMPI PUSH1 0x0 PUSH1 0x1 DUP6 ADD SWAP1 POP PUSH1 0x0 PUSH1 0x4 PUSH1 0x0 DUP4 DUP2 MSTORE PUSH1 0x20 ADD SWAP1 DUP2 MSTORE PUSH1 0x20 ADD PUSH1 0x0 KECCAK256 SLOAD EQ ISZERO PUSH2 0xB59 JUMPI PUSH1 0x0 SLOAD DUP2 EQ PUSH2 0xB58 JUMPI DUP4 PUSH1 0x4 PUSH1 0x0 DUP4 DUP2 MSTORE PUSH1 0x20 ADD SWAP1 DUP2 MSTORE PUSH1 0x20 ADD PUSH1 0x0 KECCAK256 DUP2 SWAP1 SSTORE POP JUMPDEST JUMPDEST POP JUMPDEST DUP4 DUP6 PUSH20 0xFFFFFFFFFFFFFFFFFFFFFFFFFFFFFFFFFFFFFFFF AND DUP8 PUSH20 0xFFFFFFFFFFFFFFFFFFFFFFFFFFFFFFFFFFFFFFFF AND PUSH32 0xDDF252AD1BE2C89B69C2B068FC378DAA952BA7F163C4A11628F55A4DF523B3EF PUSH1 0x40 MLOAD PUSH1 0x40 MLOAD DUP1 SWAP2 SUB SWAP1 LOG4 PUSH2 0xBC3 DUP7 DUP7 DUP7 PUSH1 0x1 PUSH2 0x1F61 JUMP JUMPDEST POP POP POP POP POP POP JUMP JUMPDEST PUSH2 0xBE6 DUP4 DUP4 DUP4 PUSH1 0x40 MLOAD DUP1 PUSH1 0x20 ADD PUSH1 0x40 MSTORE DUP1 PUSH1 0x0 DUP2 MSTORE POP PUSH2 0x1425 JUMP JUMPDEST POP POP POP JUMP JUMPDEST PUSH1 0x0 PUSH1 0x8 PUSH1 0x14 SWAP1 SLOAD SWAP1 PUSH2 0x100 EXP SWAP1 DIV PUSH1 0xFF AND SWAP1 POP SWAP1 JUMP JUMPDEST PUSH1 0x0 PUSH2 0xC0D DUP3 PUSH2 0x1DCF JUMP JUMPDEST SWAP1 POP SWAP2 SWAP1 POP JUMP JUMPDEST PUSH1 0x0 DUP1 PUSH20 0xFFFFFFFFFFFFFFFFFFFFFFFFFFFFFFFFFFFFFFFF AND DUP3 PUSH20 0xFFFFFFFFFFFFFFFFFFFFFFFFFFFFFFFFFFFFFFFF AND EQ ISZERO PUSH2 0xC7C JUMPI PUSH1 0x40 MLOAD PUSH32 0x8F4EB60400000000000000000000000000000000000000000000000000000000 DUP2 MSTORE PUSH1 0x4 ADD PUSH1 0x40 MLOAD DUP1 SWAP2 SUB SWAP1 REVERT JUMPDEST PUSH8 0xFFFFFFFFFFFFFFFF PUSH1 0x5 PUSH1 0x0 DUP5 PUSH20 0xFFFFFFFFFFFFFFFFFFFFFFFFFFFFFFFFFFFFFFFF AND PUSH20 0xFFFFFFFFFFFFFFFFFFFFFFFFFFFFFFFFFFFFFFFF AND DUP2 MSTORE PUSH1 0x20 ADD SWAP1 DUP2 MSTORE PUSH1 0x20 ADD PUSH1 0x0 KECCAK256 SLOAD AND SWAP1 POP SWAP2 SWAP1 POP JUMP JUMPDEST PUSH2 0xCD5 PUSH2 0x1F72 JUMP JUMPDEST PUSH2 0xCDF PUSH1 0x0 PUSH2 0x1FF0 JUMP JUMPDEST JUMP JUMPDEST PUSH1 0x60 PUSH1 0x0 PUSH1 0xE PUSH1 0x0 DUP7 PUSH20 0xFFFFFFFFFFFFFFFFFFFFFFFFFFFFFFFFFFFFFFFF AND PUSH20 0xFFFFFFFFFFFFFFFFFFFFFFFFFFFFFFFFFFFFFFFF AND DUP2 MSTORE PUSH1 0x20 ADD SWAP1 DUP2 MSTORE PUSH1 0x20 ADD PUSH1 0x0 KECCAK256 DUP1 SLOAD DUP1 PUSH1 0x20 MUL PUSH1 0x20 ADD PUSH1 0x40 MLOAD SWAP1 DUP2 ADD PUSH1 0x40 MSTORE DUP1 SWAP3 SWAP2 SWAP1 DUP2 DUP2 MSTORE PUSH1 0x20 ADD DUP3 DUP1 SLOAD DUP1 ISZERO PUSH2 0xD6E JUMPI PUSH1 0x20 MUL DUP3 ADD SWAP2 SWAP1 PUSH1 0x0 MSTORE PUSH1 0x20 PUSH1 0x0 KECCAK256 SWAP1 JUMPDEST DUP2 SLOAD DUP2 MSTORE PUSH1 0x20 ADD SWAP1 PUSH1 0x1 ADD SWAP1 DUP1 DUP4 GT PUSH2 0xD5A JUMPI JUMPDEST POP POP POP POP POP SWAP1 POP DUP1 MLOAD DUP5 LT PUSH2 0xD82 JUMPI PUSH1 0x0 SWAP4 POP JUMPDEST PUSH1 0x0 DUP4 EQ DUP1 PUSH2 0xD9C JUMPI POP DUP4 DUP2 MLOAD PUSH2 0xD99 SWAP2 SWAP1 PUSH2 0x3588 JUMP JUMPDEST DUP4 GT JUMPDEST ISZERO PUSH2 0xDB1 JUMPI DUP4 DUP2 MLOAD PUSH2 0xDAE SWAP2 SWAP1 PUSH2 0x3588 JUMP JUMPDEST SWAP3 POP JUMPDEST PUSH1 0x0 DUP4 PUSH8 0xFFFFFFFFFFFFFFFF DUP2 GT ISZERO PUSH2 0xDCD JUMPI PUSH2 0xDCC PUSH2 0x30B5 JUMP JUMPDEST JUMPDEST PUSH1 0x40 MLOAD SWAP1 DUP1 DUP3 MSTORE DUP1 PUSH1 0x20 MUL PUSH1 0x20 ADD DUP3 ADD PUSH1 0x40 MSTORE DUP1 ISZERO PUSH2 0xE06 JUMPI DUP2 PUSH1 0x20 ADD JUMPDEST PUSH2 0xDF3 PUSH2 0x2984 JUMP JUMPDEST DUP2 MSTORE PUSH1 0x20 ADD SWAP1 PUSH1 0x1 SWAP1 SUB SWAP1 DUP2 PUSH2 0xDEB JUMPI SWAP1 POP JUMPDEST POP SWAP1 POP PUSH1 0x0 DUP3 MLOAD EQ ISZERO PUSH2 0xE1D JUMPI DUP1 SWAP3 POP POP POP PUSH2 0xFAE JUMP JUMPDEST PUSH1 0x0 DUP1 JUMPDEST DUP6 DUP2 LT ISZERO PUSH2 0xFA6 JUMPI DUP4 DUP2 DUP9 PUSH2 0xE36 SWAP2 SWAP1 PUSH2 0x35BC JUMP JUMPDEST DUP2 MLOAD DUP2 LT PUSH2 0xE47 JUMPI PUSH2 0xE46 PUSH2 0x3612 JUMP JUMPDEST JUMPDEST PUSH1 0x20 MUL PUSH1 0x20 ADD ADD MLOAD SWAP2 POP PUSH1 0xD PUSH1 0x0 DUP4 DUP2 MSTORE PUSH1 0x20 ADD SWAP1 DUP2 MSTORE PUSH1 0x20 ADD PUSH1 0x0 KECCAK256 PUSH1 0x40 MLOAD DUP1 PUSH1 0xA0 ADD PUSH1 0x40 MSTORE SWAP1 DUP2 PUSH1 0x0 DUP3 ADD SLOAD DUP2 MSTORE PUSH1 0x20 ADD PUSH1 0x1 DUP3 ADD DUP1 SLOAD PUSH2 0xE89 SWAP1 PUSH2 0x3527 JUMP JUMPDEST DUP1 PUSH1 0x1F ADD PUSH1 0x20 DUP1 SWAP2 DIV MUL PUSH1 0x20 ADD PUSH1 0x40 MLOAD SWAP1 DUP2 ADD PUSH1 0x40 MSTORE DUP1 SWAP3 SWAP2 SWAP1 DUP2 DUP2 MSTORE PUSH1 0x20 ADD DUP3 DUP1 SLOAD PUSH2 0xEB5 SWAP1 PUSH2 0x3527 JUMP JUMPDEST DUP1 ISZERO PUSH2 0xF02 JUMPI DUP1 PUSH1 0x1F LT PUSH2 0xED7 JUMPI PUSH2 0x100 DUP1 DUP4 SLOAD DIV MUL DUP4 MSTORE SWAP2 PUSH1 0x20 ADD SWAP2 PUSH2 0xF02 JUMP JUMPDEST DUP3 ADD SWAP2 SWAP1 PUSH1 0x0 MSTORE PUSH1 0x20 PUSH1 0x0 KECCAK256 SWAP1 JUMPDEST DUP2 SLOAD DUP2 MSTORE SWAP1 PUSH1 0x1 ADD SWAP1 PUSH1 0x20 ADD DUP1 DUP4 GT PUSH2 0xEE5 JUMPI DUP3 SWAP1 SUB PUSH1 0x1F AND DUP3 ADD SWAP2 JUMPDEST POP POP POP POP POP DUP2 MSTORE PUSH1 0x20 ADD PUSH1 0x2 DUP3 ADD SLOAD DUP2 MSTORE PUSH1 0x20 ADD PUSH1 0x3 DUP3 ADD SLOAD DUP2 MSTORE PUSH1 0x20 ADD PUSH1 0x4 DUP3 ADD PUSH1 0x0 SWAP1 SLOAD SWAP1 PUSH2 0x100 EXP SWAP1 DIV PUSH20 0xFFFFFFFFFFFFFFFFFFFFFFFFFFFFFFFFFFFFFFFF AND PUSH20 0xFFFFFFFFFFFFFFFFFFFFFFFFFFFFFFFFFFFFFFFF AND PUSH20 0xFFFFFFFFFFFFFFFFFFFFFFFFFFFFFFFFFFFFFFFF AND DUP2 MSTORE POP POP DUP4 DUP3 DUP2 MLOAD DUP2 LT PUSH2 0xF88 JUMPI PUSH2 0xF87 PUSH2 0x3612 JUMP JUMPDEST JUMPDEST PUSH1 0x20 MUL PUSH1 0x20 ADD ADD DUP2 SWAP1 MSTORE POP DUP1 DUP1 PUSH2 0xF9E SWAP1 PUSH2 0x3641 JUMP JUMPDEST SWAP2 POP POP PUSH2 0xE21 JUMP JUMPDEST POP DUP2 SWAP4 POP POP POP POP JUMPDEST SWAP4 SWAP3 POP POP POP JUMP JUMPDEST PUSH1 0x0 PUSH1 0x8 PUSH1 0x0 SWAP1 SLOAD SWAP1 PUSH2 0x100 EXP SWAP1 DIV PUSH20 0xFFFFFFFFFFFFFFFFFFFFFFFFFFFFFFFFFFFFFFFF AND SWAP1 POP SWAP1 JUMP JUMPDEST PUSH1 0x60 PUSH1 0x3 DUP1 SLOAD PUSH2 0xFEE SWAP1 PUSH2 0x3527 JUMP JUMPDEST DUP1 PUSH1 0x1F ADD PUSH1 0x20 DUP1 SWAP2 DIV MUL PUSH1 0x20 ADD PUSH1 0x40 MLOAD SWAP1 DUP2 ADD PUSH1 0x40 MSTORE DUP1 SWAP3 SWAP2 SWAP1 DUP2 DUP2 MSTORE PUSH1 0x20 ADD DUP3 DUP1 SLOAD PUSH2 0x101A SWAP1 PUSH2 0x3527 JUMP JUMPDEST DUP1 ISZERO PUSH2 0x1067 JUMPI DUP1 PUSH1 0x1F LT PUSH2 0x103C JUMPI PUSH2 0x100 DUP1 DUP4 SLOAD DIV MUL DUP4 MSTORE SWAP2 PUSH1 0x20 ADD SWAP2 PUSH2 0x1067 JUMP JUMPDEST DUP3 ADD SWAP2 SWAP1 PUSH1 0x0 MSTORE PUSH1 0x20 PUSH1 0x0 KECCAK256 SWAP1 JUMPDEST DUP2 SLOAD DUP2 MSTORE SWAP1 PUSH1 0x1 ADD SWAP1 PUSH1 0x20 ADD DUP1 DUP4 GT PUSH2 0x104A JUMPI DUP3 SWAP1 SUB PUSH1 0x1F AND DUP3 ADD SWAP2 JUMPDEST POP POP POP POP POP SWAP1 POP SWAP1 JUMP JUMPDEST PUSH1 0x60 PUSH1 0x0 PUSH2 0x107D PUSH2 0x88F JUMP JUMPDEST SWAP1 POP PUSH1 0x0 DUP5 EQ DUP1 PUSH2 0x108D JUMPI POP DUP1 DUP5 GT JUMPDEST ISZERO PUSH2 0x1097 JUMPI PUSH1 0x1 SWAP4 POP JUMPDEST PUSH1 0x0 DUP4 EQ DUP1 PUSH2 0x10B0 JUMPI POP DUP4 DUP2 PUSH2 0x10AD SWAP2 SWAP1 PUSH2 0x3588 JUMP JUMPDEST DUP4 GT JUMPDEST ISZERO PUSH2 0x10C4 JUMPI DUP4 DUP2 PUSH2 0x10C1 SWAP2 SWAP1 PUSH2 0x3588 JUMP JUMPDEST SWAP3 POP JUMPDEST PUSH1 0x0 DUP4 PUSH8 0xFFFFFFFFFFFFFFFF DUP2 GT ISZERO PUSH2 0x10E0 JUMPI PUSH2 0x10DF PUSH2 0x30B5 JUMP JUMPDEST JUMPDEST PUSH1 0x40 MLOAD SWAP1 DUP1 DUP3 MSTORE DUP1 PUSH1 0x20 MUL PUSH1 0x20 ADD DUP3 ADD PUSH1 0x40 MSTORE DUP1 ISZERO PUSH2 0x1119 JUMPI DUP2 PUSH1 0x20 ADD JUMPDEST PUSH2 0x1106 PUSH2 0x2984 JUMP JUMPDEST DUP2 MSTORE PUSH1 0x20 ADD SWAP1 PUSH1 0x1 SWAP1 SUB SWAP1 DUP2 PUSH2 0x10FE JUMPI SWAP1 POP JUMPDEST POP SWAP1 POP PUSH1 0x0 DUP3 EQ ISZERO PUSH2 0x112F JUMPI DUP1 SWAP3 POP POP POP PUSH2 0x12A7 JUMP JUMPDEST PUSH1 0x0 JUMPDEST DUP5 DUP2 LT ISZERO PUSH2 0x12A0 JUMPI PUSH1 0x0 PUSH1 0xD PUSH1 0x0 DUP4 DUP10 PUSH2 0x114C SWAP2 SWAP1 PUSH2 0x35BC JUMP JUMPDEST DUP2 MSTORE PUSH1 0x20 ADD SWAP1 DUP2 MSTORE PUSH1 0x20 ADD PUSH1 0x0 KECCAK256 SWAP1 POP DUP1 PUSH1 0x40 MLOAD DUP1 PUSH1 0xA0 ADD PUSH1 0x40 MSTORE SWAP1 DUP2 PUSH1 0x0 DUP3 ADD SLOAD DUP2 MSTORE PUSH1 0x20 ADD PUSH1 0x1 DUP3 ADD DUP1 SLOAD PUSH2 0x1182 SWAP1 PUSH2 0x3527 JUMP JUMPDEST DUP1 PUSH1 0x1F ADD PUSH1 0x20 DUP1 SWAP2 DIV MUL PUSH1 0x20 ADD PUSH1 0x40 MLOAD SWAP1 DUP2 ADD PUSH1 0x40 MSTORE DUP1 SWAP3 SWAP2 SWAP1 DUP2 DUP2 MSTORE PUSH1 0x20 ADD DUP3 DUP1 SLOAD PUSH2 0x11AE SWAP1 PUSH2 0x3527 JUMP JUMPDEST DUP1 ISZERO PUSH2 0x11FB JUMPI DUP1 PUSH1 0x1F LT PUSH2 0x11D0 JUMPI PUSH2 0x100 DUP1 DUP4 SLOAD DIV MUL DUP4 MSTORE SWAP2 PUSH1 0x20 ADD SWAP2 PUSH2 0x11FB JUMP JUMPDEST DUP3 ADD SWAP2 SWAP1 PUSH1 0x0 MSTORE PUSH1 0x20 PUSH1 0x0 KECCAK256 SWAP1 JUMPDEST DUP2 SLOAD DUP2 MSTORE SWAP1 PUSH1 0x1 ADD SWAP1 PUSH1 0x20 ADD DUP1 DUP4 GT PUSH2 0x11DE JUMPI DUP3 SWAP1 SUB PUSH1 0x1F AND DUP3 ADD SWAP2 JUMPDEST POP POP POP POP POP DUP2 MSTORE PUSH1 0x20 ADD PUSH1 0x2 DUP3 ADD SLOAD DUP2 MSTORE PUSH1 0x20 ADD PUSH1 0x3 DUP3 ADD SLOAD DUP2 MSTORE PUSH1 0x20 ADD PUSH1 0x4 DUP3 ADD PUSH1 0x0 SWAP1 SLOAD SWAP1 PUSH2 0x100 EXP SWAP1 DIV PUSH20 0xFFFFFFFFFFFFFFFFFFFFFFFFFFFFFFFFFFFFFFFF AND PUSH20 0xFFFFFFFFFFFFFFFFFFFFFFFFFFFFFFFFFFFFFFFF AND PUSH20 0xFFFFFFFFFFFFFFFFFFFFFFFFFFFFFFFFFFFFFFFF AND DUP2 MSTORE POP POP DUP4 DUP4 DUP2 MLOAD DUP2 LT PUSH2 0x1281 JUMPI PUSH2 0x1280 PUSH2 0x3612 JUMP JUMPDEST JUMPDEST PUSH1 0x20 MUL PUSH1 0x20 ADD ADD DUP2 SWAP1 MSTORE POP POP DUP1 DUP1 PUSH2 0x1298 SWAP1 PUSH2 0x3641 JUMP JUMPDEST SWAP2 POP POP PUSH2 0x1132 JUMP JUMPDEST POP DUP1 SWAP3 POP POP POP JUMPDEST SWAP3 SWAP2 POP POP JUMP JUMPDEST PUSH2 0x12B5 PUSH2 0x1DBE JUMP JUMPDEST PUSH20 0xFFFFFFFFFFFFFFFFFFFFFFFFFFFFFFFFFFFFFFFF AND DUP3 PUSH20 0xFFFFFFFFFFFFFFFFFFFFFFFFFFFFFFFFFFFFFFFF AND EQ ISZERO PUSH2 0x131A JUMPI PUSH1 0x40 MLOAD PUSH32 0xB06307DB00000000000000000000000000000000000000000000000000000000 DUP2 MSTORE PUSH1 0x4 ADD PUSH1 0x40 MLOAD DUP1 SWAP2 SUB SWAP1 REVERT JUMPDEST DUP1 PUSH1 0x7 PUSH1 0x0 PUSH2 0x1327 PUSH2 0x1DBE JUMP JUMPDEST PUSH20 0xFFFFFFFFFFFFFFFFFFFFFFFFFFFFFFFFFFFFFFFF AND PUSH20 0xFFFFFFFFFFFFFFFFFFFFFFFFFFFFFFFFFFFFFFFF AND DUP2 MSTORE PUSH1 0x20 ADD SWAP1 DUP2 MSTORE PUSH1 0x20 ADD PUSH1 0x0 KECCAK256 PUSH1 0x0 DUP5 PUSH20 0xFFFFFFFFFFFFFFFFFFFFFFFFFFFFFFFFFFFFFFFF AND PUSH20 0xFFFFFFFFFFFFFFFFFFFFFFFFFFFFFFFFFFFFFFFF AND DUP2 MSTORE PUSH1 0x20 ADD SWAP1 DUP2 MSTORE PUSH1 0x20 ADD PUSH1 0x0 KECCAK256 PUSH1 0x0 PUSH2 0x100 EXP DUP2 SLOAD DUP2 PUSH1 0xFF MUL NOT AND SWAP1 DUP4 ISZERO ISZERO MUL OR SWAP1 SSTORE POP DUP2 PUSH20 0xFFFFFFFFFFFFFFFFFFFFFFFFFFFFFFFFFFFFFFFF AND PUSH2 0x13D4 PUSH2 0x1DBE JUMP JUMPDEST PUSH20 0xFFFFFFFFFFFFFFFFFFFFFFFFFFFFFFFFFFFFFFFF AND PUSH32 0x17307EAB39AB6107E8899845AD3D59BD9653F200F220920489CA2B5937696C31 DUP4 PUSH1 0x40 MLOAD PUSH2 0x1419 SWAP2 SWAP1 PUSH2 0x2B26 JUMP JUMPDEST PUSH1 0x40 MLOAD DUP1 SWAP2 SUB SWAP1 LOG3 POP POP JUMP JUMPDEST PUSH2 0x1430 DUP5 DUP5 DUP5 PUSH2 0x8A6 JUMP JUMPDEST PUSH1 0x0 DUP4 PUSH20 0xFFFFFFFFFFFFFFFFFFFFFFFFFFFFFFFFFFFFFFFF AND EXTCODESIZE EQ PUSH2 0x1492 JUMPI PUSH2 0x145B DUP5 DUP5 DUP5 DUP5 PUSH2 0x20B6 JUMP JUMPDEST PUSH2 0x1491 JUMPI PUSH1 0x40 MLOAD PUSH32 0xD1A57ED600000000000000000000000000000000000000000000000000000000 DUP2 MSTORE PUSH1 0x4 ADD PUSH1 0x40 MLOAD DUP1 SWAP2 SUB SWAP1 REVERT JUMPDEST JUMPDEST POP POP POP POP JUMP JUMPDEST PUSH1 0xA PUSH1 0x0 SWAP1 SLOAD SWAP1 PUSH2 0x100 EXP SWAP1 DIV PUSH20 0xFFFFFFFFFFFFFFFFFFFFFFFFFFFFFFFFFFFFFFFF AND PUSH20 0xFFFFFFFFFFFFFFFFFFFFFFFFFFFFFFFFFFFFFFFF AND PUSH2 0x14D9 PUSH2 0x1DBE JUMP JUMPDEST PUSH20 0xFFFFFFFFFFFFFFFFFFFFFFFFFFFFFFFFFFFFFFFF AND EQ PUSH2 0x152F JUMPI PUSH1 0x40 MLOAD PUSH32 0x8C379A000000000000000000000000000000000000000000000000000000000 DUP2 MSTORE PUSH1 0x4 ADD PUSH2 0x1526 SWAP1 PUSH2 0x36FC JUMP JUMPDEST PUSH1 0x40 MLOAD DUP1 SWAP2 SUB SWAP1 REVERT JUMPDEST PUSH1 0x2 PUSH1 0x9 SLOAD EQ ISZERO PUSH2 0x1575 JUMPI PUSH1 0x40 MLOAD PUSH32 0x8C379A000000000000000000000000000000000000000000000000000000000 DUP2 MSTORE PUSH1 0x4 ADD PUSH2 0x156C SWAP1 PUSH2 0x3768 JUMP JUMPDEST PUSH1 0x40 MLOAD DUP1 SWAP2 SUB SWAP1 REVERT JUMPDEST PUSH1 0x2 PUSH1 0x9 DUP2 SWAP1 SSTORE POP PUSH2 0x1586 DUP3 PUSH2 0x2216 JUMP JUMPDEST PUSH1 0x20 DUP2 MLOAD LT PUSH2 0x15CA JUMPI PUSH1 0x40 MLOAD PUSH32 0x8C379A000000000000000000000000000000000000000000000000000000000 DUP2 MSTORE PUSH1 0x4 ADD PUSH2 0x15C1 SWAP1 PUSH2 0x37D4 JUMP JUMPDEST PUSH1 0x40 MLOAD DUP1 SWAP2 SUB SWAP1 REVERT JUMPDEST DUP1 PUSH1 0xD PUSH1 0x0 DUP5 DUP2 MSTORE PUSH1 0x20 ADD SWAP1 DUP2 MSTORE PUSH1 0x20 ADD PUSH1 0x0 KECCAK256 PUSH1 0x1 ADD SWAP1 DUP1 MLOAD SWAP1 PUSH1 0x20 ADD SWAP1 PUSH2 0x15F4 SWAP3 SWAP2 SWAP1 PUSH2 0x29CF JUMP JUMPDEST POP PUSH32 0x7A01D97180CB1A63FC0324E7FB74B4914563C02E6D0DBF5653EA4FB10BD0D192 PUSH1 0x40 MLOAD PUSH1 0x40 MLOAD DUP1 SWAP2 SUB SWAP1 LOG1 PUSH1 0x1 PUSH1 0x9 DUP2 SWAP1 SSTORE POP POP POP JUMP JUMPDEST PUSH1 0x60 PUSH2 0x1638 DUP3 PUSH2 0x1D5F JUMP JUMPDEST PUSH2 0x166E JUMPI PUSH1 0x40 MLOAD PUSH32 0xA14C4B5000000000000000000000000000000000000000000000000000000000 DUP2 MSTORE PUSH1 0x4 ADD PUSH1 0x40 MLOAD DUP1 SWAP2 SUB SWAP1 REVERT JUMPDEST PUSH1 0x0 PUSH2 0x1678 PUSH2 0x22F6 JUMP JUMPDEST SWAP1 POP PUSH1 0x0 DUP2 MLOAD EQ ISZERO PUSH2 0x1699 JUMPI PUSH1 0x40 MLOAD DUP1 PUSH1 0x20 ADD PUSH1 0x40 MSTORE DUP1 PUSH1 0x0 DUP2 MSTORE POP PUSH2 0x16C4 JUMP JUMPDEST DUP1 PUSH2 0x16A3 DUP5 PUSH2 0x2388 JUMP JUMPDEST PUSH1 0x40 MLOAD PUSH1 0x20 ADD PUSH2 0x16B4 SWAP3 SWAP2 SWAP1 PUSH2 0x3830 JUMP JUMPDEST PUSH1 0x40 MLOAD PUSH1 0x20 DUP2 DUP4 SUB SUB DUP2 MSTORE SWAP1 PUSH1 0x40 MSTORE JUMPDEST SWAP2 POP POP SWAP2 SWAP1 POP JUMP JUMPDEST PUSH1 0x2 PUSH1 0x9 SLOAD EQ ISZERO PUSH2 0x1712 JUMPI PUSH1 0x40 MLOAD PUSH32 0x8C379A000000000000000000000000000000000000000000000000000000000 DUP2 MSTORE PUSH1 0x4 ADD PUSH2 0x1709 SWAP1 PUSH2 0x3768 JUMP JUMPDEST PUSH1 0x40 MLOAD DUP1 SWAP2 SUB SWAP1 REVERT JUMPDEST PUSH1 0x2 PUSH1 0x9 DUP2 SWAP1 SSTORE POP PUSH2 0x1722 PUSH2 0x1F72 JUMP JUMPDEST PUSH1 0x0 CALLER PUSH20 0xFFFFFFFFFFFFFFFFFFFFFFFFFFFFFFFFFFFFFFFF AND SELFBALANCE PUSH1 0x40 MLOAD PUSH2 0x1748 SWAP1 PUSH2 0x3885 JUMP JUMPDEST PUSH1 0x0 PUSH1 0x40 MLOAD DUP1 DUP4 SUB DUP2 DUP6 DUP8 GAS CALL SWAP3 POP POP POP RETURNDATASIZE DUP1 PUSH1 0x0 DUP2 EQ PUSH2 0x1785 JUMPI PUSH1 0x40 MLOAD SWAP2 POP PUSH1 0x1F NOT PUSH1 0x3F RETURNDATASIZE ADD AND DUP3 ADD PUSH1 0x40 MSTORE RETURNDATASIZE DUP3 MSTORE RETURNDATASIZE PUSH1 0x0 PUSH1 0x20 DUP5 ADD RETURNDATACOPY PUSH2 0x178A JUMP JUMPDEST PUSH1 0x60 SWAP2 POP JUMPDEST POP POP SWAP1 POP DUP1 PUSH2 0x17CE JUMPI PUSH1 0x40 MLOAD PUSH32 0x8C379A000000000000000000000000000000000000000000000000000000000 DUP2 MSTORE PUSH1 0x4 ADD PUSH2 0x17C5 SWAP1 PUSH2 0x38E6 JUMP JUMPDEST PUSH1 0x40 MLOAD DUP1 SWAP2 SUB SWAP1 REVERT JUMPDEST POP PUSH1 0x1 PUSH1 0x9 DUP2 SWAP1 SSTORE POP JUMP JUMPDEST PUSH1 0xA PUSH1 0x0 SWAP1 SLOAD SWAP1 PUSH2 0x100 EXP SWAP1 DIV PUSH20 0xFFFFFFFFFFFFFFFFFFFFFFFFFFFFFFFFFFFFFFFF AND PUSH20 0xFFFFFFFFFFFFFFFFFFFFFFFFFFFFFFFFFFFFFFFF AND PUSH2 0x181A PUSH2 0x1DBE JUMP JUMPDEST PUSH20 0xFFFFFFFFFFFFFFFFFFFFFFFFFFFFFFFFFFFFFFFF AND EQ PUSH2 0x1870 JUMPI PUSH1 0x40 MLOAD PUSH32 0x8C379A000000000000000000000000000000000000000000000000000000000 DUP2 MSTORE PUSH1 0x4 ADD PUSH2 0x1867 SWAP1 PUSH2 0x36FC JUMP JUMPDEST PUSH1 0x40 MLOAD DUP1 SWAP2 SUB SWAP1 REVERT JUMPDEST PUSH2 0x1878 PUSH2 0x23E2 JUMP JUMPDEST PUSH1 0x2 PUSH1 0x9 SLOAD EQ ISZERO PUSH2 0x18BE JUMPI PUSH1 0x40 MLOAD PUSH32 0x8C379A000000000000000000000000000000000000000000000000000000000 DUP2 MSTORE PUSH1 0x4 ADD PUSH2 0x18B5 SWAP1 PUSH2 0x3768 JUMP JUMPDEST PUSH1 0x40 MLOAD DUP1 SWAP2 SUB SWAP1 REVERT JUMPDEST PUSH1 0x2 PUSH1 0x9 DUP2 SWAP1 SSTORE POP PUSH2 0x2710 PUSH2 0x18D1 PUSH2 0x88F JUMP JUMPDEST LT PUSH2 0x1911 JUMPI PUSH1 0x40 MLOAD PUSH32 0x8C379A000000000000000000000000000000000000000000000000000000000 DUP2 MSTORE PUSH1 0x4 ADD PUSH2 0x1908 SWAP1 PUSH2 0x3952 JUMP JUMPDEST PUSH1 0x40 MLOAD DUP1 SWAP2 SUB SWAP1 REVERT JUMPDEST PUSH1 0x0 PUSH2 0x191B PUSH2 0x242C JUMP JUMPDEST SWAP1 POP PUSH2 0x1928 DUP5 PUSH1 0x1 PUSH2 0x2435 JUMP JUMPDEST PUSH1 0x40 MLOAD DUP1 PUSH1 0xA0 ADD PUSH1 0x40 MSTORE DUP1 DUP3 DUP2 MSTORE PUSH1 0x20 ADD DUP5 DUP5 DUP1 DUP1 PUSH1 0x1F ADD PUSH1 0x20 DUP1 SWAP2 DIV MUL PUSH1 0x20 ADD PUSH1 0x40 MLOAD SWAP1 DUP2 ADD PUSH1 0x40 MSTORE DUP1 SWAP4 SWAP3 SWAP2 SWAP1 DUP2 DUP2 MSTORE PUSH1 0x20 ADD DUP4 DUP4 DUP1 DUP3 DUP5 CALLDATACOPY PUSH1 0x0 DUP2 DUP5 ADD MSTORE PUSH1 0x1F NOT PUSH1 0x1F DUP3 ADD AND SWAP1 POP DUP1 DUP4 ADD SWAP3 POP POP POP POP POP POP POP DUP2 MSTORE PUSH1 0x20 ADD PUSH2 0x198B PUSH2 0x2453 JUMP JUMPDEST DUP2 MSTORE PUSH1 0x20 ADD PUSH2 0x1998 PUSH2 0x2453 JUMP JUMPDEST DUP2 MSTORE PUSH1 0x20 ADD DUP6 PUSH20 0xFFFFFFFFFFFFFFFFFFFFFFFFFFFFFFFFFFFFFFFF AND DUP2 MSTORE POP PUSH1 0xD PUSH1 0x0 DUP4 DUP2 MSTORE PUSH1 0x20 ADD SWAP1 DUP2 MSTORE PUSH1 0x20 ADD PUSH1 0x0 KECCAK256 PUSH1 0x0 DUP3 ADD MLOAD DUP2 PUSH1 0x0 ADD SSTORE PUSH1 0x20 DUP3 ADD MLOAD DUP2 PUSH1 0x1 ADD SWAP1 DUP1 MLOAD SWAP1 PUSH1 0x20 ADD SWAP1 PUSH2 0x19F0 SWAP3 SWAP2 SWAP1 PUSH2 0x29CF JUMP JUMPDEST POP PUSH1 0x40 DUP3 ADD MLOAD DUP2 PUSH1 0x2 ADD SSTORE PUSH1 0x60 DUP3 ADD MLOAD DUP2 PUSH1 0x3 ADD SSTORE PUSH1 0x80 DUP3 ADD MLOAD DUP2 PUSH1 0x4 ADD PUSH1 0x0 PUSH2 0x100 EXP DUP2 SLOAD DUP2 PUSH20 0xFFFFFFFFFFFFFFFFFFFFFFFFFFFFFFFFFFFFFFFF MUL NOT AND SWAP1 DUP4 PUSH20 0xFFFFFFFFFFFFFFFFFFFFFFFFFFFFFFFFFFFFFFFF AND MUL OR SWAP1 SSTORE POP SWAP1 POP POP PUSH1 0xE PUSH1 0x0 CALLER PUSH20 0xFFFFFFFFFFFFFFFFFFFFFFFFFFFFFFFFFFFFFFFF AND PUSH20 0xFFFFFFFFFFFFFFFFFFFFFFFFFFFFFFFFFFFFFFFF AND DUP2 MSTORE PUSH1 0x20 ADD SWAP1 DUP2 MSTORE PUSH1 0x20 ADD PUSH1 0x0 KECCAK256 DUP2 SWAP1 DUP1 PUSH1 0x1 DUP2 SLOAD ADD DUP1 DUP3 SSTORE DUP1 SWAP2 POP POP PUSH1 0x1 SWAP1 SUB SWAP1 PUSH1 0x0 MSTORE PUSH1 0x20 PUSH1 0x0 KECCAK256 ADD PUSH1 0x0 SWAP1 SWAP2 SWAP1 SWAP2 SWAP1 SWAP2 POP SSTORE PUSH32 0x2BD97F55F36BA4381547CE09E7C83BAD49675C9C38A7C9096A31F20AC07DBF4E PUSH1 0x40 MLOAD PUSH1 0x40 MLOAD DUP1 SWAP2 SUB SWAP1 LOG1 POP PUSH1 0x1 PUSH1 0x9 DUP2 SWAP1 SSTORE POP POP POP POP JUMP JUMPDEST PUSH2 0x1AF7 PUSH2 0x2984 JUMP JUMPDEST PUSH1 0x0 PUSH2 0x1B01 PUSH2 0x88F JUMP JUMPDEST SWAP1 POP PUSH1 0x0 DUP4 EQ DUP1 PUSH2 0x1B11 JUMPI POP DUP1 DUP4 GT JUMPDEST ISZERO PUSH2 0x1B1B JUMPI PUSH1 0x1 SWAP3 POP JUMPDEST PUSH1 0xD PUSH1 0x0 DUP5 DUP2 MSTORE PUSH1 0x20 ADD SWAP1 DUP2 MSTORE PUSH1 0x20 ADD PUSH1 0x0 KECCAK256 PUSH1 0x40 MLOAD DUP1 PUSH1 0xA0 ADD PUSH1 0x40 MSTORE SWAP1 DUP2 PUSH1 0x0 DUP3 ADD SLOAD DUP2 MSTORE PUSH1 0x20 ADD PUSH1 0x1 DUP3 ADD DUP1 SLOAD PUSH2 0x1B53 SWAP1 PUSH2 0x3527 JUMP JUMPDEST DUP1 PUSH1 0x1F ADD PUSH1 0x20 DUP1 SWAP2 DIV MUL PUSH1 0x20 ADD PUSH1 0x40 MLOAD SWAP1 DUP2 ADD PUSH1 0x40 MSTORE DUP1 SWAP3 SWAP2 SWAP1 DUP2 DUP2 MSTORE PUSH1 0x20 ADD DUP3 DUP1 SLOAD PUSH2 0x1B7F SWAP1 PUSH2 0x3527 JUMP JUMPDEST DUP1 ISZERO PUSH2 0x1BCC JUMPI DUP1 PUSH1 0x1F LT PUSH2 0x1BA1 JUMPI PUSH2 0x100 DUP1 DUP4 SLOAD DIV MUL DUP4 MSTORE SWAP2 PUSH1 0x20 ADD SWAP2 PUSH2 0x1BCC JUMP JUMPDEST DUP3 ADD SWAP2 SWAP1 PUSH1 0x0 MSTORE PUSH1 0x20 PUSH1 0x0 KECCAK256 SWAP1 JUMPDEST DUP2 SLOAD DUP2 MSTORE SWAP1 PUSH1 0x1 ADD SWAP1 PUSH1 0x20 ADD DUP1 DUP4 GT PUSH2 0x1BAF JUMPI DUP3 SWAP1 SUB PUSH1 0x1F AND DUP3 ADD SWAP2 JUMPDEST POP POP POP POP POP DUP2 MSTORE PUSH1 0x20 ADD PUSH1 0x2 DUP3 ADD SLOAD DUP2 MSTORE PUSH1 0x20 ADD PUSH1 0x3 DUP3 ADD SLOAD DUP2 MSTORE PUSH1 0x20 ADD PUSH1 0x4 DUP3 ADD PUSH1 0x0 SWAP1 SLOAD SWAP1 PUSH2 0x100 EXP SWAP1 DIV PUSH20 0xFFFFFFFFFFFFFFFFFFFFFFFFFFFFFFFFFFFFFFFF AND PUSH20 0xFFFFFFFFFFFFFFFFFFFFFFFFFFFFFFFFFFFFFFFF AND PUSH20 0xFFFFFFFFFFFFFFFFFFFFFFFFFFFFFFFFFFFFFFFF AND DUP2 MSTORE POP POP SWAP2 POP POP SWAP2 SWAP1 POP JUMP JUMPDEST PUSH1 0x0 PUSH1 0x7 PUSH1 0x0 DUP5 PUSH20 0xFFFFFFFFFFFFFFFFFFFFFFFFFFFFFFFFFFFFFFFF AND PUSH20 0xFFFFFFFFFFFFFFFFFFFFFFFFFFFFFFFFFFFFFFFF AND DUP2 MSTORE PUSH1 0x20 ADD SWAP1 DUP2 MSTORE PUSH1 0x20 ADD PUSH1 0x0 KECCAK256 PUSH1 0x0 DUP4 PUSH20 0xFFFFFFFFFFFFFFFFFFFFFFFFFFFFFFFFFFFFFFFF AND PUSH20 0xFFFFFFFFFFFFFFFFFFFFFFFFFFFFFFFFFFFFFFFF AND DUP2 MSTORE PUSH1 0x20 ADD SWAP1 DUP2 MSTORE PUSH1 0x20 ADD PUSH1 0x0 KECCAK256 PUSH1 0x0 SWAP1 SLOAD SWAP1 PUSH2 0x100 EXP SWAP1 DIV PUSH1 0xFF AND SWAP1 POP SWAP3 SWAP2 POP POP JUMP JUMPDEST PUSH2 0x1CE3 PUSH2 0x1F72 JUMP JUMPDEST PUSH1 0x0 PUSH20 0xFFFFFFFFFFFFFFFFFFFFFFFFFFFFFFFFFFFFFFFF AND DUP2 PUSH20 0xFFFFFFFFFFFFFFFFFFFFFFFFFFFFFFFFFFFFFFFF AND EQ ISZERO PUSH2 0x1D53 JUMPI PUSH1 0x40 MLOAD PUSH32 0x8C379A000000000000000000000000000000000000000000000000000000000 DUP2 MSTORE PUSH1 0x4 ADD PUSH2 0x1D4A SWAP1 PUSH2 0x39E4 JUMP JUMPDEST PUSH1 0x40 MLOAD DUP1 SWAP2 SUB SWAP1 REVERT JUMPDEST PUSH2 0x1D5C DUP2 PUSH2 0x1FF0 JUMP JUMPDEST POP JUMP JUMPDEST PUSH1 0x0 DUP2 PUSH2 0x1D6A PUSH2 0x1DC6 JUMP JUMPDEST GT ISZERO DUP1 ISZERO PUSH2 0x1D79 JUMPI POP PUSH1 0x0 SLOAD DUP3 LT JUMPDEST DUP1 ISZERO PUSH2 0x1DB7 JUMPI POP PUSH1 0x0 PUSH29 0x100000000000000000000000000000000000000000000000000000000 PUSH1 0x4 PUSH1 0x0 DUP6 DUP2 MSTORE PUSH1 0x20 ADD SWAP1 DUP2 MSTORE PUSH1 0x20 ADD PUSH1 0x0 KECCAK256 SLOAD AND EQ JUMPDEST SWAP1 POP SWAP2 SWAP1 POP JUMP JUMPDEST PUSH1 0x0 CALLER SWAP1 POP SWAP1 JUMP JUMPDEST PUSH1 0x0 PUSH1 0x1 SWAP1 POP SWAP1 JUMP JUMPDEST PUSH1 0x0 DUP1 DUP3 SWAP1 POP DUP1 PUSH2 0x1DDE PUSH2 0x1DC6 JUMP JUMPDEST GT PUSH2 0x1E66 JUMPI PUSH1 0x0 SLOAD DUP2 LT ISZERO PUSH2 0x1E65 JUMPI PUSH1 0x0 PUSH1 0x4 PUSH1 0x0 DUP4 DUP2 MSTORE PUSH1 0x20 ADD SWAP1 DUP2 MSTORE PUSH1 0x20 ADD PUSH1 0x0 KECCAK256 SLOAD SWAP1 POP PUSH1 0x0 PUSH29 0x100000000000000000000000000000000000000000000000000000000 DUP3 AND EQ ISZERO PUSH2 0x1E63 JUMPI JUMPDEST PUSH1 0x0 DUP2 EQ ISZERO PUSH2 0x1E59 JUMPI PUSH1 0x4 PUSH1 0x0 DUP4 PUSH1 0x1 SWAP1 SUB SWAP4 POP DUP4 DUP2 MSTORE PUSH1 0x20 ADD SWAP1 DUP2 MSTORE PUSH1 0x20 ADD PUSH1 0x0 KECCAK256 SLOAD SWAP1 POP PUSH2 0x1E2E JUMP JUMPDEST DUP1 SWAP3 POP POP POP PUSH2 0x1E98 JUMP JUMPDEST POP JUMPDEST JUMPDEST PUSH1 0x40 MLOAD PUSH32 0xDF2D9B4200000000000000000000000000000000000000000000000000000000 DUP2 MSTORE PUSH1 0x4 ADD PUSH1 0x40 MLOAD DUP1 SWAP2 SUB SWAP1 REVERT JUMPDEST SWAP2 SWAP1 POP JUMP JUMPDEST PUSH1 0x0 DUP1 PUSH1 0x0 PUSH1 0x6 PUSH1 0x0 DUP6 DUP2 MSTORE PUSH1 0x20 ADD SWAP1 DUP2 MSTORE PUSH1 0x20 ADD PUSH1 0x0 KECCAK256 SWAP1 POP DUP1 SWAP3 POP DUP3 SLOAD SWAP2 POP POP SWAP2 POP SWAP2 JUMP JUMPDEST PUSH1 0x0 PUSH20 0xFFFFFFFFFFFFFFFFFFFFFFFFFFFFFFFFFFFFFFFF DUP4 AND SWAP3 POP PUSH20 0xFFFFFFFFFFFFFFFFFFFFFFFFFFFFFFFFFFFFFFFF DUP3 AND SWAP2 POP DUP4 DUP3 EQ DUP4 DUP4 EQ OR SWAP1 POP SWAP4 SWAP3 POP POP POP JUMP JUMPDEST POP POP POP POP JUMP JUMPDEST PUSH1 0x0 DUP1 PUSH1 0xE8 DUP4 SWAP1 SHR SWAP1 POP PUSH1 0xE8 PUSH2 0x1F25 DUP7 DUP7 DUP5 PUSH2 0x24A6 JUMP JUMPDEST PUSH3 0xFFFFFF AND SWAP1 SHL SWAP2 POP POP SWAP4 SWAP3 POP POP POP JUMP JUMPDEST PUSH1 0x0 PUSH20 0xFFFFFFFFFFFFFFFFFFFFFFFFFFFFFFFFFFFFFFFF DUP4 AND SWAP3 POP DUP2 TIMESTAMP PUSH1 0xA0 SHL OR DUP4 OR SWAP1 POP SWAP3 SWAP2 POP POP JUMP JUMPDEST PUSH2 0x1F6C DUP5 DUP5 DUP5 PUSH2 0x24AF JUMP JUMPDEST POP POP POP POP JUMP JUMPDEST PUSH2 0x1F7A PUSH2 0x2712 JUMP JUMPDEST PUSH20 0xFFFFFFFFFFFFFFFFFFFFFFFFFFFFFFFFFFFFFFFF AND PUSH2 0x1F98 PUSH2 0xFB5 JUMP JUMPDEST PUSH20 0xFFFFFFFFFFFFFFFFFFFFFFFFFFFFFFFFFFFFFFFF AND EQ PUSH2 0x1FEE JUMPI PUSH1 0x40 MLOAD PUSH32 0x8C379A000000000000000000000000000000000000000000000000000000000 DUP2 MSTORE PUSH1 0x4 ADD PUSH2 0x1FE5 SWAP1 PUSH2 0x3A50 JUMP JUMPDEST PUSH1 0x40 MLOAD DUP1 SWAP2 SUB SWAP1 REVERT JUMPDEST JUMP JUMPDEST PUSH1 0x0 PUSH1 0x8 PUSH1 0x0 SWAP1 SLOAD SWAP1 PUSH2 0x100 EXP SWAP1 DIV PUSH20 0xFFFFFFFFFFFFFFFFFFFFFFFFFFFFFFFFFFFFFFFF AND SWAP1 POP DUP2 PUSH1 0x8 PUSH1 0x0 PUSH2 0x100 EXP DUP2 SLOAD DUP2 PUSH20 0xFFFFFFFFFFFFFFFFFFFFFFFFFFFFFFFFFFFFFFFF MUL NOT AND SWAP1 DUP4 PUSH20 0xFFFFFFFFFFFFFFFFFFFFFFFFFFFFFFFFFFFFFFFF AND MUL OR SWAP1 SSTORE POP DUP2 PUSH20 0xFFFFFFFFFFFFFFFFFFFFFFFFFFFFFFFFFFFFFFFF AND DUP2 PUSH20 0xFFFFFFFFFFFFFFFFFFFFFFFFFFFFFFFFFFFFFFFF AND PUSH32 0x8BE0079C531659141344CD1FD0A4F28419497F9722A3DAAFE3B4186F6B6457E0 PUSH1 0x40 MLOAD PUSH1 0x40 MLOAD DUP1 SWAP2 SUB SWAP1 LOG3 POP POP JUMP JUMPDEST PUSH1 0x0 DUP4 PUSH20 0xFFFFFFFFFFFFFFFFFFFFFFFFFFFFFFFFFFFFFFFF AND PUSH4 0x150B7A02 PUSH2 0x20DC PUSH2 0x1DBE JUMP JUMPDEST DUP8 DUP7 DUP7 PUSH1 0x40 MLOAD DUP6 PUSH4 0xFFFFFFFF AND PUSH1 0xE0 SHL DUP2 MSTORE PUSH1 0x4 ADD PUSH2 0x20FE SWAP5 SWAP4 SWAP3 SWAP2 SWAP1 PUSH2 0x3AC5 JUMP JUMPDEST PUSH1 0x20 PUSH1 0x40 MLOAD DUP1 DUP4 SUB DUP2 PUSH1 0x0 DUP8 DUP1 EXTCODESIZE ISZERO DUP1 ISZERO PUSH2 0x2118 JUMPI PUSH1 0x0 DUP1 REVERT JUMPDEST POP GAS CALL SWAP3 POP POP POP DUP1 ISZERO PUSH2 0x2149 JUMPI POP PUSH1 0x40 MLOAD RETURNDATASIZE PUSH1 0x1F NOT PUSH1 0x1F DUP3 ADD AND DUP3 ADD DUP1 PUSH1 0x40 MSTORE POP DUP2 ADD SWAP1 PUSH2 0x2146 SWAP2 SWAP1 PUSH2 0x3B26 JUMP JUMPDEST PUSH1 0x1 JUMPDEST PUSH2 0x21C3 JUMPI RETURNDATASIZE DUP1 PUSH1 0x0 DUP2 EQ PUSH2 0x2179 JUMPI PUSH1 0x40 MLOAD SWAP2 POP PUSH1 0x1F NOT PUSH1 0x3F RETURNDATASIZE ADD AND DUP3 ADD PUSH1 0x40 MSTORE RETURNDATASIZE DUP3 MSTORE RETURNDATASIZE PUSH1 0x0 PUSH1 0x20 DUP5 ADD RETURNDATACOPY PUSH2 0x217E JUMP JUMPDEST PUSH1 0x60 SWAP2 POP JUMPDEST POP PUSH1 0x0 DUP2 MLOAD EQ ISZERO PUSH2 0x21BB JUMPI PUSH1 0x40 MLOAD PUSH32 0xD1A57ED600000000000000000000000000000000000000000000000000000000 DUP2 MSTORE PUSH1 0x4 ADD PUSH1 0x40 MLOAD DUP1 SWAP2 SUB SWAP1 REVERT JUMPDEST DUP1 MLOAD DUP2 PUSH1 0x20 ADD REVERT JUMPDEST PUSH4 0x150B7A02 PUSH1 0xE0 SHL PUSH28 0xFFFFFFFFFFFFFFFFFFFFFFFFFFFFFFFFFFFFFFFFFFFFFFFFFFFFFFFF NOT AND DUP2 PUSH28 0xFFFFFFFFFFFFFFFFFFFFFFFFFFFFFFFFFFFFFFFFFFFFFFFFFFFFFFFF NOT AND EQ SWAP2 POP POP SWAP5 SWAP4 POP POP POP POP JUMP JUMPDEST PUSH1 0x0 PUSH1 0xD PUSH1 0x0 DUP4 DUP2 MSTORE PUSH1 0x20 ADD SWAP1 DUP2 MSTORE PUSH1 0x20 ADD PUSH1 0x0 KECCAK256 PUSH1 0x0 ADD SLOAD EQ ISZERO PUSH2 0x2270 JUMPI PUSH1 0x40 MLOAD PUSH32 0x8C379A000000000000000000000000000000000000000000000000000000000 DUP2 MSTORE PUSH1 0x4 ADD PUSH2 0x2267 SWAP1 PUSH2 0x3B9F JUMP JUMPDEST PUSH1 0x40 MLOAD DUP1 SWAP2 SUB SWAP1 REVERT JUMPDEST PUSH1 0x0 PUSH2 0x227B DUP3 PUSH2 0xC02 JUMP JUMPDEST SWAP1 POP DUP1 PUSH20 0xFFFFFFFFFFFFFFFFFFFFFFFFFFFFFFFFFFFFFFFF AND PUSH2 0x229C PUSH2 0x1DBE JUMP JUMPDEST PUSH20 0xFFFFFFFFFFFFFFFFFFFFFFFFFFFFFFFFFFFFFFFF AND EQ PUSH2 0x22F2 JUMPI PUSH1 0x40 MLOAD PUSH32 0x8C379A000000000000000000000000000000000000000000000000000000000 DUP2 MSTORE PUSH1 0x4 ADD PUSH2 0x22E9 SWAP1 PUSH2 0x3C0B JUMP JUMPDEST PUSH1 0x40 MLOAD DUP1 SWAP2 SUB SWAP1 REVERT JUMPDEST POP POP JUMP JUMPDEST PUSH1 0x60 PUSH1 0xC DUP1 SLOAD PUSH2 0x2305 SWAP1 PUSH2 0x3527 JUMP JUMPDEST DUP1 PUSH1 0x1F ADD PUSH1 0x20 DUP1 SWAP2 DIV MUL PUSH1 0x20 ADD PUSH1 0x40 MLOAD SWAP1 DUP2 ADD PUSH1 0x40 MSTORE DUP1 SWAP3 SWAP2 SWAP1 DUP2 DUP2 MSTORE PUSH1 0x20 ADD DUP3 DUP1 SLOAD PUSH2 0x2331 SWAP1 PUSH2 0x3527 JUMP JUMPDEST DUP1 ISZERO PUSH2 0x237E JUMPI DUP1 PUSH1 0x1F LT PUSH2 0x2353 JUMPI PUSH2 0x100 DUP1 DUP4 SLOAD DIV MUL DUP4 MSTORE SWAP2 PUSH1 0x20 ADD SWAP2 PUSH2 0x237E JUMP JUMPDEST DUP3 ADD SWAP2 SWAP1 PUSH1 0x0 MSTORE PUSH1 0x20 PUSH1 0x0 KECCAK256 SWAP1 JUMPDEST DUP2 SLOAD DUP2 MSTORE SWAP1 PUSH1 0x1 ADD SWAP1 PUSH1 0x20 ADD DUP1 DUP4 GT PUSH2 0x2361 JUMPI DUP3 SWAP1 SUB PUSH1 0x1F AND DUP3 ADD SWAP2 JUMPDEST POP POP POP POP POP SWAP1 POP SWAP1 JUMP JUMPDEST PUSH1 0x60 PUSH1 0x80 PUSH1 0x40 MLOAD ADD SWAP1 POP DUP1 PUSH1 0x40 MSTORE DUP1 DUP3 PUSH1 0x1 DUP4 SUB SWAP3 POP PUSH1 0xA DUP2 MOD PUSH1 0x30 ADD DUP4 MSTORE8 PUSH1 0xA DUP2 DIV SWAP1 POP JUMPDEST DUP1 ISZERO PUSH2 0x23CE JUMPI PUSH1 0x1 DUP4 SUB SWAP3 POP PUSH1 0xA DUP2 MOD PUSH1 0x30 ADD DUP4 MSTORE8 PUSH1 0xA DUP2 DIV SWAP1 POP PUSH2 0x23AE JUMP JUMPDEST POP DUP2 DUP2 SUB PUSH1 0x20 DUP4 SUB SWAP3 POP DUP1 DUP4 MSTORE POP POP SWAP2 SWAP1 POP JUMP JUMPDEST PUSH2 0x23EA PUSH2 0xBEB JUMP JUMPDEST ISZERO PUSH2 0x242A JUMPI PUSH1 0x40 MLOAD PUSH32 0x8C379A000000000000000000000000000000000000000000000000000000000 DUP2 MSTORE PUSH1 0x4 ADD PUSH2 0x2421 SWAP1 PUSH2 0x3C77 JUMP JUMPDEST PUSH1 0x40 MLOAD DUP1 SWAP2 SUB SWAP1 REVERT JUMPDEST JUMP JUMPDEST PUSH1 0x0 DUP1 SLOAD SWAP1 POP SWAP1 JUMP JUMPDEST PUSH2 0x244F DUP3 DUP3 PUSH1 0x40 MLOAD DUP1 PUSH1 0x20 ADD PUSH1 0x40 MSTORE DUP1 PUSH1 0x0 DUP2 MSTORE POP PUSH2 0x271A JUMP JUMPDEST POP POP JUMP JUMPDEST PUSH1 0x0 TIMESTAMP NUMBER PUSH1 0x80 NUMBER PUSH2 0x2464 SWAP2 SWAP1 PUSH2 0x3CC6 JUMP JUMPDEST TIMESTAMP XOR PUSH2 0x100 NUMBER PUSH2 0x2474 SWAP2 SWAP1 PUSH2 0x3CC6 JUMP JUMPDEST TIMESTAMP OR CALLER PUSH1 0x40 MLOAD PUSH1 0x20 ADD PUSH2 0x248B SWAP6 SWAP5 SWAP4 SWAP3 SWAP2 SWAP1 PUSH2 0x3D60 JUMP JUMPDEST PUSH1 0x40 MLOAD PUSH1 0x20 DUP2 DUP4 SUB SUB DUP2 MSTORE SWAP1 PUSH1 0x40 MSTORE DUP1 MLOAD SWAP1 PUSH1 0x20 ADD KECCAK256 SWAP1 POP SWAP1 JUMP JUMPDEST PUSH1 0x0 SWAP4 SWAP3 POP POP POP JUMP JUMPDEST DUP2 PUSH1 0xD PUSH1 0x0 DUP4 DUP2 MSTORE PUSH1 0x20 ADD SWAP1 DUP2 MSTORE PUSH1 0x20 ADD PUSH1 0x0 KECCAK256 PUSH1 0x4 ADD PUSH1 0x0 PUSH2 0x100 EXP DUP2 SLOAD DUP2 PUSH20 0xFFFFFFFFFFFFFFFFFFFFFFFFFFFFFFFFFFFFFFFF MUL NOT AND SWAP1 DUP4 PUSH20 0xFFFFFFFFFFFFFFFFFFFFFFFFFFFFFFFFFFFFFFFF AND MUL OR SWAP1 SSTORE POP PUSH1 0x0 PUSH20 0xFFFFFFFFFFFFFFFFFFFFFFFFFFFFFFFFFFFFFFFF AND DUP4 PUSH20 0xFFFFFFFFFFFFFFFFFFFFFFFFFFFFFFFFFFFFFFFF AND EQ PUSH2 0x26A7 JUMPI PUSH1 0xE PUSH1 0x0 DUP5 PUSH20 0xFFFFFFFFFFFFFFFFFFFFFFFFFFFFFFFFFFFFFFFF AND PUSH20 0xFFFFFFFFFFFFFFFFFFFFFFFFFFFFFFFFFFFFFFFF AND DUP2 MSTORE PUSH1 0x20 ADD SWAP1 DUP2 MSTORE PUSH1 0x20 ADD PUSH1 0x0 KECCAK256 PUSH1 0x1 PUSH1 0xE PUSH1 0x0 DUP7 PUSH20 0xFFFFFFFFFFFFFFFFFFFFFFFFFFFFFFFFFFFFFFFF AND PUSH20 0xFFFFFFFFFFFFFFFFFFFFFFFFFFFFFFFFFFFFFFFF AND DUP2 MSTORE PUSH1 0x20 ADD SWAP1 DUP2 MSTORE PUSH1 0x20 ADD PUSH1 0x0 KECCAK256 DUP1 SLOAD SWAP1 POP PUSH2 0x25C6 SWAP2 SWAP1 PUSH2 0x3588 JUMP JUMPDEST DUP2 SLOAD DUP2 LT PUSH2 0x25D7 JUMPI PUSH2 0x25D6 PUSH2 0x3612 JUMP JUMPDEST JUMPDEST SWAP1 PUSH1 0x0 MSTORE PUSH1 0x20 PUSH1 0x0 KECCAK256 ADD SLOAD PUSH1 0xE PUSH1 0x0 DUP6 PUSH20 0xFFFFFFFFFFFFFFFFFFFFFFFFFFFFFFFFFFFFFFFF AND PUSH20 0xFFFFFFFFFFFFFFFFFFFFFFFFFFFFFFFFFFFFFFFF AND DUP2 MSTORE PUSH1 0x20 ADD SWAP1 DUP2 MSTORE PUSH1 0x20 ADD PUSH1 0x0 KECCAK256 DUP3 DUP2 SLOAD DUP2 LT PUSH2 0x2633 JUMPI PUSH2 0x2632 PUSH2 0x3612 JUMP JUMPDEST JUMPDEST SWAP1 PUSH1 0x0 MSTORE PUSH1 0x20 PUSH1 0x0 KECCAK256 ADD DUP2 SWAP1 SSTORE POP PUSH1 0xE PUSH1 0x0 DUP5 PUSH20 0xFFFFFFFFFFFFFFFFFFFFFFFFFFFFFFFFFFFFFFFF AND PUSH20 0xFFFFFFFFFFFFFFFFFFFFFFFFFFFFFFFFFFFFFFFF AND DUP2 MSTORE PUSH1 0x20 ADD SWAP1 DUP2 MSTORE PUSH1 0x20 ADD PUSH1 0x0 KECCAK256 DUP1 SLOAD DUP1 PUSH2 0x2690 JUMPI PUSH2 0x268F PUSH2 0x3DBF JUMP JUMPDEST JUMPDEST PUSH1 0x1 SWAP1 SUB DUP2 DUP2 SWAP1 PUSH1 0x0 MSTORE PUSH1 0x20 PUSH1 0x0 KECCAK256 ADD PUSH1 0x0 SWAP1 SSTORE SWAP1 SSTORE JUMPDEST PUSH1 0xE PUSH1 0x0 DUP4 PUSH20 0xFFFFFFFFFFFFFFFFFFFFFFFFFFFFFFFFFFFFFFFF AND PUSH20 0xFFFFFFFFFFFFFFFFFFFFFFFFFFFFFFFFFFFFFFFF AND DUP2 MSTORE PUSH1 0x20 ADD SWAP1 DUP2 MSTORE PUSH1 0x20 ADD PUSH1 0x0 KECCAK256 DUP2 SWAP1 DUP1 PUSH1 0x1 DUP2 SLOAD ADD DUP1 DUP3 SSTORE DUP1 SWAP2 POP POP PUSH1 0x1 SWAP1 SUB SWAP1 PUSH1 0x0 MSTORE PUSH1 0x20 PUSH1 0x0 KECCAK256 ADD PUSH1 0x0 SWAP1 SWAP2 SWAP1 SWAP2 SWAP1 SWAP2 POP SSTORE POP POP POP JUMP JUMPDEST PUSH1 0x0 CALLER SWAP1 POP SWAP1 JUMP JUMPDEST PUSH2 0x2724 DUP4 DUP4 PUSH2 0x27B7 JUMP JUMPDEST PUSH1 0x0 DUP4 PUSH20 0xFFFFFFFFFFFFFFFFFFFFFFFFFFFFFFFFFFFFFFFF AND EXTCODESIZE EQ PUSH2 0x27B2 JUMPI PUSH1 0x0 DUP1 SLOAD SWAP1 POP PUSH1 0x0 DUP4 DUP3 SUB SWAP1 POP JUMPDEST PUSH2 0x2764 PUSH1 0x0 DUP7 DUP4 DUP1 PUSH1 0x1 ADD SWAP5 POP DUP7 PUSH2 0x20B6 JUMP JUMPDEST PUSH2 0x279A JUMPI PUSH1 0x40 MLOAD PUSH32 0xD1A57ED600000000000000000000000000000000000000000000000000000000 DUP2 MSTORE PUSH1 0x4 ADD PUSH1 0x40 MLOAD DUP1 SWAP2 SUB SWAP1 REVERT JUMPDEST DUP2 DUP2 LT PUSH2 0x2751 JUMPI DUP2 PUSH1 0x0 SLOAD EQ PUSH2 0x27AF JUMPI PUSH1 0x0 DUP1 REVERT JUMPDEST POP POP JUMPDEST POP POP POP JUMP JUMPDEST PUSH1 0x0 DUP1 SLOAD SWAP1 POP PUSH1 0x0 DUP3 EQ ISZERO PUSH2 0x27F8 JUMPI PUSH1 0x40 MLOAD PUSH32 0xB562E8DD00000000000000000000000000000000000000000000000000000000 DUP2 MSTORE PUSH1 0x4 ADD PUSH1 0x40 MLOAD DUP1 SWAP2 SUB SWAP1 REVERT JUMPDEST PUSH2 0x2805 PUSH1 0x0 DUP5 DUP4 DUP6 PUSH2 0x1F08 JUMP JUMPDEST PUSH1 0x1 PUSH1 0x40 PUSH1 0x1 SWAP1 SHL OR DUP3 MUL PUSH1 0x5 PUSH1 0x0 DUP6 PUSH20 0xFFFFFFFFFFFFFFFFFFFFFFFFFFFFFFFFFFFFFFFF AND PUSH20 0xFFFFFFFFFFFFFFFFFFFFFFFFFFFFFFFFFFFFFFFF AND DUP2 MSTORE PUSH1 0x20 ADD SWAP1 DUP2 MSTORE PUSH1 0x20 ADD PUSH1 0x0 KECCAK256 PUSH1 0x0 DUP3 DUP3 SLOAD ADD SWAP3 POP POP DUP2 SWAP1 SSTORE POP PUSH2 0x287C DUP4 PUSH2 0x286D PUSH1 0x0 DUP7 PUSH1 0x0 PUSH2 0x1F0E JUMP JUMPDEST PUSH2 0x2876 DUP6 PUSH2 0x2974 JUMP JUMPDEST OR PUSH2 0x1F36 JUMP JUMPDEST PUSH1 0x4 PUSH1 0x0 DUP4 DUP2 MSTORE PUSH1 0x20 ADD SWAP1 DUP2 MSTORE PUSH1 0x20 ADD PUSH1 0x0 KECCAK256 DUP2 SWAP1 SSTORE POP PUSH1 0x0 DUP1 DUP4 DUP4 ADD SWAP1 POP PUSH20 0xFFFFFFFFFFFFFFFFFFFFFFFFFFFFFFFFFFFFFFFF DUP6 AND SWAP2 POP DUP3 DUP3 PUSH1 0x0 PUSH32 0xDDF252AD1BE2C89B69C2B068FC378DAA952BA7F163C4A11628F55A4DF523B3EF PUSH1 0x0 DUP1 LOG4 PUSH1 0x1 DUP4 ADD JUMPDEST DUP2 DUP2 EQ PUSH2 0x291D JUMPI DUP1 DUP4 PUSH1 0x0 PUSH32 0xDDF252AD1BE2C89B69C2B068FC378DAA952BA7F163C4A11628F55A4DF523B3EF PUSH1 0x0 DUP1 LOG4 PUSH1 0x1 DUP2 ADD SWAP1 POP PUSH2 0x28E2 JUMP JUMPDEST POP PUSH1 0x0 DUP3 EQ ISZERO PUSH2 0x2959 JUMPI PUSH1 0x40 MLOAD PUSH32 0x2E07630000000000000000000000000000000000000000000000000000000000 DUP2 MSTORE PUSH1 0x4 ADD PUSH1 0x40 MLOAD DUP1 SWAP2 SUB SWAP1 REVERT JUMPDEST DUP1 PUSH1 0x0 DUP2 SWAP1 SSTORE POP POP POP PUSH2 0x296F PUSH1 0x0 DUP5 DUP4 DUP6 PUSH2 0x1F61 JUMP JUMPDEST POP POP POP JUMP JUMPDEST PUSH1 0x0 PUSH1 0x1 DUP3 EQ PUSH1 0xE1 SHL SWAP1 POP SWAP2 SWAP1 POP JUMP JUMPDEST PUSH1 0x40 MLOAD DUP1 PUSH1 0xA0 ADD PUSH1 0x40 MSTORE DUP1 PUSH1 0x0 DUP2 MSTORE PUSH1 0x20 ADD PUSH1 0x60 DUP2 MSTORE PUSH1 0x20 ADD PUSH1 0x0 DUP1 NOT AND DUP2 MSTORE PUSH1 0x20 ADD PUSH1 0x0 DUP1 NOT AND DUP2 MSTORE PUSH1 0x20 ADD PUSH1 0x0 PUSH20 0xFFFFFFFFFFFFFFFFFFFFFFFFFFFFFFFFFFFFFFFF AND DUP2 MSTORE POP SWAP1 JUMP JUMPDEST DUP3 DUP1 SLOAD PUSH2 0x29DB SWAP1 PUSH2 0x3527 JUMP JUMPDEST SWAP1 PUSH1 0x0 MSTORE PUSH1 0x20 PUSH1 0x0 KECCAK256 SWAP1 PUSH1 0x1F ADD PUSH1 0x20 SWAP1 DIV DUP2 ADD SWAP3 DUP3 PUSH2 0x29FD JUMPI PUSH1 0x0 DUP6 SSTORE PUSH2 0x2A44 JUMP JUMPDEST DUP3 PUSH1 0x1F LT PUSH2 0x2A16 JUMPI DUP1 MLOAD PUSH1 0xFF NOT AND DUP4 DUP1 ADD OR DUP6 SSTORE PUSH2 0x2A44 JUMP JUMPDEST DUP3 DUP1 ADD PUSH1 0x1 ADD DUP6 SSTORE DUP3 ISZERO PUSH2 0x2A44 JUMPI SWAP2 DUP3 ADD JUMPDEST DUP3 DUP2 GT ISZERO PUSH2 0x2A43 JUMPI DUP3 MLOAD DUP3 SSTORE SWAP2 PUSH1 0x20 ADD SWAP2 SWAP1 PUSH1 0x1 ADD SWAP1 PUSH2 0x2A28 JUMP JUMPDEST JUMPDEST POP SWAP1 POP PUSH2 0x2A51 SWAP2 SWAP1 PUSH2 0x2A55 JUMP JUMPDEST POP SWAP1 JUMP JUMPDEST JUMPDEST DUP1 DUP3 GT ISZERO PUSH2 0x2A6E JUMPI PUSH1 0x0 DUP2 PUSH1 0x0 SWAP1 SSTORE POP PUSH1 0x1 ADD PUSH2 0x2A56 JUMP JUMPDEST POP SWAP1 JUMP JUMPDEST PUSH1 0x0 PUSH1 0x40 MLOAD SWAP1 POP SWAP1 JUMP JUMPDEST PUSH1 0x0 DUP1 REVERT JUMPDEST PUSH1 0x0 DUP1 REVERT JUMPDEST PUSH1 0x0 PUSH32 0xFFFFFFFF00000000000000000000000000000000000000000000000000000000 DUP3 AND SWAP1 POP SWAP2 SWAP1 POP JUMP JUMPDEST PUSH2 0x2ABB DUP2 PUSH2 0x2A86 JUMP JUMPDEST DUP2 EQ PUSH2 0x2AC6 JUMPI PUSH1 0x0 DUP1 REVERT JUMPDEST POP JUMP JUMPDEST PUSH1 0x0 DUP2 CALLDATALOAD SWAP1 POP PUSH2 0x2AD8 DUP2 PUSH2 0x2AB2 JUMP JUMPDEST SWAP3 SWAP2 POP POP JUMP JUMPDEST PUSH1 0x0 PUSH1 0x20 DUP3 DUP5 SUB SLT ISZERO PUSH2 0x2AF4 JUMPI PUSH2 0x2AF3 PUSH2 0x2A7C JUMP JUMPDEST JUMPDEST PUSH1 0x0 PUSH2 0x2B02 DUP5 DUP3 DUP6 ADD PUSH2 0x2AC9 JUMP JUMPDEST SWAP2 POP POP SWAP3 SWAP2 POP POP JUMP JUMPDEST PUSH1 0x0 DUP2 ISZERO ISZERO SWAP1 POP SWAP2 SWAP1 POP JUMP JUMPDEST PUSH2 0x2B20 DUP2 PUSH2 0x2B0B JUMP JUMPDEST DUP3 MSTORE POP POP JUMP JUMPDEST PUSH1 0x0 PUSH1 0x20 DUP3 ADD SWAP1 POP PUSH2 0x2B3B PUSH1 0x0 DUP4 ADD DUP5 PUSH2 0x2B17 JUMP JUMPDEST SWAP3 SWAP2 POP POP JUMP JUMPDEST PUSH1 0x0 DUP2 MLOAD SWAP1 POP SWAP2 SWAP1 POP JUMP JUMPDEST PUSH1 0x0 DUP3 DUP3 MSTORE PUSH1 0x20 DUP3 ADD SWAP1 POP SWAP3 SWAP2 POP POP JUMP JUMPDEST PUSH1 0x0 JUMPDEST DUP4 DUP2 LT ISZERO PUSH2 0x2B7B JUMPI DUP1 DUP3 ADD MLOAD DUP2 DUP5 ADD MSTORE PUSH1 0x20 DUP2 ADD SWAP1 POP PUSH2 0x2B60 JUMP JUMPDEST DUP4 DUP2 GT ISZERO PUSH2 0x2B8A JUMPI PUSH1 0x0 DUP5 DUP5 ADD MSTORE JUMPDEST POP POP POP POP JUMP JUMPDEST PUSH1 0x0 PUSH1 0x1F NOT PUSH1 0x1F DUP4 ADD AND SWAP1 POP SWAP2 SWAP1 POP JUMP JUMPDEST PUSH1 0x0 PUSH2 0x2BAC DUP3 PUSH2 0x2B41 JUMP JUMPDEST PUSH2 0x2BB6 DUP2 DUP6 PUSH2 0x2B4C JUMP JUMPDEST SWAP4 POP PUSH2 0x2BC6 DUP2 DUP6 PUSH1 0x20 DUP7 ADD PUSH2 0x2B5D JUMP JUMPDEST PUSH2 0x2BCF DUP2 PUSH2 0x2B90 JUMP JUMPDEST DUP5 ADD SWAP2 POP POP SWAP3 SWAP2 POP POP JUMP JUMPDEST PUSH1 0x0 PUSH1 0x20 DUP3 ADD SWAP1 POP DUP2 DUP2 SUB PUSH1 0x0 DUP4 ADD MSTORE PUSH2 0x2BF4 DUP2 DUP5 PUSH2 0x2BA1 JUMP JUMPDEST SWAP1 POP SWAP3 SWAP2 POP POP JUMP JUMPDEST PUSH1 0x0 DUP2 SWAP1 POP SWAP2 SWAP1 POP JUMP JUMPDEST PUSH2 0x2C0F DUP2 PUSH2 0x2BFC JUMP JUMPDEST DUP2 EQ PUSH2 0x2C1A JUMPI PUSH1 0x0 DUP1 REVERT JUMPDEST POP JUMP JUMPDEST PUSH1 0x0 DUP2 CALLDATALOAD SWAP1 POP PUSH2 0x2C2C DUP2 PUSH2 0x2C06 JUMP JUMPDEST SWAP3 SWAP2 POP POP JUMP JUMPDEST PUSH1 0x0 PUSH1 0x20 DUP3 DUP5 SUB SLT ISZERO PUSH2 0x2C48 JUMPI PUSH2 0x2C47 PUSH2 0x2A7C JUMP JUMPDEST JUMPDEST PUSH1 0x0 PUSH2 0x2C56 DUP5 DUP3 DUP6 ADD PUSH2 0x2C1D JUMP JUMPDEST SWAP2 POP POP SWAP3 SWAP2 POP POP JUMP JUMPDEST PUSH1 0x0 PUSH20 0xFFFFFFFFFFFFFFFFFFFFFFFFFFFFFFFFFFFFFFFF DUP3 AND SWAP1 POP SWAP2 SWAP1 POP JUMP JUMPDEST PUSH1 0x0 PUSH2 0x2C8A DUP3 PUSH2 0x2C5F JUMP JUMPDEST SWAP1 POP SWAP2 SWAP1 POP JUMP JUMPDEST PUSH2 0x2C9A DUP2 PUSH2 0x2C7F JUMP JUMPDEST DUP3 MSTORE POP POP JUMP JUMPDEST PUSH1 0x0 PUSH1 0x20 DUP3 ADD SWAP1 POP PUSH2 0x2CB5 PUSH1 0x0 DUP4 ADD DUP5 PUSH2 0x2C91 JUMP JUMPDEST SWAP3 SWAP2 POP POP JUMP JUMPDEST PUSH2 0x2CC4 DUP2 PUSH2 0x2C7F JUMP JUMPDEST DUP2 EQ PUSH2 0x2CCF JUMPI PUSH1 0x0 DUP1 REVERT JUMPDEST POP JUMP JUMPDEST PUSH1 0x0 DUP2 CALLDATALOAD SWAP1 POP PUSH2 0x2CE1 DUP2 PUSH2 0x2CBB JUMP JUMPDEST SWAP3 SWAP2 POP POP JUMP JUMPDEST PUSH1 0x0 DUP1 PUSH1 0x40 DUP4 DUP6 SUB SLT ISZERO PUSH2 0x2CFE JUMPI PUSH2 0x2CFD PUSH2 0x2A7C JUMP JUMPDEST JUMPDEST PUSH1 0x0 PUSH2 0x2D0C DUP6 DUP3 DUP7 ADD PUSH2 0x2CD2 JUMP JUMPDEST SWAP3 POP POP PUSH1 0x20 PUSH2 0x2D1D DUP6 DUP3 DUP7 ADD PUSH2 0x2C1D JUMP JUMPDEST SWAP2 POP POP SWAP3 POP SWAP3 SWAP1 POP JUMP JUMPDEST PUSH2 0x2D30 DUP2 PUSH2 0x2BFC JUMP JUMPDEST DUP3 MSTORE POP POP JUMP JUMPDEST PUSH1 0x0 PUSH1 0x20 DUP3 ADD SWAP1 POP PUSH2 0x2D4B PUSH1 0x0 DUP4 ADD DUP5 PUSH2 0x2D27 JUMP JUMPDEST SWAP3 SWAP2 POP POP JUMP JUMPDEST PUSH1 0x0 DUP1 PUSH1 0x0 PUSH1 0x60 DUP5 DUP7 SUB SLT ISZERO PUSH2 0x2D6A JUMPI PUSH2 0x2D69 PUSH2 0x2A7C JUMP JUMPDEST JUMPDEST PUSH1 0x0 PUSH2 0x2D78 DUP7 DUP3 DUP8 ADD PUSH2 0x2CD2 JUMP JUMPDEST SWAP4 POP POP PUSH1 0x20 PUSH2 0x2D89 DUP7 DUP3 DUP8 ADD PUSH2 0x2CD2 JUMP JUMPDEST SWAP3 POP POP PUSH1 0x40 PUSH2 0x2D9A DUP7 DUP3 DUP8 ADD PUSH2 0x2C1D JUMP JUMPDEST SWAP2 POP POP SWAP3 POP SWAP3 POP SWAP3 JUMP JUMPDEST PUSH1 0x0 PUSH1 0x20 DUP3 DUP5 SUB SLT ISZERO PUSH2 0x2DBA JUMPI PUSH2 0x2DB9 PUSH2 0x2A7C JUMP JUMPDEST JUMPDEST PUSH1 0x0 PUSH2 0x2DC8 DUP5 DUP3 DUP6 ADD PUSH2 0x2CD2 JUMP JUMPDEST SWAP2 POP POP SWAP3 SWAP2 POP POP JUMP JUMPDEST PUSH1 0x0 DUP1 PUSH1 0x0 PUSH1 0x60 DUP5 DUP7 SUB SLT ISZERO PUSH2 0x2DEA JUMPI PUSH2 0x2DE9 PUSH2 0x2A7C JUMP JUMPDEST JUMPDEST PUSH1 0x0 PUSH2 0x2DF8 DUP7 DUP3 DUP8 ADD PUSH2 0x2CD2 JUMP JUMPDEST SWAP4 POP POP PUSH1 0x20 PUSH2 0x2E09 DUP7 DUP3 DUP8 ADD PUSH2 0x2C1D JUMP JUMPDEST SWAP3 POP POP PUSH1 0x40 PUSH2 0x2E1A DUP7 DUP3 DUP8 ADD PUSH2 0x2C1D JUMP JUMPDEST SWAP2 POP POP SWAP3 POP SWAP3 POP SWAP3 JUMP JUMPDEST PUSH1 0x0 DUP2 MLOAD SWAP1 POP SWAP2 SWAP1 POP JUMP JUMPDEST PUSH1 0x0 DUP3 DUP3 MSTORE PUSH1 0x20 DUP3 ADD SWAP1 POP SWAP3 SWAP2 POP POP JUMP JUMPDEST PUSH1 0x0 DUP2 SWAP1 POP PUSH1 0x20 DUP3 ADD SWAP1 POP SWAP2 SWAP1 POP JUMP JUMPDEST PUSH2 0x2E59 DUP2 PUSH2 0x2BFC JUMP JUMPDEST DUP3 MSTORE POP POP JUMP JUMPDEST PUSH1 0x0 DUP3 DUP3 MSTORE PUSH1 0x20 DUP3 ADD SWAP1 POP SWAP3 SWAP2 POP POP JUMP JUMPDEST PUSH1 0x0 PUSH2 0x2E7B DUP3 PUSH2 0x2B41 JUMP JUMPDEST PUSH2 0x2E85 DUP2 DUP6 PUSH2 0x2E5F JUMP JUMPDEST SWAP4 POP PUSH2 0x2E95 DUP2 DUP6 PUSH1 0x20 DUP7 ADD PUSH2 0x2B5D JUMP JUMPDEST PUSH2 0x2E9E DUP2 PUSH2 0x2B90 JUMP JUMPDEST DUP5 ADD SWAP2 POP POP SWAP3 SWAP2 POP POP JUMP JUMPDEST PUSH1 0x0 DUP2 SWAP1 POP SWAP2 SWAP1 POP JUMP JUMPDEST PUSH2 0x2EBC DUP2 PUSH2 0x2EA9 JUMP JUMPDEST DUP3 MSTORE POP POP JUMP JUMPDEST PUSH2 0x2ECB DUP2 PUSH2 0x2C7F JUMP JUMPDEST DUP3 MSTORE POP POP JUMP JUMPDEST PUSH1 0x0 PUSH1 0xA0 DUP4 ADD PUSH1 0x0 DUP4 ADD MLOAD PUSH2 0x2EE9 PUSH1 0x0 DUP7 ADD DUP3 PUSH2 0x2E50 JUMP JUMPDEST POP PUSH1 0x20 DUP4 ADD MLOAD DUP5 DUP3 SUB PUSH1 0x20 DUP7 ADD MSTORE PUSH2 0x2F01 DUP3 DUP3 PUSH2 0x2E70 JUMP JUMPDEST SWAP2 POP POP PUSH1 0x40 DUP4 ADD MLOAD PUSH2 0x2F16 PUSH1 0x40 DUP7 ADD DUP3 PUSH2 0x2EB3 JUMP JUMPDEST POP PUSH1 0x60 DUP4 ADD MLOAD PUSH2 0x2F29 PUSH1 0x60 DUP7 ADD DUP3 PUSH2 0x2EB3 JUMP JUMPDEST POP PUSH1 0x80 DUP4 ADD MLOAD PUSH2 0x2F3C PUSH1 0x80 DUP7 ADD DUP3 PUSH2 0x2EC2 JUMP JUMPDEST POP DUP1 SWAP2 POP POP SWAP3 SWAP2 POP POP JUMP JUMPDEST PUSH1 0x0 PUSH2 0x2F53 DUP4 DUP4 PUSH2 0x2ED1 JUMP JUMPDEST SWAP1 POP SWAP3 SWAP2 POP POP JUMP JUMPDEST PUSH1 0x0 PUSH1 0x20 DUP3 ADD SWAP1 POP SWAP2 SWAP1 POP JUMP JUMPDEST PUSH1 0x0 PUSH2 0x2F73 DUP3 PUSH2 0x2E24 JUMP JUMPDEST PUSH2 0x2F7D DUP2 DUP6 PUSH2 0x2E2F JUMP JUMPDEST SWAP4 POP DUP4 PUSH1 0x20 DUP3 MUL DUP6 ADD PUSH2 0x2F8F DUP6 PUSH2 0x2E40 JUMP JUMPDEST DUP1 PUSH1 0x0 JUMPDEST DUP6 DUP2 LT ISZERO PUSH2 0x2FCB JUMPI DUP5 DUP5 SUB DUP10 MSTORE DUP2 MLOAD PUSH2 0x2FAC DUP6 DUP3 PUSH2 0x2F47 JUMP JUMPDEST SWAP5 POP PUSH2 0x2FB7 DUP4 PUSH2 0x2F5B JUMP JUMPDEST SWAP3 POP PUSH1 0x20 DUP11 ADD SWAP10 POP POP PUSH1 0x1 DUP2 ADD SWAP1 POP PUSH2 0x2F93 JUMP JUMPDEST POP DUP3 SWAP8 POP DUP8 SWAP6 POP POP POP POP POP POP SWAP3 SWAP2 POP POP JUMP JUMPDEST PUSH1 0x0 PUSH1 0x20 DUP3 ADD SWAP1 POP DUP2 DUP2 SUB PUSH1 0x0 DUP4 ADD MSTORE PUSH2 0x2FF7 DUP2 DUP5 PUSH2 0x2F68 JUMP JUMPDEST SWAP1 POP SWAP3 SWAP2 POP POP JUMP JUMPDEST PUSH1 0x0 DUP1 PUSH1 0x40 DUP4 DUP6 SUB SLT ISZERO PUSH2 0x3016 JUMPI PUSH2 0x3015 PUSH2 0x2A7C JUMP JUMPDEST JUMPDEST PUSH1 0x0 PUSH2 0x3024 DUP6 DUP3 DUP7 ADD PUSH2 0x2C1D JUMP JUMPDEST SWAP3 POP POP PUSH1 0x20 PUSH2 0x3035 DUP6 DUP3 DUP7 ADD PUSH2 0x2C1D JUMP JUMPDEST SWAP2 POP POP SWAP3 POP SWAP3 SWAP1 POP JUMP JUMPDEST PUSH2 0x3048 DUP2 PUSH2 0x2B0B JUMP JUMPDEST DUP2 EQ PUSH2 0x3053 JUMPI PUSH1 0x0 DUP1 REVERT JUMPDEST POP JUMP JUMPDEST PUSH1 0x0 DUP2 CALLDATALOAD SWAP1 POP PUSH2 0x3065 DUP2 PUSH2 0x303F JUMP JUMPDEST SWAP3 SWAP2 POP POP JUMP JUMPDEST PUSH1 0x0 DUP1 PUSH1 0x40 DUP4 DUP6 SUB SLT ISZERO PUSH2 0x3082 JUMPI PUSH2 0x3081 PUSH2 0x2A7C JUMP JUMPDEST JUMPDEST PUSH1 0x0 PUSH2 0x3090 DUP6 DUP3 DUP7 ADD PUSH2 0x2CD2 JUMP JUMPDEST SWAP3 POP POP PUSH1 0x20 PUSH2 0x30A1 DUP6 DUP3 DUP7 ADD PUSH2 0x3056 JUMP JUMPDEST SWAP2 POP POP SWAP3 POP SWAP3 SWAP1 POP JUMP JUMPDEST PUSH1 0x0 DUP1 REVERT JUMPDEST PUSH1 0x0 DUP1 REVERT JUMPDEST PUSH32 0x4E487B7100000000000000000000000000000000000000000000000000000000 PUSH1 0x0 MSTORE PUSH1 0x41 PUSH1 0x4 MSTORE PUSH1 0x24 PUSH1 0x0 REVERT JUMPDEST PUSH2 0x30ED DUP3 PUSH2 0x2B90 JUMP JUMPDEST DUP2 ADD DUP2 DUP2 LT PUSH8 0xFFFFFFFFFFFFFFFF DUP3 GT OR ISZERO PUSH2 0x310C JUMPI PUSH2 0x310B PUSH2 0x30B5 JUMP JUMPDEST JUMPDEST DUP1 PUSH1 0x40 MSTORE POP POP POP JUMP JUMPDEST PUSH1 0x0 PUSH2 0x311F PUSH2 0x2A72 JUMP JUMPDEST SWAP1 POP PUSH2 0x312B DUP3 DUP3 PUSH2 0x30E4 JUMP JUMPDEST SWAP2 SWAP1 POP JUMP JUMPDEST PUSH1 0x0 PUSH8 0xFFFFFFFFFFFFFFFF DUP3 GT ISZERO PUSH2 0x314B JUMPI PUSH2 0x314A PUSH2 0x30B5 JUMP JUMPDEST JUMPDEST PUSH2 0x3154 DUP3 PUSH2 0x2B90 JUMP JUMPDEST SWAP1 POP PUSH1 0x20 DUP2 ADD SWAP1 POP SWAP2 SWAP1 POP JUMP JUMPDEST DUP3 DUP2 DUP4 CALLDATACOPY PUSH1 0x0 DUP4 DUP4 ADD MSTORE POP POP POP JUMP JUMPDEST PUSH1 0x0 PUSH2 0x3183 PUSH2 0x317E DUP5 PUSH2 0x3130 JUMP JUMPDEST PUSH2 0x3115 JUMP JUMPDEST SWAP1 POP DUP3 DUP2 MSTORE PUSH1 0x20 DUP2 ADD DUP5 DUP5 DUP5 ADD GT ISZERO PUSH2 0x319F JUMPI PUSH2 0x319E PUSH2 0x30B0 JUMP JUMPDEST JUMPDEST PUSH2 0x31AA DUP5 DUP3 DUP6 PUSH2 0x3161 JUMP JUMPDEST POP SWAP4 SWAP3 POP POP POP JUMP JUMPDEST PUSH1 0x0 DUP3 PUSH1 0x1F DUP4 ADD SLT PUSH2 0x31C7 JUMPI PUSH2 0x31C6 PUSH2 0x30AB JUMP JUMPDEST JUMPDEST DUP2 CALLDATALOAD PUSH2 0x31D7 DUP5 DUP3 PUSH1 0x20 DUP7 ADD PUSH2 0x3170 JUMP JUMPDEST SWAP2 POP POP SWAP3 SWAP2 POP POP JUMP JUMPDEST PUSH1 0x0 DUP1 PUSH1 0x0 DUP1 PUSH1 0x80 DUP6 DUP8 SUB SLT ISZERO PUSH2 0x31FA JUMPI PUSH2 0x31F9 PUSH2 0x2A7C JUMP JUMPDEST JUMPDEST PUSH1 0x0 PUSH2 0x3208 DUP8 DUP3 DUP9 ADD PUSH2 0x2CD2 JUMP JUMPDEST SWAP5 POP POP PUSH1 0x20 PUSH2 0x3219 DUP8 DUP3 DUP9 ADD PUSH2 0x2CD2 JUMP JUMPDEST SWAP4 POP POP PUSH1 0x40 PUSH2 0x322A DUP8 DUP3 DUP9 ADD PUSH2 0x2C1D JUMP JUMPDEST SWAP3 POP POP PUSH1 0x60 DUP6 ADD CALLDATALOAD PUSH8 0xFFFFFFFFFFFFFFFF DUP2 GT ISZERO PUSH2 0x324B JUMPI PUSH2 0x324A PUSH2 0x2A81 JUMP JUMPDEST JUMPDEST PUSH2 0x3257 DUP8 DUP3 DUP9 ADD PUSH2 0x31B2 JUMP JUMPDEST SWAP2 POP POP SWAP3 SWAP6 SWAP2 SWAP5 POP SWAP3 POP JUMP JUMPDEST PUSH1 0x0 PUSH8 0xFFFFFFFFFFFFFFFF DUP3 GT ISZERO PUSH2 0x327E JUMPI PUSH2 0x327D PUSH2 0x30B5 JUMP JUMPDEST JUMPDEST PUSH2 0x3287 DUP3 PUSH2 0x2B90 JUMP JUMPDEST SWAP1 POP PUSH1 0x20 DUP2 ADD SWAP1 POP SWAP2 SWAP1 POP JUMP JUMPDEST PUSH1 0x0 PUSH2 0x32A7 PUSH2 0x32A2 DUP5 PUSH2 0x3263 JUMP JUMPDEST PUSH2 0x3115 JUMP JUMPDEST SWAP1 POP DUP3 DUP2 MSTORE PUSH1 0x20 DUP2 ADD DUP5 DUP5 DUP5 ADD GT ISZERO PUSH2 0x32C3 JUMPI PUSH2 0x32C2 PUSH2 0x30B0 JUMP JUMPDEST JUMPDEST PUSH2 0x32CE DUP5 DUP3 DUP6 PUSH2 0x3161 JUMP JUMPDEST POP SWAP4 SWAP3 POP POP POP JUMP JUMPDEST PUSH1 0x0 DUP3 PUSH1 0x1F DUP4 ADD SLT PUSH2 0x32EB JUMPI PUSH2 0x32EA PUSH2 0x30AB JUMP JUMPDEST JUMPDEST DUP2 CALLDATALOAD PUSH2 0x32FB DUP5 DUP3 PUSH1 0x20 DUP7 ADD PUSH2 0x3294 JUMP JUMPDEST SWAP2 POP POP SWAP3 SWAP2 POP POP JUMP JUMPDEST PUSH1 0x0 DUP1 PUSH1 0x40 DUP4 DUP6 SUB SLT ISZERO PUSH2 0x331B JUMPI PUSH2 0x331A PUSH2 0x2A7C JUMP JUMPDEST JUMPDEST PUSH1 0x0 PUSH2 0x3329 DUP6 DUP3 DUP7 ADD PUSH2 0x2C1D JUMP JUMPDEST SWAP3 POP POP PUSH1 0x20 DUP4 ADD CALLDATALOAD PUSH8 0xFFFFFFFFFFFFFFFF DUP2 GT ISZERO PUSH2 0x334A JUMPI PUSH2 0x3349 PUSH2 0x2A81 JUMP JUMPDEST JUMPDEST PUSH2 0x3356 DUP6 DUP3 DUP7 ADD PUSH2 0x32D6 JUMP JUMPDEST SWAP2 POP POP SWAP3 POP SWAP3 SWAP1 POP JUMP JUMPDEST PUSH1 0x0 DUP1 REVERT JUMPDEST PUSH1 0x0 DUP1 REVERT JUMPDEST PUSH1 0x0 DUP1 DUP4 PUSH1 0x1F DUP5 ADD SLT PUSH2 0x3380 JUMPI PUSH2 0x337F PUSH2 0x30AB JUMP JUMPDEST JUMPDEST DUP3 CALLDATALOAD SWAP1 POP PUSH8 0xFFFFFFFFFFFFFFFF DUP2 GT ISZERO PUSH2 0x339D JUMPI PUSH2 0x339C PUSH2 0x3360 JUMP JUMPDEST JUMPDEST PUSH1 0x20 DUP4 ADD SWAP2 POP DUP4 PUSH1 0x1 DUP3 MUL DUP4 ADD GT ISZERO PUSH2 0x33B9 JUMPI PUSH2 0x33B8 PUSH2 0x3365 JUMP JUMPDEST JUMPDEST SWAP3 POP SWAP3 SWAP1 POP JUMP JUMPDEST PUSH1 0x0 DUP1 PUSH1 0x0 PUSH1 0x40 DUP5 DUP7 SUB SLT ISZERO PUSH2 0x33D9 JUMPI PUSH2 0x33D8 PUSH2 0x2A7C JUMP JUMPDEST JUMPDEST PUSH1 0x0 PUSH2 0x33E7 DUP7 DUP3 DUP8 ADD PUSH2 0x2CD2 JUMP JUMPDEST SWAP4 POP POP PUSH1 0x20 DUP5 ADD CALLDATALOAD PUSH8 0xFFFFFFFFFFFFFFFF DUP2 GT ISZERO PUSH2 0x3408 JUMPI PUSH2 0x3407 PUSH2 0x2A81 JUMP JUMPDEST JUMPDEST PUSH2 0x3414 DUP7 DUP3 DUP8 ADD PUSH2 0x336A JUMP JUMPDEST SWAP3 POP SWAP3 POP POP SWAP3 POP SWAP3 POP SWAP3 JUMP JUMPDEST PUSH1 0x0 PUSH1 0xA0 DUP4 ADD PUSH1 0x0 DUP4 ADD MLOAD PUSH2 0x3438 PUSH1 0x0 DUP7 ADD DUP3 PUSH2 0x2E50 JUMP JUMPDEST POP PUSH1 0x20 DUP4 ADD MLOAD DUP5 DUP3 SUB PUSH1 0x20 DUP7 ADD MSTORE PUSH2 0x3450 DUP3 DUP3 PUSH2 0x2E70 JUMP JUMPDEST SWAP2 POP POP PUSH1 0x40 DUP4 ADD MLOAD PUSH2 0x3465 PUSH1 0x40 DUP7 ADD DUP3 PUSH2 0x2EB3 JUMP JUMPDEST POP PUSH1 0x60 DUP4 ADD MLOAD PUSH2 0x3478 PUSH1 0x60 DUP7 ADD DUP3 PUSH2 0x2EB3 JUMP JUMPDEST POP PUSH1 0x80 DUP4 ADD MLOAD PUSH2 0x348B PUSH1 0x80 DUP7 ADD DUP3 PUSH2 0x2EC2 JUMP JUMPDEST POP DUP1 SWAP2 POP POP SWAP3 SWAP2 POP POP JUMP JUMPDEST PUSH1 0x0 PUSH1 0x20 DUP3 ADD SWAP1 POP DUP2 DUP2 SUB PUSH1 0x0 DUP4 ADD MSTORE PUSH2 0x34B0 DUP2 DUP5 PUSH2 0x3420 JUMP JUMPDEST SWAP1 POP SWAP3 SWAP2 POP POP JUMP JUMPDEST PUSH1 0x0 DUP1 PUSH1 0x40 DUP4 DUP6 SUB SLT ISZERO PUSH2 0x34CF JUMPI PUSH2 0x34CE PUSH2 0x2A7C JUMP JUMPDEST JUMPDEST PUSH1 0x0 PUSH2 0x34DD DUP6 DUP3 DUP7 ADD PUSH2 0x2CD2 JUMP JUMPDEST SWAP3 POP POP PUSH1 0x20 PUSH2 0x34EE DUP6 DUP3 DUP7 ADD PUSH2 0x2CD2 JUMP JUMPDEST SWAP2 POP POP SWAP3 POP SWAP3 SWAP1 POP JUMP JUMPDEST PUSH32 0x4E487B7100000000000000000000000000000000000000000000000000000000 PUSH1 0x0 MSTORE PUSH1 0x22 PUSH1 0x4 MSTORE PUSH1 0x24 PUSH1 0x0 REVERT JUMPDEST PUSH1 0x0 PUSH1 0x2 DUP3 DIV SWAP1 POP PUSH1 0x1 DUP3 AND DUP1 PUSH2 0x353F JUMPI PUSH1 0x7F DUP3 AND SWAP2 POP JUMPDEST PUSH1 0x20 DUP3 LT DUP2 EQ ISZERO PUSH2 0x3553 JUMPI PUSH2 0x3552 PUSH2 0x34F8 JUMP JUMPDEST JUMPDEST POP SWAP2 SWAP1 POP JUMP JUMPDEST PUSH32 0x4E487B7100000000000000000000000000000000000000000000000000000000 PUSH1 0x0 MSTORE PUSH1 0x11 PUSH1 0x4 MSTORE PUSH1 0x24 PUSH1 0x0 REVERT JUMPDEST PUSH1 0x0 PUSH2 0x3593 DUP3 PUSH2 0x2BFC JUMP JUMPDEST SWAP2 POP PUSH2 0x359E DUP4 PUSH2 0x2BFC JUMP JUMPDEST SWAP3 POP DUP3 DUP3 LT ISZERO PUSH2 0x35B1 JUMPI PUSH2 0x35B0 PUSH2 0x3559 JUMP JUMPDEST JUMPDEST DUP3 DUP3 SUB SWAP1 POP SWAP3 SWAP2 POP POP JUMP JUMPDEST PUSH1 0x0 PUSH2 0x35C7 DUP3 PUSH2 0x2BFC JUMP JUMPDEST SWAP2 POP PUSH2 0x35D2 DUP4 PUSH2 0x2BFC JUMP JUMPDEST SWAP3 POP DUP3 PUSH32 0xFFFFFFFFFFFFFFFFFFFFFFFFFFFFFFFFFFFFFFFFFFFFFFFFFFFFFFFFFFFFFFFF SUB DUP3 GT ISZERO PUSH2 0x3607 JUMPI PUSH2 0x3606 PUSH2 0x3559 JUMP JUMPDEST JUMPDEST DUP3 DUP3 ADD SWAP1 POP SWAP3 SWAP2 POP POP JUMP JUMPDEST PUSH32 0x4E487B7100000000000000000000000000000000000000000000000000000000 PUSH1 0x0 MSTORE PUSH1 0x32 PUSH1 0x4 MSTORE PUSH1 0x24 PUSH1 0x0 REVERT JUMPDEST PUSH1 0x0 PUSH2 0x364C DUP3 PUSH2 0x2BFC JUMP JUMPDEST SWAP2 POP PUSH32 0xFFFFFFFFFFFFFFFFFFFFFFFFFFFFFFFFFFFFFFFFFFFFFFFFFFFFFFFFFFFFFFFF DUP3 EQ ISZERO PUSH2 0x367F JUMPI PUSH2 0x367E PUSH2 0x3559 JUMP JUMPDEST JUMPDEST PUSH1 0x1 DUP3 ADD SWAP1 POP SWAP2 SWAP1 POP JUMP JUMPDEST PUSH32 0x53454E4445525F4E4F545F5448455F434F4E54524F4C4C45525F414444524553 PUSH1 0x0 DUP3 ADD MSTORE PUSH32 0x5300000000000000000000000000000000000000000000000000000000000000 PUSH1 0x20 DUP3 ADD MSTORE POP JUMP JUMPDEST PUSH1 0x0 PUSH2 0x36E6 PUSH1 0x21 DUP4 PUSH2 0x2B4C JUMP JUMPDEST SWAP2 POP PUSH2 0x36F1 DUP3 PUSH2 0x368A JUMP JUMPDEST PUSH1 0x40 DUP3 ADD SWAP1 POP SWAP2 SWAP1 POP JUMP JUMPDEST PUSH1 0x0 PUSH1 0x20 DUP3 ADD SWAP1 POP DUP2 DUP2 SUB PUSH1 0x0 DUP4 ADD MSTORE PUSH2 0x3715 DUP2 PUSH2 0x36D9 JUMP JUMPDEST SWAP1 POP SWAP2 SWAP1 POP JUMP JUMPDEST PUSH32 0x5265656E7472616E637947756172643A207265656E7472616E742063616C6C00 PUSH1 0x0 DUP3 ADD MSTORE POP JUMP JUMPDEST PUSH1 0x0 PUSH2 0x3752 PUSH1 0x1F DUP4 PUSH2 0x2B4C JUMP JUMPDEST SWAP2 POP PUSH2 0x375D DUP3 PUSH2 0x371C JUMP JUMPDEST PUSH1 0x20 DUP3 ADD SWAP1 POP SWAP2 SWAP1 POP JUMP JUMPDEST PUSH1 0x0 PUSH1 0x20 DUP3 ADD SWAP1 POP DUP2 DUP2 SUB PUSH1 0x0 DUP4 ADD MSTORE PUSH2 0x3781 DUP2 PUSH2 0x3745 JUMP JUMPDEST SWAP1 POP SWAP2 SWAP1 POP JUMP JUMPDEST PUSH32 0x4E414D455F544F4F5F4C4F4E4700000000000000000000000000000000000000 PUSH1 0x0 DUP3 ADD MSTORE POP JUMP JUMPDEST PUSH1 0x0 PUSH2 0x37BE PUSH1 0xD DUP4 PUSH2 0x2B4C JUMP JUMPDEST SWAP2 POP PUSH2 0x37C9 DUP3 PUSH2 0x3788 JUMP JUMPDEST PUSH1 0x20 DUP3 ADD SWAP1 POP SWAP2 SWAP1 POP JUMP JUMPDEST PUSH1 0x0 PUSH1 0x20 DUP3 ADD SWAP1 POP DUP2 DUP2 SUB PUSH1 0x0 DUP4 ADD MSTORE PUSH2 0x37ED DUP2 PUSH2 0x37B1 JUMP JUMPDEST SWAP1 POP SWAP2 SWAP1 POP JUMP JUMPDEST PUSH1 0x0 DUP2 SWAP1 POP SWAP3 SWAP2 POP POP JUMP JUMPDEST PUSH1 0x0 PUSH2 0x380A DUP3 PUSH2 0x2B41 JUMP JUMPDEST PUSH2 0x3814 DUP2 DUP6 PUSH2 0x37F4 JUMP JUMPDEST SWAP4 POP PUSH2 0x3824 DUP2 DUP6 PUSH1 0x20 DUP7 ADD PUSH2 0x2B5D JUMP JUMPDEST DUP1 DUP5 ADD SWAP2 POP POP SWAP3 SWAP2 POP POP JUMP JUMPDEST PUSH1 0x0 PUSH2 0x383C DUP3 DUP6 PUSH2 0x37FF JUMP JUMPDEST SWAP2 POP PUSH2 0x3848 DUP3 DUP5 PUSH2 0x37FF JUMP JUMPDEST SWAP2 POP DUP2 SWAP1 POP SWAP4 SWAP3 POP POP POP JUMP JUMPDEST PUSH1 0x0 DUP2 SWAP1 POP SWAP3 SWAP2 POP POP JUMP JUMPDEST POP JUMP JUMPDEST PUSH1 0x0 PUSH2 0x386F PUSH1 0x0 DUP4 PUSH2 0x3854 JUMP JUMPDEST SWAP2 POP PUSH2 0x387A DUP3 PUSH2 0x385F JUMP JUMPDEST PUSH1 0x0 DUP3 ADD SWAP1 POP SWAP2 SWAP1 POP JUMP JUMPDEST PUSH1 0x0 PUSH2 0x3890 DUP3 PUSH2 0x3862 JUMP JUMPDEST SWAP2 POP DUP2 SWAP1 POP SWAP2 SWAP1 POP JUMP JUMPDEST PUSH32 0x54524541535552595F5452414E534645525F4641494C45440000000000000000 PUSH1 0x0 DUP3 ADD MSTORE POP JUMP JUMPDEST PUSH1 0x0 PUSH2 0x38D0 PUSH1 0x18 DUP4 PUSH2 0x2B4C JUMP JUMPDEST SWAP2 POP PUSH2 0x38DB DUP3 PUSH2 0x389A JUMP JUMPDEST PUSH1 0x20 DUP3 ADD SWAP1 POP SWAP2 SWAP1 POP JUMP JUMPDEST PUSH1 0x0 PUSH1 0x20 DUP3 ADD SWAP1 POP DUP2 DUP2 SUB PUSH1 0x0 DUP4 ADD MSTORE PUSH2 0x38FF DUP2 PUSH2 0x38C3 JUMP JUMPDEST SWAP1 POP SWAP2 SWAP1 POP JUMP JUMPDEST PUSH32 0x4D494E5445445F4F555400000000000000000000000000000000000000000000 PUSH1 0x0 DUP3 ADD MSTORE POP JUMP JUMPDEST PUSH1 0x0 PUSH2 0x393C PUSH1 0xA DUP4 PUSH2 0x2B4C JUMP JUMPDEST SWAP2 POP PUSH2 0x3947 DUP3 PUSH2 0x3906 JUMP JUMPDEST PUSH1 0x20 DUP3 ADD SWAP1 POP SWAP2 SWAP1 POP JUMP JUMPDEST PUSH1 0x0 PUSH1 0x20 DUP3 ADD SWAP1 POP DUP2 DUP2 SUB PUSH1 0x0 DUP4 ADD MSTORE PUSH2 0x396B DUP2 PUSH2 0x392F JUMP JUMPDEST SWAP1 POP SWAP2 SWAP1 POP JUMP JUMPDEST PUSH32 0x4F776E61626C653A206E6577206F776E657220697320746865207A65726F2061 PUSH1 0x0 DUP3 ADD MSTORE PUSH32 0x6464726573730000000000000000000000000000000000000000000000000000 PUSH1 0x20 DUP3 ADD MSTORE POP JUMP JUMPDEST PUSH1 0x0 PUSH2 0x39CE PUSH1 0x26 DUP4 PUSH2 0x2B4C JUMP JUMPDEST SWAP2 POP PUSH2 0x39D9 DUP3 PUSH2 0x3972 JUMP JUMPDEST PUSH1 0x40 DUP3 ADD SWAP1 POP SWAP2 SWAP1 POP JUMP JUMPDEST PUSH1 0x0 PUSH1 0x20 DUP3 ADD SWAP1 POP DUP2 DUP2 SUB PUSH1 0x0 DUP4 ADD MSTORE PUSH2 0x39FD DUP2 PUSH2 0x39C1 JUMP JUMPDEST SWAP1 POP SWAP2 SWAP1 POP JUMP JUMPDEST PUSH32 0x4F776E61626C653A2063616C6C6572206973206E6F7420746865206F776E6572 PUSH1 0x0 DUP3 ADD MSTORE POP JUMP JUMPDEST PUSH1 0x0 PUSH2 0x3A3A PUSH1 0x20 DUP4 PUSH2 0x2B4C JUMP JUMPDEST SWAP2 POP PUSH2 0x3A45 DUP3 PUSH2 0x3A04 JUMP JUMPDEST PUSH1 0x20 DUP3 ADD SWAP1 POP SWAP2 SWAP1 POP JUMP JUMPDEST PUSH1 0x0 PUSH1 0x20 DUP3 ADD SWAP1 POP DUP2 DUP2 SUB PUSH1 0x0 DUP4 ADD MSTORE PUSH2 0x3A69 DUP2 PUSH2 0x3A2D JUMP JUMPDEST SWAP1 POP SWAP2 SWAP1 POP JUMP JUMPDEST PUSH1 0x0 DUP2 MLOAD SWAP1 POP SWAP2 SWAP1 POP JUMP JUMPDEST PUSH1 0x0 DUP3 DUP3 MSTORE PUSH1 0x20 DUP3 ADD SWAP1 POP SWAP3 SWAP2 POP POP JUMP JUMPDEST PUSH1 0x0 PUSH2 0x3A97 DUP3 PUSH2 0x3A70 JUMP JUMPDEST PUSH2 0x3AA1 DUP2 DUP6 PUSH2 0x3A7B JUMP JUMPDEST SWAP4 POP PUSH2 0x3AB1 DUP2 DUP6 PUSH1 0x20 DUP7 ADD PUSH2 0x2B5D JUMP JUMPDEST PUSH2 0x3ABA DUP2 PUSH2 0x2B90 JUMP JUMPDEST DUP5 ADD SWAP2 POP POP SWAP3 SWAP2 POP POP JUMP JUMPDEST PUSH1 0x0 PUSH1 0x80 DUP3 ADD SWAP1 POP PUSH2 0x3ADA PUSH1 0x0 DUP4 ADD DUP8 PUSH2 0x2C91 JUMP JUMPDEST PUSH2 0x3AE7 PUSH1 0x20 DUP4 ADD DUP7 PUSH2 0x2C91 JUMP JUMPDEST PUSH2 0x3AF4 PUSH1 0x40 DUP4 ADD DUP6 PUSH2 0x2D27 JUMP JUMPDEST DUP2 DUP2 SUB PUSH1 0x60 DUP4 ADD MSTORE PUSH2 0x3B06 DUP2 DUP5 PUSH2 0x3A8C JUMP JUMPDEST SWAP1 POP SWAP6 SWAP5 POP POP POP POP POP JUMP JUMPDEST PUSH1 0x0 DUP2 MLOAD SWAP1 POP PUSH2 0x3B20 DUP2 PUSH2 0x2AB2 JUMP JUMPDEST SWAP3 SWAP2 POP POP JUMP JUMPDEST PUSH1 0x0 PUSH1 0x20 DUP3 DUP5 SUB SLT ISZERO PUSH2 0x3B3C JUMPI PUSH2 0x3B3B PUSH2 0x2A7C JUMP JUMPDEST JUMPDEST PUSH1 0x0 PUSH2 0x3B4A DUP5 DUP3 DUP6 ADD PUSH2 0x3B11 JUMP JUMPDEST SWAP2 POP POP SWAP3 SWAP2 POP POP JUMP JUMPDEST PUSH32 0x544F4B454E5F444F45535F4E4F545F4558495354000000000000000000000000 PUSH1 0x0 DUP3 ADD MSTORE POP JUMP JUMPDEST PUSH1 0x0 PUSH2 0x3B89 PUSH1 0x14 DUP4 PUSH2 0x2B4C JUMP JUMPDEST SWAP2 POP PUSH2 0x3B94 DUP3 PUSH2 0x3B53 JUMP JUMPDEST PUSH1 0x20 DUP3 ADD SWAP1 POP SWAP2 SWAP1 POP JUMP JUMPDEST PUSH1 0x0 PUSH1 0x20 DUP3 ADD SWAP1 POP DUP2 DUP2 SUB PUSH1 0x0 DUP4 ADD MSTORE PUSH2 0x3BB8 DUP2 PUSH2 0x3B7C JUMP JUMPDEST SWAP1 POP SWAP2 SWAP1 POP JUMP JUMPDEST PUSH32 0x53454E4445525F4E4F545F544F4B454E5F4F574E455200000000000000000000 PUSH1 0x0 DUP3 ADD MSTORE POP JUMP JUMPDEST PUSH1 0x0 PUSH2 0x3BF5 PUSH1 0x16 DUP4 PUSH2 0x2B4C JUMP JUMPDEST SWAP2 POP PUSH2 0x3C00 DUP3 PUSH2 0x3BBF JUMP JUMPDEST PUSH1 0x20 DUP3 ADD SWAP1 POP SWAP2 SWAP1 POP JUMP JUMPDEST PUSH1 0x0 PUSH1 0x20 DUP3 ADD SWAP1 POP DUP2 DUP2 SUB PUSH1 0x0 DUP4 ADD MSTORE PUSH2 0x3C24 DUP2 PUSH2 0x3BE8 JUMP JUMPDEST SWAP1 POP SWAP2 SWAP1 POP JUMP JUMPDEST PUSH32 0x5061757361626C653A2070617573656400000000000000000000000000000000 PUSH1 0x0 DUP3 ADD MSTORE POP JUMP JUMPDEST PUSH1 0x0 PUSH2 0x3C61 PUSH1 0x10 DUP4 PUSH2 0x2B4C JUMP JUMPDEST SWAP2 POP PUSH2 0x3C6C DUP3 PUSH2 0x3C2B JUMP JUMPDEST PUSH1 0x20 DUP3 ADD SWAP1 POP SWAP2 SWAP1 POP JUMP JUMPDEST PUSH1 0x0 PUSH1 0x20 DUP3 ADD SWAP1 POP DUP2 DUP2 SUB PUSH1 0x0 DUP4 ADD MSTORE PUSH2 0x3C90 DUP2 PUSH2 0x3C54 JUMP JUMPDEST SWAP1 POP SWAP2 SWAP1 POP JUMP JUMPDEST PUSH32 0x4E487B7100000000000000000000000000000000000000000000000000000000 PUSH1 0x0 MSTORE PUSH1 0x12 PUSH1 0x4 MSTORE PUSH1 0x24 PUSH1 0x0 REVERT JUMPDEST PUSH1 0x0 PUSH2 0x3CD1 DUP3 PUSH2 0x2BFC JUMP JUMPDEST SWAP2 POP PUSH2 0x3CDC DUP4 PUSH2 0x2BFC JUMP JUMPDEST SWAP3 POP DUP3 PUSH2 0x3CEC JUMPI PUSH2 0x3CEB PUSH2 0x3C97 JUMP JUMPDEST JUMPDEST DUP3 DUP3 MOD SWAP1 POP SWAP3 SWAP2 POP POP JUMP JUMPDEST PUSH1 0x0 DUP2 SWAP1 POP SWAP2 SWAP1 POP JUMP JUMPDEST PUSH2 0x3D12 PUSH2 0x3D0D DUP3 PUSH2 0x2BFC JUMP JUMPDEST PUSH2 0x3CF7 JUMP JUMPDEST DUP3 MSTORE POP POP JUMP JUMPDEST PUSH1 0x0 DUP2 PUSH1 0x60 SHL SWAP1 POP SWAP2 SWAP1 POP JUMP JUMPDEST PUSH1 0x0 PUSH2 0x3D30 DUP3 PUSH2 0x3D18 JUMP JUMPDEST SWAP1 POP SWAP2 SWAP1 POP JUMP JUMPDEST PUSH1 0x0 PUSH2 0x3D42 DUP3 PUSH2 0x3D25 JUMP JUMPDEST SWAP1 POP SWAP2 SWAP1 POP JUMP JUMPDEST PUSH2 0x3D5A PUSH2 0x3D55 DUP3 PUSH2 0x2C7F JUMP JUMPDEST PUSH2 0x3D37 JUMP JUMPDEST DUP3 MSTORE POP POP JUMP JUMPDEST PUSH1 0x0 PUSH2 0x3D6C DUP3 DUP9 PUSH2 0x3D01 JUMP JUMPDEST PUSH1 0x20 DUP3 ADD SWAP2 POP PUSH2 0x3D7C DUP3 DUP8 PUSH2 0x3D01 JUMP JUMPDEST PUSH1 0x20 DUP3 ADD SWAP2 POP PUSH2 0x3D8C DUP3 DUP7 PUSH2 0x3D01 JUMP JUMPDEST PUSH1 0x20 DUP3 ADD SWAP2 POP PUSH2 0x3D9C DUP3 DUP6 PUSH2 0x3D01 JUMP JUMPDEST PUSH1 0x20 DUP3 ADD SWAP2 POP PUSH2 0x3DAC DUP3 DUP5 PUSH2 0x3D49 JUMP JUMPDEST PUSH1 0x14 DUP3 ADD SWAP2 POP DUP2 SWAP1 POP SWAP7 SWAP6 POP POP POP POP POP POP JUMP JUMPDEST PUSH32 0x4E487B7100000000000000000000000000000000000000000000000000000000 PUSH1 0x0 MSTORE PUSH1 0x31 PUSH1 0x4 MSTORE PUSH1 0x24 PUSH1 0x0 REVERT INVALID LOG2 PUSH5 0x6970667358 0x22 SLT KECCAK256 PUSH30 0x7927C3175B5CCF90FD702E4D0CC6C12CC882DB2B453D5FD5111351ACB1A3 SWAP11 PUSH5 0x736F6C6343 STOP ADDMOD MULMOD STOP CALLER "
        },
        "methodIdentifiers": {
          "approve(address,uint256)": "095ea7b3",
          "balanceOf(address)": "70a08231",
          "changeName(uint256,string)": "c39cbef1",
          "getAllTokens(uint256,uint256)": "9a043832",
          "getApproved(uint256)": "081812fc",
          "getToken(uint256)": "e4b50cb8",
          "getTokensOfOwner(address,uint256,uint256)": "89edc438",
          "isApprovedForAll(address,address)": "e985e9c5",
          "mint(address,string)": "d0def521",
          "name()": "06fdde03",
          "owner()": "8da5cb5b",
          "ownerOf(uint256)": "6352211e",
          "paused()": "5c975abb",
          "renounceOwnership()": "715018a6",
          "safeTransferFrom(address,address,uint256)": "42842e0e",
          "safeTransferFrom(address,address,uint256,bytes)": "b88d4fde",
          "setApprovalForAll(address,bool)": "a22cb465",
          "supportsInterface(bytes4)": "01ffc9a7",
          "symbol()": "95d89b41",
          "tokenURI(uint256)": "c87b56dd",
          "totalSupply()": "18160ddd",
          "transferFrom(address,address,uint256)": "23b872dd",
          "transferOwnership(address)": "f2fde38b",
          "withdrawVault()": "d0d0ed05"
        }
      }
    }
  }
}