{
  "_format": "hh-sol-artifact-1",
  "contractName": "BlueDream",
  "sourceName": "contracts/Lemuria.sol",
  "abi": [
    {
      "inputs": [],
      "stateMutability": "nonpayable",
      "type": "constructor"
    },
    {
      "inputs": [],
      "name": "ApprovalCallerNotOwnerNorApproved",
      "type": "error"
    },
    {
      "inputs": [],
      "name": "ApprovalQueryForNonexistentToken",
      "type": "error"
    },
    {
      "inputs": [],
      "name": "ApproveToCaller",
      "type": "error"
    },
    {
      "inputs": [],
      "name": "BalanceQueryForZeroAddress",
      "type": "error"
    },
    {
      "inputs": [],
      "name": "MintERC2309QuantityExceedsLimit",
      "type": "error"
    },
    {
      "inputs": [],
      "name": "MintToZeroAddress",
      "type": "error"
    },
    {
      "inputs": [],
      "name": "MintZeroQuantity",
      "type": "error"
    },
    {
      "inputs": [],
      "name": "OwnerQueryForNonexistentToken",
      "type": "error"
    },
    {
      "inputs": [],
      "name": "OwnershipNotInitializedForExtraData",
      "type": "error"
    },
    {
      "inputs": [],
      "name": "TransferCallerNotOwnerNorApproved",
      "type": "error"
    },
    {
      "inputs": [],
      "name": "TransferFromIncorrectOwner",
      "type": "error"
    },
    {
      "inputs": [],
      "name": "TransferToNonERC721ReceiverImplementer",
      "type": "error"
    },
    {
      "inputs": [],
      "name": "TransferToZeroAddress",
      "type": "error"
    },
    {
      "inputs": [],
      "name": "URIQueryForNonexistentToken",
      "type": "error"
    },
    {
      "anonymous": false,
      "inputs": [
        {
          "indexed": true,
          "internalType": "address",
          "name": "owner",
          "type": "address"
        },
        {
          "indexed": true,
          "internalType": "address",
          "name": "approved",
          "type": "address"
        },
        {
          "indexed": true,
          "internalType": "uint256",
          "name": "tokenId",
          "type": "uint256"
        }
      ],
      "name": "Approval",
      "type": "event"
    },
    {
      "anonymous": false,
      "inputs": [
        {
          "indexed": true,
          "internalType": "address",
          "name": "owner",
          "type": "address"
        },
        {
          "indexed": true,
          "internalType": "address",
          "name": "operator",
          "type": "address"
        },
        {
          "indexed": false,
          "internalType": "bool",
          "name": "approved",
          "type": "bool"
        }
      ],
      "name": "ApprovalForAll",
      "type": "event"
    },
    {
      "anonymous": false,
      "inputs": [
        {
          "indexed": true,
          "internalType": "uint256",
          "name": "fromTokenId",
          "type": "uint256"
        },
        {
          "indexed": false,
          "internalType": "uint256",
          "name": "toTokenId",
          "type": "uint256"
        },
        {
          "indexed": true,
          "internalType": "address",
          "name": "from",
          "type": "address"
        },
        {
          "indexed": true,
          "internalType": "address",
          "name": "to",
          "type": "address"
        }
      ],
      "name": "ConsecutiveTransfer",
      "type": "event"
    },
    {
      "anonymous": false,
      "inputs": [
        {
          "indexed": false,
          "internalType": "uint256",
          "name": "_before",
          "type": "uint256"
        },
        {
          "indexed": false,
          "internalType": "uint256",
          "name": "_after",
          "type": "uint256"
        },
        {
          "indexed": false,
          "internalType": "uint256",
          "name": "_result",
          "type": "uint256"
        }
      ],
      "name": "Logging",
      "type": "event"
    },
    {
      "anonymous": false,
      "inputs": [
        {
          "indexed": true,
          "internalType": "address",
          "name": "previousOwner",
          "type": "address"
        },
        {
          "indexed": true,
          "internalType": "address",
          "name": "newOwner",
          "type": "address"
        }
      ],
      "name": "OwnershipTransferred",
      "type": "event"
    },
    {
      "anonymous": false,
      "inputs": [
        {
          "indexed": true,
          "internalType": "address",
          "name": "from",
          "type": "address"
        },
        {
          "indexed": true,
          "internalType": "address",
          "name": "to",
          "type": "address"
        },
        {
          "indexed": true,
          "internalType": "uint256",
          "name": "tokenId",
          "type": "uint256"
        }
      ],
      "name": "Transfer",
      "type": "event"
    },
    {
      "inputs": [
        {
          "internalType": "address",
          "name": "to",
          "type": "address"
        },
        {
          "internalType": "uint256",
          "name": "tokenId",
          "type": "uint256"
        }
      ],
      "name": "approve",
      "outputs": [],
      "stateMutability": "nonpayable",
      "type": "function"
    },
    {
      "inputs": [
        {
          "internalType": "address",
          "name": "owner",
          "type": "address"
        }
      ],
      "name": "balanceOf",
      "outputs": [
        {
          "internalType": "uint256",
          "name": "",
          "type": "uint256"
        }
      ],
      "stateMutability": "view",
      "type": "function"
    },
    {
      "inputs": [
        {
          "internalType": "bytes32",
          "name": "providedKey",
          "type": "bytes32"
        },
        {
          "internalType": "uint256",
          "name": "tokenId",
          "type": "uint256"
        }
      ],
      "name": "buyToken",
      "outputs": [],
      "stateMutability": "payable",
      "type": "function"
    },
    {
      "inputs": [
        {
          "internalType": "bytes32",
          "name": "providedKey",
          "type": "bytes32"
        },
        {
          "internalType": "uint256",
          "name": "tokenId",
          "type": "uint256"
        },
        {
          "internalType": "string",
          "name": "name",
          "type": "string"
        }
      ],
      "name": "changeName",
      "outputs": [],
      "stateMutability": "payable",
      "type": "function"
    },
    {
      "inputs": [],
      "name": "contractURI",
      "outputs": [
        {
          "internalType": "string",
          "name": "",
          "type": "string"
        }
      ],
      "stateMutability": "view",
      "type": "function"
    },
    {
      "inputs": [
        {
          "internalType": "uint256",
          "name": "tokenId",
          "type": "uint256"
        }
      ],
      "name": "delistToken",
      "outputs": [],
      "stateMutability": "nonpayable",
      "type": "function"
    },
    {
      "inputs": [
        {
          "internalType": "uint256",
          "name": "startIndex",
          "type": "uint256"
        },
        {
          "internalType": "uint256",
          "name": "total",
          "type": "uint256"
        }
      ],
      "name": "getAllTokens",
      "outputs": [
        {
          "components": [
            {
              "internalType": "bool",
              "name": "initialized",
              "type": "bool"
            },
            {
              "internalType": "uint256",
              "name": "id",
              "type": "uint256"
            },
            {
              "internalType": "string",
              "name": "name",
              "type": "string"
            },
            {
              "internalType": "bytes32",
              "name": "dna",
              "type": "bytes32"
            },
            {
              "internalType": "bytes32",
              "name": "attributes",
              "type": "bytes32"
            },
            {
              "internalType": "bool",
              "name": "listed",
              "type": "bool"
            },
            {
              "internalType": "uint256",
              "name": "price",
              "type": "uint256"
            },
            {
              "internalType": "address",
              "name": "owner",
              "type": "address"
            },
            {
              "internalType": "uint256",
              "name": "achievements",
              "type": "uint256"
            }
          ],
          "internalType": "struct BlueDream.t_token[]",
          "name": "",
          "type": "tuple[]"
        }
      ],
      "stateMutability": "view",
      "type": "function"
    },
    {
      "inputs": [
        {
          "internalType": "uint256",
          "name": "tokenId",
          "type": "uint256"
        }
      ],
      "name": "getApproved",
      "outputs": [
        {
          "internalType": "address",
          "name": "",
          "type": "address"
        }
      ],
      "stateMutability": "view",
      "type": "function"
    },
    {
      "inputs": [],
      "name": "getContractMode",
      "outputs": [
        {
          "internalType": "uint256",
          "name": "",
          "type": "uint256"
        }
      ],
      "stateMutability": "view",
      "type": "function"
    },
    {
      "inputs": [
        {
          "internalType": "uint256",
          "name": "tokenId",
          "type": "uint256"
        }
      ],
      "name": "getToken",
      "outputs": [
        {
          "components": [
            {
              "internalType": "bool",
              "name": "initialized",
              "type": "bool"
            },
            {
              "internalType": "uint256",
              "name": "id",
              "type": "uint256"
            },
            {
              "internalType": "string",
              "name": "name",
              "type": "string"
            },
            {
              "internalType": "bytes32",
              "name": "dna",
              "type": "bytes32"
            },
            {
              "internalType": "bytes32",
              "name": "attributes",
              "type": "bytes32"
            },
            {
              "internalType": "bool",
              "name": "listed",
              "type": "bool"
            },
            {
              "internalType": "uint256",
              "name": "price",
              "type": "uint256"
            },
            {
              "internalType": "address",
              "name": "owner",
              "type": "address"
            },
            {
              "internalType": "uint256",
              "name": "achievements",
              "type": "uint256"
            }
          ],
          "internalType": "struct BlueDream.t_token",
          "name": "",
          "type": "tuple"
        }
      ],
      "stateMutability": "view",
      "type": "function"
    },
    {
      "inputs": [
        {
          "internalType": "address",
          "name": "owner",
          "type": "address"
        },
        {
          "internalType": "uint256",
          "name": "startIndex",
          "type": "uint256"
        },
        {
          "internalType": "uint256",
          "name": "total",
          "type": "uint256"
        }
      ],
      "name": "getTokensOfOwner",
      "outputs": [
        {
          "components": [
            {
              "internalType": "bool",
              "name": "initialized",
              "type": "bool"
            },
            {
              "internalType": "uint256",
              "name": "id",
              "type": "uint256"
            },
            {
              "internalType": "string",
              "name": "name",
              "type": "string"
            },
            {
              "internalType": "bytes32",
              "name": "dna",
              "type": "bytes32"
            },
            {
              "internalType": "bytes32",
              "name": "attributes",
              "type": "bytes32"
            },
            {
              "internalType": "bool",
              "name": "listed",
              "type": "bool"
            },
            {
              "internalType": "uint256",
              "name": "price",
              "type": "uint256"
            },
            {
              "internalType": "address",
              "name": "owner",
              "type": "address"
            },
            {
              "internalType": "uint256",
              "name": "achievements",
              "type": "uint256"
            }
          ],
          "internalType": "struct BlueDream.t_token[]",
          "name": "",
          "type": "tuple[]"
        }
      ],
      "stateMutability": "view",
      "type": "function"
    },
    {
      "inputs": [
        {
          "internalType": "bytes32",
          "name": "providedKey",
          "type": "bytes32"
        },
        {
          "internalType": "address",
          "name": "newOwner",
          "type": "address"
        }
      ],
      "name": "giveKeysTo",
      "outputs": [],
      "stateMutability": "nonpayable",
      "type": "function"
    },
    {
      "inputs": [
        {
          "internalType": "address",
          "name": "owner",
          "type": "address"
        },
        {
          "internalType": "address",
          "name": "operator",
          "type": "address"
        }
      ],
      "name": "isApprovedForAll",
      "outputs": [
        {
          "internalType": "bool",
          "name": "",
          "type": "bool"
        }
      ],
      "stateMutability": "view",
      "type": "function"
    },
    {
      "inputs": [
        {
          "internalType": "bytes32",
          "name": "providedKey",
          "type": "bytes32"
        },
        {
          "internalType": "uint256",
          "name": "tokenId",
          "type": "uint256"
        },
        {
          "internalType": "uint256",
          "name": "price",
          "type": "uint256"
        }
      ],
      "name": "listToken",
      "outputs": [],
      "stateMutability": "payable",
      "type": "function"
    },
    {
      "inputs": [
        {
          "internalType": "bytes32",
          "name": "providedKey",
          "type": "bytes32"
        },
        {
          "internalType": "string",
          "name": "name",
          "type": "string"
        }
      ],
      "name": "mint",
      "outputs": [],
      "stateMutability": "payable",
      "type": "function"
    },
    {
      "inputs": [],
      "name": "name",
      "outputs": [
        {
          "internalType": "string",
          "name": "",
          "type": "string"
        }
      ],
      "stateMutability": "view",
      "type": "function"
    },
    {
      "inputs": [],
      "name": "owner",
      "outputs": [
        {
          "internalType": "address",
          "name": "",
          "type": "address"
        }
      ],
      "stateMutability": "view",
      "type": "function"
    },
    {
      "inputs": [
        {
          "internalType": "uint256",
          "name": "tokenId",
          "type": "uint256"
        }
      ],
      "name": "ownerOf",
      "outputs": [
        {
          "internalType": "address",
          "name": "",
          "type": "address"
        }
      ],
      "stateMutability": "view",
      "type": "function"
    },
    {
      "inputs": [],
      "name": "renounceOwnership",
      "outputs": [],
      "stateMutability": "nonpayable",
      "type": "function"
    },
    {
      "inputs": [
        {
          "internalType": "address",
          "name": "from",
          "type": "address"
        },
        {
          "internalType": "address",
          "name": "to",
          "type": "address"
        },
        {
          "internalType": "uint256",
          "name": "tokenId",
          "type": "uint256"
        }
      ],
      "name": "safeTransferFrom",
      "outputs": [],
      "stateMutability": "nonpayable",
      "type": "function"
    },
    {
      "inputs": [
        {
          "internalType": "address",
          "name": "from",
          "type": "address"
        },
        {
          "internalType": "address",
          "name": "to",
          "type": "address"
        },
        {
          "internalType": "uint256",
          "name": "tokenId",
          "type": "uint256"
        },
        {
          "internalType": "bytes",
          "name": "_data",
          "type": "bytes"
        }
      ],
      "name": "safeTransferFrom",
      "outputs": [],
      "stateMutability": "nonpayable",
      "type": "function"
    },
    {
      "inputs": [
        {
          "internalType": "bytes32",
          "name": "providedKey",
          "type": "bytes32"
        },
        {
          "internalType": "uint256",
          "name": "access",
          "type": "uint256"
        },
        {
          "internalType": "bytes32",
          "name": "key",
          "type": "bytes32"
        }
      ],
      "name": "setAccessKey",
      "outputs": [],
      "stateMutability": "nonpayable",
      "type": "function"
    },
    {
      "inputs": [
        {
          "internalType": "uint256",
          "name": "price",
          "type": "uint256"
        }
      ],
      "name": "setAchievementsPrice",
      "outputs": [],
      "stateMutability": "nonpayable",
      "type": "function"
    },
    {
      "inputs": [
        {
          "internalType": "address",
          "name": "operator",
          "type": "address"
        },
        {
          "internalType": "bool",
          "name": "approved",
          "type": "bool"
        }
      ],
      "name": "setApprovalForAll",
      "outputs": [],
      "stateMutability": "nonpayable",
      "type": "function"
    },
    {
      "inputs": [
        {
          "internalType": "bytes32",
          "name": "providedKey",
          "type": "bytes32"
        },
        {
          "internalType": "uint256",
          "name": "_mode",
          "type": "uint256"
        }
      ],
      "name": "setContractMode",
      "outputs": [],
      "stateMutability": "nonpayable",
      "type": "function"
    },
    {
      "inputs": [
        {
          "internalType": "string",
          "name": "URI",
          "type": "string"
        }
      ],
      "name": "setContractURI",
      "outputs": [],
      "stateMutability": "nonpayable",
      "type": "function"
    },
    {
      "inputs": [
        {
          "internalType": "uint256",
          "name": "price",
          "type": "uint256"
        }
      ],
      "name": "setListingPrice",
      "outputs": [],
      "stateMutability": "nonpayable",
      "type": "function"
    },
    {
      "inputs": [
        {
          "internalType": "uint256",
          "name": "price",
          "type": "uint256"
        }
      ],
      "name": "setMintPrice",
      "outputs": [],
      "stateMutability": "nonpayable",
      "type": "function"
    },
    {
      "inputs": [
        {
          "internalType": "uint256",
          "name": "price",
          "type": "uint256"
        }
      ],
      "name": "setNameChangePrice",
      "outputs": [],
      "stateMutability": "nonpayable",
      "type": "function"
    },
    {
      "inputs": [
        {
          "internalType": "uint256",
          "name": "percentage",
          "type": "uint256"
        }
      ],
      "name": "setRoyalty",
      "outputs": [],
      "stateMutability": "nonpayable",
      "type": "function"
    },
    {
      "inputs": [
        {
          "internalType": "bytes32",
          "name": "providedKey",
          "type": "bytes32"
        },
        {
          "internalType": "uint256",
          "name": "tokenId",
          "type": "uint256"
        },
        {
          "internalType": "uint256",
          "name": "achievements",
          "type": "uint256"
        }
      ],
      "name": "setTokenAchievements",
      "outputs": [],
      "stateMutability": "payable",
      "type": "function"
    },
    {
      "inputs": [
        {
          "internalType": "string",
          "name": "URI",
          "type": "string"
        }
      ],
      "name": "setTokenURI",
      "outputs": [],
      "stateMutability": "nonpayable",
      "type": "function"
    },
    {
      "inputs": [
        {
          "internalType": "bytes4",
          "name": "interfaceId",
          "type": "bytes4"
        }
      ],
      "name": "supportsInterface",
      "outputs": [
        {
          "internalType": "bool",
          "name": "",
          "type": "bool"
        }
      ],
      "stateMutability": "view",
      "type": "function"
    },
    {
      "inputs": [],
      "name": "symbol",
      "outputs": [
        {
          "internalType": "string",
          "name": "",
          "type": "string"
        }
      ],
      "stateMutability": "view",
      "type": "function"
    },
    {
      "inputs": [
        {
          "internalType": "bytes32",
          "name": "providedKey",
          "type": "bytes32"
        }
      ],
      "name": "throwAwayTheKeys",
      "outputs": [],
      "stateMutability": "nonpayable",
      "type": "function"
    },
    {
      "inputs": [
        {
          "internalType": "uint256",
          "name": "tokenId",
          "type": "uint256"
        }
      ],
      "name": "tokenURI",
      "outputs": [
        {
          "internalType": "string",
          "name": "",
          "type": "string"
        }
      ],
      "stateMutability": "view",
      "type": "function"
    },
    {
      "inputs": [],
      "name": "totalSupply",
      "outputs": [
        {
          "internalType": "uint256",
          "name": "",
          "type": "uint256"
        }
      ],
      "stateMutability": "view",
      "type": "function"
    },
    {
      "inputs": [
        {
          "internalType": "address",
          "name": "from",
          "type": "address"
        },
        {
          "internalType": "address",
          "name": "to",
          "type": "address"
        },
        {
          "internalType": "uint256",
          "name": "tokenId",
          "type": "uint256"
        }
      ],
      "name": "transferFrom",
      "outputs": [],
      "stateMutability": "nonpayable",
      "type": "function"
    },
    {
      "inputs": [
        {
          "internalType": "address",
          "name": "newOwner",
          "type": "address"
        }
      ],
      "name": "transferOwnership",
      "outputs": [],
      "stateMutability": "nonpayable",
      "type": "function"
    },
    {
      "inputs": [],
      "name": "vaultBalance",
      "outputs": [
        {
          "internalType": "uint256",
          "name": "",
          "type": "uint256"
        }
      ],
      "stateMutability": "view",
      "type": "function"
    },
    {
      "inputs": [
        {
          "internalType": "bytes32",
          "name": "providedKey",
          "type": "bytes32"
        }
      ],
      "name": "withdrawVault",
      "outputs": [],
      "stateMutability": "nonpayable",
      "type": "function"
    }
  ],
  "bytecode": "0x60806040523480156200001157600080fd5b506040518060400160405280600a81526020017f426c756520447265616d000000000000000000000000000000000000000000008152506040518060400160405280600281526020017f4d55000000000000000000000000000000000000000000000000000000000000815250816002908051906020019062000096929190620002c4565b508060039080519060200190620000af929190620002c4565b50620000c0620001bf60201b60201c565b6000819055505050620000e8620000dc620001c860201b60201c565b620001d060201b60201c565b60016009819055506000600a819055507fe4ee47cba596630e690dc8f9b5770af535436bab55cf0662153b917f2af9180860146000808152602001908152602001600020819055507fe4ee47cba596630e690dc8f9b5770af535436bab55cf0662153b917f2af918086014600060018152602001908152602001600020819055506200017b60506200029660201b60201c565b600b819055506200019360086200029660201b60201c565b600c81905550620001ab60286200029660201b60201c565b600d819055506008600f81905550620004da565b60006001905090565b600033905090565b6000600860009054906101000a900473ffffffffffffffffffffffffffffffffffffffff16905081600860006101000a81548173ffffffffffffffffffffffffffffffffffffffff021916908373ffffffffffffffffffffffffffffffffffffffff1602179055508173ffffffffffffffffffffffffffffffffffffffff168173ffffffffffffffffffffffffffffffffffffffff167f8be0079c531659141344cd1fd0a4f28419497f9722a3daafe3b4186f6b6457e060405160405180910390a35050565b60006103e882670de0b6b3a7640000620002b19190620003ad565b620002bd91906200043d565b9050919050565b828054620002d290620004a4565b90600052602060002090601f016020900481019282620002f6576000855562000342565b82601f106200031157805160ff191683800117855562000342565b8280016001018555821562000342579182015b828111156200034157825182559160200191906001019062000324565b5b50905062000351919062000355565b5090565b5b808211156200037057600081600090555060010162000356565b5090565b6000819050919050565b7f4e487b7100000000000000000000000000000000000000000000000000000000600052601160045260246000fd5b6000620003ba8262000374565b9150620003c78362000374565b9250817fffffffffffffffffffffffffffffffffffffffffffffffffffffffffffffffff04831182151516156200040357620004026200037e565b5b828202905092915050565b7f4e487b7100000000000000000000000000000000000000000000000000000000600052601260045260246000fd5b60006200044a8262000374565b9150620004578362000374565b9250826200046a57620004696200040e565b5b828204905092915050565b7f4e487b7100000000000000000000000000000000000000000000000000000000600052602260045260246000fd5b60006002820490506001821680620004bd57607f821691505b60208210811415620004d457620004d362000475565b5b50919050565b6152b880620004ea6000396000f3fe6080604052600436106102465760003560e01c80638da5cb5b11610139578063bed659bc116100b6578063e8a3d4851161007a578063e8a3d4851461084c578063e985e9c514610877578063edc284b5146108b4578063ee7242e3146108dd578063f2fde38b146108f9578063f4a0a5281461092257610246565b8063bed659bc14610764578063c87b56dd1461078d578063e0df5b6f146107ca578063e4b50cb8146107f3578063e6efa42a1461083057610246565b80639c2cba2d116100fd5780639c2cba2d14610695578063a22cb465146106be578063a43da3bd146106e7578063a9de3d5014610712578063b88d4fde1461073b57610246565b80638da5cb5b146105bd5780638e87f7d7146105e8578063938e3d7b1461060457806395d89b411461062d5780639a0438321461065857610246565b806342842e0e116101c7578063715018a61161018b578063715018a6146104ee5780637c726b691461050557806384a1b9021461052e57806389e952f41461055757806389edc4381461058057610246565b806342842e0e1461040657806347dd6c821461042f578063550b7551146104585780636352211e1461047457806370a08231146104b157610246565b80630d1ff5a11161020e5780630d1ff5a11461034457806318160ddd1461036057806323b872dd1461038b5780633fed24aa146103b45780634209a2e1146103dd57610246565b806301ffc9a71461024b57806306fdde0314610288578063081812fc146102b3578063095ea7b3146102f05780630bf6cc0814610319575b600080fd5b34801561025757600080fd5b50610272600480360381019061026d9190613965565b61094b565b60405161027f91906139ad565b60405180910390f35b34801561029457600080fd5b5061029d6109dd565b6040516102aa9190613a61565b60405180910390f35b3480156102bf57600080fd5b506102da60048036038101906102d59190613ab9565b610a6f565b6040516102e79190613b27565b60405180910390f35b3480156102fc57600080fd5b5061031760048036038101906103129190613b6e565b610aee565b005b34801561032557600080fd5b5061032e610c32565b60405161033b9190613bbd565b60405180910390f35b61035e60048036038101906103599190613c0e565b610c42565b005b34801561036c57600080fd5b50610375610d1f565b6040516103829190613bbd565b60405180910390f35b34801561039757600080fd5b506103b260048036038101906103ad9190613c61565b610d36565b005b3480156103c057600080fd5b506103db60048036038101906103d69190613cb4565b610d6d565b005b3480156103e957600080fd5b5061040460048036038101906103ff9190613ab9565b610d8d565b005b34801561041257600080fd5b5061042d60048036038101906104289190613c61565b610da1565b005b34801561043b57600080fd5b5061045660048036038101906104519190613ce1565b610dc1565b005b610472600480360381019061046d9190613ce1565b610ddf565b005b34801561048057600080fd5b5061049b60048036038101906104969190613ab9565b610e73565b6040516104a89190613b27565b60405180910390f35b3480156104bd57600080fd5b506104d860048036038101906104d39190613d21565b610e85565b6040516104e59190613bbd565b60405180910390f35b3480156104fa57600080fd5b50610503610f3e565b005b34801561051157600080fd5b5061052c60048036038101906105279190613ab9565b610f48565b005b34801561053a57600080fd5b5061055560048036038101906105509190613ab9565b610f62565b005b34801561056357600080fd5b5061057e60048036038101906105799190613d4e565b610f7c565b005b34801561058c57600080fd5b506105a760048036038101906105a29190613da1565b611021565b6040516105b49190614001565b60405180910390f35b3480156105c957600080fd5b506105d2611340565b6040516105df9190613b27565b60405180910390f35b61060260048036038101906105fd9190613c0e565b61136a565b005b34801561061057600080fd5b5061062b60048036038101906106269190614158565b611441565b005b34801561063957600080fd5b50610642611463565b60405161064f9190613a61565b60405180910390f35b34801561066457600080fd5b5061067f600480360381019061067a91906141a1565b6114f5565b60405161068c9190614001565b60405180910390f35b3480156106a157600080fd5b506106bc60048036038101906106b791906141e1565b61177c565b005b3480156106ca57600080fd5b506106e560048036038101906106e0919061424d565b61180c565b005b3480156106f357600080fd5b506106fc611984565b6040516107099190613bbd565b60405180910390f35b34801561071e57600080fd5b5061073960048036038101906107349190613ab9565b611996565b005b34801561074757600080fd5b50610762600480360381019061075d919061432e565b6119b0565b005b34801561077057600080fd5b5061078b60048036038101906107869190613ab9565b611a23565b005b34801561079957600080fd5b506107b460048036038101906107af9190613ab9565b611aa1565b6040516107c19190613a61565b60405180910390f35b3480156107d657600080fd5b506107f160048036038101906107ec9190614158565b611b40565b005b3480156107ff57600080fd5b5061081a60048036038101906108159190613ab9565b611b62565b6040516108279190614476565b60405180910390f35b61084a60048036038101906108459190614498565b611d05565b005b34801561085857600080fd5b50610861611e3f565b60405161086e9190613a61565b60405180910390f35b34801561088357600080fd5b5061089e60048036038101906108999190614507565b611ed1565b6040516108ab91906139ad565b60405180910390f35b3480156108c057600080fd5b506108db60048036038101906108d69190613cb4565b611f65565b005b6108f760048036038101906108f291906145a7565b61208a565b005b34801561090557600080fd5b50610920600480360381019061091b9190613d21565b61235d565b005b34801561092e57600080fd5b5061094960048036038101906109449190613ab9565b612368565b005b60006301ffc9a760e01b827bffffffffffffffffffffffffffffffffffffffffffffffffffffffff191614806109a657506380ac58cd60e01b827bffffffffffffffffffffffffffffffffffffffffffffffffffffffff1916145b806109d65750635b5e139f60e01b827bffffffffffffffffffffffffffffffffffffffffffffffffffffffff1916145b9050919050565b6060600280546109ec90614636565b80601f0160208091040260200160405190810160405280929190818152602001828054610a1890614636565b8015610a655780601f10610a3a57610100808354040283529160200191610a65565b820191906000526020600020905b815481529060010190602001808311610a4857829003601f168201915b5050505050905090565b6000610a7a82612382565b610ab0576040517fcf4700e400000000000000000000000000000000000000000000000000000000815260040160405180910390fd5b6006600083815260200190815260200160002060000160009054906101000a900473ffffffffffffffffffffffffffffffffffffffff169050919050565b6000610af982610e73565b90508073ffffffffffffffffffffffffffffffffffffffff16610b1a6123e1565b73ffffffffffffffffffffffffffffffffffffffff1614610b7d57610b4681610b416123e1565b611ed1565b610b7c576040517fcfb3b94200000000000000000000000000000000000000000000000000000000815260040160405180910390fd5b5b826006600084815260200190815260200160002060000160006101000a81548173ffffffffffffffffffffffffffffffffffffffff021916908373ffffffffffffffffffffffffffffffffffffffff160217905550818373ffffffffffffffffffffffffffffffffffffffff168273ffffffffffffffffffffffffffffffffffffffff167f8c5be1e5ebec7d5bd14f71427d1e84f3dd0314c0f7b2291e5b200ac8c7c3b92560405160405180910390a4505050565b6000610c3c6123e9565b47905090565b60026009541415610c88576040517f08c379a0000000000000000000000000000000000000000000000000000000008152600401610c7f906146b4565b60405180910390fd5b60026009819055506010610c9b81612467565b610ca66002856124dc565b600e54341015610ceb576040517f08c379a0000000000000000000000000000000000000000000000000000000008152600401610ce290614720565b60405180910390fd5b816012600085815260200190815260200160002060080181905550610d11600e54612535565b506001600981905550505050565b6000610d296125bc565b6001546000540303905090565b6020610d4181612467565b610d4c8484846125c5565b610d578484846128ea565b610d678263499602d26000612b18565b50505050565b610d756123e9565b610d806003826124dc565b610d8a6000612b5a565b50565b610d956123e9565b610d9e81612c20565b50565b610dbc838383604051806020016040528060008152506119b0565b505050565b610dc96123e9565b610dd46003836124dc565b80600a819055505050565b60026009541415610e25576040517f08c379a0000000000000000000000000000000000000000000000000000000008152600401610e1c906146b4565b60405180910390fd5b60026009819055506008610e3881612467565b610e436001846124dc565b6000610e4e83610e73565b9050610e5a3384612c79565b610e65813385610da1565b505060016009819055505050565b6000610e7e82612d3b565b9050919050565b60008073ffffffffffffffffffffffffffffffffffffffff168273ffffffffffffffffffffffffffffffffffffffff161415610eed576040517f8f4eb60400000000000000000000000000000000000000000000000000000000815260040160405180910390fd5b67ffffffffffffffff600560008473ffffffffffffffffffffffffffffffffffffffff1673ffffffffffffffffffffffffffffffffffffffff16815260200190815260200160002054169050919050565b610f466123e9565b565b610f506123e9565b610f5981612e09565b600c8190555050565b610f6a6123e9565b610f7381612e09565b600d8190555050565b6040610f8781612467565b610f8f6123e9565b610f9a6003856124dc565b600083141580610fab575060018314155b80610fb7575060028314155b80610fc3575060038314155b15611003576040517f08c379a0000000000000000000000000000000000000000000000000000000008152600401610ffa906148ef565b60405180910390fd5b81601460008581526020019081526020016000208190555050505050565b60606000601360008673ffffffffffffffffffffffffffffffffffffffff1673ffffffffffffffffffffffffffffffffffffffff1681526020019081526020016000208054806020026020016040519081016040528092919081815260200182805480156110ae57602002820191906000526020600020905b81548152602001906001019080831161109a575b50505050509050805184106110c257600093505b60008314806110dc57508381516110d9919061476f565b83115b156110f1578381516110ee919061476f565b92505b60008367ffffffffffffffff81111561110d5761110c61402d565b5b60405190808252806020026020018201604052801561114657816020015b6111336137ea565b81526020019060019003908161112b5790505b50905060008251141561115d578092505050611339565b6000805b8581101561133157838188611176919061490f565b8151811061118757611186614965565b5b6020026020010151915060126000838152602001908152602001600020604051806101200160405290816000820160009054906101000a900460ff16151515158152602001600182015481526020016002820180546111e590614636565b80601f016020809104026020016040519081016040528092919081815260200182805461121190614636565b801561125e5780601f106112335761010080835404028352916020019161125e565b820191906000526020600020905b81548152906001019060200180831161124157829003601f168201915b5050505050815260200160038201548152602001600482015481526020016005820160009054906101000a900460ff16151515158152602001600682015481526020016007820160009054906101000a900473ffffffffffffffffffffffffffffffffffffffff1673ffffffffffffffffffffffffffffffffffffffff1673ffffffffffffffffffffffffffffffffffffffff16815260200160088201548152505083828151811061131357611312614965565b5b6020026020010181905250808061132990614994565b915050611161565b508193505050505b9392505050565b6000600860009054906101000a900473ffffffffffffffffffffffffffffffffffffffff16905090565b600260095414156113b0576040517f08c379a00000000000000000000000000000000000000000000000000000000081526004016113a7906146b4565b60405180910390fd5b600260098190555060086113c381612467565b6113ce6001856124dc565b6113d783612e33565b600d5434101561141c576040517f08c379a000000000000000000000000000000000000000000000000000000000815260040161141390614a29565b60405180910390fd5b61142883836001612b18565b611433600c54612535565b506001600981905550505050565b6114496123e9565b806010908051906020019061145f929190613856565b5050565b60606003805461147290614636565b80601f016020809104026020016040519081016040528092919081815260200182805461149e90614636565b80156114eb5780601f106114c0576101008083540402835291602001916114eb565b820191906000526020600020905b8154815290600101906020018083116114ce57829003601f168201915b5050505050905090565b60606000611501610d1f565b9050600084148061151157508084115b1561151b57600193505b600083148061153457508381611531919061476f565b83115b15611548578381611545919061476f565b92505b60008367ffffffffffffffff8111156115645761156361402d565b5b60405190808252806020026020018201604052801561159d57816020015b61158a6137ea565b8152602001906001900390816115825790505b50905060008214156115b3578092505050611776565b60005b8481101561176f5760006012600083896115d0919061490f565b8152602001908152602001600020905080604051806101200160405290816000820160009054906101000a900460ff161515151581526020016001820154815260200160028201805461162290614636565b80601f016020809104026020016040519081016040528092919081815260200182805461164e90614636565b801561169b5780601f106116705761010080835404028352916020019161169b565b820191906000526020600020905b81548152906001019060200180831161167e57829003601f168201915b5050505050815260200160038201548152602001600482015481526020016005820160009054906101000a900460ff16151515158152602001600682015481526020016007820160009054906101000a900473ffffffffffffffffffffffffffffffffffffffff1673ffffffffffffffffffffffffffffffffffffffff1673ffffffffffffffffffffffffffffffffffffffff1681526020016008820154815250508383815181106117505761174f614965565b5b602002602001018190525050808061176790614994565b9150506115b6565b5080925050505b92915050565b6117846123e9565b61178f6003836124dc565b600073ffffffffffffffffffffffffffffffffffffffff168173ffffffffffffffffffffffffffffffffffffffff1614156117ff576040517f08c379a00000000000000000000000000000000000000000000000000000000081526004016117f690614abb565b60405180910390fd5b61180881612b5a565b5050565b6118146123e1565b73ffffffffffffffffffffffffffffffffffffffff168273ffffffffffffffffffffffffffffffffffffffff161415611879576040517fb06307db00000000000000000000000000000000000000000000000000000000815260040160405180910390fd5b80600760006118866123e1565b73ffffffffffffffffffffffffffffffffffffffff1673ffffffffffffffffffffffffffffffffffffffff16815260200190815260200160002060008473ffffffffffffffffffffffffffffffffffffffff1673ffffffffffffffffffffffffffffffffffffffff16815260200190815260200160002060006101000a81548160ff0219169083151502179055508173ffffffffffffffffffffffffffffffffffffffff166119336123e1565b73ffffffffffffffffffffffffffffffffffffffff167f17307eab39ab6107e8899845ad3d59bd9653f200f220920489ca2b5937696c318360405161197891906139ad565b60405180910390a35050565b600061198e6123e9565b600a54905090565b61199e6123e9565b6119a781612e09565b600e8190555050565b6119bb848484610d36565b60008373ffffffffffffffffffffffffffffffffffffffff163b14611a1d576119e684848484612f1d565b611a1c576040517fd1a57ed600000000000000000000000000000000000000000000000000000000815260040160405180910390fd5b5b50505050565b60026009541415611a69576040517f08c379a0000000000000000000000000000000000000000000000000000000008152600401611a60906146b4565b60405180910390fd5b60026009819055506008611a7c81612467565b611a8582612e33565b611a958263499602d26000612b18565b50600160098190555050565b6060611aac82612382565b611ae2576040517fa14c4b5000000000000000000000000000000000000000000000000000000000815260040160405180910390fd5b6000611aec61307d565b9050600081511415611b0d5760405180602001604052806000815250611b38565b80611b178461310f565b604051602001611b28929190614b17565b6040516020818303038152906040525b915050919050565b611b486123e9565b8060119080519060200190611b5e929190613856565b5050565b611b6a6137ea565b6000611b74610d1f565b90506000831480611b8457508083115b15611b8e57600192505b60126000848152602001908152602001600020604051806101200160405290816000820160009054906101000a900460ff1615151515815260200160018201548152602001600282018054611be290614636565b80601f0160208091040260200160405190810160405280929190818152602001828054611c0e90614636565b8015611c5b5780601f10611c3057610100808354040283529160200191611c5b565b820191906000526020600020905b815481529060010190602001808311611c3e57829003601f168201915b5050505050815260200160038201548152602001600482015481526020016005820160009054906101000a900460ff16151515158152602001600682015481526020016007820160009054906101000a900473ffffffffffffffffffffffffffffffffffffffff1673ffffffffffffffffffffffffffffffffffffffff1673ffffffffffffffffffffffffffffffffffffffff168152602001600882015481525050915050919050565b60026009541415611d4b576040517f08c379a0000000000000000000000000000000000000000000000000000000008152600401611d42906146b4565b60405180910390fd5b60026009819055506004611d5e81612467565b611d696001856124dc565b611d7283612e33565b600d54341015611db7576040517f08c379a0000000000000000000000000000000000000000000000000000000008152600401611dae90614b87565b60405180910390fd5b6020825110611dfb576040517f08c379a0000000000000000000000000000000000000000000000000000000008152600401611df290614bf3565b60405180910390fd5b81601260008581526020019081526020016000206002019080519060200190611e25929190613856565b50611e31600d54612535565b506001600981905550505050565b606060108054611e4e90614636565b80601f0160208091040260200160405190810160405280929190818152602001828054611e7a90614636565b8015611ec75780601f10611e9c57610100808354040283529160200191611ec7565b820191906000526020600020905b815481529060010190602001808311611eaa57829003601f168201915b5050505050905090565b6000600760008473ffffffffffffffffffffffffffffffffffffffff1673ffffffffffffffffffffffffffffffffffffffff16815260200190815260200160002060008373ffffffffffffffffffffffffffffffffffffffff1673ffffffffffffffffffffffffffffffffffffffff16815260200190815260200160002060009054906101000a900460ff16905092915050565b60026009541415611fab576040517f08c379a0000000000000000000000000000000000000000000000000000000008152600401611fa2906146b4565b60405180910390fd5b60026009819055506040611fbe81612467565b611fc66123e9565b611fd16003836124dc565b60003373ffffffffffffffffffffffffffffffffffffffff1647604051611ff79061488e565b60006040518083038185875af1925050503d8060008114612034576040519150601f19603f3d011682016040523d82523d6000602084013e612039565b606091505b505090508061207d576040517f08c379a000000000000000000000000000000000000000000000000000000000815260040161207490614c5f565b60405180910390fd5b5050600160098190555050565b600261209581612467565b6120a06000856124dc565b60006120aa613169565b9050600b543410156120f1576040517f08c379a00000000000000000000000000000000000000000000000000000000081526004016120e890614ccb565b60405180910390fd5b620186a06120fd610d1f565b1061213d576040517f08c379a000000000000000000000000000000000000000000000000000000000815260040161213490614d37565b60405180910390fd5b612148336001613172565b60405180610120016040528060011515815260200182815260200185858080601f016020809104026020016040519081016040528093929190818152602001838380828437600081840152601f19601f8201169050808301925050505050505081526020016121b5613190565b81526020016121c2613190565b8152602001600015158152602001600081526020013373ffffffffffffffffffffffffffffffffffffffff16815260200160008152506012600083815260200190815260200160002060008201518160000160006101000a81548160ff021916908315150217905550602082015181600101556040820151816002019080519060200190612251929190613856565b50606082015181600301556080820151816004015560a08201518160050160006101000a81548160ff02191690831515021790555060c0820151816006015560e08201518160070160006101000a81548173ffffffffffffffffffffffffffffffffffffffff021916908373ffffffffffffffffffffffffffffffffffffffff1602179055506101008201518160080155905050601360003373ffffffffffffffffffffffffffffffffffffffff1673ffffffffffffffffffffffffffffffffffffffff168152602001908152602001600020819080600181540180825580915050600190039060005260206000200160009091909190915055612356600b54612535565b5050505050565b6123656123e9565b50565b6123706123e9565b61237981612e09565b600b8190555050565b60008161238d6125bc565b1115801561239c575060005482105b80156123da575060007c0100000000000000000000000000000000000000000000000000000000600460008581526020019081526020016000205416145b9050919050565b600033905090565b6123f16131e3565b73ffffffffffffffffffffffffffffffffffffffff1661240f611340565b73ffffffffffffffffffffffffffffffffffffffff1614612465576040517f08c379a000000000000000000000000000000000000000000000000000000000815260040161245c90614da3565b60405180910390fd5b565b8081600a541614156124d95761247e600a546131eb565b60405160200161248e9190614e0f565b6040516020818303038152906040526040517f08c379a00000000000000000000000000000000000000000000000000000000081526004016124d09190613a61565b60405180910390fd5b50565b80601460008481526020019081526020016000205414612531576040517f08c379a000000000000000000000000000000000000000000000000000000000815260040161252890614e7d565b60405180910390fd5b5050565b60008134612543919061476f565b905060008111156125b8573373ffffffffffffffffffffffffffffffffffffffff16816040516125729061488e565b60006040518083038185875af1925050503d80600081146125af576040519150601f19603f3d011682016040523d82523d6000602084013e6125b4565b606091505b5050505b5050565b60006001905090565b60006125d082612d3b565b90508373ffffffffffffffffffffffffffffffffffffffff168173ffffffffffffffffffffffffffffffffffffffff1614612637576040517fa114810000000000000000000000000000000000000000000000000000000000815260040160405180910390fd5b60008061264384613271565b9150915061265981876126546123e1565b613298565b6126a55761266e866126696123e1565b611ed1565b6126a4576040517f59c896be00000000000000000000000000000000000000000000000000000000815260040160405180910390fd5b5b600073ffffffffffffffffffffffffffffffffffffffff168573ffffffffffffffffffffffffffffffffffffffff16141561270c576040517fea553b3400000000000000000000000000000000000000000000000000000000815260040160405180910390fd5b61271986868660016132dc565b801561272457600082555b600560008773ffffffffffffffffffffffffffffffffffffffff1673ffffffffffffffffffffffffffffffffffffffff168152602001908152602001600020600081546001900391905081905550600560008673ffffffffffffffffffffffffffffffffffffffff1673ffffffffffffffffffffffffffffffffffffffff16815260200190815260200160002060008154600101919050819055506127f2856127ce8888876132e2565b7c02000000000000000000000000000000000000000000000000000000001761330a565b600460008681526020019081526020016000208190555060007c02000000000000000000000000000000000000000000000000000000008416141561287a576000600185019050600060046000838152602001908152602001600020541415612878576000548114612877578360046000838152602001908152602001600020819055505b5b505b838573ffffffffffffffffffffffffffffffffffffffff168773ffffffffffffffffffffffffffffffffffffffff167fddf252ad1be2c89b69c2b068fc378daa952ba7f163c4a11628f55a4df523b3ef60405160405180910390a46128e28686866001613335565b505050505050565b816012600083815260200190815260200160002060070160006101000a81548173ffffffffffffffffffffffffffffffffffffffff021916908373ffffffffffffffffffffffffffffffffffffffff160217905550601360008473ffffffffffffffffffffffffffffffffffffffff1673ffffffffffffffffffffffffffffffffffffffff1681526020019081526020016000206001601360008673ffffffffffffffffffffffffffffffffffffffff1673ffffffffffffffffffffffffffffffffffffffff168152602001908152602001600020805490506129cd919061476f565b815481106129de576129dd614965565b5b9060005260206000200154601360008573ffffffffffffffffffffffffffffffffffffffff1673ffffffffffffffffffffffffffffffffffffffff1681526020019081526020016000208281548110612a3a57612a39614965565b5b9060005260206000200181905550601360008473ffffffffffffffffffffffffffffffffffffffff1673ffffffffffffffffffffffffffffffffffffffff168152602001908152602001600020805480612a9757612a96614e9d565b5b60019003818190600052602060002001600090559055601360008373ffffffffffffffffffffffffffffffffffffffff1673ffffffffffffffffffffffffffffffffffffffff168152602001908152602001600020819080600181540180825580915050600190039060005260206000200160009091909190915055505050565b6000601260008581526020019081526020016000209050818160050160006101000a81548160ff02191690831515021790555082816006018190555050505050565b6000600860009054906101000a900473ffffffffffffffffffffffffffffffffffffffff16905081600860006101000a81548173ffffffffffffffffffffffffffffffffffffffff021916908373ffffffffffffffffffffffffffffffffffffffff1602179055508173ffffffffffffffffffffffffffffffffffffffff168173ffffffffffffffffffffffffffffffffffffffff167f8be0079c531659141344cd1fd0a4f28419497f9722a3daafe3b4186f6b6457e060405160405180910390a35050565b6000811080612c2f5750606481115b15612c6f576040517f08c379a0000000000000000000000000000000000000000000000000000000008152600401612c6690614f18565b60405180910390fd5b80600f8190555050565b6000612c8482610e73565b9050826006600084815260200190815260200160002060000160006101000a81548173ffffffffffffffffffffffffffffffffffffffff021916908373ffffffffffffffffffffffffffffffffffffffff160217905550818373ffffffffffffffffffffffffffffffffffffffff168273ffffffffffffffffffffffffffffffffffffffff167f8c5be1e5ebec7d5bd14f71427d1e84f3dd0314c0f7b2291e5b200ac8c7c3b92560405160405180910390a4505050565b60008082905080612d4a6125bc565b11612dd257600054811015612dd15760006004600083815260200190815260200160002054905060007c010000000000000000000000000000000000000000000000000000000082161415612dcf575b6000811415612dc5576004600083600190039350838152602001908152602001600020549050612d9a565b8092505050612e04565b505b5b6040517fdf2d9b4200000000000000000000000000000000000000000000000000000000815260040160405180910390fd5b919050565b60006103e882670de0b6b3a7640000612e2291906147a3565b612e2c919061482c565b9050919050565b600015156012600083815260200190815260200160002060000160009054906101000a900460ff1615151415612e9e576040517f08c379a0000000000000000000000000000000000000000000000000000000008152600401612e9590614f84565b60405180910390fd5b6000612ea982610e73565b90508073ffffffffffffffffffffffffffffffffffffffff163373ffffffffffffffffffffffffffffffffffffffff1614612f19576040517f08c379a0000000000000000000000000000000000000000000000000000000008152600401612f1090614ff0565b60405180910390fd5b5050565b60008373ffffffffffffffffffffffffffffffffffffffff1663150b7a02612f436123e1565b8786866040518563ffffffff1660e01b8152600401612f659493929190615065565b602060405180830381600087803b158015612f7f57600080fd5b505af1925050508015612fb057506040513d601f19601f82011682018060405250810190612fad91906150c6565b60015b61302a573d8060008114612fe0576040519150601f19603f3d011682016040523d82523d6000602084013e612fe5565b606091505b50600081511415613022576040517fd1a57ed600000000000000000000000000000000000000000000000000000000815260040160405180910390fd5b805181602001fd5b63150b7a0260e01b7bffffffffffffffffffffffffffffffffffffffffffffffffffffffff1916817bffffffffffffffffffffffffffffffffffffffffffffffffffffffff191614915050949350505050565b60606011805461308c90614636565b80601f01602080910402602001604051908101604052809291908181526020018280546130b890614636565b80156131055780601f106130da57610100808354040283529160200191613105565b820191906000526020600020905b8154815290600101906020018083116130e857829003601f168201915b5050505050905090565b60606080604051019050806040528082600183039250600a81066030018353600a810490505b801561315557600183039250600a81066030018353600a81049050613135565b508181036020830392508083525050919050565b60008054905090565b61318c82826040518060200160405280600081525061333b565b5050565b600042436080436131a191906150f3565b4218610100436131b191906150f3565b4217336040516020016131c895949392919061518d565b60405160208183030381529060405280519060200120905090565b600033905090565b60606000821415613233576040518060400160405280600481526020017f3078303000000000000000000000000000000000000000000000000000000000815250905061326c565b600082905060005b6000821461325d57808061324e90614994565b915050600882901c915061323b565b61326784826133d8565b925050505b919050565b60008060006006600085815260200190815260200160002090508092508254915050915091565b600073ffffffffffffffffffffffffffffffffffffffff8316925073ffffffffffffffffffffffffffffffffffffffff821691508382148383141790509392505050565b50505050565b60008060e883901c905060e86132f9868684613614565b62ffffff16901b9150509392505050565b600073ffffffffffffffffffffffffffffffffffffffff83169250814260a01b178317905092915050565b50505050565b613345838361361d565b60008373ffffffffffffffffffffffffffffffffffffffff163b146133d357600080549050600083820390505b6133856000868380600101945086612f1d565b6133bb576040517fd1a57ed600000000000000000000000000000000000000000000000000000000815260040160405180910390fd5b8181106133725781600054146133d057600080fd5b50505b505050565b6060600060028360026133eb91906147a3565b6133f5919061490f565b67ffffffffffffffff81111561340e5761340d61402d565b5b6040519080825280601f01601f1916602001820160405280156134405781602001600182028036833780820191505090505b5090507f30000000000000000000000000000000000000000000000000000000000000008160008151811061347857613477614965565b5b60200101907effffffffffffffffffffffffffffffffffffffffffffffffffffffffffffff1916908160001a9053507f7800000000000000000000000000000000000000000000000000000000000000816001815181106134dc576134db614965565b5b60200101907effffffffffffffffffffffffffffffffffffffffffffffffffffffffffffff1916908160001a9053506000600184600261351c91906147a3565b613526919061490f565b90505b60018111156135c6577f3031323334353637383961626364656600000000000000000000000000000000600f86166010811061356857613567614965565b5b1a60f81b82828151811061357f5761357e614965565b5b60200101907effffffffffffffffffffffffffffffffffffffffffffffffffffffffffffff1916908160001a905350600485901c9450806135bf906151ec565b9050613529565b506000841461360a576040517f08c379a000000000000000000000000000000000000000000000000000000000815260040161360190615262565b60405180910390fd5b8091505092915050565b60009392505050565b600080549050600082141561365e576040517fb562e8dd00000000000000000000000000000000000000000000000000000000815260040160405180910390fd5b61366b60008483856132dc565b600160406001901b178202600560008573ffffffffffffffffffffffffffffffffffffffff1673ffffffffffffffffffffffffffffffffffffffff168152602001908152602001600020600082825401925050819055506136e2836136d360008660006132e2565b6136dc856137da565b1761330a565b6004600083815260200190815260200160002081905550600080838301905073ffffffffffffffffffffffffffffffffffffffff85169150828260007fddf252ad1be2c89b69c2b068fc378daa952ba7f163c4a11628f55a4df523b3ef600080a4600183015b81811461378357808360007fddf252ad1be2c89b69c2b068fc378daa952ba7f163c4a11628f55a4df523b3ef600080a4600181019050613748565b5060008214156137bf576040517f2e07630000000000000000000000000000000000000000000000000000000000815260040160405180910390fd5b8060008190555050506137d56000848385613335565b505050565b60006001821460e11b9050919050565b6040518061012001604052806000151581526020016000815260200160608152602001600080191681526020016000801916815260200160001515815260200160008152602001600073ffffffffffffffffffffffffffffffffffffffff168152602001600081525090565b82805461386290614636565b90600052602060002090601f01602090048101928261388457600085556138cb565b82601f1061389d57805160ff19168380011785556138cb565b828001600101855582156138cb579182015b828111156138ca5782518255916020019190600101906138af565b5b5090506138d891906138dc565b5090565b5b808211156138f55760008160009055506001016138dd565b5090565b6000604051905090565b600080fd5b600080fd5b60007fffffffff0000000000000000000000000000000000000000000000000000000082169050919050565b6139428161390d565b811461394d57600080fd5b50565b60008135905061395f81613939565b92915050565b60006020828403121561397b5761397a613903565b5b600061398984828501613950565b91505092915050565b60008115159050919050565b6139a781613992565b82525050565b60006020820190506139c2600083018461399e565b92915050565b600081519050919050565b600082825260208201905092915050565b60005b83811015613a025780820151818401526020810190506139e7565b83811115613a11576000848401525b50505050565b6000601f19601f8301169050919050565b6000613a33826139c8565b613a3d81856139d3565b9350613a4d8185602086016139e4565b613a5681613a17565b840191505092915050565b60006020820190508181036000830152613a7b8184613a28565b905092915050565b6000819050919050565b613a9681613a83565b8114613aa157600080fd5b50565b600081359050613ab381613a8d565b92915050565b600060208284031215613acf57613ace613903565b5b6000613add84828501613aa4565b91505092915050565b600073ffffffffffffffffffffffffffffffffffffffff82169050919050565b6000613b1182613ae6565b9050919050565b613b2181613b06565b82525050565b6000602082019050613b3c6000830184613b18565b92915050565b613b4b81613b06565b8114613b5657600080fd5b50565b600081359050613b6881613b42565b92915050565b60008060408385031215613b8557613b84613903565b5b6000613b9385828601613b59565b9250506020613ba485828601613aa4565b9150509250929050565b613bb781613a83565b82525050565b6000602082019050613bd26000830184613bae565b92915050565b6000819050919050565b613beb81613bd8565b8114613bf657600080fd5b50565b600081359050613c0881613be2565b92915050565b600080600060608486031215613c2757613c26613903565b5b6000613c3586828701613bf9565b9350506020613c4686828701613aa4565b9250506040613c5786828701613aa4565b9150509250925092565b600080600060608486031215613c7a57613c79613903565b5b6000613c8886828701613b59565b9350506020613c9986828701613b59565b9250506040613caa86828701613aa4565b9150509250925092565b600060208284031215613cca57613cc9613903565b5b6000613cd884828501613bf9565b91505092915050565b60008060408385031215613cf857613cf7613903565b5b6000613d0685828601613bf9565b9250506020613d1785828601613aa4565b9150509250929050565b600060208284031215613d3757613d36613903565b5b6000613d4584828501613b59565b91505092915050565b600080600060608486031215613d6757613d66613903565b5b6000613d7586828701613bf9565b9350506020613d8686828701613aa4565b9250506040613d9786828701613bf9565b9150509250925092565b600080600060608486031215613dba57613db9613903565b5b6000613dc886828701613b59565b9350506020613dd986828701613aa4565b9250506040613dea86828701613aa4565b9150509250925092565b600081519050919050565b600082825260208201905092915050565b6000819050602082019050919050565b613e2981613992565b82525050565b613e3881613a83565b82525050565b600082825260208201905092915050565b6000613e5a826139c8565b613e648185613e3e565b9350613e748185602086016139e4565b613e7d81613a17565b840191505092915050565b613e9181613bd8565b82525050565b613ea081613b06565b82525050565b600061012083016000830151613ebf6000860182613e20565b506020830151613ed26020860182613e2f565b5060408301518482036040860152613eea8282613e4f565b9150506060830151613eff6060860182613e88565b506080830151613f126080860182613e88565b5060a0830151613f2560a0860182613e20565b5060c0830151613f3860c0860182613e2f565b5060e0830151613f4b60e0860182613e97565b50610100830151613f60610100860182613e2f565b508091505092915050565b6000613f778383613ea6565b905092915050565b6000602082019050919050565b6000613f9782613df4565b613fa18185613dff565b935083602082028501613fb385613e10565b8060005b85811015613fef5784840389528151613fd08582613f6b565b9450613fdb83613f7f565b925060208a01995050600181019050613fb7565b50829750879550505050505092915050565b6000602082019050818103600083015261401b8184613f8c565b905092915050565b600080fd5b600080fd5b7f4e487b7100000000000000000000000000000000000000000000000000000000600052604160045260246000fd5b61406582613a17565b810181811067ffffffffffffffff821117156140845761408361402d565b5b80604052505050565b60006140976138f9565b90506140a3828261405c565b919050565b600067ffffffffffffffff8211156140c3576140c261402d565b5b6140cc82613a17565b9050602081019050919050565b82818337600083830152505050565b60006140fb6140f6846140a8565b61408d565b90508281526020810184848401111561411757614116614028565b5b6141228482856140d9565b509392505050565b600082601f83011261413f5761413e614023565b5b813561414f8482602086016140e8565b91505092915050565b60006020828403121561416e5761416d613903565b5b600082013567ffffffffffffffff81111561418c5761418b613908565b5b6141988482850161412a565b91505092915050565b600080604083850312156141b8576141b7613903565b5b60006141c685828601613aa4565b92505060206141d785828601613aa4565b9150509250929050565b600080604083850312156141f8576141f7613903565b5b600061420685828601613bf9565b925050602061421785828601613b59565b9150509250929050565b61422a81613992565b811461423557600080fd5b50565b60008135905061424781614221565b92915050565b6000806040838503121561426457614263613903565b5b600061427285828601613b59565b925050602061428385828601614238565b9150509250929050565b600067ffffffffffffffff8211156142a8576142a761402d565b5b6142b182613a17565b9050602081019050919050565b60006142d16142cc8461428d565b61408d565b9050828152602081018484840111156142ed576142ec614028565b5b6142f88482856140d9565b509392505050565b600082601f83011261431557614314614023565b5b81356143258482602086016142be565b91505092915050565b6000806000806080858703121561434857614347613903565b5b600061435687828801613b59565b945050602061436787828801613b59565b935050604061437887828801613aa4565b925050606085013567ffffffffffffffff81111561439957614398613908565b5b6143a587828801614300565b91505092959194509250565b6000610120830160008301516143ca6000860182613e20565b5060208301516143dd6020860182613e2f565b50604083015184820360408601526143f58282613e4f565b915050606083015161440a6060860182613e88565b50608083015161441d6080860182613e88565b5060a083015161443060a0860182613e20565b5060c083015161444360c0860182613e2f565b5060e083015161445660e0860182613e97565b5061010083015161446b610100860182613e2f565b508091505092915050565b6000602082019050818103600083015261449081846143b1565b905092915050565b6000806000606084860312156144b1576144b0613903565b5b60006144bf86828701613bf9565b93505060206144d086828701613aa4565b925050604084013567ffffffffffffffff8111156144f1576144f0613908565b5b6144fd8682870161412a565b9150509250925092565b6000806040838503121561451e5761451d613903565b5b600061452c85828601613b59565b925050602061453d85828601613b59565b9150509250929050565b600080fd5b600080fd5b60008083601f84011261456757614566614023565b5b8235905067ffffffffffffffff81111561458457614583614547565b5b6020830191508360018202830111156145a05761459f61454c565b5b9250929050565b6000806000604084860312156145c0576145bf613903565b5b60006145ce86828701613bf9565b935050602084013567ffffffffffffffff8111156145ef576145ee613908565b5b6145fb86828701614551565b92509250509250925092565b7f4e487b7100000000000000000000000000000000000000000000000000000000600052602260045260246000fd5b6000600282049050600182168061464e57607f821691505b6020821081141561466257614661614607565b5b50919050565b7f5265656e7472616e637947756172643a207265656e7472616e742063616c6c00600082015250565b600061469e601f836139d3565b91506146a982614668565b602082019050919050565b600060208201905081810360008301526146cd81614691565b9050919050565b7f414348494556454d454e54535f5041594d454e545f544f4f5f4c4f5700000000600082015250565b600061470a601c836139d3565b9150614715826146d4565b602082019050919050565b60006020820190508181036000830152614739816146fd565b9050919050565b7f4e487b7100000000000000000000000000000000000000000000000000000000600052601160045260246000fd5b600061477a82613a83565b915061478583613a83565b92508282101561479857614797614740565b5b828203905092915050565b60006147ae82613a83565b91506147b983613a83565b9250817fffffffffffffffffffffffffffffffffffffffffffffffffffffffffffffffff04831182151516156147f2576147f1614740565b5b828202905092915050565b7f4e487b7100000000000000000000000000000000000000000000000000000000600052601260045260246000fd5b600061483782613a83565b915061484283613a83565b925082614852576148516147fd565b5b828204905092915050565b600081905092915050565b50565b600061487860008361485d565b915061488382614868565b600082019050919050565b60006148998261486b565b9150819050919050565b7f494e56414c49445f4143434553535f504152414d455445520000000000000000600082015250565b60006148d96018836139d3565b91506148e4826148a3565b602082019050919050565b60006020820190508181036000830152614908816148cc565b9050919050565b600061491a82613a83565b915061492583613a83565b9250827fffffffffffffffffffffffffffffffffffffffffffffffffffffffffffffffff0382111561495a57614959614740565b5b828201905092915050565b7f4e487b7100000000000000000000000000000000000000000000000000000000600052603260045260246000fd5b600061499f82613a83565b91507fffffffffffffffffffffffffffffffffffffffffffffffffffffffffffffffff8214156149d2576149d1614740565b5b600182019050919050565b7f4c495354494e475f5041594d454e545f544f4f5f4c4f57000000000000000000600082015250565b6000614a136017836139d3565b9150614a1e826149dd565b602082019050919050565b60006020820190508181036000830152614a4281614a06565b9050919050565b7f4f776e61626c653a206e6577206f776e657220697320746865207a65726f206160008201527f6464726573730000000000000000000000000000000000000000000000000000602082015250565b6000614aa56026836139d3565b9150614ab082614a49565b604082019050919050565b60006020820190508181036000830152614ad481614a98565b9050919050565b600081905092915050565b6000614af1826139c8565b614afb8185614adb565b9350614b0b8185602086016139e4565b80840191505092915050565b6000614b238285614ae6565b9150614b2f8284614ae6565b91508190509392505050565b7f4348414e47455f4e414d455f5041594d454e545f544f4f5f4c4f570000000000600082015250565b6000614b71601b836139d3565b9150614b7c82614b3b565b602082019050919050565b60006020820190508181036000830152614ba081614b64565b9050919050565b7f4e414d455f544f4f5f4c4f4e4700000000000000000000000000000000000000600082015250565b6000614bdd600d836139d3565b9150614be882614ba7565b602082019050919050565b60006020820190508181036000830152614c0c81614bd0565b9050919050565b7f54524541535552595f5452414e534645525f4641494c45440000000000000000600082015250565b6000614c496018836139d3565b9150614c5482614c13565b602082019050919050565b60006020820190508181036000830152614c7881614c3c565b9050919050565b7f4e4f545f454e4f5547485f455448000000000000000000000000000000000000600082015250565b6000614cb5600e836139d3565b9150614cc082614c7f565b602082019050919050565b60006020820190508181036000830152614ce481614ca8565b9050919050565b7f4d494e5445445f4f555400000000000000000000000000000000000000000000600082015250565b6000614d21600a836139d3565b9150614d2c82614ceb565b602082019050919050565b60006020820190508181036000830152614d5081614d14565b9050919050565b7f4f776e61626c653a2063616c6c6572206973206e6f7420746865206f776e6572600082015250565b6000614d8d6020836139d3565b9150614d9882614d57565b602082019050919050565b60006020820190508181036000830152614dbc81614d80565b9050919050565b7f46554e4354494f4e5f44495341424c45445f42595f4d4f44455f000000000000600082015250565b6000614df9601a83614adb565b9150614e0482614dc3565b601a82019050919050565b6000614e1a82614dec565b9150614e268284614ae6565b915081905092915050565b7f4143434553534b45595f494e56414c4944000000000000000000000000000000600082015250565b6000614e676011836139d3565b9150614e7282614e31565b602082019050919050565b60006020820190508181036000830152614e9681614e5a565b9050919050565b7f4e487b7100000000000000000000000000000000000000000000000000000000600052603160045260246000fd5b7f524f59414c54595f4f55545f4f465f52414e4745000000000000000000000000600082015250565b6000614f026014836139d3565b9150614f0d82614ecc565b602082019050919050565b60006020820190508181036000830152614f3181614ef5565b9050919050565b7f544f4b454e5f444f45535f4e4f545f4558495354000000000000000000000000600082015250565b6000614f6e6014836139d3565b9150614f7982614f38565b602082019050919050565b60006020820190508181036000830152614f9d81614f61565b9050919050565b7f53454e4445525f4e4f545f544f4b454e5f4f574e455200000000000000000000600082015250565b6000614fda6016836139d3565b9150614fe582614fa4565b602082019050919050565b6000602082019050818103600083015261500981614fcd565b9050919050565b600081519050919050565b600082825260208201905092915050565b600061503782615010565b615041818561501b565b93506150518185602086016139e4565b61505a81613a17565b840191505092915050565b600060808201905061507a6000830187613b18565b6150876020830186613b18565b6150946040830185613bae565b81810360608301526150a6818461502c565b905095945050505050565b6000815190506150c081613939565b92915050565b6000602082840312156150dc576150db613903565b5b60006150ea848285016150b1565b91505092915050565b60006150fe82613a83565b915061510983613a83565b925082615119576151186147fd565b5b828206905092915050565b6000819050919050565b61513f61513a82613a83565b615124565b82525050565b60008160601b9050919050565b600061515d82615145565b9050919050565b600061516f82615152565b9050919050565b61518761518282613b06565b615164565b82525050565b6000615199828861512e565b6020820191506151a9828761512e565b6020820191506151b9828661512e565b6020820191506151c9828561512e565b6020820191506151d98284615176565b6014820191508190509695505050505050565b60006151f782613a83565b9150600082141561520b5761520a614740565b5b600182039050919050565b7f537472696e67733a20686578206c656e67746820696e73756666696369656e74600082015250565b600061524c6020836139d3565b915061525782615216565b602082019050919050565b6000602082019050818103600083015261527b8161523f565b905091905056fea2646970667358221220c1e1cb7771e1109614ff73bbc879fe28006df2fa973aec6d5268af34e21212a064736f6c63430008090033",
  "linkReferences": {},
  "deployedLinkReferences": {}
}