{
  "_format": "hh-sol-artifact-1",
  "contractName": "BlueDream",
  "sourceName": "contracts/Lemuria.sol",
  "abi": [
    {
      "inputs": [],
      "stateMutability": "nonpayable",
      "type": "constructor"
    },
    {
      "inputs": [],
      "name": "ApprovalCallerNotOwnerNorApproved",
      "type": "error"
    },
    {
      "inputs": [],
      "name": "ApprovalQueryForNonexistentToken",
      "type": "error"
    },
    {
      "inputs": [],
      "name": "ApproveToCaller",
      "type": "error"
    },
    {
      "inputs": [],
      "name": "BalanceQueryForZeroAddress",
      "type": "error"
    },
    {
      "inputs": [],
      "name": "MintERC2309QuantityExceedsLimit",
      "type": "error"
    },
    {
      "inputs": [],
      "name": "MintToZeroAddress",
      "type": "error"
    },
    {
      "inputs": [],
      "name": "MintZeroQuantity",
      "type": "error"
    },
    {
      "inputs": [],
      "name": "OwnerQueryForNonexistentToken",
      "type": "error"
    },
    {
      "inputs": [],
      "name": "OwnershipNotInitializedForExtraData",
      "type": "error"
    },
    {
      "inputs": [],
      "name": "TransferCallerNotOwnerNorApproved",
      "type": "error"
    },
    {
      "inputs": [],
      "name": "TransferFromIncorrectOwner",
      "type": "error"
    },
    {
      "inputs": [],
      "name": "TransferToNonERC721ReceiverImplementer",
      "type": "error"
    },
    {
      "inputs": [],
      "name": "TransferToZeroAddress",
      "type": "error"
    },
    {
      "inputs": [],
      "name": "URIQueryForNonexistentToken",
      "type": "error"
    },
    {
      "anonymous": false,
      "inputs": [
        {
          "indexed": true,
          "internalType": "address",
          "name": "owner",
          "type": "address"
        },
        {
          "indexed": true,
          "internalType": "address",
          "name": "approved",
          "type": "address"
        },
        {
          "indexed": true,
          "internalType": "uint256",
          "name": "tokenId",
          "type": "uint256"
        }
      ],
      "name": "Approval",
      "type": "event"
    },
    {
      "anonymous": false,
      "inputs": [
        {
          "indexed": true,
          "internalType": "address",
          "name": "owner",
          "type": "address"
        },
        {
          "indexed": true,
          "internalType": "address",
          "name": "operator",
          "type": "address"
        },
        {
          "indexed": false,
          "internalType": "bool",
          "name": "approved",
          "type": "bool"
        }
      ],
      "name": "ApprovalForAll",
      "type": "event"
    },
    {
      "anonymous": false,
      "inputs": [
        {
          "indexed": true,
          "internalType": "uint256",
          "name": "fromTokenId",
          "type": "uint256"
        },
        {
          "indexed": false,
          "internalType": "uint256",
          "name": "toTokenId",
          "type": "uint256"
        },
        {
          "indexed": true,
          "internalType": "address",
          "name": "from",
          "type": "address"
        },
        {
          "indexed": true,
          "internalType": "address",
          "name": "to",
          "type": "address"
        }
      ],
      "name": "ConsecutiveTransfer",
      "type": "event"
    },
    {
      "anonymous": false,
      "inputs": [
        {
          "indexed": true,
          "internalType": "address",
          "name": "previousOwner",
          "type": "address"
        },
        {
          "indexed": true,
          "internalType": "address",
          "name": "newOwner",
          "type": "address"
        }
      ],
      "name": "OwnershipTransferred",
      "type": "event"
    },
    {
      "anonymous": false,
      "inputs": [
        {
          "indexed": true,
          "internalType": "address",
          "name": "from",
          "type": "address"
        },
        {
          "indexed": true,
          "internalType": "address",
          "name": "to",
          "type": "address"
        },
        {
          "indexed": true,
          "internalType": "uint256",
          "name": "tokenId",
          "type": "uint256"
        }
      ],
      "name": "Transfer",
      "type": "event"
    },
    {
      "inputs": [
        {
          "internalType": "address",
          "name": "to",
          "type": "address"
        },
        {
          "internalType": "uint256",
          "name": "tokenId",
          "type": "uint256"
        }
      ],
      "name": "approve",
      "outputs": [],
      "stateMutability": "nonpayable",
      "type": "function"
    },
    {
      "inputs": [
        {
          "internalType": "address",
          "name": "owner",
          "type": "address"
        }
      ],
      "name": "balanceOf",
      "outputs": [
        {
          "internalType": "uint256",
          "name": "",
          "type": "uint256"
        }
      ],
      "stateMutability": "view",
      "type": "function"
    },
    {
      "inputs": [
        {
          "internalType": "bytes32",
          "name": "providedKey",
          "type": "bytes32"
        },
        {
          "internalType": "uint256",
          "name": "tokenId",
          "type": "uint256"
        }
      ],
      "name": "buyToken",
      "outputs": [],
      "stateMutability": "payable",
      "type": "function"
    },
    {
      "inputs": [
        {
          "internalType": "bytes32",
          "name": "providedKey",
          "type": "bytes32"
        },
        {
          "internalType": "uint256",
          "name": "tokenId",
          "type": "uint256"
        },
        {
          "internalType": "string",
          "name": "name",
          "type": "string"
        }
      ],
      "name": "changeName",
      "outputs": [],
      "stateMutability": "payable",
      "type": "function"
    },
    {
      "inputs": [
        {
          "internalType": "uint256",
          "name": "tokenId",
          "type": "uint256"
        }
      ],
      "name": "delistToken",
      "outputs": [],
      "stateMutability": "nonpayable",
      "type": "function"
    },
    {
      "inputs": [
        {
          "internalType": "uint256",
          "name": "startIndex",
          "type": "uint256"
        },
        {
          "internalType": "uint256",
          "name": "total",
          "type": "uint256"
        }
      ],
      "name": "getAllTokens",
      "outputs": [
        {
          "components": [
            {
              "internalType": "bool",
              "name": "initialized",
              "type": "bool"
            },
            {
              "internalType": "uint256",
              "name": "id",
              "type": "uint256"
            },
            {
              "internalType": "string",
              "name": "name",
              "type": "string"
            },
            {
              "internalType": "bytes32",
              "name": "dna",
              "type": "bytes32"
            },
            {
              "internalType": "bytes32",
              "name": "attributes",
              "type": "bytes32"
            },
            {
              "internalType": "bool",
              "name": "listed",
              "type": "bool"
            },
            {
              "internalType": "uint256",
              "name": "price",
              "type": "uint256"
            },
            {
              "internalType": "address",
              "name": "owner",
              "type": "address"
            },
            {
              "internalType": "uint256",
              "name": "achievements",
              "type": "uint256"
            }
          ],
          "internalType": "struct BlueDream.t_token[]",
          "name": "",
          "type": "tuple[]"
        }
      ],
      "stateMutability": "view",
      "type": "function"
    },
    {
      "inputs": [
        {
          "internalType": "uint256",
          "name": "tokenId",
          "type": "uint256"
        }
      ],
      "name": "getApproved",
      "outputs": [
        {
          "internalType": "address",
          "name": "",
          "type": "address"
        }
      ],
      "stateMutability": "view",
      "type": "function"
    },
    {
      "inputs": [],
      "name": "getContractMode",
      "outputs": [
        {
          "internalType": "uint256",
          "name": "",
          "type": "uint256"
        }
      ],
      "stateMutability": "view",
      "type": "function"
    },
    {
      "inputs": [
        {
          "internalType": "uint256",
          "name": "id",
          "type": "uint256"
        }
      ],
      "name": "getToken",
      "outputs": [
        {
          "components": [
            {
              "internalType": "bool",
              "name": "initialized",
              "type": "bool"
            },
            {
              "internalType": "uint256",
              "name": "id",
              "type": "uint256"
            },
            {
              "internalType": "string",
              "name": "name",
              "type": "string"
            },
            {
              "internalType": "bytes32",
              "name": "dna",
              "type": "bytes32"
            },
            {
              "internalType": "bytes32",
              "name": "attributes",
              "type": "bytes32"
            },
            {
              "internalType": "bool",
              "name": "listed",
              "type": "bool"
            },
            {
              "internalType": "uint256",
              "name": "price",
              "type": "uint256"
            },
            {
              "internalType": "address",
              "name": "owner",
              "type": "address"
            },
            {
              "internalType": "uint256",
              "name": "achievements",
              "type": "uint256"
            }
          ],
          "internalType": "struct BlueDream.t_token",
          "name": "",
          "type": "tuple"
        }
      ],
      "stateMutability": "view",
      "type": "function"
    },
    {
      "inputs": [
        {
          "internalType": "address",
          "name": "owner",
          "type": "address"
        },
        {
          "internalType": "uint256",
          "name": "startIndex",
          "type": "uint256"
        },
        {
          "internalType": "uint256",
          "name": "total",
          "type": "uint256"
        }
      ],
      "name": "getTokensOfOwner",
      "outputs": [
        {
          "components": [
            {
              "internalType": "bool",
              "name": "initialized",
              "type": "bool"
            },
            {
              "internalType": "uint256",
              "name": "id",
              "type": "uint256"
            },
            {
              "internalType": "string",
              "name": "name",
              "type": "string"
            },
            {
              "internalType": "bytes32",
              "name": "dna",
              "type": "bytes32"
            },
            {
              "internalType": "bytes32",
              "name": "attributes",
              "type": "bytes32"
            },
            {
              "internalType": "bool",
              "name": "listed",
              "type": "bool"
            },
            {
              "internalType": "uint256",
              "name": "price",
              "type": "uint256"
            },
            {
              "internalType": "address",
              "name": "owner",
              "type": "address"
            },
            {
              "internalType": "uint256",
              "name": "achievements",
              "type": "uint256"
            }
          ],
          "internalType": "struct BlueDream.t_token[]",
          "name": "",
          "type": "tuple[]"
        }
      ],
      "stateMutability": "view",
      "type": "function"
    },
    {
      "inputs": [
        {
          "internalType": "bytes32",
          "name": "providedKey",
          "type": "bytes32"
        },
        {
          "internalType": "address",
          "name": "newOwner",
          "type": "address"
        }
      ],
      "name": "giveKeysTo",
      "outputs": [],
      "stateMutability": "nonpayable",
      "type": "function"
    },
    {
      "inputs": [
        {
          "internalType": "address",
          "name": "owner",
          "type": "address"
        },
        {
          "internalType": "address",
          "name": "operator",
          "type": "address"
        }
      ],
      "name": "isApprovedForAll",
      "outputs": [
        {
          "internalType": "bool",
          "name": "",
          "type": "bool"
        }
      ],
      "stateMutability": "view",
      "type": "function"
    },
    {
      "inputs": [
        {
          "internalType": "bytes32",
          "name": "providedKey",
          "type": "bytes32"
        },
        {
          "internalType": "uint256",
          "name": "tokenId",
          "type": "uint256"
        },
        {
          "internalType": "uint256",
          "name": "price",
          "type": "uint256"
        }
      ],
      "name": "listToken",
      "outputs": [],
      "stateMutability": "payable",
      "type": "function"
    },
    {
      "inputs": [
        {
          "internalType": "bytes32",
          "name": "providedKey",
          "type": "bytes32"
        },
        {
          "internalType": "string",
          "name": "name",
          "type": "string"
        }
      ],
      "name": "mint",
      "outputs": [],
      "stateMutability": "payable",
      "type": "function"
    },
    {
      "inputs": [],
      "name": "name",
      "outputs": [
        {
          "internalType": "string",
          "name": "",
          "type": "string"
        }
      ],
      "stateMutability": "view",
      "type": "function"
    },
    {
      "inputs": [],
      "name": "owner",
      "outputs": [
        {
          "internalType": "address",
          "name": "",
          "type": "address"
        }
      ],
      "stateMutability": "view",
      "type": "function"
    },
    {
      "inputs": [
        {
          "internalType": "uint256",
          "name": "tokenId",
          "type": "uint256"
        }
      ],
      "name": "ownerOf",
      "outputs": [
        {
          "internalType": "address",
          "name": "",
          "type": "address"
        }
      ],
      "stateMutability": "view",
      "type": "function"
    },
    {
      "inputs": [],
      "name": "renounceOwnership",
      "outputs": [],
      "stateMutability": "nonpayable",
      "type": "function"
    },
    {
      "inputs": [
        {
          "internalType": "address",
          "name": "from",
          "type": "address"
        },
        {
          "internalType": "address",
          "name": "to",
          "type": "address"
        },
        {
          "internalType": "uint256",
          "name": "tokenId",
          "type": "uint256"
        }
      ],
      "name": "safeTransferFrom",
      "outputs": [],
      "stateMutability": "nonpayable",
      "type": "function"
    },
    {
      "inputs": [
        {
          "internalType": "address",
          "name": "from",
          "type": "address"
        },
        {
          "internalType": "address",
          "name": "to",
          "type": "address"
        },
        {
          "internalType": "uint256",
          "name": "tokenId",
          "type": "uint256"
        },
        {
          "internalType": "bytes",
          "name": "_data",
          "type": "bytes"
        }
      ],
      "name": "safeTransferFrom",
      "outputs": [],
      "stateMutability": "nonpayable",
      "type": "function"
    },
    {
      "inputs": [
        {
          "internalType": "bytes32",
          "name": "providedKey",
          "type": "bytes32"
        },
        {
          "internalType": "uint256",
          "name": "access",
          "type": "uint256"
        },
        {
          "internalType": "bytes32",
          "name": "key",
          "type": "bytes32"
        }
      ],
      "name": "setAccessKey",
      "outputs": [],
      "stateMutability": "nonpayable",
      "type": "function"
    },
    {
      "inputs": [
        {
          "internalType": "uint256",
          "name": "price",
          "type": "uint256"
        }
      ],
      "name": "setAchievementsPrice",
      "outputs": [],
      "stateMutability": "nonpayable",
      "type": "function"
    },
    {
      "inputs": [
        {
          "internalType": "address",
          "name": "operator",
          "type": "address"
        },
        {
          "internalType": "bool",
          "name": "approved",
          "type": "bool"
        }
      ],
      "name": "setApprovalForAll",
      "outputs": [],
      "stateMutability": "nonpayable",
      "type": "function"
    },
    {
      "inputs": [
        {
          "internalType": "bytes32",
          "name": "providedKey",
          "type": "bytes32"
        },
        {
          "internalType": "uint256",
          "name": "_mode",
          "type": "uint256"
        }
      ],
      "name": "setContractMode",
      "outputs": [],
      "stateMutability": "nonpayable",
      "type": "function"
    },
    {
      "inputs": [
        {
          "internalType": "uint256",
          "name": "price",
          "type": "uint256"
        }
      ],
      "name": "setListingPrice",
      "outputs": [],
      "stateMutability": "nonpayable",
      "type": "function"
    },
    {
      "inputs": [
        {
          "internalType": "uint256",
          "name": "price",
          "type": "uint256"
        }
      ],
      "name": "setMintPrice",
      "outputs": [],
      "stateMutability": "nonpayable",
      "type": "function"
    },
    {
      "inputs": [
        {
          "internalType": "uint256",
          "name": "price",
          "type": "uint256"
        }
      ],
      "name": "setNameChangePrice",
      "outputs": [],
      "stateMutability": "nonpayable",
      "type": "function"
    },
    {
      "inputs": [
        {
          "internalType": "uint256",
          "name": "percentage",
          "type": "uint256"
        }
      ],
      "name": "setRoyalty",
      "outputs": [],
      "stateMutability": "nonpayable",
      "type": "function"
    },
    {
      "inputs": [
        {
          "internalType": "bytes32",
          "name": "providedKey",
          "type": "bytes32"
        },
        {
          "internalType": "uint256",
          "name": "tokenId",
          "type": "uint256"
        },
        {
          "internalType": "uint256",
          "name": "achievements",
          "type": "uint256"
        }
      ],
      "name": "setTokenAchievements",
      "outputs": [],
      "stateMutability": "payable",
      "type": "function"
    },
    {
      "inputs": [
        {
          "internalType": "bytes4",
          "name": "interfaceId",
          "type": "bytes4"
        }
      ],
      "name": "supportsInterface",
      "outputs": [
        {
          "internalType": "bool",
          "name": "",
          "type": "bool"
        }
      ],
      "stateMutability": "view",
      "type": "function"
    },
    {
      "inputs": [],
      "name": "symbol",
      "outputs": [
        {
          "internalType": "string",
          "name": "",
          "type": "string"
        }
      ],
      "stateMutability": "view",
      "type": "function"
    },
    {
      "inputs": [
        {
          "internalType": "bytes32",
          "name": "providedKey",
          "type": "bytes32"
        }
      ],
      "name": "throwAwayTheKeys",
      "outputs": [],
      "stateMutability": "nonpayable",
      "type": "function"
    },
    {
      "inputs": [
        {
          "internalType": "uint256",
          "name": "tokenId",
          "type": "uint256"
        }
      ],
      "name": "tokenURI",
      "outputs": [
        {
          "internalType": "string",
          "name": "",
          "type": "string"
        }
      ],
      "stateMutability": "view",
      "type": "function"
    },
    {
      "inputs": [],
      "name": "totalSupply",
      "outputs": [
        {
          "internalType": "uint256",
          "name": "",
          "type": "uint256"
        }
      ],
      "stateMutability": "view",
      "type": "function"
    },
    {
      "inputs": [
        {
          "internalType": "address",
          "name": "from",
          "type": "address"
        },
        {
          "internalType": "address",
          "name": "to",
          "type": "address"
        },
        {
          "internalType": "uint256",
          "name": "tokenId",
          "type": "uint256"
        }
      ],
      "name": "transferFrom",
      "outputs": [],
      "stateMutability": "nonpayable",
      "type": "function"
    },
    {
      "inputs": [
        {
          "internalType": "address",
          "name": "newOwner",
          "type": "address"
        }
      ],
      "name": "transferOwnership",
      "outputs": [],
      "stateMutability": "nonpayable",
      "type": "function"
    },
    {
      "inputs": [],
      "name": "vaultBalance",
      "outputs": [
        {
          "internalType": "uint256",
          "name": "",
          "type": "uint256"
        }
      ],
      "stateMutability": "view",
      "type": "function"
    },
    {
      "inputs": [
        {
          "internalType": "bytes32",
          "name": "providedKey",
          "type": "bytes32"
        }
      ],
      "name": "withdrawVault",
      "outputs": [],
      "stateMutability": "nonpayable",
      "type": "function"
    }
  ],
  "bytecode": "0x60806040523480156200001157600080fd5b506040518060400160405280600a81526020017f426c756520447265616d000000000000000000000000000000000000000000008152506040518060400160405280600281526020017f4d5500000000000000000000000000000000000000000000000000000000000081525081600290805190602001906200009692919062000253565b508060039080519060200190620000af92919062000253565b50620000c06200014e60201b60201c565b6000819055505050620000e8620000dc6200015760201b60201c565b6200015f60201b60201c565b60016009819055506000600a819055506200010a60646200022560201b60201c565b600c819055506200012260326200022560201b60201c565b600d819055506200013a60086200022560201b60201c565b600e81905550600860108190555062000469565b60006001905090565b600033905090565b6000600860009054906101000a900473ffffffffffffffffffffffffffffffffffffffff16905081600860006101000a81548173ffffffffffffffffffffffffffffffffffffffff021916908373ffffffffffffffffffffffffffffffffffffffff1602179055508173ffffffffffffffffffffffffffffffffffffffff168173ffffffffffffffffffffffffffffffffffffffff167f8be0079c531659141344cd1fd0a4f28419497f9722a3daafe3b4186f6b6457e060405160405180910390a35050565b60006103e882670de0b6b3a76400006200024091906200033c565b6200024c9190620003cc565b9050919050565b828054620002619062000433565b90600052602060002090601f016020900481019282620002855760008555620002d1565b82601f10620002a057805160ff1916838001178555620002d1565b82800160010185558215620002d1579182015b82811115620002d0578251825591602001919060010190620002b3565b5b509050620002e09190620002e4565b5090565b5b80821115620002ff576000816000905550600101620002e5565b5090565b6000819050919050565b7f4e487b7100000000000000000000000000000000000000000000000000000000600052601160045260246000fd5b6000620003498262000303565b9150620003568362000303565b9250817fffffffffffffffffffffffffffffffffffffffffffffffffffffffffffffffff04831182151516156200039257620003916200030d565b5b828202905092915050565b7f4e487b7100000000000000000000000000000000000000000000000000000000600052601260045260246000fd5b6000620003d98262000303565b9150620003e68362000303565b925082620003f957620003f86200039d565b5b828204905092915050565b7f4e487b7100000000000000000000000000000000000000000000000000000000600052602260045260246000fd5b600060028204905060018216806200044c57607f821691505b6020821081141562000463576200046262000404565b5b50919050565b6154c980620004796000396000f3fe6080604052600436106102255760003560e01c806389edc43811610123578063b88d4fde116100ab578063e985e9c51161006f578063e985e9c5146107d9578063edc284b514610816578063ee7242e31461083f578063f2fde38b1461085b578063f4a0a5281461088457610225565b8063b88d4fde146106f1578063bed659bc1461071a578063c87b56dd14610743578063e4b50cb814610780578063e6efa42a146107bd57610225565b80639a043832116100f25780639a0438321461060e5780639c2cba2d1461064b578063a22cb46514610674578063a43da3bd1461069d578063a9de3d50146106c857610225565b806389edc4381461055f5780638da5cb5b1461059c5780638e87f7d7146105c757806395d89b41146105e357610225565b80634209a2e1116101b157806370a082311161017557806370a0823114610490578063715018a6146104cd5780637c726b69146104e457806384a1b9021461050d57806389e952f41461053657610225565b80634209a2e1146103bc57806342842e0e146103e557806347dd6c821461040e578063550b7551146104375780636352211e1461045357610225565b80630bf6cc08116101f85780630bf6cc08146102f85780630d1ff5a11461032357806318160ddd1461033f57806323b872dd1461036a5780633fed24aa1461039357610225565b806301ffc9a71461022a57806306fdde0314610267578063081812fc14610292578063095ea7b3146102cf575b600080fd5b34801561023657600080fd5b50610251600480360381019061024c9190613a0f565b6108ad565b60405161025e9190613a57565b60405180910390f35b34801561027357600080fd5b5061027c61093f565b6040516102899190613b0b565b60405180910390f35b34801561029e57600080fd5b506102b960048036038101906102b49190613b63565b6109d1565b6040516102c69190613bd1565b60405180910390f35b3480156102db57600080fd5b506102f660048036038101906102f19190613c18565b610a4d565b005b34801561030457600080fd5b5061030d610b8e565b60405161031a9190613c67565b60405180910390f35b61033d60048036038101906103389190613cb8565b610b9e565b005b34801561034b57600080fd5b50610354610c8a565b6040516103619190613c67565b60405180910390f35b34801561037657600080fd5b50610391600480360381019061038c9190613d0b565b610ca1565b005b34801561039f57600080fd5b506103ba60048036038101906103b59190613d5e565b610cdb565b005b3480156103c857600080fd5b506103e360048036038101906103de9190613b63565b610cfb565b005b3480156103f157600080fd5b5061040c60048036038101906104079190613d0b565b610d0f565b005b34801561041a57600080fd5b5061043560048036038101906104309190613d8b565b610d2f565b005b610451600480360381019061044c9190613d8b565b610d4d565b005b34801561045f57600080fd5b5061047a60048036038101906104759190613b63565b610f78565b6040516104879190613bd1565b60405180910390f35b34801561049c57600080fd5b506104b760048036038101906104b29190613dcb565b610f8a565b6040516104c49190613c67565b60405180910390f35b3480156104d957600080fd5b506104e2611043565b005b3480156104f057600080fd5b5061050b60048036038101906105069190613b63565b61104d565b005b34801561051957600080fd5b50610534600480360381019061052f9190613b63565b611067565b005b34801561054257600080fd5b5061055d60048036038101906105589190613df8565b611081565b005b34801561056b57600080fd5b5061058660048036038101906105819190613e4b565b611131565b60405161059391906140ab565b60405180910390f35b3480156105a857600080fd5b506105b161155c565b6040516105be9190613bd1565b60405180910390f35b6105e160048036038101906105dc9190613cb8565b611586565b005b3480156105ef57600080fd5b506105f861165b565b6040516106059190613b0b565b60405180910390f35b34801561061a57600080fd5b50610635600480360381019061063091906140cd565b6116ed565b60405161064291906140ab565b60405180910390f35b34801561065757600080fd5b50610672600480360381019061066d919061410d565b611985565b005b34801561068057600080fd5b5061069b60048036038101906106969190614179565b611a15565b005b3480156106a957600080fd5b506106b2611b8d565b6040516106bf9190613c67565b60405180910390f35b3480156106d457600080fd5b506106ef60048036038101906106ea9190613b63565b611b9f565b005b3480156106fd57600080fd5b50610718600480360381019061071391906142ee565b611bb9565b005b34801561072657600080fd5b50610741600480360381019061073c9190613b63565b611c2c565b005b34801561074f57600080fd5b5061076a60048036038101906107659190613b63565b611ca5565b6040516107779190613b0b565b60405180910390f35b34801561078c57600080fd5b506107a760048036038101906107a29190613b63565b611d44565b6040516107b49190614436565b60405180910390f35b6107d760048036038101906107d291906144f9565b611ed1565b005b3480156107e557600080fd5b5061080060048036038101906107fb9190614568565b61201a565b60405161080d9190613a57565b60405180910390f35b34801561082257600080fd5b5061083d60048036038101906108389190613d5e565b6120ae565b005b61085960048036038101906108549190614608565b6121d3565b005b34801561086757600080fd5b50610882600480360381019061087d9190613dcb565b6124fa565b005b34801561089057600080fd5b506108ab60048036038101906108a69190613b63565b612505565b005b60006301ffc9a760e01b827bffffffffffffffffffffffffffffffffffffffffffffffffffffffff1916148061090857506380ac58cd60e01b827bffffffffffffffffffffffffffffffffffffffffffffffffffffffff1916145b806109385750635b5e139f60e01b827bffffffffffffffffffffffffffffffffffffffffffffffffffffffff1916145b9050919050565b60606002805461094e90614697565b80601f016020809104026020016040519081016040528092919081815260200182805461097a90614697565b80156109c75780601f1061099c576101008083540402835291602001916109c7565b820191906000526020600020905b8154815290600101906020018083116109aa57829003601f168201915b5050505050905090565b60006109dc8261251f565b610a12576040517fcf4700e400000000000000000000000000000000000000000000000000000000815260040160405180910390fd5b6006600083815260200190815260200160002060009054906101000a900473ffffffffffffffffffffffffffffffffffffffff169050919050565b6000610a5882610f78565b90508073ffffffffffffffffffffffffffffffffffffffff16610a7961257e565b73ffffffffffffffffffffffffffffffffffffffff1614610adc57610aa581610aa061257e565b61201a565b610adb576040517fcfb3b94200000000000000000000000000000000000000000000000000000000815260040160405180910390fd5b5b826006600084815260200190815260200160002060006101000a81548173ffffffffffffffffffffffffffffffffffffffff021916908373ffffffffffffffffffffffffffffffffffffffff160217905550818373ffffffffffffffffffffffffffffffffffffffff168273ffffffffffffffffffffffffffffffffffffffff167f8c5be1e5ebec7d5bd14f71427d1e84f3dd0314c0f7b2291e5b200ac8c7c3b92560405160405180910390a4505050565b6000610b98612586565b47905090565b60026009541415610be4576040517f08c379a0000000000000000000000000000000000000000000000000000000008152600401610bdb90614715565b60405180910390fd5b60026009819055506010610bf781612604565b610c02600285612679565b600f54341015610c47576040517f08c379a0000000000000000000000000000000000000000000000000000000008152600401610c3e90614781565b60405180910390fd5b8160118481548110610c5c57610c5b6147a1565b5b906000526020600020906009020160080181905550610c7c600f546126dd565b506001600981905550505050565b6000610c94612764565b6001546000540303905090565b6020610cac81612604565b610cb4612586565b610cbf84848461276d565b610cca848484612a92565b610cd5826000612ccf565b50505050565b610ce3612586565b610cee600382612679565b610cf86000612d20565b50565b610d03612586565b610d0c81612de6565b50565b610d2a83838360405180602001604052806000815250611bb9565b505050565b610d37612586565b610d42600383612679565b80600a819055505050565b60026009541415610d93576040517f08c379a0000000000000000000000000000000000000000000000000000000008152600401610d8a90614715565b60405180910390fd5b60026009819055506008610da681612604565b610db1600184612679565b610dba82612e3f565b6000610dc583610f78565b9050610dd2813385610d0f565b610ddd813385612a92565b600060118481548110610df357610df26147a1565b5b90600052602060002090600902016006015434610e1091906147ff565b905060008134610e2091906147ff565b90506000606460105483610e349190614833565b610e3e91906148bc565b905060008183610e4e91906147ff565b90503373ffffffffffffffffffffffffffffffffffffffff1684604051610e749061491e565b60006040518083038185875af1925050503d8060008114610eb1576040519150601f19603f3d011682016040523d82523d6000602084013e610eb6565b606091505b50505060008573ffffffffffffffffffffffffffffffffffffffff1682604051610edf9061491e565b60006040518083038185875af1925050503d8060008114610f1c576040519150601f19603f3d011682016040523d82523d6000602084013e610f21565b606091505b5050905080610f65576040517f08c379a0000000000000000000000000000000000000000000000000000000008152600401610f5c9061497f565b60405180910390fd5b5050505050505060016009819055505050565b6000610f8382612f38565b9050919050565b60008073ffffffffffffffffffffffffffffffffffffffff168273ffffffffffffffffffffffffffffffffffffffff161415610ff2576040517f8f4eb60400000000000000000000000000000000000000000000000000000000815260040160405180910390fd5b67ffffffffffffffff600560008473ffffffffffffffffffffffffffffffffffffffff1673ffffffffffffffffffffffffffffffffffffffff16815260200190815260200160002054169050919050565b61104b612586565b565b611055612586565b61105e81613006565b600d8190555050565b61106f612586565b61107881613006565b600e8190555050565b604061108c81612604565b611094612586565b61109f600385612679565b6000831415806110b0575060018314155b806110bc575060028314155b806110c8575060038314155b15611108576040517f08c379a00000000000000000000000000000000000000000000000000000000081526004016110ff906149eb565b60405180910390fd5b81600b848154811061111d5761111c6147a1565b5b906000526020600020018190555050505050565b60606000601260008673ffffffffffffffffffffffffffffffffffffffff1673ffffffffffffffffffffffffffffffffffffffff1681526020019081526020016000208054905014156111b9576040517f08c379a00000000000000000000000000000000000000000000000000000000081526004016111b090614a57565b60405180910390fd5b600083108061121557506001601260008673ffffffffffffffffffffffffffffffffffffffff1673ffffffffffffffffffffffffffffffffffffffff1681526020019081526020016000208054905061121291906147ff565b83115b15611255576040517f08c379a000000000000000000000000000000000000000000000000000000000815260040161124c90614ac3565b60405180910390fd5b60008210806112a55750601260008573ffffffffffffffffffffffffffffffffffffffff1673ffffffffffffffffffffffffffffffffffffffff1681526020019081526020016000208054905082115b156112e5576040517f08c379a00000000000000000000000000000000000000000000000000000000081526004016112dc90614b2f565b60405180910390fd5b600082141561133457601260008573ffffffffffffffffffffffffffffffffffffffff1673ffffffffffffffffffffffffffffffffffffffff1681526020019081526020016000208054905091505b60606000805b8481101561154f57601260008873ffffffffffffffffffffffffffffffffffffffff1673ffffffffffffffffffffffffffffffffffffffff1681526020019081526020016000208181548110611393576113926147a1565b5b90600052602060002001549150601182815481106113b4576113b36147a1565b5b9060005260206000209060090201604051806101200160405290816000820160009054906101000a900460ff161515151581526020016001820154815260200160028201805461140390614697565b80601f016020809104026020016040519081016040528092919081815260200182805461142f90614697565b801561147c5780601f106114515761010080835404028352916020019161147c565b820191906000526020600020905b81548152906001019060200180831161145f57829003601f168201915b5050505050815260200160038201548152602001600482015481526020016005820160009054906101000a900460ff16151515158152602001600682015481526020016007820160009054906101000a900473ffffffffffffffffffffffffffffffffffffffff1673ffffffffffffffffffffffffffffffffffffffff1673ffffffffffffffffffffffffffffffffffffffff168152602001600882015481525050838281518110611531576115306147a1565b5b6020026020010181905250808061154790614b4f565b91505061133a565b5081925050509392505050565b6000600860009054906101000a900473ffffffffffffffffffffffffffffffffffffffff16905090565b600260095414156115cc576040517f08c379a00000000000000000000000000000000000000000000000000000000081526004016115c390614715565b60405180910390fd5b600260098190555060086115df81612604565b6115ea600185612679565b6115f383612e3f565b600e54341015611638576040517f08c379a000000000000000000000000000000000000000000000000000000000815260040161162f90614be4565b60405180910390fd5b6116428383612ccf565b61164d600d546126dd565b506001600981905550505050565b60606003805461166a90614697565b80601f016020809104026020016040519081016040528092919081815260200182805461169690614697565b80156116e35780601f106116b8576101008083540402835291602001916116e3565b820191906000526020600020905b8154815290600101906020018083116116c657829003601f168201915b5050505050905090565b6060600083108061170e5750600160118054905061170b91906147ff565b83115b1561174e576040517f08c379a000000000000000000000000000000000000000000000000000000000815260040161174590614ac3565b60405180910390fd5b6000821080611761575060118054905082115b156117a1576040517f08c379a000000000000000000000000000000000000000000000000000000000815260040161179890614b2f565b60405180910390fd5b60008214156117b35760118054905091505b606060005b8381101561197a57601181866117ce9190614c04565b815481106117df576117de6147a1565b5b9060005260206000209060090201604051806101200160405290816000820160009054906101000a900460ff161515151581526020016001820154815260200160028201805461182e90614697565b80601f016020809104026020016040519081016040528092919081815260200182805461185a90614697565b80156118a75780601f1061187c576101008083540402835291602001916118a7565b820191906000526020600020905b81548152906001019060200180831161188a57829003601f168201915b5050505050815260200160038201548152602001600482015481526020016005820160009054906101000a900460ff16151515158152602001600682015481526020016007820160009054906101000a900473ffffffffffffffffffffffffffffffffffffffff1673ffffffffffffffffffffffffffffffffffffffff1673ffffffffffffffffffffffffffffffffffffffff16815260200160088201548152505082828151811061195c5761195b6147a1565b5b6020026020010181905250808061197290614b4f565b9150506117b8565b508091505092915050565b61198d612586565b611998600383612679565b600073ffffffffffffffffffffffffffffffffffffffff168173ffffffffffffffffffffffffffffffffffffffff161415611a08576040517f08c379a00000000000000000000000000000000000000000000000000000000081526004016119ff90614ccc565b60405180910390fd5b611a1181612d20565b5050565b611a1d61257e565b73ffffffffffffffffffffffffffffffffffffffff168273ffffffffffffffffffffffffffffffffffffffff161415611a82576040517fb06307db00000000000000000000000000000000000000000000000000000000815260040160405180910390fd5b8060076000611a8f61257e565b73ffffffffffffffffffffffffffffffffffffffff1673ffffffffffffffffffffffffffffffffffffffff16815260200190815260200160002060008473ffffffffffffffffffffffffffffffffffffffff1673ffffffffffffffffffffffffffffffffffffffff16815260200190815260200160002060006101000a81548160ff0219169083151502179055508173ffffffffffffffffffffffffffffffffffffffff16611b3c61257e565b73ffffffffffffffffffffffffffffffffffffffff167f17307eab39ab6107e8899845ad3d59bd9653f200f220920489ca2b5937696c3183604051611b819190613a57565b60405180910390a35050565b6000611b97612586565b600a54905090565b611ba7612586565b611bb081613006565b600f8190555050565b611bc4848484610ca1565b60008373ffffffffffffffffffffffffffffffffffffffff163b14611c2657611bef84848484613030565b611c25576040517fd1a57ed600000000000000000000000000000000000000000000000000000000815260040160405180910390fd5b5b50505050565b60026009541415611c72576040517f08c379a0000000000000000000000000000000000000000000000000000000008152600401611c6990614715565b60405180910390fd5b60026009819055506008611c8581612604565b611c8e82612e3f565b611c99826000612ccf565b50600160098190555050565b6060611cb08261251f565b611ce6576040517fa14c4b5000000000000000000000000000000000000000000000000000000000815260040160405180910390fd5b6000611cf0613190565b9050600081511415611d115760405180602001604052806000815250611d3c565b80611d1b846131a7565b604051602001611d2c929190614d28565b6040516020818303038152906040525b915050919050565b611d4c613894565b60118281548110611d6057611d5f6147a1565b5b9060005260206000209060090201604051806101200160405290816000820160009054906101000a900460ff1615151515815260200160018201548152602001600282018054611daf90614697565b80601f0160208091040260200160405190810160405280929190818152602001828054611ddb90614697565b8015611e285780601f10611dfd57610100808354040283529160200191611e28565b820191906000526020600020905b815481529060010190602001808311611e0b57829003601f168201915b5050505050815260200160038201548152602001600482015481526020016005820160009054906101000a900460ff16151515158152602001600682015481526020016007820160009054906101000a900473ffffffffffffffffffffffffffffffffffffffff1673ffffffffffffffffffffffffffffffffffffffff1673ffffffffffffffffffffffffffffffffffffffff1681526020016008820154815250509050919050565b60026009541415611f17576040517f08c379a0000000000000000000000000000000000000000000000000000000008152600401611f0e90614715565b60405180910390fd5b60026009819055506004611f2a81612604565b611f35600185612679565b611f3e83612e3f565b600e54341015611f83576040517f08c379a0000000000000000000000000000000000000000000000000000000008152600401611f7a90614d98565b60405180910390fd5b6020825110611fc7576040517f08c379a0000000000000000000000000000000000000000000000000000000008152600401611fbe90614e04565b60405180910390fd5b8160118481548110611fdc57611fdb6147a1565b5b90600052602060002090600902016002019080519060200190612000929190613900565b5061200c600e546126dd565b506001600981905550505050565b6000600760008473ffffffffffffffffffffffffffffffffffffffff1673ffffffffffffffffffffffffffffffffffffffff16815260200190815260200160002060008373ffffffffffffffffffffffffffffffffffffffff1673ffffffffffffffffffffffffffffffffffffffff16815260200190815260200160002060009054906101000a900460ff16905092915050565b600260095414156120f4576040517f08c379a00000000000000000000000000000000000000000000000000000000081526004016120eb90614715565b60405180910390fd5b6002600981905550604061210781612604565b61210f612586565b61211a600383612679565b60003373ffffffffffffffffffffffffffffffffffffffff16476040516121409061491e565b60006040518083038185875af1925050503d806000811461217d576040519150601f19603f3d011682016040523d82523d6000602084013e612182565b606091505b50509050806121c6576040517f08c379a00000000000000000000000000000000000000000000000000000000081526004016121bd90614e70565b60405180910390fd5b5050600160098190555050565b60026121de81612604565b6121e9600085612679565b60006121f3613201565b9050600c5434101561223a576040517f08c379a000000000000000000000000000000000000000000000000000000000815260040161223190614edc565b60405180910390fd5b60208484905010612280576040517f08c379a000000000000000000000000000000000000000000000000000000000815260040161227790614e04565b60405180910390fd5b61271061228b610c8a565b106122cb576040517f08c379a00000000000000000000000000000000000000000000000000000000081526004016122c290614f48565b60405180910390fd5b6122d633600161320a565b60405180610120016040528060011515815260200182815260200185858080601f016020809104026020016040519081016040528093929190818152602001838380828437600081840152601f19601f820116905080830192505050505050508152602001612343613228565b8152602001612350613228565b8152602001600015158152602001600081526020013373ffffffffffffffffffffffffffffffffffffffff16815260200160008152506011828154811061239a576123996147a1565b5b906000526020600020906009020160008201518160000160006101000a81548160ff0219169083151502179055506020820151816001015560408201518160020190805190602001906123ee929190613900565b50606082015181600301556080820151816004015560a08201518160050160006101000a81548160ff02191690831515021790555060c0820151816006015560e08201518160070160006101000a81548173ffffffffffffffffffffffffffffffffffffffff021916908373ffffffffffffffffffffffffffffffffffffffff1602179055506101008201518160080155905050601260003373ffffffffffffffffffffffffffffffffffffffff1673ffffffffffffffffffffffffffffffffffffffff1681526020019081526020016000208190806001815401808255809150506001900390600052602060002001600090919091909150556124f3600c546126dd565b5050505050565b612502612586565b50565b61250d612586565b61251681613006565b600c8190555050565b60008161252a612764565b11158015612539575060005482105b8015612577575060007c0100000000000000000000000000000000000000000000000000000000600460008581526020019081526020016000205416145b9050919050565b600033905090565b61258e61327b565b73ffffffffffffffffffffffffffffffffffffffff166125ac61155c565b73ffffffffffffffffffffffffffffffffffffffff1614612602576040517f08c379a00000000000000000000000000000000000000000000000000000000081526004016125f990614fb4565b60405180910390fd5b565b8081600a541614156126765761261b600a54613283565b60405160200161262b9190615020565b6040516020818303038152906040526040517f08c379a000000000000000000000000000000000000000000000000000000000815260040161266d9190613b0b565b60405180910390fd5b50565b80600b838154811061268e5761268d6147a1565b5b9060005260206000200154146126d9576040517f08c379a00000000000000000000000000000000000000000000000000000000081526004016126d09061508e565b60405180910390fd5b5050565b600081346126eb91906147ff565b90506000811115612760573373ffffffffffffffffffffffffffffffffffffffff168160405161271a9061491e565b60006040518083038185875af1925050503d8060008114612757576040519150601f19603f3d011682016040523d82523d6000602084013e61275c565b606091505b5050505b5050565b60006001905090565b600061277882612f38565b90508373ffffffffffffffffffffffffffffffffffffffff168173ffffffffffffffffffffffffffffffffffffffff16146127df576040517fa114810000000000000000000000000000000000000000000000000000000000815260040160405180910390fd5b6000806127eb84613309565b9150915061280181876127fc61257e565b61332b565b61284d576128168661281161257e565b61201a565b61284c576040517f59c896be00000000000000000000000000000000000000000000000000000000815260040160405180910390fd5b5b600073ffffffffffffffffffffffffffffffffffffffff168573ffffffffffffffffffffffffffffffffffffffff1614156128b4576040517fea553b3400000000000000000000000000000000000000000000000000000000815260040160405180910390fd5b6128c1868686600161336f565b80156128cc57600082555b600560008773ffffffffffffffffffffffffffffffffffffffff1673ffffffffffffffffffffffffffffffffffffffff168152602001908152602001600020600081546001900391905081905550600560008673ffffffffffffffffffffffffffffffffffffffff1673ffffffffffffffffffffffffffffffffffffffff168152602001908152602001600020600081546001019190508190555061299a85612976888887613375565b7c02000000000000000000000000000000000000000000000000000000001761339d565b600460008681526020019081526020016000208190555060007c020000000000000000000000000000000000000000000000000000000084161415612a22576000600185019050600060046000838152602001908152602001600020541415612a20576000548114612a1f578360046000838152602001908152602001600020819055505b5b505b838573ffffffffffffffffffffffffffffffffffffffff168773ffffffffffffffffffffffffffffffffffffffff167fddf252ad1be2c89b69c2b068fc378daa952ba7f163c4a11628f55a4df523b3ef60405160405180910390a4612a8a86868660016133c8565b505050505050565b8160118281548110612aa757612aa66147a1565b5b906000526020600020906009020160070160006101000a81548173ffffffffffffffffffffffffffffffffffffffff021916908373ffffffffffffffffffffffffffffffffffffffff160217905550601260008473ffffffffffffffffffffffffffffffffffffffff1673ffffffffffffffffffffffffffffffffffffffff1681526020019081526020016000206001601260008673ffffffffffffffffffffffffffffffffffffffff1673ffffffffffffffffffffffffffffffffffffffff16815260200190815260200160002080549050612b8491906147ff565b81548110612b9557612b946147a1565b5b9060005260206000200154601260008573ffffffffffffffffffffffffffffffffffffffff1673ffffffffffffffffffffffffffffffffffffffff1681526020019081526020016000208281548110612bf157612bf06147a1565b5b9060005260206000200181905550601260008473ffffffffffffffffffffffffffffffffffffffff1673ffffffffffffffffffffffffffffffffffffffff168152602001908152602001600020805480612c4e57612c4d6150ae565b5b60019003818190600052602060002001600090559055601260008373ffffffffffffffffffffffffffffffffffffffff1673ffffffffffffffffffffffffffffffffffffffff168152602001908152602001600020819080600181540180825580915050600190039060005260206000200160009091909190915055505050565b600060118381548110612ce557612ce46147a1565b5b9060005260206000209060090201905060008160050160006101000a81548160ff021916908315150217905550818160060181905550505050565b6000600860009054906101000a900473ffffffffffffffffffffffffffffffffffffffff16905081600860006101000a81548173ffffffffffffffffffffffffffffffffffffffff021916908373ffffffffffffffffffffffffffffffffffffffff1602179055508173ffffffffffffffffffffffffffffffffffffffff168173ffffffffffffffffffffffffffffffffffffffff167f8be0079c531659141344cd1fd0a4f28419497f9722a3daafe3b4186f6b6457e060405160405180910390a35050565b6000811080612df55750606481115b15612e35576040517f08c379a0000000000000000000000000000000000000000000000000000000008152600401612e2c90615129565b60405180910390fd5b8060108190555050565b6000151560118281548110612e5757612e566147a1565b5b906000526020600020906009020160000160009054906101000a900460ff1615151415612eb9576040517f08c379a0000000000000000000000000000000000000000000000000000000008152600401612eb090615195565b60405180910390fd5b6000612ec482610f78565b90508073ffffffffffffffffffffffffffffffffffffffff163373ffffffffffffffffffffffffffffffffffffffff1614612f34576040517f08c379a0000000000000000000000000000000000000000000000000000000008152600401612f2b90615201565b60405180910390fd5b5050565b60008082905080612f47612764565b11612fcf57600054811015612fce5760006004600083815260200190815260200160002054905060007c010000000000000000000000000000000000000000000000000000000082161415612fcc575b6000811415612fc2576004600083600190039350838152602001908152602001600020549050612f97565b8092505050613001565b505b5b6040517fdf2d9b4200000000000000000000000000000000000000000000000000000000815260040160405180910390fd5b919050565b60006103e882670de0b6b3a764000061301f9190614833565b61302991906148bc565b9050919050565b60008373ffffffffffffffffffffffffffffffffffffffff1663150b7a0261305661257e565b8786866040518563ffffffff1660e01b81526004016130789493929190615276565b602060405180830381600087803b15801561309257600080fd5b505af19250505080156130c357506040513d601f19601f820116820180604052508101906130c091906152d7565b60015b61313d573d80600081146130f3576040519150601f19603f3d011682016040523d82523d6000602084013e6130f8565b606091505b50600081511415613135576040517fd1a57ed600000000000000000000000000000000000000000000000000000000815260040160405180910390fd5b805181602001fd5b63150b7a0260e01b7bffffffffffffffffffffffffffffffffffffffffffffffffffffffff1916817bffffffffffffffffffffffffffffffffffffffffffffffffffffffff191614915050949350505050565b606060405180602001604052806000815250905090565b60606080604051019050806040528082600183039250600a81066030018353600a810490505b80156131ed57600183039250600a81066030018353600a810490506131cd565b508181036020830392508083525050919050565b60008054905090565b6132248282604051806020016040528060008152506133ce565b5050565b600042436080436132399190615304565b4218610100436132499190615304565b42173360405160200161326095949392919061539e565b60405160208183030381529060405280519060200120905090565b600033905090565b606060008214156132cb576040518060400160405280600481526020017f30783030000000000000000000000000000000000000000000000000000000008152509050613304565b600082905060005b600082146132f55780806132e690614b4f565b915050600882901c91506132d3565b6132ff848261346b565b925050505b919050565b6000806000600690508360005280602052604060002092508254915050915091565b600073ffffffffffffffffffffffffffffffffffffffff8316925073ffffffffffffffffffffffffffffffffffffffff821691508382148383141790509392505050565b50505050565b60008060e883901c905060e861338c8686846136a7565b62ffffff16901b9150509392505050565b600073ffffffffffffffffffffffffffffffffffffffff83169250814260a01b178317905092915050565b50505050565b6133d883836136b0565b60008373ffffffffffffffffffffffffffffffffffffffff163b1461346657600080549050600083820390505b6134186000868380600101945086613030565b61344e576040517fd1a57ed600000000000000000000000000000000000000000000000000000000815260040160405180910390fd5b81811061340557816000541461346357600080fd5b50505b505050565b60606000600283600261347e9190614833565b6134889190614c04565b67ffffffffffffffff8111156134a1576134a06141c3565b5b6040519080825280601f01601f1916602001820160405280156134d35781602001600182028036833780820191505090505b5090507f30000000000000000000000000000000000000000000000000000000000000008160008151811061350b5761350a6147a1565b5b60200101907effffffffffffffffffffffffffffffffffffffffffffffffffffffffffffff1916908160001a9053507f78000000000000000000000000000000000000000000000000000000000000008160018151811061356f5761356e6147a1565b5b60200101907effffffffffffffffffffffffffffffffffffffffffffffffffffffffffffff1916908160001a905350600060018460026135af9190614833565b6135b99190614c04565b90505b6001811115613659577f3031323334353637383961626364656600000000000000000000000000000000600f8616601081106135fb576135fa6147a1565b5b1a60f81b828281518110613612576136116147a1565b5b60200101907effffffffffffffffffffffffffffffffffffffffffffffffffffffffffffff1916908160001a905350600485901c945080613652906153fd565b90506135bc565b506000841461369d576040517f08c379a000000000000000000000000000000000000000000000000000000000815260040161369490615473565b60405180910390fd5b8091505092915050565b60009392505050565b600080549050600073ffffffffffffffffffffffffffffffffffffffff168373ffffffffffffffffffffffffffffffffffffffff16141561371d576040517f2e07630000000000000000000000000000000000000000000000000000000000815260040160405180910390fd5b6000821415613758576040517fb562e8dd00000000000000000000000000000000000000000000000000000000815260040160405180910390fd5b613765600084838561336f565b600160406001901b178202600560008573ffffffffffffffffffffffffffffffffffffffff1673ffffffffffffffffffffffffffffffffffffffff168152602001908152602001600020600082825401925050819055506137dc836137cd6000866000613375565b6137d685613884565b1761339d565b60046000838152602001908152602001600020819055506000819050600083830190505b818060010192508573ffffffffffffffffffffffffffffffffffffffff16600073ffffffffffffffffffffffffffffffffffffffff167fddf252ad1be2c89b69c2b068fc378daa952ba7f163c4a11628f55a4df523b3ef60405160405180910390a48082106138005780600081905550505061387f60008483856133c8565b505050565b60006001821460e11b9050919050565b6040518061012001604052806000151581526020016000815260200160608152602001600080191681526020016000801916815260200160001515815260200160008152602001600073ffffffffffffffffffffffffffffffffffffffff168152602001600081525090565b82805461390c90614697565b90600052602060002090601f01602090048101928261392e5760008555613975565b82601f1061394757805160ff1916838001178555613975565b82800160010185558215613975579182015b82811115613974578251825591602001919060010190613959565b5b5090506139829190613986565b5090565b5b8082111561399f576000816000905550600101613987565b5090565b6000604051905090565b600080fd5b600080fd5b60007fffffffff0000000000000000000000000000000000000000000000000000000082169050919050565b6139ec816139b7565b81146139f757600080fd5b50565b600081359050613a09816139e3565b92915050565b600060208284031215613a2557613a246139ad565b5b6000613a33848285016139fa565b91505092915050565b60008115159050919050565b613a5181613a3c565b82525050565b6000602082019050613a6c6000830184613a48565b92915050565b600081519050919050565b600082825260208201905092915050565b60005b83811015613aac578082015181840152602081019050613a91565b83811115613abb576000848401525b50505050565b6000601f19601f8301169050919050565b6000613add82613a72565b613ae78185613a7d565b9350613af7818560208601613a8e565b613b0081613ac1565b840191505092915050565b60006020820190508181036000830152613b258184613ad2565b905092915050565b6000819050919050565b613b4081613b2d565b8114613b4b57600080fd5b50565b600081359050613b5d81613b37565b92915050565b600060208284031215613b7957613b786139ad565b5b6000613b8784828501613b4e565b91505092915050565b600073ffffffffffffffffffffffffffffffffffffffff82169050919050565b6000613bbb82613b90565b9050919050565b613bcb81613bb0565b82525050565b6000602082019050613be66000830184613bc2565b92915050565b613bf581613bb0565b8114613c0057600080fd5b50565b600081359050613c1281613bec565b92915050565b60008060408385031215613c2f57613c2e6139ad565b5b6000613c3d85828601613c03565b9250506020613c4e85828601613b4e565b9150509250929050565b613c6181613b2d565b82525050565b6000602082019050613c7c6000830184613c58565b92915050565b6000819050919050565b613c9581613c82565b8114613ca057600080fd5b50565b600081359050613cb281613c8c565b92915050565b600080600060608486031215613cd157613cd06139ad565b5b6000613cdf86828701613ca3565b9350506020613cf086828701613b4e565b9250506040613d0186828701613b4e565b9150509250925092565b600080600060608486031215613d2457613d236139ad565b5b6000613d3286828701613c03565b9350506020613d4386828701613c03565b9250506040613d5486828701613b4e565b9150509250925092565b600060208284031215613d7457613d736139ad565b5b6000613d8284828501613ca3565b91505092915050565b60008060408385031215613da257613da16139ad565b5b6000613db085828601613ca3565b9250506020613dc185828601613b4e565b9150509250929050565b600060208284031215613de157613de06139ad565b5b6000613def84828501613c03565b91505092915050565b600080600060608486031215613e1157613e106139ad565b5b6000613e1f86828701613ca3565b9350506020613e3086828701613b4e565b9250506040613e4186828701613ca3565b9150509250925092565b600080600060608486031215613e6457613e636139ad565b5b6000613e7286828701613c03565b9350506020613e8386828701613b4e565b9250506040613e9486828701613b4e565b9150509250925092565b600081519050919050565b600082825260208201905092915050565b6000819050602082019050919050565b613ed381613a3c565b82525050565b613ee281613b2d565b82525050565b600082825260208201905092915050565b6000613f0482613a72565b613f0e8185613ee8565b9350613f1e818560208601613a8e565b613f2781613ac1565b840191505092915050565b613f3b81613c82565b82525050565b613f4a81613bb0565b82525050565b600061012083016000830151613f696000860182613eca565b506020830151613f7c6020860182613ed9565b5060408301518482036040860152613f948282613ef9565b9150506060830151613fa96060860182613f32565b506080830151613fbc6080860182613f32565b5060a0830151613fcf60a0860182613eca565b5060c0830151613fe260c0860182613ed9565b5060e0830151613ff560e0860182613f41565b5061010083015161400a610100860182613ed9565b508091505092915050565b60006140218383613f50565b905092915050565b6000602082019050919050565b600061404182613e9e565b61404b8185613ea9565b93508360208202850161405d85613eba565b8060005b85811015614099578484038952815161407a8582614015565b945061408583614029565b925060208a01995050600181019050614061565b50829750879550505050505092915050565b600060208201905081810360008301526140c58184614036565b905092915050565b600080604083850312156140e4576140e36139ad565b5b60006140f285828601613b4e565b925050602061410385828601613b4e565b9150509250929050565b60008060408385031215614124576141236139ad565b5b600061413285828601613ca3565b925050602061414385828601613c03565b9150509250929050565b61415681613a3c565b811461416157600080fd5b50565b6000813590506141738161414d565b92915050565b600080604083850312156141905761418f6139ad565b5b600061419e85828601613c03565b92505060206141af85828601614164565b9150509250929050565b600080fd5b600080fd5b7f4e487b7100000000000000000000000000000000000000000000000000000000600052604160045260246000fd5b6141fb82613ac1565b810181811067ffffffffffffffff8211171561421a576142196141c3565b5b80604052505050565b600061422d6139a3565b905061423982826141f2565b919050565b600067ffffffffffffffff821115614259576142586141c3565b5b61426282613ac1565b9050602081019050919050565b82818337600083830152505050565b600061429161428c8461423e565b614223565b9050828152602081018484840111156142ad576142ac6141be565b5b6142b884828561426f565b509392505050565b600082601f8301126142d5576142d46141b9565b5b81356142e584826020860161427e565b91505092915050565b60008060008060808587031215614308576143076139ad565b5b600061431687828801613c03565b945050602061432787828801613c03565b935050604061433887828801613b4e565b925050606085013567ffffffffffffffff811115614359576143586139b2565b5b614365878288016142c0565b91505092959194509250565b60006101208301600083015161438a6000860182613eca565b50602083015161439d6020860182613ed9565b50604083015184820360408601526143b58282613ef9565b91505060608301516143ca6060860182613f32565b5060808301516143dd6080860182613f32565b5060a08301516143f060a0860182613eca565b5060c083015161440360c0860182613ed9565b5060e083015161441660e0860182613f41565b5061010083015161442b610100860182613ed9565b508091505092915050565b600060208201905081810360008301526144508184614371565b905092915050565b600067ffffffffffffffff821115614473576144726141c3565b5b61447c82613ac1565b9050602081019050919050565b600061449c61449784614458565b614223565b9050828152602081018484840111156144b8576144b76141be565b5b6144c384828561426f565b509392505050565b600082601f8301126144e0576144df6141b9565b5b81356144f0848260208601614489565b91505092915050565b600080600060608486031215614512576145116139ad565b5b600061452086828701613ca3565b935050602061453186828701613b4e565b925050604084013567ffffffffffffffff811115614552576145516139b2565b5b61455e868287016144cb565b9150509250925092565b6000806040838503121561457f5761457e6139ad565b5b600061458d85828601613c03565b925050602061459e85828601613c03565b9150509250929050565b600080fd5b600080fd5b60008083601f8401126145c8576145c76141b9565b5b8235905067ffffffffffffffff8111156145e5576145e46145a8565b5b602083019150836001820283011115614601576146006145ad565b5b9250929050565b600080600060408486031215614621576146206139ad565b5b600061462f86828701613ca3565b935050602084013567ffffffffffffffff8111156146505761464f6139b2565b5b61465c868287016145b2565b92509250509250925092565b7f4e487b7100000000000000000000000000000000000000000000000000000000600052602260045260246000fd5b600060028204905060018216806146af57607f821691505b602082108114156146c3576146c2614668565b5b50919050565b7f5265656e7472616e637947756172643a207265656e7472616e742063616c6c00600082015250565b60006146ff601f83613a7d565b915061470a826146c9565b602082019050919050565b6000602082019050818103600083015261472e816146f2565b9050919050565b7f414348494556454d454e54535f5041594d454e545f544f4f5f4c4f5700000000600082015250565b600061476b601c83613a7d565b915061477682614735565b602082019050919050565b6000602082019050818103600083015261479a8161475e565b9050919050565b7f4e487b7100000000000000000000000000000000000000000000000000000000600052603260045260246000fd5b7f4e487b7100000000000000000000000000000000000000000000000000000000600052601160045260246000fd5b600061480a82613b2d565b915061481583613b2d565b925082821015614828576148276147d0565b5b828203905092915050565b600061483e82613b2d565b915061484983613b2d565b9250817fffffffffffffffffffffffffffffffffffffffffffffffffffffffffffffffff0483118215151615614882576148816147d0565b5b828202905092915050565b7f4e487b7100000000000000000000000000000000000000000000000000000000600052601260045260246000fd5b60006148c782613b2d565b91506148d283613b2d565b9250826148e2576148e161488d565b5b828204905092915050565b600081905092915050565b50565b60006149086000836148ed565b9150614913826148f8565b600082019050919050565b6000614929826148fb565b9150819050919050565b7f4255595f5452414e534645525f4641494c454400000000000000000000000000600082015250565b6000614969601383613a7d565b915061497482614933565b602082019050919050565b600060208201905081810360008301526149988161495c565b9050919050565b7f494e56414c49445f4143434553535f504152414d455445520000000000000000600082015250565b60006149d5601883613a7d565b91506149e08261499f565b602082019050919050565b60006020820190508181036000830152614a04816149c8565b9050919050565b7f544f4b454e5f4f574e45525f444f45534e545f45584953540000000000000000600082015250565b6000614a41601883613a7d565b9150614a4c82614a0b565b602082019050919050565b60006020820190508181036000830152614a7081614a34565b9050919050565b7f53544152545f494e4445585f4f55545f4f465f52414e47450000000000000000600082015250565b6000614aad601883613a7d565b9150614ab882614a77565b602082019050919050565b60006020820190508181036000830152614adc81614aa0565b9050919050565b7f544f54414c5f4f55545f4f465f52414e47450000000000000000000000000000600082015250565b6000614b19601283613a7d565b9150614b2482614ae3565b602082019050919050565b60006020820190508181036000830152614b4881614b0c565b9050919050565b6000614b5a82613b2d565b91507fffffffffffffffffffffffffffffffffffffffffffffffffffffffffffffffff821415614b8d57614b8c6147d0565b5b600182019050919050565b7f4c495354494e475f5041594d454e545f544f4f5f4c4f57000000000000000000600082015250565b6000614bce601783613a7d565b9150614bd982614b98565b602082019050919050565b60006020820190508181036000830152614bfd81614bc1565b9050919050565b6000614c0f82613b2d565b9150614c1a83613b2d565b9250827fffffffffffffffffffffffffffffffffffffffffffffffffffffffffffffffff03821115614c4f57614c4e6147d0565b5b828201905092915050565b7f4f776e61626c653a206e6577206f776e657220697320746865207a65726f206160008201527f6464726573730000000000000000000000000000000000000000000000000000602082015250565b6000614cb6602683613a7d565b9150614cc182614c5a565b604082019050919050565b60006020820190508181036000830152614ce581614ca9565b9050919050565b600081905092915050565b6000614d0282613a72565b614d0c8185614cec565b9350614d1c818560208601613a8e565b80840191505092915050565b6000614d348285614cf7565b9150614d408284614cf7565b91508190509392505050565b7f4348414e47455f4e414d455f5041594d454e545f544f4f5f4c4f570000000000600082015250565b6000614d82601b83613a7d565b9150614d8d82614d4c565b602082019050919050565b60006020820190508181036000830152614db181614d75565b9050919050565b7f4e414d455f544f4f5f4c4f4e4700000000000000000000000000000000000000600082015250565b6000614dee600d83613a7d565b9150614df982614db8565b602082019050919050565b60006020820190508181036000830152614e1d81614de1565b9050919050565b7f54524541535552595f5452414e534645525f4641494c45440000000000000000600082015250565b6000614e5a601883613a7d565b9150614e6582614e24565b602082019050919050565b60006020820190508181036000830152614e8981614e4d565b9050919050565b7f4e4f545f454e4f5547485f455448000000000000000000000000000000000000600082015250565b6000614ec6600e83613a7d565b9150614ed182614e90565b602082019050919050565b60006020820190508181036000830152614ef581614eb9565b9050919050565b7f4d494e5445445f4f555400000000000000000000000000000000000000000000600082015250565b6000614f32600a83613a7d565b9150614f3d82614efc565b602082019050919050565b60006020820190508181036000830152614f6181614f25565b9050919050565b7f4f776e61626c653a2063616c6c6572206973206e6f7420746865206f776e6572600082015250565b6000614f9e602083613a7d565b9150614fa982614f68565b602082019050919050565b60006020820190508181036000830152614fcd81614f91565b9050919050565b7f46554e4354494f4e5f44495341424c45445f42595f4d4f44455f000000000000600082015250565b600061500a601a83614cec565b915061501582614fd4565b601a82019050919050565b600061502b82614ffd565b91506150378284614cf7565b915081905092915050565b7f4143434553534b45595f494e56414c4944000000000000000000000000000000600082015250565b6000615078601183613a7d565b915061508382615042565b602082019050919050565b600060208201905081810360008301526150a78161506b565b9050919050565b7f4e487b7100000000000000000000000000000000000000000000000000000000600052603160045260246000fd5b7f524f59414c54595f4f55545f4f465f52414e4745000000000000000000000000600082015250565b6000615113601483613a7d565b915061511e826150dd565b602082019050919050565b6000602082019050818103600083015261514281615106565b9050919050565b7f544f4b454e5f444f45535f4e4f545f4558495354000000000000000000000000600082015250565b600061517f601483613a7d565b915061518a82615149565b602082019050919050565b600060208201905081810360008301526151ae81615172565b9050919050565b7f53454e4445525f4e4f545f544f4b454e5f4f574e455200000000000000000000600082015250565b60006151eb601683613a7d565b91506151f6826151b5565b602082019050919050565b6000602082019050818103600083015261521a816151de565b9050919050565b600081519050919050565b600082825260208201905092915050565b600061524882615221565b615252818561522c565b9350615262818560208601613a8e565b61526b81613ac1565b840191505092915050565b600060808201905061528b6000830187613bc2565b6152986020830186613bc2565b6152a56040830185613c58565b81810360608301526152b7818461523d565b905095945050505050565b6000815190506152d1816139e3565b92915050565b6000602082840312156152ed576152ec6139ad565b5b60006152fb848285016152c2565b91505092915050565b600061530f82613b2d565b915061531a83613b2d565b92508261532a5761532961488d565b5b828206905092915050565b6000819050919050565b61535061534b82613b2d565b615335565b82525050565b60008160601b9050919050565b600061536e82615356565b9050919050565b600061538082615363565b9050919050565b61539861539382613bb0565b615375565b82525050565b60006153aa828861533f565b6020820191506153ba828761533f565b6020820191506153ca828661533f565b6020820191506153da828561533f565b6020820191506153ea8284615387565b6014820191508190509695505050505050565b600061540882613b2d565b9150600082141561541c5761541b6147d0565b5b600182039050919050565b7f537472696e67733a20686578206c656e67746820696e73756666696369656e74600082015250565b600061545d602083613a7d565b915061546882615427565b602082019050919050565b6000602082019050818103600083015261548c81615450565b905091905056fea2646970667358221220df851eac2b0818f3af06903601d7170d6c99b10f82ee87d58b8f508d151418b864736f6c63430008090033",
  "linkReferences": {},
  "deployedLinkReferences": {}
}