{
  "_format": "hh-sol-artifact-1",
  "contractName": "BlueDream",
  "sourceName": "contracts/Lemuria.sol",
  "abi": [
    {
      "inputs": [],
      "stateMutability": "nonpayable",
      "type": "constructor"
    },
    {
      "inputs": [],
      "name": "ApprovalCallerNotOwnerNorApproved",
      "type": "error"
    },
    {
      "inputs": [],
      "name": "ApprovalQueryForNonexistentToken",
      "type": "error"
    },
    {
      "inputs": [],
      "name": "ApproveToCaller",
      "type": "error"
    },
    {
      "inputs": [],
      "name": "BalanceQueryForZeroAddress",
      "type": "error"
    },
    {
      "inputs": [],
      "name": "MintERC2309QuantityExceedsLimit",
      "type": "error"
    },
    {
      "inputs": [],
      "name": "MintToZeroAddress",
      "type": "error"
    },
    {
      "inputs": [],
      "name": "MintZeroQuantity",
      "type": "error"
    },
    {
      "inputs": [],
      "name": "OwnerQueryForNonexistentToken",
      "type": "error"
    },
    {
      "inputs": [],
      "name": "OwnershipNotInitializedForExtraData",
      "type": "error"
    },
    {
      "inputs": [],
      "name": "TransferCallerNotOwnerNorApproved",
      "type": "error"
    },
    {
      "inputs": [],
      "name": "TransferFromIncorrectOwner",
      "type": "error"
    },
    {
      "inputs": [],
      "name": "TransferToNonERC721ReceiverImplementer",
      "type": "error"
    },
    {
      "inputs": [],
      "name": "TransferToZeroAddress",
      "type": "error"
    },
    {
      "inputs": [],
      "name": "URIQueryForNonexistentToken",
      "type": "error"
    },
    {
      "anonymous": false,
      "inputs": [
        {
          "indexed": true,
          "internalType": "address",
          "name": "owner",
          "type": "address"
        },
        {
          "indexed": true,
          "internalType": "address",
          "name": "approved",
          "type": "address"
        },
        {
          "indexed": true,
          "internalType": "uint256",
          "name": "tokenId",
          "type": "uint256"
        }
      ],
      "name": "Approval",
      "type": "event"
    },
    {
      "anonymous": false,
      "inputs": [
        {
          "indexed": true,
          "internalType": "address",
          "name": "owner",
          "type": "address"
        },
        {
          "indexed": true,
          "internalType": "address",
          "name": "operator",
          "type": "address"
        },
        {
          "indexed": false,
          "internalType": "bool",
          "name": "approved",
          "type": "bool"
        }
      ],
      "name": "ApprovalForAll",
      "type": "event"
    },
    {
      "anonymous": false,
      "inputs": [
        {
          "indexed": true,
          "internalType": "uint256",
          "name": "fromTokenId",
          "type": "uint256"
        },
        {
          "indexed": false,
          "internalType": "uint256",
          "name": "toTokenId",
          "type": "uint256"
        },
        {
          "indexed": true,
          "internalType": "address",
          "name": "from",
          "type": "address"
        },
        {
          "indexed": true,
          "internalType": "address",
          "name": "to",
          "type": "address"
        }
      ],
      "name": "ConsecutiveTransfer",
      "type": "event"
    },
    {
      "anonymous": false,
      "inputs": [
        {
          "indexed": true,
          "internalType": "address",
          "name": "previousOwner",
          "type": "address"
        },
        {
          "indexed": true,
          "internalType": "address",
          "name": "newOwner",
          "type": "address"
        }
      ],
      "name": "OwnershipTransferred",
      "type": "event"
    },
    {
      "anonymous": false,
      "inputs": [
        {
          "indexed": true,
          "internalType": "address",
          "name": "from",
          "type": "address"
        },
        {
          "indexed": true,
          "internalType": "address",
          "name": "to",
          "type": "address"
        },
        {
          "indexed": true,
          "internalType": "uint256",
          "name": "tokenId",
          "type": "uint256"
        }
      ],
      "name": "Transfer",
      "type": "event"
    },
    {
      "inputs": [
        {
          "internalType": "address",
          "name": "to",
          "type": "address"
        },
        {
          "internalType": "uint256",
          "name": "tokenId",
          "type": "uint256"
        }
      ],
      "name": "approve",
      "outputs": [],
      "stateMutability": "nonpayable",
      "type": "function"
    },
    {
      "inputs": [
        {
          "internalType": "address",
          "name": "owner",
          "type": "address"
        }
      ],
      "name": "balanceOf",
      "outputs": [
        {
          "internalType": "uint256",
          "name": "",
          "type": "uint256"
        }
      ],
      "stateMutability": "view",
      "type": "function"
    },
    {
      "inputs": [
        {
          "internalType": "uint256",
          "name": "tokenId",
          "type": "uint256"
        }
      ],
      "name": "buyToken",
      "outputs": [],
      "stateMutability": "payable",
      "type": "function"
    },
    {
      "inputs": [
        {
          "internalType": "uint256",
          "name": "tokenId",
          "type": "uint256"
        }
      ],
      "name": "delistToken",
      "outputs": [],
      "stateMutability": "payable",
      "type": "function"
    },
    {
      "inputs": [
        {
          "internalType": "uint256",
          "name": "startIndex",
          "type": "uint256"
        },
        {
          "internalType": "uint256",
          "name": "total",
          "type": "uint256"
        }
      ],
      "name": "getAllTokens",
      "outputs": [
        {
          "components": [
            {
              "internalType": "string",
              "name": "name",
              "type": "string"
            },
            {
              "internalType": "bytes32",
              "name": "dna",
              "type": "bytes32"
            },
            {
              "internalType": "bytes32",
              "name": "attributes",
              "type": "bytes32"
            },
            {
              "internalType": "bool",
              "name": "listed",
              "type": "bool"
            },
            {
              "internalType": "uint256",
              "name": "price",
              "type": "uint256"
            },
            {
              "internalType": "address",
              "name": "owner",
              "type": "address"
            }
          ],
          "internalType": "struct BlueDream.t_token[]",
          "name": "",
          "type": "tuple[]"
        }
      ],
      "stateMutability": "view",
      "type": "function"
    },
    {
      "inputs": [
        {
          "internalType": "uint256",
          "name": "tokenId",
          "type": "uint256"
        }
      ],
      "name": "getApproved",
      "outputs": [
        {
          "internalType": "address",
          "name": "",
          "type": "address"
        }
      ],
      "stateMutability": "view",
      "type": "function"
    },
    {
      "inputs": [],
      "name": "getContractMode",
      "outputs": [
        {
          "internalType": "uint256",
          "name": "",
          "type": "uint256"
        }
      ],
      "stateMutability": "view",
      "type": "function"
    },
    {
      "inputs": [
        {
          "internalType": "uint256",
          "name": "id",
          "type": "uint256"
        }
      ],
      "name": "getToken",
      "outputs": [
        {
          "components": [
            {
              "internalType": "string",
              "name": "name",
              "type": "string"
            },
            {
              "internalType": "bytes32",
              "name": "dna",
              "type": "bytes32"
            },
            {
              "internalType": "bytes32",
              "name": "attributes",
              "type": "bytes32"
            },
            {
              "internalType": "bool",
              "name": "listed",
              "type": "bool"
            },
            {
              "internalType": "uint256",
              "name": "price",
              "type": "uint256"
            },
            {
              "internalType": "address",
              "name": "owner",
              "type": "address"
            }
          ],
          "internalType": "struct BlueDream.t_token",
          "name": "",
          "type": "tuple"
        }
      ],
      "stateMutability": "view",
      "type": "function"
    },
    {
      "inputs": [
        {
          "internalType": "address",
          "name": "owner",
          "type": "address"
        },
        {
          "internalType": "uint256",
          "name": "startIndex",
          "type": "uint256"
        },
        {
          "internalType": "uint256",
          "name": "total",
          "type": "uint256"
        }
      ],
      "name": "getTokensOfOwner",
      "outputs": [
        {
          "components": [
            {
              "internalType": "string",
              "name": "name",
              "type": "string"
            },
            {
              "internalType": "bytes32",
              "name": "dna",
              "type": "bytes32"
            },
            {
              "internalType": "bytes32",
              "name": "attributes",
              "type": "bytes32"
            },
            {
              "internalType": "bool",
              "name": "listed",
              "type": "bool"
            },
            {
              "internalType": "uint256",
              "name": "price",
              "type": "uint256"
            },
            {
              "internalType": "address",
              "name": "owner",
              "type": "address"
            }
          ],
          "internalType": "struct BlueDream.t_token[]",
          "name": "",
          "type": "tuple[]"
        }
      ],
      "stateMutability": "view",
      "type": "function"
    },
    {
      "inputs": [
        {
          "internalType": "address",
          "name": "owner",
          "type": "address"
        },
        {
          "internalType": "address",
          "name": "operator",
          "type": "address"
        }
      ],
      "name": "isApprovedForAll",
      "outputs": [
        {
          "internalType": "bool",
          "name": "",
          "type": "bool"
        }
      ],
      "stateMutability": "view",
      "type": "function"
    },
    {
      "inputs": [
        {
          "internalType": "uint256",
          "name": "tokenId",
          "type": "uint256"
        },
        {
          "internalType": "uint256",
          "name": "price",
          "type": "uint256"
        }
      ],
      "name": "listToken",
      "outputs": [],
      "stateMutability": "payable",
      "type": "function"
    },
    {
      "inputs": [
        {
          "internalType": "string",
          "name": "name",
          "type": "string"
        }
      ],
      "name": "mint",
      "outputs": [],
      "stateMutability": "payable",
      "type": "function"
    },
    {
      "inputs": [],
      "name": "name",
      "outputs": [
        {
          "internalType": "string",
          "name": "",
          "type": "string"
        }
      ],
      "stateMutability": "view",
      "type": "function"
    },
    {
      "inputs": [],
      "name": "owner",
      "outputs": [
        {
          "internalType": "address",
          "name": "",
          "type": "address"
        }
      ],
      "stateMutability": "view",
      "type": "function"
    },
    {
      "inputs": [
        {
          "internalType": "uint256",
          "name": "tokenId",
          "type": "uint256"
        }
      ],
      "name": "ownerOf",
      "outputs": [
        {
          "internalType": "address",
          "name": "",
          "type": "address"
        }
      ],
      "stateMutability": "view",
      "type": "function"
    },
    {
      "inputs": [],
      "name": "renounceOwnership",
      "outputs": [],
      "stateMutability": "nonpayable",
      "type": "function"
    },
    {
      "inputs": [
        {
          "internalType": "address",
          "name": "from",
          "type": "address"
        },
        {
          "internalType": "address",
          "name": "to",
          "type": "address"
        },
        {
          "internalType": "uint256",
          "name": "tokenId",
          "type": "uint256"
        }
      ],
      "name": "safeTransferFrom",
      "outputs": [],
      "stateMutability": "nonpayable",
      "type": "function"
    },
    {
      "inputs": [
        {
          "internalType": "address",
          "name": "from",
          "type": "address"
        },
        {
          "internalType": "address",
          "name": "to",
          "type": "address"
        },
        {
          "internalType": "uint256",
          "name": "tokenId",
          "type": "uint256"
        },
        {
          "internalType": "bytes",
          "name": "_data",
          "type": "bytes"
        }
      ],
      "name": "safeTransferFrom",
      "outputs": [],
      "stateMutability": "nonpayable",
      "type": "function"
    },
    {
      "inputs": [
        {
          "internalType": "address",
          "name": "operator",
          "type": "address"
        },
        {
          "internalType": "bool",
          "name": "approved",
          "type": "bool"
        }
      ],
      "name": "setApprovalForAll",
      "outputs": [],
      "stateMutability": "nonpayable",
      "type": "function"
    },
    {
      "inputs": [
        {
          "internalType": "uint256",
          "name": "_mode",
          "type": "uint256"
        }
      ],
      "name": "setContractMode",
      "outputs": [],
      "stateMutability": "nonpayable",
      "type": "function"
    },
    {
      "inputs": [
        {
          "internalType": "uint256",
          "name": "price",
          "type": "uint256"
        }
      ],
      "name": "setListingPrice",
      "outputs": [],
      "stateMutability": "nonpayable",
      "type": "function"
    },
    {
      "inputs": [
        {
          "internalType": "uint256",
          "name": "price",
          "type": "uint256"
        }
      ],
      "name": "setMintPrice",
      "outputs": [],
      "stateMutability": "nonpayable",
      "type": "function"
    },
    {
      "inputs": [
        {
          "internalType": "uint256",
          "name": "price",
          "type": "uint256"
        }
      ],
      "name": "setNameChangePrice",
      "outputs": [],
      "stateMutability": "nonpayable",
      "type": "function"
    },
    {
      "inputs": [
        {
          "internalType": "uint256",
          "name": "percentage",
          "type": "uint256"
        }
      ],
      "name": "setRoyalty",
      "outputs": [],
      "stateMutability": "nonpayable",
      "type": "function"
    },
    {
      "inputs": [
        {
          "internalType": "bytes4",
          "name": "interfaceId",
          "type": "bytes4"
        }
      ],
      "name": "supportsInterface",
      "outputs": [
        {
          "internalType": "bool",
          "name": "",
          "type": "bool"
        }
      ],
      "stateMutability": "view",
      "type": "function"
    },
    {
      "inputs": [],
      "name": "symbol",
      "outputs": [
        {
          "internalType": "string",
          "name": "",
          "type": "string"
        }
      ],
      "stateMutability": "view",
      "type": "function"
    },
    {
      "inputs": [
        {
          "internalType": "uint256",
          "name": "tokenId",
          "type": "uint256"
        }
      ],
      "name": "tokenURI",
      "outputs": [
        {
          "internalType": "string",
          "name": "",
          "type": "string"
        }
      ],
      "stateMutability": "view",
      "type": "function"
    },
    {
      "inputs": [],
      "name": "totalSupply",
      "outputs": [
        {
          "internalType": "uint256",
          "name": "",
          "type": "uint256"
        }
      ],
      "stateMutability": "view",
      "type": "function"
    },
    {
      "inputs": [
        {
          "internalType": "address",
          "name": "from",
          "type": "address"
        },
        {
          "internalType": "address",
          "name": "to",
          "type": "address"
        },
        {
          "internalType": "uint256",
          "name": "tokenId",
          "type": "uint256"
        }
      ],
      "name": "transferFrom",
      "outputs": [],
      "stateMutability": "nonpayable",
      "type": "function"
    },
    {
      "inputs": [
        {
          "internalType": "address",
          "name": "newOwner",
          "type": "address"
        }
      ],
      "name": "transferOwnership",
      "outputs": [],
      "stateMutability": "nonpayable",
      "type": "function"
    },
    {
      "inputs": [],
      "name": "vaultBalance",
      "outputs": [
        {
          "internalType": "uint256",
          "name": "",
          "type": "uint256"
        }
      ],
      "stateMutability": "view",
      "type": "function"
    },
    {
      "inputs": [],
      "name": "withdrawVault",
      "outputs": [],
      "stateMutability": "nonpayable",
      "type": "function"
    }
  ],
  "bytecode": "0x60806040523480156200001157600080fd5b506040518060400160405280600a81526020017f426c756520447265616d000000000000000000000000000000000000000000008152506040518060400160405280600281526020017f4d55000000000000000000000000000000000000000000000000000000000000815250816002908051906020019062000096929190620002f8565b508060039080519060200190620000af929190620002f8565b50620000c06200013e60201b60201c565b6000819055505050620000e8620000dc6200014360201b60201c565b6200014b60201b60201c565b60016009819055506200010260646200021160201b60201c565b6200011460056200023f60201b60201c565b6200012660326200026d60201b60201c565b6200013860086200029b60201b60201c565b62000591565b600090565b600033905090565b6000600860009054906101000a900473ffffffffffffffffffffffffffffffffffffffff16905081600860006101000a81548173ffffffffffffffffffffffffffffffffffffffff021916908373ffffffffffffffffffffffffffffffffffffffff1602179055508173ffffffffffffffffffffffffffffffffffffffff168173ffffffffffffffffffffffffffffffffffffffff167f8be0079c531659141344cd1fd0a4f28419497f9722a3daafe3b4186f6b6457e060405160405180910390a35050565b6103e881670de0b6b3a76400006200022a9190620003e1565b62000236919062000471565b600b8190555050565b6103e881670de0b6b3a7640000620002589190620003e1565b62000264919062000471565b600c8190555050565b6103e881670de0b6b3a7640000620002869190620003e1565b62000292919062000471565b600d8190555050565b6000811080620002ab5750606481115b15620002ee576040517f08c379a0000000000000000000000000000000000000000000000000000000008152600401620002e5906200050a565b60405180910390fd5b80600e8190555050565b82805462000306906200055b565b90600052602060002090601f0160209004810192826200032a576000855562000376565b82601f106200034557805160ff191683800117855562000376565b8280016001018555821562000376579182015b828111156200037557825182559160200191906001019062000358565b5b50905062000385919062000389565b5090565b5b80821115620003a45760008160009055506001016200038a565b5090565b6000819050919050565b7f4e487b7100000000000000000000000000000000000000000000000000000000600052601160045260246000fd5b6000620003ee82620003a8565b9150620003fb83620003a8565b9250817fffffffffffffffffffffffffffffffffffffffffffffffffffffffffffffffff0483118215151615620004375762000436620003b2565b5b828202905092915050565b7f4e487b7100000000000000000000000000000000000000000000000000000000600052601260045260246000fd5b60006200047e82620003a8565b91506200048b83620003a8565b9250826200049e576200049d62000442565b5b828204905092915050565b600082825260208201905092915050565b7f524f59414c54595f4f55545f4f465f52414e4745000000000000000000000000600082015250565b6000620004f2601483620004a9565b9150620004ff82620004ba565b602082019050919050565b600060208201905081810360008301526200052581620004e3565b9050919050565b7f4e487b7100000000000000000000000000000000000000000000000000000000600052602260045260246000fd5b600060028204905060018216806200057457607f821691505b602082108114156200058b576200058a6200052c565b5b50919050565b61492380620005a16000396000f3fe6080604052600436106101e35760003560e01c806384a1b90211610102578063bed659bc11610095578063e4b50cb811610064578063e4b50cb8146106a4578063e985e9c5146106e1578063f2fde38b1461071e578063f4a0a52814610747576101e3565b8063bed659bc14610618578063c87b56dd14610634578063d0d0ed0514610671578063d85d3d2714610688576101e3565b80639a043832116100d15780639a0438321461055e578063a22cb4651461059b578063a43da3bd146105c4578063b88d4fde146105ef576101e3565b806384a1b902146104a257806389edc438146104cb5780638da5cb5b1461050857806395d89b4114610533576101e3565b80632d296bf11161017a57806370a082311161014957806370a0823114610409578063715018a61461044657806375c1631d1461045d5780637c726b6914610479576101e3565b80632d296bf11461035e5780634209a2e11461037a57806342842e0e146103a35780636352211e146103cc576101e3565b80630bf6cc08116101b65780630bf6cc08146102b657806316d307de146102e157806318160ddd1461030a57806323b872dd14610335576101e3565b806301ffc9a7146101e857806306fdde0314610225578063081812fc14610250578063095ea7b31461028d575b600080fd5b3480156101f457600080fd5b5061020f600480360381019061020a919061339f565b610770565b60405161021c91906133e7565b60405180910390f35b34801561023157600080fd5b5061023a610802565b604051610247919061349b565b60405180910390f35b34801561025c57600080fd5b50610277600480360381019061027291906134f3565b610894565b6040516102849190613561565b60405180910390f35b34801561029957600080fd5b506102b460048036038101906102af91906135a8565b610910565b005b3480156102c257600080fd5b506102cb610a51565b6040516102d891906135f7565b60405180910390f35b3480156102ed57600080fd5b50610308600480360381019061030391906134f3565b610a61565b005b34801561031657600080fd5b5061031f610a73565b60405161032c91906135f7565b60405180910390f35b34801561034157600080fd5b5061035c60048036038101906103579190613612565b610a8a565b005b610378600480360381019061037391906134f3565b610ac4565b005b34801561038657600080fd5b506103a1600480360381019061039c91906134f3565b610d27565b005b3480156103af57600080fd5b506103ca60048036038101906103c59190613612565b610d3b565b005b3480156103d857600080fd5b506103f360048036038101906103ee91906134f3565b610d5b565b6040516104009190613561565b60405180910390f35b34801561041557600080fd5b50610430600480360381019061042b9190613665565b610d6d565b60405161043d91906135f7565b60405180910390f35b34801561045257600080fd5b5061045b610e26565b005b61047760048036038101906104729190613692565b610e3a565b005b34801561048557600080fd5b506104a0600480360381019061049b91906134f3565b610f26565b005b3480156104ae57600080fd5b506104c960048036038101906104c491906134f3565b610f3a565b005b3480156104d757600080fd5b506104f260048036038101906104ed91906136d2565b610f4e565b6040516104ff9190613900565b60405180910390f35b34801561051457600080fd5b5061051d611349565b60405161052a9190613561565b60405180910390f35b34801561053f57600080fd5b50610548611373565b604051610555919061349b565b60405180910390f35b34801561056a57600080fd5b5061058560048036038101906105809190613692565b611405565b6040516105929190613900565b60405180910390f35b3480156105a757600080fd5b506105c260048036038101906105bd919061394e565b61166d565b005b3480156105d057600080fd5b506105d96117e5565b6040516105e691906135f7565b60405180910390f35b3480156105fb57600080fd5b5061061660048036038101906106119190613ac3565b6117f7565b005b610632600480360381019061062d91906134f3565b61186a565b005b34801561064057600080fd5b5061065b600480360381019061065691906134f3565b611956565b604051610668919061349b565b60405180910390f35b34801561067d57600080fd5b506106866119f5565b005b6106a2600480360381019061069d9190613ba6565b611b0e565b005b3480156106b057600080fd5b506106cb60048036038101906106c691906134f3565b611dd2565b6040516106d89190613c7c565b60405180910390f35b3480156106ed57600080fd5b5061070860048036038101906107039190613c9e565b611f2f565b60405161071591906133e7565b60405180910390f35b34801561072a57600080fd5b5061074560048036038101906107409190613665565b611fc3565b005b34801561075357600080fd5b5061076e600480360381019061076991906134f3565b612047565b005b60006301ffc9a760e01b827bffffffffffffffffffffffffffffffffffffffffffffffffffffffff191614806107cb57506380ac58cd60e01b827bffffffffffffffffffffffffffffffffffffffffffffffffffffffff1916145b806107fb5750635b5e139f60e01b827bffffffffffffffffffffffffffffffffffffffffffffffffffffffff1916145b9050919050565b60606002805461081190613d0d565b80601f016020809104026020016040519081016040528092919081815260200182805461083d90613d0d565b801561088a5780601f1061085f5761010080835404028352916020019161088a565b820191906000526020600020905b81548152906001019060200180831161086d57829003601f168201915b5050505050905090565b600061089f8261205b565b6108d5576040517fcf4700e400000000000000000000000000000000000000000000000000000000815260040160405180910390fd5b6006600083815260200190815260200160002060009054906101000a900473ffffffffffffffffffffffffffffffffffffffff169050919050565b600061091b82610d5b565b90508073ffffffffffffffffffffffffffffffffffffffff1661093c6120ba565b73ffffffffffffffffffffffffffffffffffffffff161461099f57610968816109636120ba565b611f2f565b61099e576040517fcfb3b94200000000000000000000000000000000000000000000000000000000815260040160405180910390fd5b5b826006600084815260200190815260200160002060006101000a81548173ffffffffffffffffffffffffffffffffffffffff021916908373ffffffffffffffffffffffffffffffffffffffff160217905550818373ffffffffffffffffffffffffffffffffffffffff168273ffffffffffffffffffffffffffffffffffffffff167f8c5be1e5ebec7d5bd14f71427d1e84f3dd0314c0f7b2291e5b200ac8c7c3b92560405160405180910390a4505050565b6000610a5b6120c2565b47905090565b610a696120c2565b80600a8190555050565b6000610a7d612140565b6001546000540303905090565b6004610a9581612145565b610a9d6120c2565b610aa88484846121ba565b610ab38484846124df565b610abe82600061271c565b50505050565b60026009541415610b0a576040517f08c379a0000000000000000000000000000000000000000000000000000000008152600401610b0190613d8b565b60405180910390fd5b60026009819055506002610b1d81612145565b6000600f8381548110610b3357610b32613dab565b5b906000526020600020906006020190508060040154341015610b8a576040517f08c379a0000000000000000000000000000000000000000000000000000000008152600401610b8190613e26565b60405180910390fd5b6000610b9584610d5b565b9050610ba2813386610d3b565b610bad8133866124df565b6000826004015434610bbf9190613e75565b905060008134610bcf9190613e75565b905060006064600e5483610be39190613ea9565b610bed9190613f32565b905060008183610bfd9190613e75565b90503373ffffffffffffffffffffffffffffffffffffffff1684604051610c2390613f94565b60006040518083038185875af1925050503d8060008114610c60576040519150601f19603f3d011682016040523d82523d6000602084013e610c65565b606091505b50505060008573ffffffffffffffffffffffffffffffffffffffff1682604051610c8e90613f94565b60006040518083038185875af1925050503d8060008114610ccb576040519150601f19603f3d011682016040523d82523d6000602084013e610cd0565b606091505b5050905080610d14576040517f08c379a0000000000000000000000000000000000000000000000000000000008152600401610d0b90613ff5565b60405180910390fd5b5050505050505050600160098190555050565b610d2f6120c2565b610d388161276d565b50565b610d56838383604051806020016040528060008152506117f7565b505050565b6000610d66826127c6565b9050919050565b60008073ffffffffffffffffffffffffffffffffffffffff168273ffffffffffffffffffffffffffffffffffffffff161415610dd5576040517f8f4eb60400000000000000000000000000000000000000000000000000000000815260040160405180910390fd5b67ffffffffffffffff600560008473ffffffffffffffffffffffffffffffffffffffff1673ffffffffffffffffffffffffffffffffffffffff16815260200190815260200160002054169050919050565b610e2e6120c2565b610e386000612894565b565b60026009541415610e80576040517f08c379a0000000000000000000000000000000000000000000000000000000008152600401610e7790613d8b565b60405180910390fd5b60026009819055506002610e9381612145565b6000610e9e84610d5b565b90508073ffffffffffffffffffffffffffffffffffffffff163373ffffffffffffffffffffffffffffffffffffffff1614610f0e576040517f08c379a0000000000000000000000000000000000000000000000000000000008152600401610f0590614061565b60405180910390fd5b610f18848461271c565b505060016009819055505050565b610f2e6120c2565b610f378161295a565b50565b610f426120c2565b610f4b81612984565b50565b60606000601060008673ffffffffffffffffffffffffffffffffffffffff1673ffffffffffffffffffffffffffffffffffffffff168152602001908152602001600020805490501415610fd6576040517f08c379a0000000000000000000000000000000000000000000000000000000008152600401610fcd906140cd565b60405180910390fd5b600083108061103257506001601060008673ffffffffffffffffffffffffffffffffffffffff1673ffffffffffffffffffffffffffffffffffffffff1681526020019081526020016000208054905061102f9190613e75565b83115b15611072576040517f08c379a000000000000000000000000000000000000000000000000000000000815260040161106990614139565b60405180910390fd5b60008210806110c25750601060008573ffffffffffffffffffffffffffffffffffffffff1673ffffffffffffffffffffffffffffffffffffffff1681526020019081526020016000208054905082115b15611102576040517f08c379a00000000000000000000000000000000000000000000000000000000081526004016110f9906141a5565b60405180910390fd5b600082141561115157601060008573ffffffffffffffffffffffffffffffffffffffff1673ffffffffffffffffffffffffffffffffffffffff1681526020019081526020016000208054905091505b60606000805b8481101561133c57601060008873ffffffffffffffffffffffffffffffffffffffff1673ffffffffffffffffffffffffffffffffffffffff16815260200190815260200160002081815481106111b0576111af613dab565b5b90600052602060002001549150600f82815481106111d1576111d0613dab565b5b90600052602060002090600602016040518060c00160405290816000820180546111fa90613d0d565b80601f016020809104026020016040519081016040528092919081815260200182805461122690613d0d565b80156112735780601f1061124857610100808354040283529160200191611273565b820191906000526020600020905b81548152906001019060200180831161125657829003601f168201915b5050505050815260200160018201548152602001600282015481526020016003820160009054906101000a900460ff16151515158152602001600482015481526020016005820160009054906101000a900473ffffffffffffffffffffffffffffffffffffffff1673ffffffffffffffffffffffffffffffffffffffff1673ffffffffffffffffffffffffffffffffffffffff168152505083828151811061131e5761131d613dab565b5b60200260200101819052508080611334906141c5565b915050611157565b5081925050509392505050565b6000600860009054906101000a900473ffffffffffffffffffffffffffffffffffffffff16905090565b60606003805461138290613d0d565b80601f01602080910402602001604051908101604052809291908181526020018280546113ae90613d0d565b80156113fb5780601f106113d0576101008083540402835291602001916113fb565b820191906000526020600020905b8154815290600101906020018083116113de57829003601f168201915b5050505050905090565b6060600083108061142657506001600f805490506114239190613e75565b83115b15611466576040517f08c379a000000000000000000000000000000000000000000000000000000000815260040161145d90614139565b60405180910390fd5b60008210806114795750600f8054905082115b156114b9576040517f08c379a00000000000000000000000000000000000000000000000000000000081526004016114b0906141a5565b60405180910390fd5b60008214156114cb57600f8054905091505b606060005b8381101561166257600f81866114e6919061420e565b815481106114f7576114f6613dab565b5b90600052602060002090600602016040518060c001604052908160008201805461152090613d0d565b80601f016020809104026020016040519081016040528092919081815260200182805461154c90613d0d565b80156115995780601f1061156e57610100808354040283529160200191611599565b820191906000526020600020905b81548152906001019060200180831161157c57829003601f168201915b5050505050815260200160018201548152602001600282015481526020016003820160009054906101000a900460ff16151515158152602001600482015481526020016005820160009054906101000a900473ffffffffffffffffffffffffffffffffffffffff1673ffffffffffffffffffffffffffffffffffffffff1673ffffffffffffffffffffffffffffffffffffffff168152505082828151811061164457611643613dab565b5b6020026020010181905250808061165a906141c5565b9150506114d0565b508091505092915050565b6116756120ba565b73ffffffffffffffffffffffffffffffffffffffff168273ffffffffffffffffffffffffffffffffffffffff1614156116da576040517fb06307db00000000000000000000000000000000000000000000000000000000815260040160405180910390fd5b80600760006116e76120ba565b73ffffffffffffffffffffffffffffffffffffffff1673ffffffffffffffffffffffffffffffffffffffff16815260200190815260200160002060008473ffffffffffffffffffffffffffffffffffffffff1673ffffffffffffffffffffffffffffffffffffffff16815260200190815260200160002060006101000a81548160ff0219169083151502179055508173ffffffffffffffffffffffffffffffffffffffff166117946120ba565b73ffffffffffffffffffffffffffffffffffffffff167f17307eab39ab6107e8899845ad3d59bd9653f200f220920489ca2b5937696c31836040516117d991906133e7565b60405180910390a35050565b60006117ef6120c2565b600a54905090565b611802848484610a8a565b60008373ffffffffffffffffffffffffffffffffffffffff163b146118645761182d848484846129ae565b611863576040517fd1a57ed600000000000000000000000000000000000000000000000000000000815260040160405180910390fd5b5b50505050565b600260095414156118b0576040517f08c379a00000000000000000000000000000000000000000000000000000000081526004016118a790613d8b565b60405180910390fd5b600260098190555060026118c381612145565b60006118ce83610d5b565b90508073ffffffffffffffffffffffffffffffffffffffff163373ffffffffffffffffffffffffffffffffffffffff161461193e576040517f08c379a000000000000000000000000000000000000000000000000000000000815260040161193590614061565b60405180910390fd5b61194983600061271c565b5050600160098190555050565b60606119618261205b565b611997576040517fa14c4b5000000000000000000000000000000000000000000000000000000000815260040160405180910390fd5b60006119a1612b0e565b90506000815114156119c257604051806020016040528060008152506119ed565b806119cc84612b25565b6040516020016119dd9291906142a0565b6040516020818303038152906040525b915050919050565b60026009541415611a3b576040517f08c379a0000000000000000000000000000000000000000000000000000000008152600401611a3290613d8b565b60405180910390fd5b60026009819055506008611a4e81612145565b611a566120c2565b60003373ffffffffffffffffffffffffffffffffffffffff1647604051611a7c90613f94565b60006040518083038185875af1925050503d8060008114611ab9576040519150601f19603f3d011682016040523d82523d6000602084013e611abe565b606091505b5050905080611b02576040517f08c379a0000000000000000000000000000000000000000000000000000000008152600401611af990614310565b60405180910390fd5b50506001600981905550565b6001611b1981612145565b6000611b23612b7f565b9050600b54341015611b6a576040517f08c379a0000000000000000000000000000000000000000000000000000000008152600401611b619061437c565b60405180910390fd5b60208484905010611bb0576040517f08c379a0000000000000000000000000000000000000000000000000000000008152600401611ba7906143e8565b60405180910390fd5b612710611bbb610a73565b10611bfb576040517f08c379a0000000000000000000000000000000000000000000000000000000008152600401611bf290614454565b60405180910390fd5b611c06336001612b88565b6040518060c0016040528085858080601f016020809104026020016040519081016040528093929190818152602001838380828437600081840152601f19601f820116905080830192505050505050508152602001611c63612ba6565b8152602001611c70612ba6565b8152602001600015158152602001600081526020013373ffffffffffffffffffffffffffffffffffffffff16815250600f8281548110611cb357611cb2613dab565b5b90600052602060002090600602016000820151816000019080519060200190611cdd92919061323c565b50602082015181600101556040820151816002015560608201518160030160006101000a81548160ff0219169083151502179055506080820151816004015560a08201518160050160006101000a81548173ffffffffffffffffffffffffffffffffffffffff021916908373ffffffffffffffffffffffffffffffffffffffff160217905550905050601060003373ffffffffffffffffffffffffffffffffffffffff1673ffffffffffffffffffffffffffffffffffffffff16815260200190815260200160002081908060018154018082558091505060019003906000526020600020016000909190919091505550505050565b611dda6132c2565b600f8281548110611dee57611ded613dab565b5b90600052602060002090600602016040518060c0016040529081600082018054611e1790613d0d565b80601f0160208091040260200160405190810160405280929190818152602001828054611e4390613d0d565b8015611e905780601f10611e6557610100808354040283529160200191611e90565b820191906000526020600020905b815481529060010190602001808311611e7357829003601f168201915b5050505050815260200160018201548152602001600282015481526020016003820160009054906101000a900460ff16151515158152602001600482015481526020016005820160009054906101000a900473ffffffffffffffffffffffffffffffffffffffff1673ffffffffffffffffffffffffffffffffffffffff1673ffffffffffffffffffffffffffffffffffffffff16815250509050919050565b6000600760008473ffffffffffffffffffffffffffffffffffffffff1673ffffffffffffffffffffffffffffffffffffffff16815260200190815260200160002060008373ffffffffffffffffffffffffffffffffffffffff1673ffffffffffffffffffffffffffffffffffffffff16815260200190815260200160002060009054906101000a900460ff16905092915050565b611fcb6120c2565b600073ffffffffffffffffffffffffffffffffffffffff168173ffffffffffffffffffffffffffffffffffffffff16141561203b576040517f08c379a0000000000000000000000000000000000000000000000000000000008152600401612032906144e6565b60405180910390fd5b61204481612894565b50565b61204f6120c2565b61205881612bf9565b50565b600081612066612140565b11158015612075575060005482105b80156120b3575060007c0100000000000000000000000000000000000000000000000000000000600460008581526020019081526020016000205416145b9050919050565b600033905090565b6120ca612c23565b73ffffffffffffffffffffffffffffffffffffffff166120e8611349565b73ffffffffffffffffffffffffffffffffffffffff161461213e576040517f08c379a000000000000000000000000000000000000000000000000000000000815260040161213590614552565b60405180910390fd5b565b600090565b8081600a541614156121b75761215c600a54612c2b565b60405160200161216c91906145be565b6040516020818303038152906040526040517f08c379a00000000000000000000000000000000000000000000000000000000081526004016121ae919061349b565b60405180910390fd5b50565b60006121c5826127c6565b90508373ffffffffffffffffffffffffffffffffffffffff168173ffffffffffffffffffffffffffffffffffffffff161461222c576040517fa114810000000000000000000000000000000000000000000000000000000000815260040160405180910390fd5b60008061223884612cb1565b9150915061224e81876122496120ba565b612cd3565b61229a576122638661225e6120ba565b611f2f565b612299576040517f59c896be00000000000000000000000000000000000000000000000000000000815260040160405180910390fd5b5b600073ffffffffffffffffffffffffffffffffffffffff168573ffffffffffffffffffffffffffffffffffffffff161415612301576040517fea553b3400000000000000000000000000000000000000000000000000000000815260040160405180910390fd5b61230e8686866001612d17565b801561231957600082555b600560008773ffffffffffffffffffffffffffffffffffffffff1673ffffffffffffffffffffffffffffffffffffffff168152602001908152602001600020600081546001900391905081905550600560008673ffffffffffffffffffffffffffffffffffffffff1673ffffffffffffffffffffffffffffffffffffffff16815260200190815260200160002060008154600101919050819055506123e7856123c3888887612d1d565b7c020000000000000000000000000000000000000000000000000000000017612d45565b600460008681526020019081526020016000208190555060007c02000000000000000000000000000000000000000000000000000000008416141561246f57600060018501905060006004600083815260200190815260200160002054141561246d57600054811461246c578360046000838152602001908152602001600020819055505b5b505b838573ffffffffffffffffffffffffffffffffffffffff168773ffffffffffffffffffffffffffffffffffffffff167fddf252ad1be2c89b69c2b068fc378daa952ba7f163c4a11628f55a4df523b3ef60405160405180910390a46124d78686866001612d70565b505050505050565b81600f82815481106124f4576124f3613dab565b5b906000526020600020906006020160050160006101000a81548173ffffffffffffffffffffffffffffffffffffffff021916908373ffffffffffffffffffffffffffffffffffffffff160217905550601060008473ffffffffffffffffffffffffffffffffffffffff1673ffffffffffffffffffffffffffffffffffffffff1681526020019081526020016000206001601060008673ffffffffffffffffffffffffffffffffffffffff1673ffffffffffffffffffffffffffffffffffffffff168152602001908152602001600020805490506125d19190613e75565b815481106125e2576125e1613dab565b5b9060005260206000200154601060008573ffffffffffffffffffffffffffffffffffffffff1673ffffffffffffffffffffffffffffffffffffffff168152602001908152602001600020828154811061263e5761263d613dab565b5b9060005260206000200181905550601060008473ffffffffffffffffffffffffffffffffffffffff1673ffffffffffffffffffffffffffffffffffffffff16815260200190815260200160002080548061269b5761269a6145e0565b5b60019003818190600052602060002001600090559055601060008373ffffffffffffffffffffffffffffffffffffffff1673ffffffffffffffffffffffffffffffffffffffff168152602001908152602001600020819080600181540180825580915050600190039060005260206000200160009091909190915055505050565b6000600f838154811061273257612731613dab565b5b9060005260206000209060060201905060008160030160006101000a81548160ff021916908315150217905550818160040181905550505050565b600081108061277c5750606481115b156127bc576040517f08c379a00000000000000000000000000000000000000000000000000000000081526004016127b39061465b565b60405180910390fd5b80600e8190555050565b600080829050806127d5612140565b1161285d5760005481101561285c5760006004600083815260200190815260200160002054905060007c01000000000000000000000000000000000000000000000000000000008216141561285a575b6000811415612850576004600083600190039350838152602001908152602001600020549050612825565b809250505061288f565b505b5b6040517fdf2d9b4200000000000000000000000000000000000000000000000000000000815260040160405180910390fd5b919050565b6000600860009054906101000a900473ffffffffffffffffffffffffffffffffffffffff16905081600860006101000a81548173ffffffffffffffffffffffffffffffffffffffff021916908373ffffffffffffffffffffffffffffffffffffffff1602179055508173ffffffffffffffffffffffffffffffffffffffff168173ffffffffffffffffffffffffffffffffffffffff167f8be0079c531659141344cd1fd0a4f28419497f9722a3daafe3b4186f6b6457e060405160405180910390a35050565b6103e881670de0b6b3a76400006129719190613ea9565b61297b9190613f32565b600c8190555050565b6103e881670de0b6b3a764000061299b9190613ea9565b6129a59190613f32565b600d8190555050565b60008373ffffffffffffffffffffffffffffffffffffffff1663150b7a026129d46120ba565b8786866040518563ffffffff1660e01b81526004016129f694939291906146d0565b602060405180830381600087803b158015612a1057600080fd5b505af1925050508015612a4157506040513d601f19601f82011682018060405250810190612a3e9190614731565b60015b612abb573d8060008114612a71576040519150601f19603f3d011682016040523d82523d6000602084013e612a76565b606091505b50600081511415612ab3576040517fd1a57ed600000000000000000000000000000000000000000000000000000000815260040160405180910390fd5b805181602001fd5b63150b7a0260e01b7bffffffffffffffffffffffffffffffffffffffffffffffffffffffff1916817bffffffffffffffffffffffffffffffffffffffffffffffffffffffff191614915050949350505050565b606060405180602001604052806000815250905090565b60606080604051019050806040528082600183039250600a81066030018353600a810490505b8015612b6b57600183039250600a81066030018353600a81049050612b4b565b508181036020830392508083525050919050565b60008054905090565b612ba2828260405180602001604052806000815250612d76565b5050565b60004243608043612bb7919061475e565b421861010043612bc7919061475e565b421733604051602001612bde9594939291906147f8565b60405160208183030381529060405280519060200120905090565b6103e881670de0b6b3a7640000612c109190613ea9565b612c1a9190613f32565b600b8190555050565b600033905090565b60606000821415612c73576040518060400160405280600481526020017f30783030000000000000000000000000000000000000000000000000000000008152509050612cac565b600082905060005b60008214612c9d578080612c8e906141c5565b915050600882901c9150612c7b565b612ca78482612e13565b925050505b919050565b6000806000600690508360005280602052604060002092508254915050915091565b600073ffffffffffffffffffffffffffffffffffffffff8316925073ffffffffffffffffffffffffffffffffffffffff821691508382148383141790509392505050565b50505050565b60008060e883901c905060e8612d3486868461304f565b62ffffff16901b9150509392505050565b600073ffffffffffffffffffffffffffffffffffffffff83169250814260a01b178317905092915050565b50505050565b612d808383613058565b60008373ffffffffffffffffffffffffffffffffffffffff163b14612e0e57600080549050600083820390505b612dc060008683806001019450866129ae565b612df6576040517fd1a57ed600000000000000000000000000000000000000000000000000000000815260040160405180910390fd5b818110612dad578160005414612e0b57600080fd5b50505b505050565b606060006002836002612e269190613ea9565b612e30919061420e565b67ffffffffffffffff811115612e4957612e48613998565b5b6040519080825280601f01601f191660200182016040528015612e7b5781602001600182028036833780820191505090505b5090507f300000000000000000000000000000000000000000000000000000000000000081600081518110612eb357612eb2613dab565b5b60200101907effffffffffffffffffffffffffffffffffffffffffffffffffffffffffffff1916908160001a9053507f780000000000000000000000000000000000000000000000000000000000000081600181518110612f1757612f16613dab565b5b60200101907effffffffffffffffffffffffffffffffffffffffffffffffffffffffffffff1916908160001a90535060006001846002612f579190613ea9565b612f61919061420e565b90505b6001811115613001577f3031323334353637383961626364656600000000000000000000000000000000600f861660108110612fa357612fa2613dab565b5b1a60f81b828281518110612fba57612fb9613dab565b5b60200101907effffffffffffffffffffffffffffffffffffffffffffffffffffffffffffff1916908160001a905350600485901c945080612ffa90614857565b9050612f64565b5060008414613045576040517f08c379a000000000000000000000000000000000000000000000000000000000815260040161303c906148cd565b60405180910390fd5b8091505092915050565b60009392505050565b600080549050600073ffffffffffffffffffffffffffffffffffffffff168373ffffffffffffffffffffffffffffffffffffffff1614156130c5576040517f2e07630000000000000000000000000000000000000000000000000000000000815260040160405180910390fd5b6000821415613100576040517fb562e8dd00000000000000000000000000000000000000000000000000000000815260040160405180910390fd5b61310d6000848385612d17565b600160406001901b178202600560008573ffffffffffffffffffffffffffffffffffffffff1673ffffffffffffffffffffffffffffffffffffffff16815260200190815260200160002060008282540192505081905550613184836131756000866000612d1d565b61317e8561322c565b17612d45565b60046000838152602001908152602001600020819055506000819050600083830190505b818060010192508573ffffffffffffffffffffffffffffffffffffffff16600073ffffffffffffffffffffffffffffffffffffffff167fddf252ad1be2c89b69c2b068fc378daa952ba7f163c4a11628f55a4df523b3ef60405160405180910390a48082106131a8578060008190555050506132276000848385612d70565b505050565b60006001821460e11b9050919050565b82805461324890613d0d565b90600052602060002090601f01602090048101928261326a57600085556132b1565b82601f1061328357805160ff19168380011785556132b1565b828001600101855582156132b1579182015b828111156132b0578251825591602001919060010190613295565b5b5090506132be9190613316565b5090565b6040518060c0016040528060608152602001600080191681526020016000801916815260200160001515815260200160008152602001600073ffffffffffffffffffffffffffffffffffffffff1681525090565b5b8082111561332f576000816000905550600101613317565b5090565b6000604051905090565b600080fd5b600080fd5b60007fffffffff0000000000000000000000000000000000000000000000000000000082169050919050565b61337c81613347565b811461338757600080fd5b50565b60008135905061339981613373565b92915050565b6000602082840312156133b5576133b461333d565b5b60006133c38482850161338a565b91505092915050565b60008115159050919050565b6133e1816133cc565b82525050565b60006020820190506133fc60008301846133d8565b92915050565b600081519050919050565b600082825260208201905092915050565b60005b8381101561343c578082015181840152602081019050613421565b8381111561344b576000848401525b50505050565b6000601f19601f8301169050919050565b600061346d82613402565b613477818561340d565b935061348781856020860161341e565b61349081613451565b840191505092915050565b600060208201905081810360008301526134b58184613462565b905092915050565b6000819050919050565b6134d0816134bd565b81146134db57600080fd5b50565b6000813590506134ed816134c7565b92915050565b6000602082840312156135095761350861333d565b5b6000613517848285016134de565b91505092915050565b600073ffffffffffffffffffffffffffffffffffffffff82169050919050565b600061354b82613520565b9050919050565b61355b81613540565b82525050565b60006020820190506135766000830184613552565b92915050565b61358581613540565b811461359057600080fd5b50565b6000813590506135a28161357c565b92915050565b600080604083850312156135bf576135be61333d565b5b60006135cd85828601613593565b92505060206135de858286016134de565b9150509250929050565b6135f1816134bd565b82525050565b600060208201905061360c60008301846135e8565b92915050565b60008060006060848603121561362b5761362a61333d565b5b600061363986828701613593565b935050602061364a86828701613593565b925050604061365b868287016134de565b9150509250925092565b60006020828403121561367b5761367a61333d565b5b600061368984828501613593565b91505092915050565b600080604083850312156136a9576136a861333d565b5b60006136b7858286016134de565b92505060206136c8858286016134de565b9150509250929050565b6000806000606084860312156136eb576136ea61333d565b5b60006136f986828701613593565b935050602061370a868287016134de565b925050604061371b868287016134de565b9150509250925092565b600081519050919050565b600082825260208201905092915050565b6000819050602082019050919050565b600082825260208201905092915050565b600061376d82613402565b6137778185613751565b935061378781856020860161341e565b61379081613451565b840191505092915050565b6000819050919050565b6137ae8161379b565b82525050565b6137bd816133cc565b82525050565b6137cc816134bd565b82525050565b6137db81613540565b82525050565b600060c08301600083015184820360008601526137fe8282613762565b915050602083015161381360208601826137a5565b50604083015161382660408601826137a5565b50606083015161383960608601826137b4565b50608083015161384c60808601826137c3565b5060a083015161385f60a08601826137d2565b508091505092915050565b600061387683836137e1565b905092915050565b6000602082019050919050565b600061389682613725565b6138a08185613730565b9350836020820285016138b285613741565b8060005b858110156138ee57848403895281516138cf858261386a565b94506138da8361387e565b925060208a019950506001810190506138b6565b50829750879550505050505092915050565b6000602082019050818103600083015261391a818461388b565b905092915050565b61392b816133cc565b811461393657600080fd5b50565b60008135905061394881613922565b92915050565b600080604083850312156139655761396461333d565b5b600061397385828601613593565b925050602061398485828601613939565b9150509250929050565b600080fd5b600080fd5b7f4e487b7100000000000000000000000000000000000000000000000000000000600052604160045260246000fd5b6139d082613451565b810181811067ffffffffffffffff821117156139ef576139ee613998565b5b80604052505050565b6000613a02613333565b9050613a0e82826139c7565b919050565b600067ffffffffffffffff821115613a2e57613a2d613998565b5b613a3782613451565b9050602081019050919050565b82818337600083830152505050565b6000613a66613a6184613a13565b6139f8565b905082815260208101848484011115613a8257613a81613993565b5b613a8d848285613a44565b509392505050565b600082601f830112613aaa57613aa961398e565b5b8135613aba848260208601613a53565b91505092915050565b60008060008060808587031215613add57613adc61333d565b5b6000613aeb87828801613593565b9450506020613afc87828801613593565b9350506040613b0d878288016134de565b925050606085013567ffffffffffffffff811115613b2e57613b2d613342565b5b613b3a87828801613a95565b91505092959194509250565b600080fd5b600080fd5b60008083601f840112613b6657613b6561398e565b5b8235905067ffffffffffffffff811115613b8357613b82613b46565b5b602083019150836001820283011115613b9f57613b9e613b4b565b5b9250929050565b60008060208385031215613bbd57613bbc61333d565b5b600083013567ffffffffffffffff811115613bdb57613bda613342565b5b613be785828601613b50565b92509250509250929050565b600060c0830160008301518482036000860152613c108282613762565b9150506020830151613c2560208601826137a5565b506040830151613c3860408601826137a5565b506060830151613c4b60608601826137b4565b506080830151613c5e60808601826137c3565b5060a0830151613c7160a08601826137d2565b508091505092915050565b60006020820190508181036000830152613c968184613bf3565b905092915050565b60008060408385031215613cb557613cb461333d565b5b6000613cc385828601613593565b9250506020613cd485828601613593565b9150509250929050565b7f4e487b7100000000000000000000000000000000000000000000000000000000600052602260045260246000fd5b60006002820490506001821680613d2557607f821691505b60208210811415613d3957613d38613cde565b5b50919050565b7f5265656e7472616e637947756172643a207265656e7472616e742063616c6c00600082015250565b6000613d75601f8361340d565b9150613d8082613d3f565b602082019050919050565b60006020820190508181036000830152613da481613d68565b9050919050565b7f4e487b7100000000000000000000000000000000000000000000000000000000600052603260045260246000fd5b7f4255595f50524943455f544f4f5f4c4f57000000000000000000000000000000600082015250565b6000613e1060118361340d565b9150613e1b82613dda565b602082019050919050565b60006020820190508181036000830152613e3f81613e03565b9050919050565b7f4e487b7100000000000000000000000000000000000000000000000000000000600052601160045260246000fd5b6000613e80826134bd565b9150613e8b836134bd565b925082821015613e9e57613e9d613e46565b5b828203905092915050565b6000613eb4826134bd565b9150613ebf836134bd565b9250817fffffffffffffffffffffffffffffffffffffffffffffffffffffffffffffffff0483118215151615613ef857613ef7613e46565b5b828202905092915050565b7f4e487b7100000000000000000000000000000000000000000000000000000000600052601260045260246000fd5b6000613f3d826134bd565b9150613f48836134bd565b925082613f5857613f57613f03565b5b828204905092915050565b600081905092915050565b50565b6000613f7e600083613f63565b9150613f8982613f6e565b600082019050919050565b6000613f9f82613f71565b9150819050919050565b7f4255595f5452414e534645525f4641494c454400000000000000000000000000600082015250565b6000613fdf60138361340d565b9150613fea82613fa9565b602082019050919050565b6000602082019050818103600083015261400e81613fd2565b9050919050565b7f53454e4445525f4e4f545f544f4b454e5f4f574e455200000000000000000000600082015250565b600061404b60168361340d565b915061405682614015565b602082019050919050565b6000602082019050818103600083015261407a8161403e565b9050919050565b7f544f4b454e5f4f574e45525f444f45534e545f45584953540000000000000000600082015250565b60006140b760188361340d565b91506140c282614081565b602082019050919050565b600060208201905081810360008301526140e6816140aa565b9050919050565b7f53544152545f494e4445585f4f55545f4f465f52414e47450000000000000000600082015250565b600061412360188361340d565b915061412e826140ed565b602082019050919050565b6000602082019050818103600083015261415281614116565b9050919050565b7f544f54414c5f4f55545f4f465f52414e47450000000000000000000000000000600082015250565b600061418f60128361340d565b915061419a82614159565b602082019050919050565b600060208201905081810360008301526141be81614182565b9050919050565b60006141d0826134bd565b91507fffffffffffffffffffffffffffffffffffffffffffffffffffffffffffffffff82141561420357614202613e46565b5b600182019050919050565b6000614219826134bd565b9150614224836134bd565b9250827fffffffffffffffffffffffffffffffffffffffffffffffffffffffffffffffff0382111561425957614258613e46565b5b828201905092915050565b600081905092915050565b600061427a82613402565b6142848185614264565b935061429481856020860161341e565b80840191505092915050565b60006142ac828561426f565b91506142b8828461426f565b91508190509392505050565b7f5452414e534645525f4641494c45440000000000000000000000000000000000600082015250565b60006142fa600f8361340d565b9150614305826142c4565b602082019050919050565b60006020820190508181036000830152614329816142ed565b9050919050565b7f4e4f545f454e4f5547485f455448000000000000000000000000000000000000600082015250565b6000614366600e8361340d565b915061437182614330565b602082019050919050565b6000602082019050818103600083015261439581614359565b9050919050565b7f4e414d455f544f4f5f4c4f4e4700000000000000000000000000000000000000600082015250565b60006143d2600d8361340d565b91506143dd8261439c565b602082019050919050565b60006020820190508181036000830152614401816143c5565b9050919050565b7f4d494e5445445f4f555400000000000000000000000000000000000000000000600082015250565b600061443e600a8361340d565b915061444982614408565b602082019050919050565b6000602082019050818103600083015261446d81614431565b9050919050565b7f4f776e61626c653a206e6577206f776e657220697320746865207a65726f206160008201527f6464726573730000000000000000000000000000000000000000000000000000602082015250565b60006144d060268361340d565b91506144db82614474565b604082019050919050565b600060208201905081810360008301526144ff816144c3565b9050919050565b7f4f776e61626c653a2063616c6c6572206973206e6f7420746865206f776e6572600082015250565b600061453c60208361340d565b915061454782614506565b602082019050919050565b6000602082019050818103600083015261456b8161452f565b9050919050565b7f46554e4354494f4e5f44495341424c45445f42595f4d4f44455f000000000000600082015250565b60006145a8601a83614264565b91506145b382614572565b601a82019050919050565b60006145c98261459b565b91506145d5828461426f565b915081905092915050565b7f4e487b7100000000000000000000000000000000000000000000000000000000600052603160045260246000fd5b7f524f59414c54595f4f55545f4f465f52414e4745000000000000000000000000600082015250565b600061464560148361340d565b91506146508261460f565b602082019050919050565b6000602082019050818103600083015261467481614638565b9050919050565b600081519050919050565b600082825260208201905092915050565b60006146a28261467b565b6146ac8185614686565b93506146bc81856020860161341e565b6146c581613451565b840191505092915050565b60006080820190506146e56000830187613552565b6146f26020830186613552565b6146ff60408301856135e8565b81810360608301526147118184614697565b905095945050505050565b60008151905061472b81613373565b92915050565b6000602082840312156147475761474661333d565b5b60006147558482850161471c565b91505092915050565b6000614769826134bd565b9150614774836134bd565b92508261478457614783613f03565b5b828206905092915050565b6000819050919050565b6147aa6147a5826134bd565b61478f565b82525050565b60008160601b9050919050565b60006147c8826147b0565b9050919050565b60006147da826147bd565b9050919050565b6147f26147ed82613540565b6147cf565b82525050565b60006148048288614799565b6020820191506148148287614799565b6020820191506148248286614799565b6020820191506148348285614799565b60208201915061484482846147e1565b6014820191508190509695505050505050565b6000614862826134bd565b9150600082141561487657614875613e46565b5b600182039050919050565b7f537472696e67733a20686578206c656e67746820696e73756666696369656e74600082015250565b60006148b760208361340d565b91506148c282614881565b602082019050919050565b600060208201905081810360008301526148e6816148aa565b905091905056fea26469706673582212208d5aeb85b0969c77dbe7ca3b2af05de72ab5eeb078dd34550ceac556f455476a64736f6c63430008090033",
  "linkReferences": {},
  "deployedLinkReferences": {}
}