{
  "_format": "hh-sol-artifact-1",
  "contractName": "BlueDream",
  "sourceName": "contracts/Lemuria.sol",
  "abi": [
    {
      "inputs": [],
      "stateMutability": "nonpayable",
      "type": "constructor"
    },
    {
      "inputs": [],
      "name": "ApprovalCallerNotOwnerNorApproved",
      "type": "error"
    },
    {
      "inputs": [],
      "name": "ApprovalQueryForNonexistentToken",
      "type": "error"
    },
    {
      "inputs": [],
      "name": "ApproveToCaller",
      "type": "error"
    },
    {
      "inputs": [],
      "name": "BalanceQueryForZeroAddress",
      "type": "error"
    },
    {
      "inputs": [],
      "name": "BuyPriceTooLow",
      "type": "error"
    },
    {
      "inputs": [],
      "name": "MaxSupplyReached",
      "type": "error"
    },
    {
      "inputs": [],
      "name": "MintERC2309QuantityExceedsLimit",
      "type": "error"
    },
    {
      "inputs": [],
      "name": "MintToZeroAddress",
      "type": "error"
    },
    {
      "inputs": [],
      "name": "MintZeroQuantity",
      "type": "error"
    },
    {
      "inputs": [],
      "name": "Mode1MintPaused",
      "type": "error"
    },
    {
      "inputs": [],
      "name": "Mode2MarketPlacePaused",
      "type": "error"
    },
    {
      "inputs": [],
      "name": "Mode3TransfersPaused",
      "type": "error"
    },
    {
      "inputs": [],
      "name": "Mode7ContractPaused",
      "type": "error"
    },
    {
      "inputs": [],
      "name": "NameTooLong",
      "type": "error"
    },
    {
      "inputs": [],
      "name": "NotEnoughETH",
      "type": "error"
    },
    {
      "inputs": [],
      "name": "OwnerQueryForNonexistentToken",
      "type": "error"
    },
    {
      "inputs": [],
      "name": "OwnershipNotInitializedForExtraData",
      "type": "error"
    },
    {
      "inputs": [],
      "name": "SenderNotTokenOwner",
      "type": "error"
    },
    {
      "inputs": [],
      "name": "TransferCallerNotOwnerNorApproved",
      "type": "error"
    },
    {
      "inputs": [],
      "name": "TransferFromIncorrectOwner",
      "type": "error"
    },
    {
      "inputs": [],
      "name": "TransferToNonERC721ReceiverImplementer",
      "type": "error"
    },
    {
      "inputs": [],
      "name": "TransferToZeroAddress",
      "type": "error"
    },
    {
      "inputs": [],
      "name": "URIQueryForNonexistentToken",
      "type": "error"
    },
    {
      "anonymous": false,
      "inputs": [
        {
          "indexed": true,
          "internalType": "address",
          "name": "owner",
          "type": "address"
        },
        {
          "indexed": true,
          "internalType": "address",
          "name": "approved",
          "type": "address"
        },
        {
          "indexed": true,
          "internalType": "uint256",
          "name": "tokenId",
          "type": "uint256"
        }
      ],
      "name": "Approval",
      "type": "event"
    },
    {
      "anonymous": false,
      "inputs": [
        {
          "indexed": true,
          "internalType": "address",
          "name": "owner",
          "type": "address"
        },
        {
          "indexed": true,
          "internalType": "address",
          "name": "operator",
          "type": "address"
        },
        {
          "indexed": false,
          "internalType": "bool",
          "name": "approved",
          "type": "bool"
        }
      ],
      "name": "ApprovalForAll",
      "type": "event"
    },
    {
      "anonymous": false,
      "inputs": [
        {
          "indexed": true,
          "internalType": "uint256",
          "name": "fromTokenId",
          "type": "uint256"
        },
        {
          "indexed": false,
          "internalType": "uint256",
          "name": "toTokenId",
          "type": "uint256"
        },
        {
          "indexed": true,
          "internalType": "address",
          "name": "from",
          "type": "address"
        },
        {
          "indexed": true,
          "internalType": "address",
          "name": "to",
          "type": "address"
        }
      ],
      "name": "ConsecutiveTransfer",
      "type": "event"
    },
    {
      "anonymous": false,
      "inputs": [
        {
          "indexed": true,
          "internalType": "address",
          "name": "previousOwner",
          "type": "address"
        },
        {
          "indexed": true,
          "internalType": "address",
          "name": "newOwner",
          "type": "address"
        }
      ],
      "name": "OwnershipTransferred",
      "type": "event"
    },
    {
      "anonymous": false,
      "inputs": [
        {
          "indexed": true,
          "internalType": "address",
          "name": "from",
          "type": "address"
        },
        {
          "indexed": true,
          "internalType": "address",
          "name": "to",
          "type": "address"
        },
        {
          "indexed": true,
          "internalType": "uint256",
          "name": "tokenId",
          "type": "uint256"
        }
      ],
      "name": "Transfer",
      "type": "event"
    },
    {
      "inputs": [
        {
          "internalType": "address",
          "name": "to",
          "type": "address"
        },
        {
          "internalType": "uint256",
          "name": "tokenId",
          "type": "uint256"
        }
      ],
      "name": "approve",
      "outputs": [],
      "stateMutability": "nonpayable",
      "type": "function"
    },
    {
      "inputs": [
        {
          "internalType": "address",
          "name": "owner",
          "type": "address"
        }
      ],
      "name": "balanceOf",
      "outputs": [
        {
          "internalType": "uint256",
          "name": "",
          "type": "uint256"
        }
      ],
      "stateMutability": "view",
      "type": "function"
    },
    {
      "inputs": [
        {
          "internalType": "uint256",
          "name": "tokenId",
          "type": "uint256"
        }
      ],
      "name": "buyToken",
      "outputs": [],
      "stateMutability": "payable",
      "type": "function"
    },
    {
      "inputs": [
        {
          "internalType": "uint256",
          "name": "tokenId",
          "type": "uint256"
        }
      ],
      "name": "delistToken",
      "outputs": [],
      "stateMutability": "payable",
      "type": "function"
    },
    {
      "inputs": [
        {
          "internalType": "uint256",
          "name": "tokenId",
          "type": "uint256"
        }
      ],
      "name": "getApproved",
      "outputs": [
        {
          "internalType": "address",
          "name": "",
          "type": "address"
        }
      ],
      "stateMutability": "view",
      "type": "function"
    },
    {
      "inputs": [
        {
          "internalType": "uint256",
          "name": "id",
          "type": "uint256"
        }
      ],
      "name": "getToken",
      "outputs": [
        {
          "components": [
            {
              "internalType": "string",
              "name": "name",
              "type": "string"
            },
            {
              "internalType": "bytes32",
              "name": "dna",
              "type": "bytes32"
            },
            {
              "internalType": "bool",
              "name": "listed",
              "type": "bool"
            },
            {
              "internalType": "uint256",
              "name": "price",
              "type": "uint256"
            }
          ],
          "internalType": "struct BlueDream.Token",
          "name": "",
          "type": "tuple"
        }
      ],
      "stateMutability": "view",
      "type": "function"
    },
    {
      "inputs": [
        {
          "internalType": "address",
          "name": "owner",
          "type": "address"
        },
        {
          "internalType": "address",
          "name": "operator",
          "type": "address"
        }
      ],
      "name": "isApprovedForAll",
      "outputs": [
        {
          "internalType": "bool",
          "name": "",
          "type": "bool"
        }
      ],
      "stateMutability": "view",
      "type": "function"
    },
    {
      "inputs": [
        {
          "internalType": "uint256",
          "name": "tokenId",
          "type": "uint256"
        },
        {
          "internalType": "uint256",
          "name": "price",
          "type": "uint256"
        }
      ],
      "name": "listToken",
      "outputs": [],
      "stateMutability": "payable",
      "type": "function"
    },
    {
      "inputs": [
        {
          "internalType": "string",
          "name": "name",
          "type": "string"
        }
      ],
      "name": "mint",
      "outputs": [],
      "stateMutability": "payable",
      "type": "function"
    },
    {
      "inputs": [],
      "name": "name",
      "outputs": [
        {
          "internalType": "string",
          "name": "",
          "type": "string"
        }
      ],
      "stateMutability": "view",
      "type": "function"
    },
    {
      "inputs": [],
      "name": "owner",
      "outputs": [
        {
          "internalType": "address",
          "name": "",
          "type": "address"
        }
      ],
      "stateMutability": "view",
      "type": "function"
    },
    {
      "inputs": [
        {
          "internalType": "uint256",
          "name": "tokenId",
          "type": "uint256"
        }
      ],
      "name": "ownerOf",
      "outputs": [
        {
          "internalType": "address",
          "name": "",
          "type": "address"
        }
      ],
      "stateMutability": "view",
      "type": "function"
    },
    {
      "inputs": [],
      "name": "renounceOwnership",
      "outputs": [],
      "stateMutability": "nonpayable",
      "type": "function"
    },
    {
      "inputs": [
        {
          "internalType": "address",
          "name": "from",
          "type": "address"
        },
        {
          "internalType": "address",
          "name": "to",
          "type": "address"
        },
        {
          "internalType": "uint256",
          "name": "tokenId",
          "type": "uint256"
        }
      ],
      "name": "safeTransferFrom",
      "outputs": [],
      "stateMutability": "nonpayable",
      "type": "function"
    },
    {
      "inputs": [
        {
          "internalType": "address",
          "name": "from",
          "type": "address"
        },
        {
          "internalType": "address",
          "name": "to",
          "type": "address"
        },
        {
          "internalType": "uint256",
          "name": "tokenId",
          "type": "uint256"
        },
        {
          "internalType": "bytes",
          "name": "_data",
          "type": "bytes"
        }
      ],
      "name": "safeTransferFrom",
      "outputs": [],
      "stateMutability": "nonpayable",
      "type": "function"
    },
    {
      "inputs": [
        {
          "internalType": "address",
          "name": "operator",
          "type": "address"
        },
        {
          "internalType": "bool",
          "name": "approved",
          "type": "bool"
        }
      ],
      "name": "setApprovalForAll",
      "outputs": [],
      "stateMutability": "nonpayable",
      "type": "function"
    },
    {
      "inputs": [
        {
          "internalType": "bytes4",
          "name": "interfaceId",
          "type": "bytes4"
        }
      ],
      "name": "supportsInterface",
      "outputs": [
        {
          "internalType": "bool",
          "name": "",
          "type": "bool"
        }
      ],
      "stateMutability": "view",
      "type": "function"
    },
    {
      "inputs": [],
      "name": "symbol",
      "outputs": [
        {
          "internalType": "string",
          "name": "",
          "type": "string"
        }
      ],
      "stateMutability": "view",
      "type": "function"
    },
    {
      "inputs": [
        {
          "internalType": "uint256",
          "name": "tokenId",
          "type": "uint256"
        }
      ],
      "name": "tokenURI",
      "outputs": [
        {
          "internalType": "string",
          "name": "",
          "type": "string"
        }
      ],
      "stateMutability": "view",
      "type": "function"
    },
    {
      "inputs": [],
      "name": "totalSupply",
      "outputs": [
        {
          "internalType": "uint256",
          "name": "",
          "type": "uint256"
        }
      ],
      "stateMutability": "view",
      "type": "function"
    },
    {
      "inputs": [
        {
          "internalType": "address",
          "name": "from",
          "type": "address"
        },
        {
          "internalType": "address",
          "name": "to",
          "type": "address"
        },
        {
          "internalType": "uint256",
          "name": "tokenId",
          "type": "uint256"
        }
      ],
      "name": "transferFrom",
      "outputs": [],
      "stateMutability": "nonpayable",
      "type": "function"
    },
    {
      "inputs": [
        {
          "internalType": "address",
          "name": "newOwner",
          "type": "address"
        }
      ],
      "name": "transferOwnership",
      "outputs": [],
      "stateMutability": "nonpayable",
      "type": "function"
    },
    {
      "inputs": [],
      "name": "vaultBalance",
      "outputs": [
        {
          "internalType": "uint256",
          "name": "",
          "type": "uint256"
        }
      ],
      "stateMutability": "view",
      "type": "function"
    },
    {
      "inputs": [],
      "name": "withdrawVault",
      "outputs": [],
      "stateMutability": "nonpayable",
      "type": "function"
    }
  ],
  "bytecode": "0x60806040523480156200001157600080fd5b506040518060400160405280600a81526020017f426c756520447265616d000000000000000000000000000000000000000000008152506040518060400160405280600281526020017f4d55000000000000000000000000000000000000000000000000000000000000815250816002908051906020019062000096929190620001ed565b508060039080519060200190620000af929190620001ed565b50620000c06200011a60201b60201c565b6000819055505050620000e8620000dc6200011f60201b60201c565b6200012760201b60201c565b6001600981905550662386f26fc10000600a819055506611c37937e08000600b819055506008600c8190555062000302565b600090565b600033905090565b6000600860009054906101000a900473ffffffffffffffffffffffffffffffffffffffff16905081600860006101000a81548173ffffffffffffffffffffffffffffffffffffffff021916908373ffffffffffffffffffffffffffffffffffffffff1602179055508173ffffffffffffffffffffffffffffffffffffffff168173ffffffffffffffffffffffffffffffffffffffff167f8be0079c531659141344cd1fd0a4f28419497f9722a3daafe3b4186f6b6457e060405160405180910390a35050565b828054620001fb90620002cc565b90600052602060002090601f0160209004810192826200021f57600085556200026b565b82601f106200023a57805160ff19168380011785556200026b565b828001600101855582156200026b579182015b828111156200026a5782518255916020019190600101906200024d565b5b5090506200027a91906200027e565b5090565b5b80821115620002995760008160009055506001016200027f565b5090565b7f4e487b7100000000000000000000000000000000000000000000000000000000600052602260045260246000fd5b60006002820490506001821680620002e557607f821691505b60208210811415620002fc57620002fb6200029d565b5b50919050565b612eba80620003126000396000f3fe60806040526004361061014b5760003560e01c806375c1631d116100b6578063c87b56dd1161006f578063c87b56dd14610453578063d0d0ed0514610490578063d85d3d27146104a7578063e4b50cb8146104c3578063e985e9c514610500578063f2fde38b1461053d5761014b565b806375c1631d146103735780638da5cb5b1461038f57806395d89b41146103ba578063a22cb465146103e5578063b88d4fde1461040e578063bed659bc146104375761014b565b806323b872dd1161010857806323b872dd146102745780632d296bf11461029d57806342842e0e146102b95780636352211e146102e257806370a082311461031f578063715018a61461035c5761014b565b806301ffc9a71461015057806306fdde031461018d578063081812fc146101b8578063095ea7b3146101f55780630bf6cc081461021e57806318160ddd14610249575b600080fd5b34801561015c57600080fd5b50610177600480360381019061017291906122d4565b610566565b604051610184919061231c565b60405180910390f35b34801561019957600080fd5b506101a26105f8565b6040516101af91906123d0565b60405180910390f35b3480156101c457600080fd5b506101df60048036038101906101da9190612428565b61068a565b6040516101ec9190612496565b60405180910390f35b34801561020157600080fd5b5061021c600480360381019061021791906124dd565b610706565b005b34801561022a57600080fd5b50610233610847565b604051610240919061252c565b60405180910390f35b34801561025557600080fd5b5061025e610857565b60405161026b919061252c565b60405180910390f35b34801561028057600080fd5b5061029b60048036038101906102969190612547565b61086e565b005b6102b760048036038101906102b29190612428565b6108c8565b005b3480156102c557600080fd5b506102e060048036038101906102db9190612547565b610a7c565b005b3480156102ee57600080fd5b5061030960048036038101906103049190612428565b610a9c565b6040516103169190612496565b60405180910390f35b34801561032b57600080fd5b506103466004803603810190610341919061259a565b610aae565b604051610353919061252c565b60405180910390f35b34801561036857600080fd5b50610371610b67565b005b61038d600480360381019061038891906125c7565b610b7b565b005b34801561039b57600080fd5b506103a4610c91565b6040516103b19190612496565b60405180910390f35b3480156103c657600080fd5b506103cf610cbb565b6040516103dc91906123d0565b60405180910390f35b3480156103f157600080fd5b5061040c60048036038101906104079190612633565b610d4d565b005b34801561041a57600080fd5b50610435600480360381019061043091906127a8565b610ec5565b005b610451600480360381019061044c9190612428565b610f38565b005b34801561045f57600080fd5b5061047a60048036038101906104759190612428565b61104e565b60405161048791906123d0565b60405180910390f35b34801561049c57600080fd5b506104a56110ed565b005b6104c160048036038101906104bc919061288b565b61123a565b005b3480156104cf57600080fd5b506104ea60048036038101906104e59190612428565b61142c565b6040516104f791906129bc565b60405180910390f35b34801561050c57600080fd5b50610527600480360381019061052291906129de565b61151a565b604051610534919061231c565b60405180910390f35b34801561054957600080fd5b50610564600480360381019061055f919061259a565b6115ae565b005b60006301ffc9a760e01b827bffffffffffffffffffffffffffffffffffffffffffffffffffffffff191614806105c157506380ac58cd60e01b827bffffffffffffffffffffffffffffffffffffffffffffffffffffffff1916145b806105f15750635b5e139f60e01b827bffffffffffffffffffffffffffffffffffffffffffffffffffffffff1916145b9050919050565b60606002805461060790612a4d565b80601f016020809104026020016040519081016040528092919081815260200182805461063390612a4d565b80156106805780601f1061065557610100808354040283529160200191610680565b820191906000526020600020905b81548152906001019060200180831161066357829003601f168201915b5050505050905090565b600061069582611632565b6106cb576040517fcf4700e400000000000000000000000000000000000000000000000000000000815260040160405180910390fd5b6006600083815260200190815260200160002060009054906101000a900473ffffffffffffffffffffffffffffffffffffffff169050919050565b600061071182610a9c565b90508073ffffffffffffffffffffffffffffffffffffffff16610732611691565b73ffffffffffffffffffffffffffffffffffffffff16146107955761075e81610759611691565b61151a565b610794576040517fcfb3b94200000000000000000000000000000000000000000000000000000000815260040160405180910390fd5b5b826006600084815260200190815260200160002060006101000a81548173ffffffffffffffffffffffffffffffffffffffff021916908373ffffffffffffffffffffffffffffffffffffffff160217905550818373ffffffffffffffffffffffffffffffffffffffff168273ffffffffffffffffffffffffffffffffffffffff167f8c5be1e5ebec7d5bd14f71427d1e84f3dd0314c0f7b2291e5b200ac8c7c3b92560405160405180910390a4505050565b6000610851611699565b47905090565b6000610861611717565b6001546000540303905090565b600480600d541614156108ad576040517ffb15994b00000000000000000000000000000000000000000000000000000000815260040160405180910390fd5b6108b883838361171c565b6108c3816000611a41565b505050565b6002600954141561090e576040517f08c379a000000000000000000000000000000000000000000000000000000000815260040161090590612acb565b60405180910390fd5b6002600981905550600280600d54161415610955576040517ffdc9781c00000000000000000000000000000000000000000000000000000000815260040160405180910390fd5b6000600f6000838152602001908152602001600020905080600301543410156109aa576040517f2737ecc500000000000000000000000000000000000000000000000000000000815260040160405180910390fd5b60006109b583610a9c565b90506109c2813385610a7c565b60003373ffffffffffffffffffffffffffffffffffffffff16476040516109e890612b1c565b60006040518083038185875af1925050503d8060008114610a25576040519150601f19603f3d011682016040523d82523d6000602084013e610a2a565b606091505b5050905080610a6e576040517f08c379a0000000000000000000000000000000000000000000000000000000008152600401610a6590612b7d565b60405180910390fd5b505050600160098190555050565b610a9783838360405180602001604052806000815250610ec5565b505050565b6000610aa782611a83565b9050919050565b60008073ffffffffffffffffffffffffffffffffffffffff168273ffffffffffffffffffffffffffffffffffffffff161415610b16576040517f8f4eb60400000000000000000000000000000000000000000000000000000000815260040160405180910390fd5b67ffffffffffffffff600560008473ffffffffffffffffffffffffffffffffffffffff1673ffffffffffffffffffffffffffffffffffffffff16815260200190815260200160002054169050919050565b610b6f611699565b610b796000611b51565b565b60026009541415610bc1576040517f08c379a0000000000000000000000000000000000000000000000000000000008152600401610bb890612acb565b60405180910390fd5b6002600981905550600280600d54161415610c08576040517ffdc9781c00000000000000000000000000000000000000000000000000000000815260040160405180910390fd5b6000610c1383610a9c565b90508073ffffffffffffffffffffffffffffffffffffffff163373ffffffffffffffffffffffffffffffffffffffff1614610c7a576040517f60c636f200000000000000000000000000000000000000000000000000000000815260040160405180910390fd5b610c848383611a41565b5060016009819055505050565b6000600860009054906101000a900473ffffffffffffffffffffffffffffffffffffffff16905090565b606060038054610cca90612a4d565b80601f0160208091040260200160405190810160405280929190818152602001828054610cf690612a4d565b8015610d435780601f10610d1857610100808354040283529160200191610d43565b820191906000526020600020905b815481529060010190602001808311610d2657829003601f168201915b5050505050905090565b610d55611691565b73ffffffffffffffffffffffffffffffffffffffff168273ffffffffffffffffffffffffffffffffffffffff161415610dba576040517fb06307db00000000000000000000000000000000000000000000000000000000815260040160405180910390fd5b8060076000610dc7611691565b73ffffffffffffffffffffffffffffffffffffffff1673ffffffffffffffffffffffffffffffffffffffff16815260200190815260200160002060008473ffffffffffffffffffffffffffffffffffffffff1673ffffffffffffffffffffffffffffffffffffffff16815260200190815260200160002060006101000a81548160ff0219169083151502179055508173ffffffffffffffffffffffffffffffffffffffff16610e74611691565b73ffffffffffffffffffffffffffffffffffffffff167f17307eab39ab6107e8899845ad3d59bd9653f200f220920489ca2b5937696c3183604051610eb9919061231c565b60405180910390a35050565b610ed084848461086e565b60008373ffffffffffffffffffffffffffffffffffffffff163b14610f3257610efb84848484611c17565b610f31576040517fd1a57ed600000000000000000000000000000000000000000000000000000000815260040160405180910390fd5b5b50505050565b60026009541415610f7e576040517f08c379a0000000000000000000000000000000000000000000000000000000008152600401610f7590612acb565b60405180910390fd5b6002600981905550600280600d54161415610fc5576040517ffdc9781c00000000000000000000000000000000000000000000000000000000815260040160405180910390fd5b6000610fd082610a9c565b90508073ffffffffffffffffffffffffffffffffffffffff163373ffffffffffffffffffffffffffffffffffffffff1614611037576040517f60c636f200000000000000000000000000000000000000000000000000000000815260040160405180910390fd5b611042826000611a41565b50600160098190555050565b606061105982611632565b61108f576040517fa14c4b5000000000000000000000000000000000000000000000000000000000815260040160405180910390fd5b6000611099611d77565b90506000815114156110ba57604051806020016040528060008152506110e5565b806110c484611d8e565b6040516020016110d5929190612bd9565b6040516020818303038152906040525b915050919050565b6110f5611699565b6002600954141561113b576040517f08c379a000000000000000000000000000000000000000000000000000000000815260040161113290612acb565b60405180910390fd5b600260098190555063ffffffff600d541415611183576040517f664ff79800000000000000000000000000000000000000000000000000000000815260040160405180910390fd5b60003373ffffffffffffffffffffffffffffffffffffffff16476040516111a990612b1c565b60006040518083038185875af1925050503d80600081146111e6576040519150601f19603f3d011682016040523d82523d6000602084013e6111eb565b606091505b505090508061122f576040517f08c379a000000000000000000000000000000000000000000000000000000000815260040161122690612b7d565b60405180910390fd5b506001600981905550565b600180600d54161415611279576040517fdaf0505300000000000000000000000000000000000000000000000000000000815260040160405180910390fd5b6000611283611de8565b9050662386f26fc100003410156112c6576040517f583aa02600000000000000000000000000000000000000000000000000000000815260040160405180910390fd5b60208383905010611303576040517f680b6caf00000000000000000000000000000000000000000000000000000000815260040160405180910390fd5b61271061130e610857565b10611345576040517fd05cb60900000000000000000000000000000000000000000000000000000000815260040160405180910390fd5b611350336001611df1565b604051806080016040528084848080601f016020809104026020016040519081016040528093929190818152602001838380828437600081840152601f19601f8201169050808301925050505050505081526020016113ad611e0f565b81526020016000151581526020016000815250600f600083815260200190815260200160002060008201518160000190805190602001906113ef929190612198565b506020820151816001015560408201518160020160006101000a81548160ff02191690831515021790555060608201518160030155905050505050565b61143461221e565b600f600083815260200190815260200160002060405180608001604052908160008201805461146290612a4d565b80601f016020809104026020016040519081016040528092919081815260200182805461148e90612a4d565b80156114db5780601f106114b0576101008083540402835291602001916114db565b820191906000526020600020905b8154815290600101906020018083116114be57829003601f168201915b50505050508152602001600182015481526020016002820160009054906101000a900460ff161515151581526020016003820154815250509050919050565b6000600760008473ffffffffffffffffffffffffffffffffffffffff1673ffffffffffffffffffffffffffffffffffffffff16815260200190815260200160002060008373ffffffffffffffffffffffffffffffffffffffff1673ffffffffffffffffffffffffffffffffffffffff16815260200190815260200160002060009054906101000a900460ff16905092915050565b6115b6611699565b600073ffffffffffffffffffffffffffffffffffffffff168173ffffffffffffffffffffffffffffffffffffffff161415611626576040517f08c379a000000000000000000000000000000000000000000000000000000000815260040161161d90612c6f565b60405180910390fd5b61162f81611b51565b50565b60008161163d611717565b1115801561164c575060005482105b801561168a575060007c0100000000000000000000000000000000000000000000000000000000600460008581526020019081526020016000205416145b9050919050565b600033905090565b6116a1611e41565b73ffffffffffffffffffffffffffffffffffffffff166116bf610c91565b73ffffffffffffffffffffffffffffffffffffffff1614611715576040517f08c379a000000000000000000000000000000000000000000000000000000000815260040161170c90612cdb565b60405180910390fd5b565b600090565b600061172782611a83565b90508373ffffffffffffffffffffffffffffffffffffffff168173ffffffffffffffffffffffffffffffffffffffff161461178e576040517fa114810000000000000000000000000000000000000000000000000000000000815260040160405180910390fd5b60008061179a84611e49565b915091506117b081876117ab611691565b611e6b565b6117fc576117c5866117c0611691565b61151a565b6117fb576040517f59c896be00000000000000000000000000000000000000000000000000000000815260040160405180910390fd5b5b600073ffffffffffffffffffffffffffffffffffffffff168573ffffffffffffffffffffffffffffffffffffffff161415611863576040517fea553b3400000000000000000000000000000000000000000000000000000000815260040160405180910390fd5b6118708686866001611eaf565b801561187b57600082555b600560008773ffffffffffffffffffffffffffffffffffffffff1673ffffffffffffffffffffffffffffffffffffffff168152602001908152602001600020600081546001900391905081905550600560008673ffffffffffffffffffffffffffffffffffffffff1673ffffffffffffffffffffffffffffffffffffffff168152602001908152602001600020600081546001019190508190555061194985611925888887611eb5565b7c020000000000000000000000000000000000000000000000000000000017611edd565b600460008681526020019081526020016000208190555060007c0200000000000000000000000000000000000000000000000000000000841614156119d15760006001850190506000600460008381526020019081526020016000205414156119cf5760005481146119ce578360046000838152602001908152602001600020819055505b5b505b838573ffffffffffffffffffffffffffffffffffffffff168773ffffffffffffffffffffffffffffffffffffffff167fddf252ad1be2c89b69c2b068fc378daa952ba7f163c4a11628f55a4df523b3ef60405160405180910390a4611a398686866001611f08565b505050505050565b6000600f6000848152602001908152602001600020905060008160020160006101000a81548160ff021916908315150217905550818160030181905550505050565b60008082905080611a92611717565b11611b1a57600054811015611b195760006004600083815260200190815260200160002054905060007c010000000000000000000000000000000000000000000000000000000082161415611b17575b6000811415611b0d576004600083600190039350838152602001908152602001600020549050611ae2565b8092505050611b4c565b505b5b6040517fdf2d9b4200000000000000000000000000000000000000000000000000000000815260040160405180910390fd5b919050565b6000600860009054906101000a900473ffffffffffffffffffffffffffffffffffffffff16905081600860006101000a81548173ffffffffffffffffffffffffffffffffffffffff021916908373ffffffffffffffffffffffffffffffffffffffff1602179055508173ffffffffffffffffffffffffffffffffffffffff168173ffffffffffffffffffffffffffffffffffffffff167f8be0079c531659141344cd1fd0a4f28419497f9722a3daafe3b4186f6b6457e060405160405180910390a35050565b60008373ffffffffffffffffffffffffffffffffffffffff1663150b7a02611c3d611691565b8786866040518563ffffffff1660e01b8152600401611c5f9493929190612d50565b602060405180830381600087803b158015611c7957600080fd5b505af1925050508015611caa57506040513d601f19601f82011682018060405250810190611ca79190612db1565b60015b611d24573d8060008114611cda576040519150601f19603f3d011682016040523d82523d6000602084013e611cdf565b606091505b50600081511415611d1c576040517fd1a57ed600000000000000000000000000000000000000000000000000000000815260040160405180910390fd5b805181602001fd5b63150b7a0260e01b7bffffffffffffffffffffffffffffffffffffffffffffffffffffffff1916817bffffffffffffffffffffffffffffffffffffffffffffffffffffffff191614915050949350505050565b606060405180602001604052806000815250905090565b60606080604051019050806040528082600183039250600a81066030018353600a810490505b8015611dd457600183039250600a81066030018353600a81049050611db4565b508181036020830392508083525050919050565b60008054905090565b611e0b828260405180602001604052806000815250611f0e565b5050565b6000424333604051602001611e2693929190612e47565b60405160208183030381529060405280519060200120905090565b600033905090565b6000806000600690508360005280602052604060002092508254915050915091565b600073ffffffffffffffffffffffffffffffffffffffff8316925073ffffffffffffffffffffffffffffffffffffffff821691508382148383141790509392505050565b50505050565b60008060e883901c905060e8611ecc868684611fab565b62ffffff16901b9150509392505050565b600073ffffffffffffffffffffffffffffffffffffffff83169250814260a01b178317905092915050565b50505050565b611f188383611fb4565b60008373ffffffffffffffffffffffffffffffffffffffff163b14611fa657600080549050600083820390505b611f586000868380600101945086611c17565b611f8e576040517fd1a57ed600000000000000000000000000000000000000000000000000000000815260040160405180910390fd5b818110611f45578160005414611fa357600080fd5b50505b505050565b60009392505050565b600080549050600073ffffffffffffffffffffffffffffffffffffffff168373ffffffffffffffffffffffffffffffffffffffff161415612021576040517f2e07630000000000000000000000000000000000000000000000000000000000815260040160405180910390fd5b600082141561205c576040517fb562e8dd00000000000000000000000000000000000000000000000000000000815260040160405180910390fd5b6120696000848385611eaf565b600160406001901b178202600560008573ffffffffffffffffffffffffffffffffffffffff1673ffffffffffffffffffffffffffffffffffffffff168152602001908152602001600020600082825401925050819055506120e0836120d16000866000611eb5565b6120da85612188565b17611edd565b60046000838152602001908152602001600020819055506000819050600083830190505b818060010192508573ffffffffffffffffffffffffffffffffffffffff16600073ffffffffffffffffffffffffffffffffffffffff167fddf252ad1be2c89b69c2b068fc378daa952ba7f163c4a11628f55a4df523b3ef60405160405180910390a4808210612104578060008190555050506121836000848385611f08565b505050565b60006001821460e11b9050919050565b8280546121a490612a4d565b90600052602060002090601f0160209004810192826121c6576000855561220d565b82601f106121df57805160ff191683800117855561220d565b8280016001018555821561220d579182015b8281111561220c5782518255916020019190600101906121f1565b5b50905061221a919061224b565b5090565b60405180608001604052806060815260200160008019168152602001600015158152602001600081525090565b5b8082111561226457600081600090555060010161224c565b5090565b6000604051905090565b600080fd5b600080fd5b60007fffffffff0000000000000000000000000000000000000000000000000000000082169050919050565b6122b18161227c565b81146122bc57600080fd5b50565b6000813590506122ce816122a8565b92915050565b6000602082840312156122ea576122e9612272565b5b60006122f8848285016122bf565b91505092915050565b60008115159050919050565b61231681612301565b82525050565b6000602082019050612331600083018461230d565b92915050565b600081519050919050565b600082825260208201905092915050565b60005b83811015612371578082015181840152602081019050612356565b83811115612380576000848401525b50505050565b6000601f19601f8301169050919050565b60006123a282612337565b6123ac8185612342565b93506123bc818560208601612353565b6123c581612386565b840191505092915050565b600060208201905081810360008301526123ea8184612397565b905092915050565b6000819050919050565b612405816123f2565b811461241057600080fd5b50565b600081359050612422816123fc565b92915050565b60006020828403121561243e5761243d612272565b5b600061244c84828501612413565b91505092915050565b600073ffffffffffffffffffffffffffffffffffffffff82169050919050565b600061248082612455565b9050919050565b61249081612475565b82525050565b60006020820190506124ab6000830184612487565b92915050565b6124ba81612475565b81146124c557600080fd5b50565b6000813590506124d7816124b1565b92915050565b600080604083850312156124f4576124f3612272565b5b6000612502858286016124c8565b925050602061251385828601612413565b9150509250929050565b612526816123f2565b82525050565b6000602082019050612541600083018461251d565b92915050565b6000806000606084860312156125605761255f612272565b5b600061256e868287016124c8565b935050602061257f868287016124c8565b925050604061259086828701612413565b9150509250925092565b6000602082840312156125b0576125af612272565b5b60006125be848285016124c8565b91505092915050565b600080604083850312156125de576125dd612272565b5b60006125ec85828601612413565b92505060206125fd85828601612413565b9150509250929050565b61261081612301565b811461261b57600080fd5b50565b60008135905061262d81612607565b92915050565b6000806040838503121561264a57612649612272565b5b6000612658858286016124c8565b92505060206126698582860161261e565b9150509250929050565b600080fd5b600080fd5b7f4e487b7100000000000000000000000000000000000000000000000000000000600052604160045260246000fd5b6126b582612386565b810181811067ffffffffffffffff821117156126d4576126d361267d565b5b80604052505050565b60006126e7612268565b90506126f382826126ac565b919050565b600067ffffffffffffffff8211156127135761271261267d565b5b61271c82612386565b9050602081019050919050565b82818337600083830152505050565b600061274b612746846126f8565b6126dd565b90508281526020810184848401111561276757612766612678565b5b612772848285612729565b509392505050565b600082601f83011261278f5761278e612673565b5b813561279f848260208601612738565b91505092915050565b600080600080608085870312156127c2576127c1612272565b5b60006127d0878288016124c8565b94505060206127e1878288016124c8565b93505060406127f287828801612413565b925050606085013567ffffffffffffffff81111561281357612812612277565b5b61281f8782880161277a565b91505092959194509250565b600080fd5b600080fd5b60008083601f84011261284b5761284a612673565b5b8235905067ffffffffffffffff8111156128685761286761282b565b5b60208301915083600182028301111561288457612883612830565b5b9250929050565b600080602083850312156128a2576128a1612272565b5b600083013567ffffffffffffffff8111156128c0576128bf612277565b5b6128cc85828601612835565b92509250509250929050565b600082825260208201905092915050565b60006128f482612337565b6128fe81856128d8565b935061290e818560208601612353565b61291781612386565b840191505092915050565b6000819050919050565b61293581612922565b82525050565b61294481612301565b82525050565b612953816123f2565b82525050565b6000608083016000830151848203600086015261297682826128e9565b915050602083015161298b602086018261292c565b50604083015161299e604086018261293b565b5060608301516129b1606086018261294a565b508091505092915050565b600060208201905081810360008301526129d68184612959565b905092915050565b600080604083850312156129f5576129f4612272565b5b6000612a03858286016124c8565b9250506020612a14858286016124c8565b9150509250929050565b7f4e487b7100000000000000000000000000000000000000000000000000000000600052602260045260246000fd5b60006002820490506001821680612a6557607f821691505b60208210811415612a7957612a78612a1e565b5b50919050565b7f5265656e7472616e637947756172643a207265656e7472616e742063616c6c00600082015250565b6000612ab5601f83612342565b9150612ac082612a7f565b602082019050919050565b60006020820190508181036000830152612ae481612aa8565b9050919050565b600081905092915050565b50565b6000612b06600083612aeb565b9150612b1182612af6565b600082019050919050565b6000612b2782612af9565b9150819050919050565b7f5472616e73666572206661696c65642e00000000000000000000000000000000600082015250565b6000612b67601083612342565b9150612b7282612b31565b602082019050919050565b60006020820190508181036000830152612b9681612b5a565b9050919050565b600081905092915050565b6000612bb382612337565b612bbd8185612b9d565b9350612bcd818560208601612353565b80840191505092915050565b6000612be58285612ba8565b9150612bf18284612ba8565b91508190509392505050565b7f4f776e61626c653a206e6577206f776e657220697320746865207a65726f206160008201527f6464726573730000000000000000000000000000000000000000000000000000602082015250565b6000612c59602683612342565b9150612c6482612bfd565b604082019050919050565b60006020820190508181036000830152612c8881612c4c565b9050919050565b7f4f776e61626c653a2063616c6c6572206973206e6f7420746865206f776e6572600082015250565b6000612cc5602083612342565b9150612cd082612c8f565b602082019050919050565b60006020820190508181036000830152612cf481612cb8565b9050919050565b600081519050919050565b600082825260208201905092915050565b6000612d2282612cfb565b612d2c8185612d06565b9350612d3c818560208601612353565b612d4581612386565b840191505092915050565b6000608082019050612d656000830187612487565b612d726020830186612487565b612d7f604083018561251d565b8181036060830152612d918184612d17565b905095945050505050565b600081519050612dab816122a8565b92915050565b600060208284031215612dc757612dc6612272565b5b6000612dd584828501612d9c565b91505092915050565b6000819050919050565b612df9612df4826123f2565b612dde565b82525050565b60008160601b9050919050565b6000612e1782612dff565b9050919050565b6000612e2982612e0c565b9050919050565b612e41612e3c82612475565b612e1e565b82525050565b6000612e538286612de8565b602082019150612e638285612de8565b602082019150612e738284612e30565b60148201915081905094935050505056fea2646970667358221220963d87aaf029d8bc6e850c39ec72f112aa0564a199f9ea9f432f949bbaf6562a64736f6c63430008090033",
  "linkReferences": {},
  "deployedLinkReferences": {}
}