{
  "_format": "hh-sol-artifact-1",
  "contractName": "BlueDream",
  "sourceName": "contracts/Lemuria.sol",
  "abi": [
    {
      "inputs": [],
      "stateMutability": "nonpayable",
      "type": "constructor"
    },
    {
      "inputs": [],
      "name": "ApprovalCallerNotOwnerNorApproved",
      "type": "error"
    },
    {
      "inputs": [],
      "name": "ApprovalQueryForNonexistentToken",
      "type": "error"
    },
    {
      "inputs": [],
      "name": "ApproveToCaller",
      "type": "error"
    },
    {
      "inputs": [],
      "name": "BalanceQueryForZeroAddress",
      "type": "error"
    },
    {
      "inputs": [],
      "name": "MintERC2309QuantityExceedsLimit",
      "type": "error"
    },
    {
      "inputs": [],
      "name": "MintToZeroAddress",
      "type": "error"
    },
    {
      "inputs": [],
      "name": "MintZeroQuantity",
      "type": "error"
    },
    {
      "inputs": [],
      "name": "OwnerQueryForNonexistentToken",
      "type": "error"
    },
    {
      "inputs": [],
      "name": "OwnershipNotInitializedForExtraData",
      "type": "error"
    },
    {
      "inputs": [],
      "name": "TransferCallerNotOwnerNorApproved",
      "type": "error"
    },
    {
      "inputs": [],
      "name": "TransferFromIncorrectOwner",
      "type": "error"
    },
    {
      "inputs": [],
      "name": "TransferToNonERC721ReceiverImplementer",
      "type": "error"
    },
    {
      "inputs": [],
      "name": "TransferToZeroAddress",
      "type": "error"
    },
    {
      "inputs": [],
      "name": "URIQueryForNonexistentToken",
      "type": "error"
    },
    {
      "anonymous": false,
      "inputs": [
        {
          "indexed": true,
          "internalType": "address",
          "name": "owner",
          "type": "address"
        },
        {
          "indexed": true,
          "internalType": "address",
          "name": "approved",
          "type": "address"
        },
        {
          "indexed": true,
          "internalType": "uint256",
          "name": "tokenId",
          "type": "uint256"
        }
      ],
      "name": "Approval",
      "type": "event"
    },
    {
      "anonymous": false,
      "inputs": [
        {
          "indexed": true,
          "internalType": "address",
          "name": "owner",
          "type": "address"
        },
        {
          "indexed": true,
          "internalType": "address",
          "name": "operator",
          "type": "address"
        },
        {
          "indexed": false,
          "internalType": "bool",
          "name": "approved",
          "type": "bool"
        }
      ],
      "name": "ApprovalForAll",
      "type": "event"
    },
    {
      "anonymous": false,
      "inputs": [
        {
          "indexed": true,
          "internalType": "uint256",
          "name": "fromTokenId",
          "type": "uint256"
        },
        {
          "indexed": false,
          "internalType": "uint256",
          "name": "toTokenId",
          "type": "uint256"
        },
        {
          "indexed": true,
          "internalType": "address",
          "name": "from",
          "type": "address"
        },
        {
          "indexed": true,
          "internalType": "address",
          "name": "to",
          "type": "address"
        }
      ],
      "name": "ConsecutiveTransfer",
      "type": "event"
    },
    {
      "anonymous": false,
      "inputs": [
        {
          "indexed": true,
          "internalType": "address",
          "name": "previousOwner",
          "type": "address"
        },
        {
          "indexed": true,
          "internalType": "address",
          "name": "newOwner",
          "type": "address"
        }
      ],
      "name": "OwnershipTransferred",
      "type": "event"
    },
    {
      "anonymous": false,
      "inputs": [
        {
          "indexed": true,
          "internalType": "address",
          "name": "from",
          "type": "address"
        },
        {
          "indexed": true,
          "internalType": "address",
          "name": "to",
          "type": "address"
        },
        {
          "indexed": true,
          "internalType": "uint256",
          "name": "tokenId",
          "type": "uint256"
        }
      ],
      "name": "Transfer",
      "type": "event"
    },
    {
      "inputs": [
        {
          "internalType": "address",
          "name": "to",
          "type": "address"
        },
        {
          "internalType": "uint256",
          "name": "tokenId",
          "type": "uint256"
        }
      ],
      "name": "approve",
      "outputs": [],
      "stateMutability": "nonpayable",
      "type": "function"
    },
    {
      "inputs": [
        {
          "internalType": "address",
          "name": "owner",
          "type": "address"
        }
      ],
      "name": "balanceOf",
      "outputs": [
        {
          "internalType": "uint256",
          "name": "",
          "type": "uint256"
        }
      ],
      "stateMutability": "view",
      "type": "function"
    },
    {
      "inputs": [
        {
          "internalType": "bytes32",
          "name": "providedKey",
          "type": "bytes32"
        },
        {
          "internalType": "uint256",
          "name": "tokenId",
          "type": "uint256"
        }
      ],
      "name": "buyToken",
      "outputs": [],
      "stateMutability": "payable",
      "type": "function"
    },
    {
      "inputs": [
        {
          "internalType": "bytes32",
          "name": "providedKey",
          "type": "bytes32"
        },
        {
          "internalType": "uint256",
          "name": "tokenId",
          "type": "uint256"
        },
        {
          "internalType": "string",
          "name": "name",
          "type": "string"
        }
      ],
      "name": "changeName",
      "outputs": [],
      "stateMutability": "payable",
      "type": "function"
    },
    {
      "inputs": [],
      "name": "contractURI",
      "outputs": [
        {
          "internalType": "string",
          "name": "",
          "type": "string"
        }
      ],
      "stateMutability": "view",
      "type": "function"
    },
    {
      "inputs": [
        {
          "internalType": "uint256",
          "name": "tokenId",
          "type": "uint256"
        }
      ],
      "name": "delistToken",
      "outputs": [],
      "stateMutability": "nonpayable",
      "type": "function"
    },
    {
      "inputs": [
        {
          "internalType": "uint256",
          "name": "startIndex",
          "type": "uint256"
        },
        {
          "internalType": "uint256",
          "name": "total",
          "type": "uint256"
        }
      ],
      "name": "getAllTokens",
      "outputs": [
        {
          "components": [
            {
              "internalType": "bool",
              "name": "initialized",
              "type": "bool"
            },
            {
              "internalType": "uint256",
              "name": "id",
              "type": "uint256"
            },
            {
              "internalType": "string",
              "name": "name",
              "type": "string"
            },
            {
              "internalType": "bytes32",
              "name": "dna",
              "type": "bytes32"
            },
            {
              "internalType": "bytes32",
              "name": "attributes",
              "type": "bytes32"
            },
            {
              "internalType": "bool",
              "name": "listed",
              "type": "bool"
            },
            {
              "internalType": "uint256",
              "name": "price",
              "type": "uint256"
            },
            {
              "internalType": "address",
              "name": "owner",
              "type": "address"
            },
            {
              "internalType": "uint256",
              "name": "achievements",
              "type": "uint256"
            }
          ],
          "internalType": "struct BlueDream.t_token[]",
          "name": "",
          "type": "tuple[]"
        }
      ],
      "stateMutability": "view",
      "type": "function"
    },
    {
      "inputs": [
        {
          "internalType": "uint256",
          "name": "tokenId",
          "type": "uint256"
        }
      ],
      "name": "getApproved",
      "outputs": [
        {
          "internalType": "address",
          "name": "",
          "type": "address"
        }
      ],
      "stateMutability": "view",
      "type": "function"
    },
    {
      "inputs": [],
      "name": "getContractMode",
      "outputs": [
        {
          "internalType": "uint256",
          "name": "",
          "type": "uint256"
        }
      ],
      "stateMutability": "view",
      "type": "function"
    },
    {
      "inputs": [
        {
          "internalType": "uint256",
          "name": "tokenId",
          "type": "uint256"
        }
      ],
      "name": "getToken",
      "outputs": [
        {
          "components": [
            {
              "internalType": "bool",
              "name": "initialized",
              "type": "bool"
            },
            {
              "internalType": "uint256",
              "name": "id",
              "type": "uint256"
            },
            {
              "internalType": "string",
              "name": "name",
              "type": "string"
            },
            {
              "internalType": "bytes32",
              "name": "dna",
              "type": "bytes32"
            },
            {
              "internalType": "bytes32",
              "name": "attributes",
              "type": "bytes32"
            },
            {
              "internalType": "bool",
              "name": "listed",
              "type": "bool"
            },
            {
              "internalType": "uint256",
              "name": "price",
              "type": "uint256"
            },
            {
              "internalType": "address",
              "name": "owner",
              "type": "address"
            },
            {
              "internalType": "uint256",
              "name": "achievements",
              "type": "uint256"
            }
          ],
          "internalType": "struct BlueDream.t_token",
          "name": "",
          "type": "tuple"
        }
      ],
      "stateMutability": "view",
      "type": "function"
    },
    {
      "inputs": [
        {
          "internalType": "address",
          "name": "owner",
          "type": "address"
        },
        {
          "internalType": "uint256",
          "name": "startIndex",
          "type": "uint256"
        },
        {
          "internalType": "uint256",
          "name": "total",
          "type": "uint256"
        }
      ],
      "name": "getTokensOfOwner",
      "outputs": [
        {
          "components": [
            {
              "internalType": "bool",
              "name": "initialized",
              "type": "bool"
            },
            {
              "internalType": "uint256",
              "name": "id",
              "type": "uint256"
            },
            {
              "internalType": "string",
              "name": "name",
              "type": "string"
            },
            {
              "internalType": "bytes32",
              "name": "dna",
              "type": "bytes32"
            },
            {
              "internalType": "bytes32",
              "name": "attributes",
              "type": "bytes32"
            },
            {
              "internalType": "bool",
              "name": "listed",
              "type": "bool"
            },
            {
              "internalType": "uint256",
              "name": "price",
              "type": "uint256"
            },
            {
              "internalType": "address",
              "name": "owner",
              "type": "address"
            },
            {
              "internalType": "uint256",
              "name": "achievements",
              "type": "uint256"
            }
          ],
          "internalType": "struct BlueDream.t_token[]",
          "name": "",
          "type": "tuple[]"
        }
      ],
      "stateMutability": "view",
      "type": "function"
    },
    {
      "inputs": [
        {
          "internalType": "bytes32",
          "name": "providedKey",
          "type": "bytes32"
        },
        {
          "internalType": "address",
          "name": "newOwner",
          "type": "address"
        }
      ],
      "name": "giveKeysTo",
      "outputs": [],
      "stateMutability": "nonpayable",
      "type": "function"
    },
    {
      "inputs": [
        {
          "internalType": "address",
          "name": "owner",
          "type": "address"
        },
        {
          "internalType": "address",
          "name": "operator",
          "type": "address"
        }
      ],
      "name": "isApprovedForAll",
      "outputs": [
        {
          "internalType": "bool",
          "name": "",
          "type": "bool"
        }
      ],
      "stateMutability": "view",
      "type": "function"
    },
    {
      "inputs": [
        {
          "internalType": "bytes32",
          "name": "providedKey",
          "type": "bytes32"
        },
        {
          "internalType": "uint256",
          "name": "tokenId",
          "type": "uint256"
        },
        {
          "internalType": "uint256",
          "name": "price",
          "type": "uint256"
        }
      ],
      "name": "listToken",
      "outputs": [],
      "stateMutability": "payable",
      "type": "function"
    },
    {
      "inputs": [
        {
          "internalType": "bytes32",
          "name": "providedKey",
          "type": "bytes32"
        },
        {
          "internalType": "string",
          "name": "name",
          "type": "string"
        }
      ],
      "name": "mint",
      "outputs": [],
      "stateMutability": "payable",
      "type": "function"
    },
    {
      "inputs": [],
      "name": "name",
      "outputs": [
        {
          "internalType": "string",
          "name": "",
          "type": "string"
        }
      ],
      "stateMutability": "view",
      "type": "function"
    },
    {
      "inputs": [],
      "name": "owner",
      "outputs": [
        {
          "internalType": "address",
          "name": "",
          "type": "address"
        }
      ],
      "stateMutability": "view",
      "type": "function"
    },
    {
      "inputs": [
        {
          "internalType": "uint256",
          "name": "tokenId",
          "type": "uint256"
        }
      ],
      "name": "ownerOf",
      "outputs": [
        {
          "internalType": "address",
          "name": "",
          "type": "address"
        }
      ],
      "stateMutability": "view",
      "type": "function"
    },
    {
      "inputs": [],
      "name": "renounceOwnership",
      "outputs": [],
      "stateMutability": "nonpayable",
      "type": "function"
    },
    {
      "inputs": [
        {
          "internalType": "address",
          "name": "from",
          "type": "address"
        },
        {
          "internalType": "address",
          "name": "to",
          "type": "address"
        },
        {
          "internalType": "uint256",
          "name": "tokenId",
          "type": "uint256"
        }
      ],
      "name": "safeTransferFrom",
      "outputs": [],
      "stateMutability": "nonpayable",
      "type": "function"
    },
    {
      "inputs": [
        {
          "internalType": "address",
          "name": "from",
          "type": "address"
        },
        {
          "internalType": "address",
          "name": "to",
          "type": "address"
        },
        {
          "internalType": "uint256",
          "name": "tokenId",
          "type": "uint256"
        },
        {
          "internalType": "bytes",
          "name": "_data",
          "type": "bytes"
        }
      ],
      "name": "safeTransferFrom",
      "outputs": [],
      "stateMutability": "nonpayable",
      "type": "function"
    },
    {
      "inputs": [
        {
          "internalType": "bytes32",
          "name": "providedKey",
          "type": "bytes32"
        },
        {
          "internalType": "uint256",
          "name": "access",
          "type": "uint256"
        },
        {
          "internalType": "bytes32",
          "name": "key",
          "type": "bytes32"
        }
      ],
      "name": "setAccessKey",
      "outputs": [],
      "stateMutability": "nonpayable",
      "type": "function"
    },
    {
      "inputs": [
        {
          "internalType": "uint256",
          "name": "price",
          "type": "uint256"
        }
      ],
      "name": "setAchievementsPrice",
      "outputs": [],
      "stateMutability": "nonpayable",
      "type": "function"
    },
    {
      "inputs": [
        {
          "internalType": "address",
          "name": "operator",
          "type": "address"
        },
        {
          "internalType": "bool",
          "name": "approved",
          "type": "bool"
        }
      ],
      "name": "setApprovalForAll",
      "outputs": [],
      "stateMutability": "nonpayable",
      "type": "function"
    },
    {
      "inputs": [
        {
          "internalType": "bytes32",
          "name": "providedKey",
          "type": "bytes32"
        },
        {
          "internalType": "uint256",
          "name": "_mode",
          "type": "uint256"
        }
      ],
      "name": "setContractMode",
      "outputs": [],
      "stateMutability": "nonpayable",
      "type": "function"
    },
    {
      "inputs": [
        {
          "internalType": "string",
          "name": "URI",
          "type": "string"
        }
      ],
      "name": "setContractURI",
      "outputs": [],
      "stateMutability": "nonpayable",
      "type": "function"
    },
    {
      "inputs": [
        {
          "internalType": "uint256",
          "name": "price",
          "type": "uint256"
        }
      ],
      "name": "setListingPrice",
      "outputs": [],
      "stateMutability": "nonpayable",
      "type": "function"
    },
    {
      "inputs": [
        {
          "internalType": "uint256",
          "name": "price",
          "type": "uint256"
        }
      ],
      "name": "setMintPrice",
      "outputs": [],
      "stateMutability": "nonpayable",
      "type": "function"
    },
    {
      "inputs": [
        {
          "internalType": "uint256",
          "name": "price",
          "type": "uint256"
        }
      ],
      "name": "setNameChangePrice",
      "outputs": [],
      "stateMutability": "nonpayable",
      "type": "function"
    },
    {
      "inputs": [
        {
          "internalType": "uint256",
          "name": "percentage",
          "type": "uint256"
        }
      ],
      "name": "setRoyalty",
      "outputs": [],
      "stateMutability": "nonpayable",
      "type": "function"
    },
    {
      "inputs": [
        {
          "internalType": "bytes32",
          "name": "providedKey",
          "type": "bytes32"
        },
        {
          "internalType": "uint256",
          "name": "tokenId",
          "type": "uint256"
        },
        {
          "internalType": "uint256",
          "name": "achievements",
          "type": "uint256"
        }
      ],
      "name": "setTokenAchievements",
      "outputs": [],
      "stateMutability": "payable",
      "type": "function"
    },
    {
      "inputs": [
        {
          "internalType": "string",
          "name": "URI",
          "type": "string"
        }
      ],
      "name": "setTokenURI",
      "outputs": [],
      "stateMutability": "nonpayable",
      "type": "function"
    },
    {
      "inputs": [
        {
          "internalType": "bytes4",
          "name": "interfaceId",
          "type": "bytes4"
        }
      ],
      "name": "supportsInterface",
      "outputs": [
        {
          "internalType": "bool",
          "name": "",
          "type": "bool"
        }
      ],
      "stateMutability": "view",
      "type": "function"
    },
    {
      "inputs": [],
      "name": "symbol",
      "outputs": [
        {
          "internalType": "string",
          "name": "",
          "type": "string"
        }
      ],
      "stateMutability": "view",
      "type": "function"
    },
    {
      "inputs": [
        {
          "internalType": "bytes32",
          "name": "providedKey",
          "type": "bytes32"
        }
      ],
      "name": "throwAwayTheKeys",
      "outputs": [],
      "stateMutability": "nonpayable",
      "type": "function"
    },
    {
      "inputs": [
        {
          "internalType": "uint256",
          "name": "tokenId",
          "type": "uint256"
        }
      ],
      "name": "tokenURI",
      "outputs": [
        {
          "internalType": "string",
          "name": "",
          "type": "string"
        }
      ],
      "stateMutability": "view",
      "type": "function"
    },
    {
      "inputs": [],
      "name": "totalSupply",
      "outputs": [
        {
          "internalType": "uint256",
          "name": "",
          "type": "uint256"
        }
      ],
      "stateMutability": "view",
      "type": "function"
    },
    {
      "inputs": [
        {
          "internalType": "address",
          "name": "from",
          "type": "address"
        },
        {
          "internalType": "address",
          "name": "to",
          "type": "address"
        },
        {
          "internalType": "uint256",
          "name": "tokenId",
          "type": "uint256"
        }
      ],
      "name": "transferFrom",
      "outputs": [],
      "stateMutability": "nonpayable",
      "type": "function"
    },
    {
      "inputs": [
        {
          "internalType": "address",
          "name": "newOwner",
          "type": "address"
        }
      ],
      "name": "transferOwnership",
      "outputs": [],
      "stateMutability": "nonpayable",
      "type": "function"
    },
    {
      "inputs": [],
      "name": "vaultBalance",
      "outputs": [
        {
          "internalType": "uint256",
          "name": "",
          "type": "uint256"
        }
      ],
      "stateMutability": "view",
      "type": "function"
    },
    {
      "inputs": [
        {
          "internalType": "bytes32",
          "name": "providedKey",
          "type": "bytes32"
        }
      ],
      "name": "withdrawVault",
      "outputs": [],
      "stateMutability": "nonpayable",
      "type": "function"
    }
  ],
  "bytecode": "0x60806040523480156200001157600080fd5b506040518060400160405280600a81526020017f426c756520447265616d000000000000000000000000000000000000000000008152506040518060400160405280600281526020017f4d550000000000000000000000000000000000000000000000000000000000008152508160029080519060200190620000969291906200028b565b508060039080519060200190620000af9291906200028b565b50620000c06200018660201b60201c565b6000819055505050620000e8620000dc6200018f60201b60201c565b6200019760201b60201c565b60016009819055506000600a819055507fe4ee47cba596630e690dc8f9b5770af535436bab55cf0662153b917f2af9180860146000808152602001908152602001600020819055506200014260506200025d60201b60201c565b600b819055506200015a60086200025d60201b60201c565b600c819055506200017260286200025d60201b60201c565b600d819055506008600f81905550620004a1565b60006001905090565b600033905090565b6000600860009054906101000a900473ffffffffffffffffffffffffffffffffffffffff16905081600860006101000a81548173ffffffffffffffffffffffffffffffffffffffff021916908373ffffffffffffffffffffffffffffffffffffffff1602179055508173ffffffffffffffffffffffffffffffffffffffff168173ffffffffffffffffffffffffffffffffffffffff167f8be0079c531659141344cd1fd0a4f28419497f9722a3daafe3b4186f6b6457e060405160405180910390a35050565b60006103e882670de0b6b3a764000062000278919062000374565b62000284919062000404565b9050919050565b82805462000299906200046b565b90600052602060002090601f016020900481019282620002bd576000855562000309565b82601f10620002d857805160ff191683800117855562000309565b8280016001018555821562000309579182015b8281111562000308578251825591602001919060010190620002eb565b5b5090506200031891906200031c565b5090565b5b80821115620003375760008160009055506001016200031d565b5090565b6000819050919050565b7f4e487b7100000000000000000000000000000000000000000000000000000000600052601160045260246000fd5b600062000381826200033b565b91506200038e836200033b565b9250817fffffffffffffffffffffffffffffffffffffffffffffffffffffffffffffffff0483118215151615620003ca57620003c962000345565b5b828202905092915050565b7f4e487b7100000000000000000000000000000000000000000000000000000000600052601260045260246000fd5b600062000411826200033b565b91506200041e836200033b565b925082620004315762000430620003d5565b5b828204905092915050565b7f4e487b7100000000000000000000000000000000000000000000000000000000600052602260045260246000fd5b600060028204905060018216806200048457607f821691505b602082108114156200049b576200049a6200043c565b5b50919050565b6156a880620004b16000396000f3fe6080604052600436106102465760003560e01c80638da5cb5b11610139578063bed659bc116100b6578063e8a3d4851161007a578063e8a3d4851461084c578063e985e9c514610877578063edc284b5146108b4578063ee7242e3146108dd578063f2fde38b146108f9578063f4a0a5281461092257610246565b8063bed659bc14610764578063c87b56dd1461078d578063e0df5b6f146107ca578063e4b50cb8146107f3578063e6efa42a1461083057610246565b80639c2cba2d116100fd5780639c2cba2d14610695578063a22cb465146106be578063a43da3bd146106e7578063a9de3d5014610712578063b88d4fde1461073b57610246565b80638da5cb5b146105bd5780638e87f7d7146105e8578063938e3d7b1461060457806395d89b411461062d5780639a0438321461065857610246565b806342842e0e116101c7578063715018a61161018b578063715018a6146104ee5780637c726b691461050557806384a1b9021461052e57806389e952f41461055757806389edc4381461058057610246565b806342842e0e1461040657806347dd6c821461042f578063550b7551146104585780636352211e1461047457806370a08231146104b157610246565b80630d1ff5a11161020e5780630d1ff5a11461034457806318160ddd1461036057806323b872dd1461038b5780633fed24aa146103b45780634209a2e1146103dd57610246565b806301ffc9a71461024b57806306fdde0314610288578063081812fc146102b3578063095ea7b3146102f05780630bf6cc0814610319575b600080fd5b34801561025757600080fd5b50610272600480360381019061026d9190613ba5565b61094b565b60405161027f9190613bed565b60405180910390f35b34801561029457600080fd5b5061029d6109dd565b6040516102aa9190613ca1565b60405180910390f35b3480156102bf57600080fd5b506102da60048036038101906102d59190613cf9565b610a6f565b6040516102e79190613d67565b60405180910390f35b3480156102fc57600080fd5b5061031760048036038101906103129190613dae565b610aeb565b005b34801561032557600080fd5b5061032e610c2c565b60405161033b9190613dfd565b60405180910390f35b61035e60048036038101906103599190613e4e565b610c3c565b005b34801561036c57600080fd5b50610375610d19565b6040516103829190613dfd565b60405180910390f35b34801561039757600080fd5b506103b260048036038101906103ad9190613ea1565b610d30565b005b3480156103c057600080fd5b506103db60048036038101906103d69190613ef4565b610d6a565b005b3480156103e957600080fd5b5061040460048036038101906103ff9190613cf9565b610d8a565b005b34801561041257600080fd5b5061042d60048036038101906104289190613ea1565b610d9e565b005b34801561043b57600080fd5b5061045660048036038101906104519190613f21565b610dbe565b005b610472600480360381019061046d9190613f21565b610ddc565b005b34801561048057600080fd5b5061049b60048036038101906104969190613cf9565b610ff8565b6040516104a89190613d67565b60405180910390f35b3480156104bd57600080fd5b506104d860048036038101906104d39190613f61565b61100a565b6040516104e59190613dfd565b60405180910390f35b3480156104fa57600080fd5b506105036110c3565b005b34801561051157600080fd5b5061052c60048036038101906105279190613cf9565b6110cd565b005b34801561053a57600080fd5b5061055560048036038101906105509190613cf9565b6110e7565b005b34801561056357600080fd5b5061057e60048036038101906105799190613f8e565b611101565b005b34801561058c57600080fd5b506105a760048036038101906105a29190613fe1565b6111a6565b6040516105b49190614241565b60405180910390f35b3480156105c957600080fd5b506105d26115c2565b6040516105df9190613d67565b60405180910390f35b61060260048036038101906105fd9190613e4e565b6115ec565b005b34801561061057600080fd5b5061062b60048036038101906106269190614398565b6116c1565b005b34801561063957600080fd5b506106426116db565b60405161064f9190613ca1565b60405180910390f35b34801561066457600080fd5b5061067f600480360381019061067a91906143e1565b61176d565b60405161068c9190614241565b60405180910390f35b3480156106a157600080fd5b506106bc60048036038101906106b79190614421565b611a58565b005b3480156106ca57600080fd5b506106e560048036038101906106e0919061448d565b611ae8565b005b3480156106f357600080fd5b506106fc611c60565b6040516107099190613dfd565b60405180910390f35b34801561071e57600080fd5b5061073960048036038101906107349190613cf9565b611c72565b005b34801561074757600080fd5b50610762600480360381019061075d919061456e565b611c8c565b005b34801561077057600080fd5b5061078b60048036038101906107869190613cf9565b611cff565b005b34801561079957600080fd5b506107b460048036038101906107af9190613cf9565b611d78565b6040516107c19190613ca1565b60405180910390f35b3480156107d657600080fd5b506107f160048036038101906107ec9190614398565b611e17565b005b3480156107ff57600080fd5b5061081a60048036038101906108159190613cf9565b611e31565b60405161082791906146b6565b60405180910390f35b61084a600480360381019061084591906146d8565b611faf565b005b34801561085857600080fd5b506108616120e9565b60405161086e9190613ca1565b60405180910390f35b34801561088357600080fd5b5061089e60048036038101906108999190614747565b61217b565b6040516108ab9190613bed565b60405180910390f35b3480156108c057600080fd5b506108db60048036038101906108d69190613ef4565b61220f565b005b6108f760048036038101906108f291906147e7565b612334565b005b34801561090557600080fd5b50610920600480360381019061091b9190613f61565b61264d565b005b34801561092e57600080fd5b5061094960048036038101906109449190613cf9565b612658565b005b60006301ffc9a760e01b827bffffffffffffffffffffffffffffffffffffffffffffffffffffffff191614806109a657506380ac58cd60e01b827bffffffffffffffffffffffffffffffffffffffffffffffffffffffff1916145b806109d65750635b5e139f60e01b827bffffffffffffffffffffffffffffffffffffffffffffffffffffffff1916145b9050919050565b6060600280546109ec90614876565b80601f0160208091040260200160405190810160405280929190818152602001828054610a1890614876565b8015610a655780601f10610a3a57610100808354040283529160200191610a65565b820191906000526020600020905b815481529060010190602001808311610a4857829003601f168201915b5050505050905090565b6000610a7a82612672565b610ab0576040517fcf4700e400000000000000000000000000000000000000000000000000000000815260040160405180910390fd5b6006600083815260200190815260200160002060009054906101000a900473ffffffffffffffffffffffffffffffffffffffff169050919050565b6000610af682610ff8565b90508073ffffffffffffffffffffffffffffffffffffffff16610b176126d1565b73ffffffffffffffffffffffffffffffffffffffff1614610b7a57610b4381610b3e6126d1565b61217b565b610b79576040517fcfb3b94200000000000000000000000000000000000000000000000000000000815260040160405180910390fd5b5b826006600084815260200190815260200160002060006101000a81548173ffffffffffffffffffffffffffffffffffffffff021916908373ffffffffffffffffffffffffffffffffffffffff160217905550818373ffffffffffffffffffffffffffffffffffffffff168273ffffffffffffffffffffffffffffffffffffffff167f8c5be1e5ebec7d5bd14f71427d1e84f3dd0314c0f7b2291e5b200ac8c7c3b92560405160405180910390a4505050565b6000610c366126d9565b47905090565b60026009541415610c82576040517f08c379a0000000000000000000000000000000000000000000000000000000008152600401610c79906148f4565b60405180910390fd5b60026009819055506010610c9581612757565b610ca06002856127cc565b600e54341015610ce5576040517f08c379a0000000000000000000000000000000000000000000000000000000008152600401610cdc90614960565b60405180910390fd5b816012600085815260200190815260200160002060080181905550610d0b600e54612825565b506001600981905550505050565b6000610d236128ac565b6001546000540303905090565b6020610d3b81612757565b610d436126d9565b610d4e8484846128b5565b610d59848484612bda565b610d64826000612e08565b50505050565b610d726126d9565b610d7d6003826127cc565b610d876000612e4a565b50565b610d926126d9565b610d9b81612f10565b50565b610db983838360405180602001604052806000815250611c8c565b505050565b610dc66126d9565b610dd16003836127cc565b80600a819055505050565b60026009541415610e22576040517f08c379a0000000000000000000000000000000000000000000000000000000008152600401610e19906148f4565b60405180910390fd5b60026009819055506008610e3581612757565b610e406001846127cc565b610e4982612f69565b6000610e5483610ff8565b9050610e61813385610d9e565b610e6c813385612bda565b6000601260008581526020019081526020016000206006015434610e9091906149af565b905060008134610ea091906149af565b905060006064600f5483610eb491906149e3565b610ebe9190614a6c565b905060008183610ece91906149af565b90503373ffffffffffffffffffffffffffffffffffffffff1684604051610ef490614ace565b60006040518083038185875af1925050503d8060008114610f31576040519150601f19603f3d011682016040523d82523d6000602084013e610f36565b606091505b50505060008573ffffffffffffffffffffffffffffffffffffffff1682604051610f5f90614ace565b60006040518083038185875af1925050503d8060008114610f9c576040519150601f19603f3d011682016040523d82523d6000602084013e610fa1565b606091505b5050905080610fe5576040517f08c379a0000000000000000000000000000000000000000000000000000000008152600401610fdc90614b2f565b60405180910390fd5b5050505050505060016009819055505050565b600061100382613053565b9050919050565b60008073ffffffffffffffffffffffffffffffffffffffff168273ffffffffffffffffffffffffffffffffffffffff161415611072576040517f8f4eb60400000000000000000000000000000000000000000000000000000000815260040160405180910390fd5b67ffffffffffffffff600560008473ffffffffffffffffffffffffffffffffffffffff1673ffffffffffffffffffffffffffffffffffffffff16815260200190815260200160002054169050919050565b6110cb6126d9565b565b6110d56126d9565b6110de81613121565b600c8190555050565b6110ef6126d9565b6110f881613121565b600d8190555050565b604061110c81612757565b6111146126d9565b61111f6003856127cc565b600083141580611130575060018314155b8061113c575060028314155b80611148575060038314155b15611188576040517f08c379a000000000000000000000000000000000000000000000000000000000815260040161117f90614b9b565b60405180910390fd5b81601460008581526020019081526020016000208190555050505050565b60606000601360008673ffffffffffffffffffffffffffffffffffffffff1673ffffffffffffffffffffffffffffffffffffffff16815260200190815260200160002080549050141561122e576040517f08c379a000000000000000000000000000000000000000000000000000000000815260040161122590614c07565b60405180910390fd5b600083108061128a57506001601360008673ffffffffffffffffffffffffffffffffffffffff1673ffffffffffffffffffffffffffffffffffffffff1681526020019081526020016000208054905061128791906149af565b83115b156112ca576040517f08c379a00000000000000000000000000000000000000000000000000000000081526004016112c190614c73565b60405180910390fd5b600082108061131a5750601360008573ffffffffffffffffffffffffffffffffffffffff1673ffffffffffffffffffffffffffffffffffffffff1681526020019081526020016000208054905082115b1561135a576040517f08c379a000000000000000000000000000000000000000000000000000000000815260040161135190614cdf565b60405180910390fd5b60008214156113a957601360008573ffffffffffffffffffffffffffffffffffffffff1673ffffffffffffffffffffffffffffffffffffffff1681526020019081526020016000208054905091505b60606000805b848110156115b557601360008873ffffffffffffffffffffffffffffffffffffffff1673ffffffffffffffffffffffffffffffffffffffff168152602001908152602001600020818154811061140857611407614cff565b5b9060005260206000200154915060126000838152602001908152602001600020604051806101200160405290816000820160009054906101000a900460ff161515151581526020016001820154815260200160028201805461146990614876565b80601f016020809104026020016040519081016040528092919081815260200182805461149590614876565b80156114e25780601f106114b7576101008083540402835291602001916114e2565b820191906000526020600020905b8154815290600101906020018083116114c557829003601f168201915b5050505050815260200160038201548152602001600482015481526020016005820160009054906101000a900460ff16151515158152602001600682015481526020016007820160009054906101000a900473ffffffffffffffffffffffffffffffffffffffff1673ffffffffffffffffffffffffffffffffffffffff1673ffffffffffffffffffffffffffffffffffffffff16815260200160088201548152505083828151811061159757611596614cff565b5b602002602001018190525080806115ad90614d2e565b9150506113af565b5081925050509392505050565b6000600860009054906101000a900473ffffffffffffffffffffffffffffffffffffffff16905090565b60026009541415611632576040517f08c379a0000000000000000000000000000000000000000000000000000000008152600401611629906148f4565b60405180910390fd5b6002600981905550600861164581612757565b6116506001856127cc565b61165983612f69565b600d5434101561169e576040517f08c379a000000000000000000000000000000000000000000000000000000000815260040161169590614dc3565b60405180910390fd5b6116a88383612e08565b6116b3600c54612825565b506001600981905550505050565b80601090805190602001906116d7929190613a2a565b5050565b6060600380546116ea90614876565b80601f016020809104026020016040519081016040528092919081815260200182805461171690614876565b80156117635780601f1061173857610100808354040283529160200191611763565b820191906000526020600020905b81548152906001019060200180831161174657829003601f168201915b5050505050905090565b606060008310806117845750611781610d19565b83115b156117c4576040517f08c379a00000000000000000000000000000000000000000000000000000000081526004016117bb90614c73565b60405180910390fd5b60008210806117d957506117d6610d19565b82115b15611819576040517f08c379a000000000000000000000000000000000000000000000000000000000815260040161181090614cdf565b60405180910390fd5b600082141561183957600161182c610d19565b6118369190614de3565b91505b60008267ffffffffffffffff8111156118555761185461426d565b5b60405190808252806020026020018201604052801561188e57816020015b61187b613ab0565b8152602001906001900390816118735790505b50905060005b83811015611a4d5760006012600083886118ae9190614de3565b8152602001908152602001600020905080604051806101200160405290816000820160009054906101000a900460ff161515151581526020016001820154815260200160028201805461190090614876565b80601f016020809104026020016040519081016040528092919081815260200182805461192c90614876565b80156119795780601f1061194e57610100808354040283529160200191611979565b820191906000526020600020905b81548152906001019060200180831161195c57829003601f168201915b5050505050815260200160038201548152602001600482015481526020016005820160009054906101000a900460ff16151515158152602001600682015481526020016007820160009054906101000a900473ffffffffffffffffffffffffffffffffffffffff1673ffffffffffffffffffffffffffffffffffffffff1673ffffffffffffffffffffffffffffffffffffffff168152602001600882015481525050838381518110611a2e57611a2d614cff565b5b6020026020010181905250508080611a4590614d2e565b915050611894565b508091505092915050565b611a606126d9565b611a6b6003836127cc565b600073ffffffffffffffffffffffffffffffffffffffff168173ffffffffffffffffffffffffffffffffffffffff161415611adb576040517f08c379a0000000000000000000000000000000000000000000000000000000008152600401611ad290614eab565b60405180910390fd5b611ae481612e4a565b5050565b611af06126d1565b73ffffffffffffffffffffffffffffffffffffffff168273ffffffffffffffffffffffffffffffffffffffff161415611b55576040517fb06307db00000000000000000000000000000000000000000000000000000000815260040160405180910390fd5b8060076000611b626126d1565b73ffffffffffffffffffffffffffffffffffffffff1673ffffffffffffffffffffffffffffffffffffffff16815260200190815260200160002060008473ffffffffffffffffffffffffffffffffffffffff1673ffffffffffffffffffffffffffffffffffffffff16815260200190815260200160002060006101000a81548160ff0219169083151502179055508173ffffffffffffffffffffffffffffffffffffffff16611c0f6126d1565b73ffffffffffffffffffffffffffffffffffffffff167f17307eab39ab6107e8899845ad3d59bd9653f200f220920489ca2b5937696c3183604051611c549190613bed565b60405180910390a35050565b6000611c6a6126d9565b600a54905090565b611c7a6126d9565b611c8381613121565b600e8190555050565b611c97848484610d30565b60008373ffffffffffffffffffffffffffffffffffffffff163b14611cf957611cc28484848461314b565b611cf8576040517fd1a57ed600000000000000000000000000000000000000000000000000000000815260040160405180910390fd5b5b50505050565b60026009541415611d45576040517f08c379a0000000000000000000000000000000000000000000000000000000008152600401611d3c906148f4565b60405180910390fd5b60026009819055506008611d5881612757565b611d6182612f69565b611d6c826000612e08565b50600160098190555050565b6060611d8382612672565b611db9576040517fa14c4b5000000000000000000000000000000000000000000000000000000000815260040160405180910390fd5b6000611dc36132ab565b9050600081511415611de45760405180602001604052806000815250611e0f565b80611dee8461333d565b604051602001611dff929190614f07565b6040516020818303038152906040525b915050919050565b8060119080519060200190611e2d929190613a2a565b5050565b611e39613ab0565b60126000838152602001908152602001600020604051806101200160405290816000820160009054906101000a900460ff1615151515815260200160018201548152602001600282018054611e8d90614876565b80601f0160208091040260200160405190810160405280929190818152602001828054611eb990614876565b8015611f065780601f10611edb57610100808354040283529160200191611f06565b820191906000526020600020905b815481529060010190602001808311611ee957829003601f168201915b5050505050815260200160038201548152602001600482015481526020016005820160009054906101000a900460ff16151515158152602001600682015481526020016007820160009054906101000a900473ffffffffffffffffffffffffffffffffffffffff1673ffffffffffffffffffffffffffffffffffffffff1673ffffffffffffffffffffffffffffffffffffffff1681526020016008820154815250509050919050565b60026009541415611ff5576040517f08c379a0000000000000000000000000000000000000000000000000000000008152600401611fec906148f4565b60405180910390fd5b6002600981905550600461200881612757565b6120136001856127cc565b61201c83612f69565b600d54341015612061576040517f08c379a000000000000000000000000000000000000000000000000000000000815260040161205890614f77565b60405180910390fd5b60208251106120a5576040517f08c379a000000000000000000000000000000000000000000000000000000000815260040161209c90614fe3565b60405180910390fd5b816012600085815260200190815260200160002060020190805190602001906120cf929190613a2a565b506120db600d54612825565b506001600981905550505050565b6060601080546120f890614876565b80601f016020809104026020016040519081016040528092919081815260200182805461212490614876565b80156121715780601f1061214657610100808354040283529160200191612171565b820191906000526020600020905b81548152906001019060200180831161215457829003601f168201915b5050505050905090565b6000600760008473ffffffffffffffffffffffffffffffffffffffff1673ffffffffffffffffffffffffffffffffffffffff16815260200190815260200160002060008373ffffffffffffffffffffffffffffffffffffffff1673ffffffffffffffffffffffffffffffffffffffff16815260200190815260200160002060009054906101000a900460ff16905092915050565b60026009541415612255576040517f08c379a000000000000000000000000000000000000000000000000000000000815260040161224c906148f4565b60405180910390fd5b6002600981905550604061226881612757565b6122706126d9565b61227b6003836127cc565b60003373ffffffffffffffffffffffffffffffffffffffff16476040516122a190614ace565b60006040518083038185875af1925050503d80600081146122de576040519150601f19603f3d011682016040523d82523d6000602084013e6122e3565b606091505b5050905080612327576040517f08c379a000000000000000000000000000000000000000000000000000000000815260040161231e9061504f565b60405180910390fd5b5050600160098190555050565b600261233f81612757565b61234a6000856127cc565b6000612354613397565b9050600b5434101561239b576040517f08c379a0000000000000000000000000000000000000000000000000000000008152600401612392906150bb565b60405180910390fd5b602084849050106123e1576040517f08c379a00000000000000000000000000000000000000000000000000000000081526004016123d890614fe3565b60405180910390fd5b6127106123ec610d19565b111561242d576040517f08c379a000000000000000000000000000000000000000000000000000000000815260040161242490615127565b60405180910390fd5b6124383360016133a0565b60405180610120016040528060011515815260200182815260200185858080601f016020809104026020016040519081016040528093929190818152602001838380828437600081840152601f19601f8201169050808301925050505050505081526020016124a56133be565b81526020016124b26133be565b8152602001600015158152602001600081526020013373ffffffffffffffffffffffffffffffffffffffff16815260200160008152506012600083815260200190815260200160002060008201518160000160006101000a81548160ff021916908315150217905550602082015181600101556040820151816002019080519060200190612541929190613a2a565b50606082015181600301556080820151816004015560a08201518160050160006101000a81548160ff02191690831515021790555060c0820151816006015560e08201518160070160006101000a81548173ffffffffffffffffffffffffffffffffffffffff021916908373ffffffffffffffffffffffffffffffffffffffff1602179055506101008201518160080155905050601360003373ffffffffffffffffffffffffffffffffffffffff1673ffffffffffffffffffffffffffffffffffffffff168152602001908152602001600020819080600181540180825580915050600190039060005260206000200160009091909190915055612646600b54612825565b5050505050565b6126556126d9565b50565b6126606126d9565b61266981613121565b600b8190555050565b60008161267d6128ac565b1115801561268c575060005482105b80156126ca575060007c0100000000000000000000000000000000000000000000000000000000600460008581526020019081526020016000205416145b9050919050565b600033905090565b6126e1613411565b73ffffffffffffffffffffffffffffffffffffffff166126ff6115c2565b73ffffffffffffffffffffffffffffffffffffffff1614612755576040517f08c379a000000000000000000000000000000000000000000000000000000000815260040161274c90615193565b60405180910390fd5b565b8081600a541614156127c95761276e600a54613419565b60405160200161277e91906151ff565b6040516020818303038152906040526040517f08c379a00000000000000000000000000000000000000000000000000000000081526004016127c09190613ca1565b60405180910390fd5b50565b80601460008481526020019081526020016000205414612821576040517f08c379a00000000000000000000000000000000000000000000000000000000081526004016128189061526d565b60405180910390fd5b5050565b6000813461283391906149af565b905060008111156128a8573373ffffffffffffffffffffffffffffffffffffffff168160405161286290614ace565b60006040518083038185875af1925050503d806000811461289f576040519150601f19603f3d011682016040523d82523d6000602084013e6128a4565b606091505b5050505b5050565b60006001905090565b60006128c082613053565b90508373ffffffffffffffffffffffffffffffffffffffff168173ffffffffffffffffffffffffffffffffffffffff1614612927576040517fa114810000000000000000000000000000000000000000000000000000000000815260040160405180910390fd5b6000806129338461349f565b9150915061294981876129446126d1565b6134c1565b6129955761295e866129596126d1565b61217b565b612994576040517f59c896be00000000000000000000000000000000000000000000000000000000815260040160405180910390fd5b5b600073ffffffffffffffffffffffffffffffffffffffff168573ffffffffffffffffffffffffffffffffffffffff1614156129fc576040517fea553b3400000000000000000000000000000000000000000000000000000000815260040160405180910390fd5b612a098686866001613505565b8015612a1457600082555b600560008773ffffffffffffffffffffffffffffffffffffffff1673ffffffffffffffffffffffffffffffffffffffff168152602001908152602001600020600081546001900391905081905550600560008673ffffffffffffffffffffffffffffffffffffffff1673ffffffffffffffffffffffffffffffffffffffff1681526020019081526020016000206000815460010191905081905550612ae285612abe88888761350b565b7c020000000000000000000000000000000000000000000000000000000017613533565b600460008681526020019081526020016000208190555060007c020000000000000000000000000000000000000000000000000000000084161415612b6a576000600185019050600060046000838152602001908152602001600020541415612b68576000548114612b67578360046000838152602001908152602001600020819055505b5b505b838573ffffffffffffffffffffffffffffffffffffffff168773ffffffffffffffffffffffffffffffffffffffff167fddf252ad1be2c89b69c2b068fc378daa952ba7f163c4a11628f55a4df523b3ef60405160405180910390a4612bd2868686600161355e565b505050505050565b816012600083815260200190815260200160002060070160006101000a81548173ffffffffffffffffffffffffffffffffffffffff021916908373ffffffffffffffffffffffffffffffffffffffff160217905550601360008473ffffffffffffffffffffffffffffffffffffffff1673ffffffffffffffffffffffffffffffffffffffff1681526020019081526020016000206001601360008673ffffffffffffffffffffffffffffffffffffffff1673ffffffffffffffffffffffffffffffffffffffff16815260200190815260200160002080549050612cbd91906149af565b81548110612cce57612ccd614cff565b5b9060005260206000200154601360008573ffffffffffffffffffffffffffffffffffffffff1673ffffffffffffffffffffffffffffffffffffffff1681526020019081526020016000208281548110612d2a57612d29614cff565b5b9060005260206000200181905550601360008473ffffffffffffffffffffffffffffffffffffffff1673ffffffffffffffffffffffffffffffffffffffff168152602001908152602001600020805480612d8757612d8661528d565b5b60019003818190600052602060002001600090559055601360008373ffffffffffffffffffffffffffffffffffffffff1673ffffffffffffffffffffffffffffffffffffffff168152602001908152602001600020819080600181540180825580915050600190039060005260206000200160009091909190915055505050565b600060126000848152602001908152602001600020905060008160050160006101000a81548160ff021916908315150217905550818160060181905550505050565b6000600860009054906101000a900473ffffffffffffffffffffffffffffffffffffffff16905081600860006101000a81548173ffffffffffffffffffffffffffffffffffffffff021916908373ffffffffffffffffffffffffffffffffffffffff1602179055508173ffffffffffffffffffffffffffffffffffffffff168173ffffffffffffffffffffffffffffffffffffffff167f8be0079c531659141344cd1fd0a4f28419497f9722a3daafe3b4186f6b6457e060405160405180910390a35050565b6000811080612f1f5750606481115b15612f5f576040517f08c379a0000000000000000000000000000000000000000000000000000000008152600401612f5690615308565b60405180910390fd5b80600f8190555050565b600015156012600083815260200190815260200160002060000160009054906101000a900460ff1615151415612fd4576040517f08c379a0000000000000000000000000000000000000000000000000000000008152600401612fcb90615374565b60405180910390fd5b6000612fdf82610ff8565b90508073ffffffffffffffffffffffffffffffffffffffff163373ffffffffffffffffffffffffffffffffffffffff161461304f576040517f08c379a0000000000000000000000000000000000000000000000000000000008152600401613046906153e0565b60405180910390fd5b5050565b600080829050806130626128ac565b116130ea576000548110156130e95760006004600083815260200190815260200160002054905060007c0100000000000000000000000000000000000000000000000000000000821614156130e7575b60008114156130dd5760046000836001900393508381526020019081526020016000205490506130b2565b809250505061311c565b505b5b6040517fdf2d9b4200000000000000000000000000000000000000000000000000000000815260040160405180910390fd5b919050565b60006103e882670de0b6b3a764000061313a91906149e3565b6131449190614a6c565b9050919050565b60008373ffffffffffffffffffffffffffffffffffffffff1663150b7a026131716126d1565b8786866040518563ffffffff1660e01b81526004016131939493929190615455565b602060405180830381600087803b1580156131ad57600080fd5b505af19250505080156131de57506040513d601f19601f820116820180604052508101906131db91906154b6565b60015b613258573d806000811461320e576040519150601f19603f3d011682016040523d82523d6000602084013e613213565b606091505b50600081511415613250576040517fd1a57ed600000000000000000000000000000000000000000000000000000000815260040160405180910390fd5b805181602001fd5b63150b7a0260e01b7bffffffffffffffffffffffffffffffffffffffffffffffffffffffff1916817bffffffffffffffffffffffffffffffffffffffffffffffffffffffff191614915050949350505050565b6060601180546132ba90614876565b80601f01602080910402602001604051908101604052809291908181526020018280546132e690614876565b80156133335780601f1061330857610100808354040283529160200191613333565b820191906000526020600020905b81548152906001019060200180831161331657829003601f168201915b5050505050905090565b60606080604051019050806040528082600183039250600a81066030018353600a810490505b801561338357600183039250600a81066030018353600a81049050613363565b508181036020830392508083525050919050565b60008054905090565b6133ba828260405180602001604052806000815250613564565b5050565b600042436080436133cf91906154e3565b4218610100436133df91906154e3565b4217336040516020016133f695949392919061557d565b60405160208183030381529060405280519060200120905090565b600033905090565b60606000821415613461576040518060400160405280600481526020017f3078303000000000000000000000000000000000000000000000000000000000815250905061349a565b600082905060005b6000821461348b57808061347c90614d2e565b915050600882901c9150613469565b6134958482613601565b925050505b919050565b6000806000600690508360005280602052604060002092508254915050915091565b600073ffffffffffffffffffffffffffffffffffffffff8316925073ffffffffffffffffffffffffffffffffffffffff821691508382148383141790509392505050565b50505050565b60008060e883901c905060e861352286868461383d565b62ffffff16901b9150509392505050565b600073ffffffffffffffffffffffffffffffffffffffff83169250814260a01b178317905092915050565b50505050565b61356e8383613846565b60008373ffffffffffffffffffffffffffffffffffffffff163b146135fc57600080549050600083820390505b6135ae600086838060010194508661314b565b6135e4576040517fd1a57ed600000000000000000000000000000000000000000000000000000000815260040160405180910390fd5b81811061359b5781600054146135f957600080fd5b50505b505050565b60606000600283600261361491906149e3565b61361e9190614de3565b67ffffffffffffffff8111156136375761363661426d565b5b6040519080825280601f01601f1916602001820160405280156136695781602001600182028036833780820191505090505b5090507f3000000000000000000000000000000000000000000000000000000000000000816000815181106136a1576136a0614cff565b5b60200101907effffffffffffffffffffffffffffffffffffffffffffffffffffffffffffff1916908160001a9053507f78000000000000000000000000000000000000000000000000000000000000008160018151811061370557613704614cff565b5b60200101907effffffffffffffffffffffffffffffffffffffffffffffffffffffffffffff1916908160001a9053506000600184600261374591906149e3565b61374f9190614de3565b90505b60018111156137ef577f3031323334353637383961626364656600000000000000000000000000000000600f86166010811061379157613790614cff565b5b1a60f81b8282815181106137a8576137a7614cff565b5b60200101907effffffffffffffffffffffffffffffffffffffffffffffffffffffffffffff1916908160001a905350600485901c9450806137e8906155dc565b9050613752565b5060008414613833576040517f08c379a000000000000000000000000000000000000000000000000000000000815260040161382a90615652565b60405180910390fd5b8091505092915050565b60009392505050565b600080549050600073ffffffffffffffffffffffffffffffffffffffff168373ffffffffffffffffffffffffffffffffffffffff1614156138b3576040517f2e07630000000000000000000000000000000000000000000000000000000000815260040160405180910390fd5b60008214156138ee576040517fb562e8dd00000000000000000000000000000000000000000000000000000000815260040160405180910390fd5b6138fb6000848385613505565b600160406001901b178202600560008573ffffffffffffffffffffffffffffffffffffffff1673ffffffffffffffffffffffffffffffffffffffff1681526020019081526020016000206000828254019250508190555061397283613963600086600061350b565b61396c85613a1a565b17613533565b60046000838152602001908152602001600020819055506000819050600083830190505b818060010192508573ffffffffffffffffffffffffffffffffffffffff16600073ffffffffffffffffffffffffffffffffffffffff167fddf252ad1be2c89b69c2b068fc378daa952ba7f163c4a11628f55a4df523b3ef60405160405180910390a480821061399657806000819055505050613a15600084838561355e565b505050565b60006001821460e11b9050919050565b828054613a3690614876565b90600052602060002090601f016020900481019282613a585760008555613a9f565b82601f10613a7157805160ff1916838001178555613a9f565b82800160010185558215613a9f579182015b82811115613a9e578251825591602001919060010190613a83565b5b509050613aac9190613b1c565b5090565b6040518061012001604052806000151581526020016000815260200160608152602001600080191681526020016000801916815260200160001515815260200160008152602001600073ffffffffffffffffffffffffffffffffffffffff168152602001600081525090565b5b80821115613b35576000816000905550600101613b1d565b5090565b6000604051905090565b600080fd5b600080fd5b60007fffffffff0000000000000000000000000000000000000000000000000000000082169050919050565b613b8281613b4d565b8114613b8d57600080fd5b50565b600081359050613b9f81613b79565b92915050565b600060208284031215613bbb57613bba613b43565b5b6000613bc984828501613b90565b91505092915050565b60008115159050919050565b613be781613bd2565b82525050565b6000602082019050613c026000830184613bde565b92915050565b600081519050919050565b600082825260208201905092915050565b60005b83811015613c42578082015181840152602081019050613c27565b83811115613c51576000848401525b50505050565b6000601f19601f8301169050919050565b6000613c7382613c08565b613c7d8185613c13565b9350613c8d818560208601613c24565b613c9681613c57565b840191505092915050565b60006020820190508181036000830152613cbb8184613c68565b905092915050565b6000819050919050565b613cd681613cc3565b8114613ce157600080fd5b50565b600081359050613cf381613ccd565b92915050565b600060208284031215613d0f57613d0e613b43565b5b6000613d1d84828501613ce4565b91505092915050565b600073ffffffffffffffffffffffffffffffffffffffff82169050919050565b6000613d5182613d26565b9050919050565b613d6181613d46565b82525050565b6000602082019050613d7c6000830184613d58565b92915050565b613d8b81613d46565b8114613d9657600080fd5b50565b600081359050613da881613d82565b92915050565b60008060408385031215613dc557613dc4613b43565b5b6000613dd385828601613d99565b9250506020613de485828601613ce4565b9150509250929050565b613df781613cc3565b82525050565b6000602082019050613e126000830184613dee565b92915050565b6000819050919050565b613e2b81613e18565b8114613e3657600080fd5b50565b600081359050613e4881613e22565b92915050565b600080600060608486031215613e6757613e66613b43565b5b6000613e7586828701613e39565b9350506020613e8686828701613ce4565b9250506040613e9786828701613ce4565b9150509250925092565b600080600060608486031215613eba57613eb9613b43565b5b6000613ec886828701613d99565b9350506020613ed986828701613d99565b9250506040613eea86828701613ce4565b9150509250925092565b600060208284031215613f0a57613f09613b43565b5b6000613f1884828501613e39565b91505092915050565b60008060408385031215613f3857613f37613b43565b5b6000613f4685828601613e39565b9250506020613f5785828601613ce4565b9150509250929050565b600060208284031215613f7757613f76613b43565b5b6000613f8584828501613d99565b91505092915050565b600080600060608486031215613fa757613fa6613b43565b5b6000613fb586828701613e39565b9350506020613fc686828701613ce4565b9250506040613fd786828701613e39565b9150509250925092565b600080600060608486031215613ffa57613ff9613b43565b5b600061400886828701613d99565b935050602061401986828701613ce4565b925050604061402a86828701613ce4565b9150509250925092565b600081519050919050565b600082825260208201905092915050565b6000819050602082019050919050565b61406981613bd2565b82525050565b61407881613cc3565b82525050565b600082825260208201905092915050565b600061409a82613c08565b6140a4818561407e565b93506140b4818560208601613c24565b6140bd81613c57565b840191505092915050565b6140d181613e18565b82525050565b6140e081613d46565b82525050565b6000610120830160008301516140ff6000860182614060565b506020830151614112602086018261406f565b506040830151848203604086015261412a828261408f565b915050606083015161413f60608601826140c8565b50608083015161415260808601826140c8565b5060a083015161416560a0860182614060565b5060c083015161417860c086018261406f565b5060e083015161418b60e08601826140d7565b506101008301516141a061010086018261406f565b508091505092915050565b60006141b783836140e6565b905092915050565b6000602082019050919050565b60006141d782614034565b6141e1818561403f565b9350836020820285016141f385614050565b8060005b8581101561422f578484038952815161421085826141ab565b945061421b836141bf565b925060208a019950506001810190506141f7565b50829750879550505050505092915050565b6000602082019050818103600083015261425b81846141cc565b905092915050565b600080fd5b600080fd5b7f4e487b7100000000000000000000000000000000000000000000000000000000600052604160045260246000fd5b6142a582613c57565b810181811067ffffffffffffffff821117156142c4576142c361426d565b5b80604052505050565b60006142d7613b39565b90506142e3828261429c565b919050565b600067ffffffffffffffff8211156143035761430261426d565b5b61430c82613c57565b9050602081019050919050565b82818337600083830152505050565b600061433b614336846142e8565b6142cd565b90508281526020810184848401111561435757614356614268565b5b614362848285614319565b509392505050565b600082601f83011261437f5761437e614263565b5b813561438f848260208601614328565b91505092915050565b6000602082840312156143ae576143ad613b43565b5b600082013567ffffffffffffffff8111156143cc576143cb613b48565b5b6143d88482850161436a565b91505092915050565b600080604083850312156143f8576143f7613b43565b5b600061440685828601613ce4565b925050602061441785828601613ce4565b9150509250929050565b6000806040838503121561443857614437613b43565b5b600061444685828601613e39565b925050602061445785828601613d99565b9150509250929050565b61446a81613bd2565b811461447557600080fd5b50565b60008135905061448781614461565b92915050565b600080604083850312156144a4576144a3613b43565b5b60006144b285828601613d99565b92505060206144c385828601614478565b9150509250929050565b600067ffffffffffffffff8211156144e8576144e761426d565b5b6144f182613c57565b9050602081019050919050565b600061451161450c846144cd565b6142cd565b90508281526020810184848401111561452d5761452c614268565b5b614538848285614319565b509392505050565b600082601f83011261455557614554614263565b5b81356145658482602086016144fe565b91505092915050565b6000806000806080858703121561458857614587613b43565b5b600061459687828801613d99565b94505060206145a787828801613d99565b93505060406145b887828801613ce4565b925050606085013567ffffffffffffffff8111156145d9576145d8613b48565b5b6145e587828801614540565b91505092959194509250565b60006101208301600083015161460a6000860182614060565b50602083015161461d602086018261406f565b5060408301518482036040860152614635828261408f565b915050606083015161464a60608601826140c8565b50608083015161465d60808601826140c8565b5060a083015161467060a0860182614060565b5060c083015161468360c086018261406f565b5060e083015161469660e08601826140d7565b506101008301516146ab61010086018261406f565b508091505092915050565b600060208201905081810360008301526146d081846145f1565b905092915050565b6000806000606084860312156146f1576146f0613b43565b5b60006146ff86828701613e39565b935050602061471086828701613ce4565b925050604084013567ffffffffffffffff81111561473157614730613b48565b5b61473d8682870161436a565b9150509250925092565b6000806040838503121561475e5761475d613b43565b5b600061476c85828601613d99565b925050602061477d85828601613d99565b9150509250929050565b600080fd5b600080fd5b60008083601f8401126147a7576147a6614263565b5b8235905067ffffffffffffffff8111156147c4576147c3614787565b5b6020830191508360018202830111156147e0576147df61478c565b5b9250929050565b600080600060408486031215614800576147ff613b43565b5b600061480e86828701613e39565b935050602084013567ffffffffffffffff81111561482f5761482e613b48565b5b61483b86828701614791565b92509250509250925092565b7f4e487b7100000000000000000000000000000000000000000000000000000000600052602260045260246000fd5b6000600282049050600182168061488e57607f821691505b602082108114156148a2576148a1614847565b5b50919050565b7f5265656e7472616e637947756172643a207265656e7472616e742063616c6c00600082015250565b60006148de601f83613c13565b91506148e9826148a8565b602082019050919050565b6000602082019050818103600083015261490d816148d1565b9050919050565b7f414348494556454d454e54535f5041594d454e545f544f4f5f4c4f5700000000600082015250565b600061494a601c83613c13565b915061495582614914565b602082019050919050565b600060208201905081810360008301526149798161493d565b9050919050565b7f4e487b7100000000000000000000000000000000000000000000000000000000600052601160045260246000fd5b60006149ba82613cc3565b91506149c583613cc3565b9250828210156149d8576149d7614980565b5b828203905092915050565b60006149ee82613cc3565b91506149f983613cc3565b9250817fffffffffffffffffffffffffffffffffffffffffffffffffffffffffffffffff0483118215151615614a3257614a31614980565b5b828202905092915050565b7f4e487b7100000000000000000000000000000000000000000000000000000000600052601260045260246000fd5b6000614a7782613cc3565b9150614a8283613cc3565b925082614a9257614a91614a3d565b5b828204905092915050565b600081905092915050565b50565b6000614ab8600083614a9d565b9150614ac382614aa8565b600082019050919050565b6000614ad982614aab565b9150819050919050565b7f4255595f5452414e534645525f4641494c454400000000000000000000000000600082015250565b6000614b19601383613c13565b9150614b2482614ae3565b602082019050919050565b60006020820190508181036000830152614b4881614b0c565b9050919050565b7f494e56414c49445f4143434553535f504152414d455445520000000000000000600082015250565b6000614b85601883613c13565b9150614b9082614b4f565b602082019050919050565b60006020820190508181036000830152614bb481614b78565b9050919050565b7f544f4b454e5f4f574e45525f444f45534e545f45584953540000000000000000600082015250565b6000614bf1601883613c13565b9150614bfc82614bbb565b602082019050919050565b60006020820190508181036000830152614c2081614be4565b9050919050565b7f53544152545f494e4445585f4f55545f4f465f52414e47450000000000000000600082015250565b6000614c5d601883613c13565b9150614c6882614c27565b602082019050919050565b60006020820190508181036000830152614c8c81614c50565b9050919050565b7f544f54414c5f4f55545f4f465f52414e47450000000000000000000000000000600082015250565b6000614cc9601283613c13565b9150614cd482614c93565b602082019050919050565b60006020820190508181036000830152614cf881614cbc565b9050919050565b7f4e487b7100000000000000000000000000000000000000000000000000000000600052603260045260246000fd5b6000614d3982613cc3565b91507fffffffffffffffffffffffffffffffffffffffffffffffffffffffffffffffff821415614d6c57614d6b614980565b5b600182019050919050565b7f4c495354494e475f5041594d454e545f544f4f5f4c4f57000000000000000000600082015250565b6000614dad601783613c13565b9150614db882614d77565b602082019050919050565b60006020820190508181036000830152614ddc81614da0565b9050919050565b6000614dee82613cc3565b9150614df983613cc3565b9250827fffffffffffffffffffffffffffffffffffffffffffffffffffffffffffffffff03821115614e2e57614e2d614980565b5b828201905092915050565b7f4f776e61626c653a206e6577206f776e657220697320746865207a65726f206160008201527f6464726573730000000000000000000000000000000000000000000000000000602082015250565b6000614e95602683613c13565b9150614ea082614e39565b604082019050919050565b60006020820190508181036000830152614ec481614e88565b9050919050565b600081905092915050565b6000614ee182613c08565b614eeb8185614ecb565b9350614efb818560208601613c24565b80840191505092915050565b6000614f138285614ed6565b9150614f1f8284614ed6565b91508190509392505050565b7f4348414e47455f4e414d455f5041594d454e545f544f4f5f4c4f570000000000600082015250565b6000614f61601b83613c13565b9150614f6c82614f2b565b602082019050919050565b60006020820190508181036000830152614f9081614f54565b9050919050565b7f4e414d455f544f4f5f4c4f4e4700000000000000000000000000000000000000600082015250565b6000614fcd600d83613c13565b9150614fd882614f97565b602082019050919050565b60006020820190508181036000830152614ffc81614fc0565b9050919050565b7f54524541535552595f5452414e534645525f4641494c45440000000000000000600082015250565b6000615039601883613c13565b915061504482615003565b602082019050919050565b600060208201905081810360008301526150688161502c565b9050919050565b7f4e4f545f454e4f5547485f455448000000000000000000000000000000000000600082015250565b60006150a5600e83613c13565b91506150b08261506f565b602082019050919050565b600060208201905081810360008301526150d481615098565b9050919050565b7f4d494e5445445f4f555400000000000000000000000000000000000000000000600082015250565b6000615111600a83613c13565b915061511c826150db565b602082019050919050565b6000602082019050818103600083015261514081615104565b9050919050565b7f4f776e61626c653a2063616c6c6572206973206e6f7420746865206f776e6572600082015250565b600061517d602083613c13565b915061518882615147565b602082019050919050565b600060208201905081810360008301526151ac81615170565b9050919050565b7f46554e4354494f4e5f44495341424c45445f42595f4d4f44455f000000000000600082015250565b60006151e9601a83614ecb565b91506151f4826151b3565b601a82019050919050565b600061520a826151dc565b91506152168284614ed6565b915081905092915050565b7f4143434553534b45595f494e56414c4944000000000000000000000000000000600082015250565b6000615257601183613c13565b915061526282615221565b602082019050919050565b600060208201905081810360008301526152868161524a565b9050919050565b7f4e487b7100000000000000000000000000000000000000000000000000000000600052603160045260246000fd5b7f524f59414c54595f4f55545f4f465f52414e4745000000000000000000000000600082015250565b60006152f2601483613c13565b91506152fd826152bc565b602082019050919050565b60006020820190508181036000830152615321816152e5565b9050919050565b7f544f4b454e5f444f45535f4e4f545f4558495354000000000000000000000000600082015250565b600061535e601483613c13565b915061536982615328565b602082019050919050565b6000602082019050818103600083015261538d81615351565b9050919050565b7f53454e4445525f4e4f545f544f4b454e5f4f574e455200000000000000000000600082015250565b60006153ca601683613c13565b91506153d582615394565b602082019050919050565b600060208201905081810360008301526153f9816153bd565b9050919050565b600081519050919050565b600082825260208201905092915050565b600061542782615400565b615431818561540b565b9350615441818560208601613c24565b61544a81613c57565b840191505092915050565b600060808201905061546a6000830187613d58565b6154776020830186613d58565b6154846040830185613dee565b8181036060830152615496818461541c565b905095945050505050565b6000815190506154b081613b79565b92915050565b6000602082840312156154cc576154cb613b43565b5b60006154da848285016154a1565b91505092915050565b60006154ee82613cc3565b91506154f983613cc3565b92508261550957615508614a3d565b5b828206905092915050565b6000819050919050565b61552f61552a82613cc3565b615514565b82525050565b60008160601b9050919050565b600061554d82615535565b9050919050565b600061555f82615542565b9050919050565b61557761557282613d46565b615554565b82525050565b6000615589828861551e565b602082019150615599828761551e565b6020820191506155a9828661551e565b6020820191506155b9828561551e565b6020820191506155c98284615566565b6014820191508190509695505050505050565b60006155e782613cc3565b915060008214156155fb576155fa614980565b5b600182039050919050565b7f537472696e67733a20686578206c656e67746820696e73756666696369656e74600082015250565b600061563c602083613c13565b915061564782615606565b602082019050919050565b6000602082019050818103600083015261566b8161562f565b905091905056fea2646970667358221220fa75662841c7b52945a644ab4cadeb25b997dd5308b5e8a65540aa64cc30ce1a64736f6c63430008090033",
  "linkReferences": {},
  "deployedLinkReferences": {}
}