{
  "_format": "hh-sol-artifact-1",
  "contractName": "BlueDream",
  "sourceName": "contracts/Lemuria.sol",
  "abi": [
    {
      "inputs": [],
      "stateMutability": "nonpayable",
      "type": "constructor"
    },
    {
      "inputs": [],
      "name": "ApprovalCallerNotOwnerNorApproved",
      "type": "error"
    },
    {
      "inputs": [],
      "name": "ApprovalQueryForNonexistentToken",
      "type": "error"
    },
    {
      "inputs": [],
      "name": "ApproveToCaller",
      "type": "error"
    },
    {
      "inputs": [],
      "name": "BalanceQueryForZeroAddress",
      "type": "error"
    },
    {
      "inputs": [],
      "name": "MintERC2309QuantityExceedsLimit",
      "type": "error"
    },
    {
      "inputs": [],
      "name": "MintToZeroAddress",
      "type": "error"
    },
    {
      "inputs": [],
      "name": "MintZeroQuantity",
      "type": "error"
    },
    {
      "inputs": [],
      "name": "OwnerQueryForNonexistentToken",
      "type": "error"
    },
    {
      "inputs": [],
      "name": "OwnershipNotInitializedForExtraData",
      "type": "error"
    },
    {
      "inputs": [],
      "name": "TransferCallerNotOwnerNorApproved",
      "type": "error"
    },
    {
      "inputs": [],
      "name": "TransferFromIncorrectOwner",
      "type": "error"
    },
    {
      "inputs": [],
      "name": "TransferToNonERC721ReceiverImplementer",
      "type": "error"
    },
    {
      "inputs": [],
      "name": "TransferToZeroAddress",
      "type": "error"
    },
    {
      "inputs": [],
      "name": "URIQueryForNonexistentToken",
      "type": "error"
    },
    {
      "anonymous": false,
      "inputs": [
        {
          "indexed": true,
          "internalType": "address",
          "name": "owner",
          "type": "address"
        },
        {
          "indexed": true,
          "internalType": "address",
          "name": "approved",
          "type": "address"
        },
        {
          "indexed": true,
          "internalType": "uint256",
          "name": "tokenId",
          "type": "uint256"
        }
      ],
      "name": "Approval",
      "type": "event"
    },
    {
      "anonymous": false,
      "inputs": [
        {
          "indexed": true,
          "internalType": "address",
          "name": "owner",
          "type": "address"
        },
        {
          "indexed": true,
          "internalType": "address",
          "name": "operator",
          "type": "address"
        },
        {
          "indexed": false,
          "internalType": "bool",
          "name": "approved",
          "type": "bool"
        }
      ],
      "name": "ApprovalForAll",
      "type": "event"
    },
    {
      "anonymous": false,
      "inputs": [
        {
          "indexed": true,
          "internalType": "uint256",
          "name": "fromTokenId",
          "type": "uint256"
        },
        {
          "indexed": false,
          "internalType": "uint256",
          "name": "toTokenId",
          "type": "uint256"
        },
        {
          "indexed": true,
          "internalType": "address",
          "name": "from",
          "type": "address"
        },
        {
          "indexed": true,
          "internalType": "address",
          "name": "to",
          "type": "address"
        }
      ],
      "name": "ConsecutiveTransfer",
      "type": "event"
    },
    {
      "anonymous": false,
      "inputs": [
        {
          "indexed": true,
          "internalType": "address",
          "name": "previousOwner",
          "type": "address"
        },
        {
          "indexed": true,
          "internalType": "address",
          "name": "newOwner",
          "type": "address"
        }
      ],
      "name": "OwnershipTransferred",
      "type": "event"
    },
    {
      "anonymous": false,
      "inputs": [
        {
          "indexed": true,
          "internalType": "address",
          "name": "from",
          "type": "address"
        },
        {
          "indexed": true,
          "internalType": "address",
          "name": "to",
          "type": "address"
        },
        {
          "indexed": true,
          "internalType": "uint256",
          "name": "tokenId",
          "type": "uint256"
        }
      ],
      "name": "Transfer",
      "type": "event"
    },
    {
      "inputs": [
        {
          "internalType": "address",
          "name": "to",
          "type": "address"
        },
        {
          "internalType": "uint256",
          "name": "tokenId",
          "type": "uint256"
        }
      ],
      "name": "approve",
      "outputs": [],
      "stateMutability": "nonpayable",
      "type": "function"
    },
    {
      "inputs": [
        {
          "internalType": "address",
          "name": "owner",
          "type": "address"
        }
      ],
      "name": "balanceOf",
      "outputs": [
        {
          "internalType": "uint256",
          "name": "",
          "type": "uint256"
        }
      ],
      "stateMutability": "view",
      "type": "function"
    },
    {
      "inputs": [
        {
          "internalType": "bytes32",
          "name": "providedKey",
          "type": "bytes32"
        },
        {
          "internalType": "uint256",
          "name": "tokenId",
          "type": "uint256"
        }
      ],
      "name": "buyToken",
      "outputs": [],
      "stateMutability": "payable",
      "type": "function"
    },
    {
      "inputs": [
        {
          "internalType": "bytes32",
          "name": "providedKey",
          "type": "bytes32"
        },
        {
          "internalType": "uint256",
          "name": "tokenId",
          "type": "uint256"
        },
        {
          "internalType": "string",
          "name": "name",
          "type": "string"
        }
      ],
      "name": "changeName",
      "outputs": [],
      "stateMutability": "payable",
      "type": "function"
    },
    {
      "inputs": [
        {
          "internalType": "uint256",
          "name": "tokenId",
          "type": "uint256"
        }
      ],
      "name": "delistToken",
      "outputs": [],
      "stateMutability": "nonpayable",
      "type": "function"
    },
    {
      "inputs": [
        {
          "internalType": "uint256",
          "name": "startIndex",
          "type": "uint256"
        },
        {
          "internalType": "uint256",
          "name": "total",
          "type": "uint256"
        }
      ],
      "name": "getAllTokens",
      "outputs": [
        {
          "components": [
            {
              "internalType": "bool",
              "name": "initialized",
              "type": "bool"
            },
            {
              "internalType": "uint256",
              "name": "id",
              "type": "uint256"
            },
            {
              "internalType": "string",
              "name": "name",
              "type": "string"
            },
            {
              "internalType": "bytes32",
              "name": "dna",
              "type": "bytes32"
            },
            {
              "internalType": "bytes32",
              "name": "attributes",
              "type": "bytes32"
            },
            {
              "internalType": "bool",
              "name": "listed",
              "type": "bool"
            },
            {
              "internalType": "uint256",
              "name": "price",
              "type": "uint256"
            },
            {
              "internalType": "address",
              "name": "owner",
              "type": "address"
            },
            {
              "internalType": "uint256",
              "name": "achievements",
              "type": "uint256"
            }
          ],
          "internalType": "struct BlueDream.t_token[]",
          "name": "",
          "type": "tuple[]"
        }
      ],
      "stateMutability": "view",
      "type": "function"
    },
    {
      "inputs": [
        {
          "internalType": "uint256",
          "name": "tokenId",
          "type": "uint256"
        }
      ],
      "name": "getApproved",
      "outputs": [
        {
          "internalType": "address",
          "name": "",
          "type": "address"
        }
      ],
      "stateMutability": "view",
      "type": "function"
    },
    {
      "inputs": [],
      "name": "getContractMode",
      "outputs": [
        {
          "internalType": "uint256",
          "name": "",
          "type": "uint256"
        }
      ],
      "stateMutability": "view",
      "type": "function"
    },
    {
      "inputs": [
        {
          "internalType": "uint256",
          "name": "id",
          "type": "uint256"
        }
      ],
      "name": "getToken",
      "outputs": [
        {
          "components": [
            {
              "internalType": "bool",
              "name": "initialized",
              "type": "bool"
            },
            {
              "internalType": "uint256",
              "name": "id",
              "type": "uint256"
            },
            {
              "internalType": "string",
              "name": "name",
              "type": "string"
            },
            {
              "internalType": "bytes32",
              "name": "dna",
              "type": "bytes32"
            },
            {
              "internalType": "bytes32",
              "name": "attributes",
              "type": "bytes32"
            },
            {
              "internalType": "bool",
              "name": "listed",
              "type": "bool"
            },
            {
              "internalType": "uint256",
              "name": "price",
              "type": "uint256"
            },
            {
              "internalType": "address",
              "name": "owner",
              "type": "address"
            },
            {
              "internalType": "uint256",
              "name": "achievements",
              "type": "uint256"
            }
          ],
          "internalType": "struct BlueDream.t_token",
          "name": "",
          "type": "tuple"
        }
      ],
      "stateMutability": "view",
      "type": "function"
    },
    {
      "inputs": [
        {
          "internalType": "address",
          "name": "owner",
          "type": "address"
        },
        {
          "internalType": "uint256",
          "name": "startIndex",
          "type": "uint256"
        },
        {
          "internalType": "uint256",
          "name": "total",
          "type": "uint256"
        }
      ],
      "name": "getTokensOfOwner",
      "outputs": [
        {
          "components": [
            {
              "internalType": "bool",
              "name": "initialized",
              "type": "bool"
            },
            {
              "internalType": "uint256",
              "name": "id",
              "type": "uint256"
            },
            {
              "internalType": "string",
              "name": "name",
              "type": "string"
            },
            {
              "internalType": "bytes32",
              "name": "dna",
              "type": "bytes32"
            },
            {
              "internalType": "bytes32",
              "name": "attributes",
              "type": "bytes32"
            },
            {
              "internalType": "bool",
              "name": "listed",
              "type": "bool"
            },
            {
              "internalType": "uint256",
              "name": "price",
              "type": "uint256"
            },
            {
              "internalType": "address",
              "name": "owner",
              "type": "address"
            },
            {
              "internalType": "uint256",
              "name": "achievements",
              "type": "uint256"
            }
          ],
          "internalType": "struct BlueDream.t_token[]",
          "name": "",
          "type": "tuple[]"
        }
      ],
      "stateMutability": "view",
      "type": "function"
    },
    {
      "inputs": [
        {
          "internalType": "bytes32",
          "name": "providedKey",
          "type": "bytes32"
        },
        {
          "internalType": "address",
          "name": "newOwner",
          "type": "address"
        }
      ],
      "name": "giveKeysTo",
      "outputs": [],
      "stateMutability": "nonpayable",
      "type": "function"
    },
    {
      "inputs": [
        {
          "internalType": "address",
          "name": "owner",
          "type": "address"
        },
        {
          "internalType": "address",
          "name": "operator",
          "type": "address"
        }
      ],
      "name": "isApprovedForAll",
      "outputs": [
        {
          "internalType": "bool",
          "name": "",
          "type": "bool"
        }
      ],
      "stateMutability": "view",
      "type": "function"
    },
    {
      "inputs": [
        {
          "internalType": "bytes32",
          "name": "providedKey",
          "type": "bytes32"
        },
        {
          "internalType": "uint256",
          "name": "tokenId",
          "type": "uint256"
        },
        {
          "internalType": "uint256",
          "name": "price",
          "type": "uint256"
        }
      ],
      "name": "listToken",
      "outputs": [],
      "stateMutability": "payable",
      "type": "function"
    },
    {
      "inputs": [
        {
          "internalType": "bytes32",
          "name": "providedKey",
          "type": "bytes32"
        },
        {
          "internalType": "string",
          "name": "name",
          "type": "string"
        }
      ],
      "name": "mint",
      "outputs": [],
      "stateMutability": "payable",
      "type": "function"
    },
    {
      "inputs": [],
      "name": "name",
      "outputs": [
        {
          "internalType": "string",
          "name": "",
          "type": "string"
        }
      ],
      "stateMutability": "view",
      "type": "function"
    },
    {
      "inputs": [],
      "name": "owner",
      "outputs": [
        {
          "internalType": "address",
          "name": "",
          "type": "address"
        }
      ],
      "stateMutability": "view",
      "type": "function"
    },
    {
      "inputs": [
        {
          "internalType": "uint256",
          "name": "tokenId",
          "type": "uint256"
        }
      ],
      "name": "ownerOf",
      "outputs": [
        {
          "internalType": "address",
          "name": "",
          "type": "address"
        }
      ],
      "stateMutability": "view",
      "type": "function"
    },
    {
      "inputs": [],
      "name": "renounceOwnership",
      "outputs": [],
      "stateMutability": "nonpayable",
      "type": "function"
    },
    {
      "inputs": [
        {
          "internalType": "address",
          "name": "from",
          "type": "address"
        },
        {
          "internalType": "address",
          "name": "to",
          "type": "address"
        },
        {
          "internalType": "uint256",
          "name": "tokenId",
          "type": "uint256"
        }
      ],
      "name": "safeTransferFrom",
      "outputs": [],
      "stateMutability": "nonpayable",
      "type": "function"
    },
    {
      "inputs": [
        {
          "internalType": "address",
          "name": "from",
          "type": "address"
        },
        {
          "internalType": "address",
          "name": "to",
          "type": "address"
        },
        {
          "internalType": "uint256",
          "name": "tokenId",
          "type": "uint256"
        },
        {
          "internalType": "bytes",
          "name": "_data",
          "type": "bytes"
        }
      ],
      "name": "safeTransferFrom",
      "outputs": [],
      "stateMutability": "nonpayable",
      "type": "function"
    },
    {
      "inputs": [
        {
          "internalType": "bytes32",
          "name": "providedKey",
          "type": "bytes32"
        },
        {
          "internalType": "uint256",
          "name": "access",
          "type": "uint256"
        },
        {
          "internalType": "bytes32",
          "name": "key",
          "type": "bytes32"
        }
      ],
      "name": "setAccessKey",
      "outputs": [],
      "stateMutability": "nonpayable",
      "type": "function"
    },
    {
      "inputs": [
        {
          "internalType": "uint256",
          "name": "price",
          "type": "uint256"
        }
      ],
      "name": "setAchievementsPrice",
      "outputs": [],
      "stateMutability": "nonpayable",
      "type": "function"
    },
    {
      "inputs": [
        {
          "internalType": "address",
          "name": "operator",
          "type": "address"
        },
        {
          "internalType": "bool",
          "name": "approved",
          "type": "bool"
        }
      ],
      "name": "setApprovalForAll",
      "outputs": [],
      "stateMutability": "nonpayable",
      "type": "function"
    },
    {
      "inputs": [
        {
          "internalType": "bytes32",
          "name": "providedKey",
          "type": "bytes32"
        },
        {
          "internalType": "uint256",
          "name": "_mode",
          "type": "uint256"
        }
      ],
      "name": "setContractMode",
      "outputs": [],
      "stateMutability": "nonpayable",
      "type": "function"
    },
    {
      "inputs": [
        {
          "internalType": "uint256",
          "name": "price",
          "type": "uint256"
        }
      ],
      "name": "setListingPrice",
      "outputs": [],
      "stateMutability": "nonpayable",
      "type": "function"
    },
    {
      "inputs": [
        {
          "internalType": "uint256",
          "name": "price",
          "type": "uint256"
        }
      ],
      "name": "setMintPrice",
      "outputs": [],
      "stateMutability": "nonpayable",
      "type": "function"
    },
    {
      "inputs": [
        {
          "internalType": "uint256",
          "name": "price",
          "type": "uint256"
        }
      ],
      "name": "setNameChangePrice",
      "outputs": [],
      "stateMutability": "nonpayable",
      "type": "function"
    },
    {
      "inputs": [
        {
          "internalType": "uint256",
          "name": "percentage",
          "type": "uint256"
        }
      ],
      "name": "setRoyalty",
      "outputs": [],
      "stateMutability": "nonpayable",
      "type": "function"
    },
    {
      "inputs": [
        {
          "internalType": "bytes32",
          "name": "providedKey",
          "type": "bytes32"
        },
        {
          "internalType": "uint256",
          "name": "tokenId",
          "type": "uint256"
        },
        {
          "internalType": "uint256",
          "name": "achievements",
          "type": "uint256"
        }
      ],
      "name": "setTokenAchievements",
      "outputs": [],
      "stateMutability": "payable",
      "type": "function"
    },
    {
      "inputs": [
        {
          "internalType": "bytes4",
          "name": "interfaceId",
          "type": "bytes4"
        }
      ],
      "name": "supportsInterface",
      "outputs": [
        {
          "internalType": "bool",
          "name": "",
          "type": "bool"
        }
      ],
      "stateMutability": "view",
      "type": "function"
    },
    {
      "inputs": [],
      "name": "symbol",
      "outputs": [
        {
          "internalType": "string",
          "name": "",
          "type": "string"
        }
      ],
      "stateMutability": "view",
      "type": "function"
    },
    {
      "inputs": [
        {
          "internalType": "bytes32",
          "name": "providedKey",
          "type": "bytes32"
        }
      ],
      "name": "throwAwayTheKeys",
      "outputs": [],
      "stateMutability": "nonpayable",
      "type": "function"
    },
    {
      "inputs": [
        {
          "internalType": "uint256",
          "name": "tokenId",
          "type": "uint256"
        }
      ],
      "name": "tokenURI",
      "outputs": [
        {
          "internalType": "string",
          "name": "",
          "type": "string"
        }
      ],
      "stateMutability": "view",
      "type": "function"
    },
    {
      "inputs": [],
      "name": "totalSupply",
      "outputs": [
        {
          "internalType": "uint256",
          "name": "",
          "type": "uint256"
        }
      ],
      "stateMutability": "view",
      "type": "function"
    },
    {
      "inputs": [
        {
          "internalType": "address",
          "name": "from",
          "type": "address"
        },
        {
          "internalType": "address",
          "name": "to",
          "type": "address"
        },
        {
          "internalType": "uint256",
          "name": "tokenId",
          "type": "uint256"
        }
      ],
      "name": "transferFrom",
      "outputs": [],
      "stateMutability": "nonpayable",
      "type": "function"
    },
    {
      "inputs": [
        {
          "internalType": "address",
          "name": "newOwner",
          "type": "address"
        }
      ],
      "name": "transferOwnership",
      "outputs": [],
      "stateMutability": "nonpayable",
      "type": "function"
    },
    {
      "inputs": [],
      "name": "vaultBalance",
      "outputs": [
        {
          "internalType": "uint256",
          "name": "",
          "type": "uint256"
        }
      ],
      "stateMutability": "view",
      "type": "function"
    },
    {
      "inputs": [
        {
          "internalType": "bytes32",
          "name": "providedKey",
          "type": "bytes32"
        }
      ],
      "name": "withdrawVault",
      "outputs": [],
      "stateMutability": "nonpayable",
      "type": "function"
    }
  ],
  "bytecode": "0x60806040523480156200001157600080fd5b506040518060400160405280600a81526020017f426c756520447265616d000000000000000000000000000000000000000000008152506040518060400160405280600281526020017f4d5500000000000000000000000000000000000000000000000000000000000081525081600290805190602001906200009692919062000253565b508060039080519060200190620000af92919062000253565b50620000c06200014e60201b60201c565b6000819055505050620000e8620000dc6200015760201b60201c565b6200015f60201b60201c565b60016009819055506000600a819055506200010a60646200022560201b60201c565b600c819055506200012260326200022560201b60201c565b600d819055506200013a60086200022560201b60201c565b600e81905550600860108190555062000469565b60006001905090565b600033905090565b6000600860009054906101000a900473ffffffffffffffffffffffffffffffffffffffff16905081600860006101000a81548173ffffffffffffffffffffffffffffffffffffffff021916908373ffffffffffffffffffffffffffffffffffffffff1602179055508173ffffffffffffffffffffffffffffffffffffffff168173ffffffffffffffffffffffffffffffffffffffff167f8be0079c531659141344cd1fd0a4f28419497f9722a3daafe3b4186f6b6457e060405160405180910390a35050565b60006103e882670de0b6b3a76400006200024091906200033c565b6200024c9190620003cc565b9050919050565b828054620002619062000433565b90600052602060002090601f016020900481019282620002855760008555620002d1565b82601f10620002a057805160ff1916838001178555620002d1565b82800160010185558215620002d1579182015b82811115620002d0578251825591602001919060010190620002b3565b5b509050620002e09190620002e4565b5090565b5b80821115620002ff576000816000905550600101620002e5565b5090565b6000819050919050565b7f4e487b7100000000000000000000000000000000000000000000000000000000600052601160045260246000fd5b6000620003498262000303565b9150620003568362000303565b9250817fffffffffffffffffffffffffffffffffffffffffffffffffffffffffffffffff04831182151516156200039257620003916200030d565b5b828202905092915050565b7f4e487b7100000000000000000000000000000000000000000000000000000000600052601260045260246000fd5b6000620003d98262000303565b9150620003e68362000303565b925082620003f957620003f86200039d565b5b828204905092915050565b7f4e487b7100000000000000000000000000000000000000000000000000000000600052602260045260246000fd5b600060028204905060018216806200044c57607f821691505b6020821081141562000463576200046262000404565b5b50919050565b6154da80620004796000396000f3fe6080604052600436106102255760003560e01c806389edc43811610123578063b88d4fde116100ab578063e985e9c51161006f578063e985e9c5146107d9578063edc284b514610816578063ee7242e31461083f578063f2fde38b1461085b578063f4a0a5281461088457610225565b8063b88d4fde146106f1578063bed659bc1461071a578063c87b56dd14610743578063e4b50cb814610780578063e6efa42a146107bd57610225565b80639a043832116100f25780639a0438321461060e5780639c2cba2d1461064b578063a22cb46514610674578063a43da3bd1461069d578063a9de3d50146106c857610225565b806389edc4381461055f5780638da5cb5b1461059c5780638e87f7d7146105c757806395d89b41146105e357610225565b80634209a2e1116101b157806370a082311161017557806370a0823114610490578063715018a6146104cd5780637c726b69146104e457806384a1b9021461050d57806389e952f41461053657610225565b80634209a2e1146103bc57806342842e0e146103e557806347dd6c821461040e578063550b7551146104375780636352211e1461045357610225565b80630bf6cc08116101f85780630bf6cc08146102f85780630d1ff5a11461032357806318160ddd1461033f57806323b872dd1461036a5780633fed24aa1461039357610225565b806301ffc9a71461022a57806306fdde0314610267578063081812fc14610292578063095ea7b3146102cf575b600080fd5b34801561023657600080fd5b50610251600480360381019061024c9190613a20565b6108ad565b60405161025e9190613a68565b60405180910390f35b34801561027357600080fd5b5061027c61093f565b6040516102899190613b1c565b60405180910390f35b34801561029e57600080fd5b506102b960048036038101906102b49190613b74565b6109d1565b6040516102c69190613be2565b60405180910390f35b3480156102db57600080fd5b506102f660048036038101906102f19190613c29565b610a4d565b005b34801561030457600080fd5b5061030d610b8e565b60405161031a9190613c78565b60405180910390f35b61033d60048036038101906103389190613cc9565b610b9e565b005b34801561034b57600080fd5b50610354610c8a565b6040516103619190613c78565b60405180910390f35b34801561037657600080fd5b50610391600480360381019061038c9190613d1c565b610ca1565b005b34801561039f57600080fd5b506103ba60048036038101906103b59190613d6f565b610cdb565b005b3480156103c857600080fd5b506103e360048036038101906103de9190613b74565b610cfb565b005b3480156103f157600080fd5b5061040c60048036038101906104079190613d1c565b610d0f565b005b34801561041a57600080fd5b5061043560048036038101906104309190613d9c565b610d2f565b005b610451600480360381019061044c9190613d9c565b610d4d565b005b34801561045f57600080fd5b5061047a60048036038101906104759190613b74565b610f78565b6040516104879190613be2565b60405180910390f35b34801561049c57600080fd5b506104b760048036038101906104b29190613ddc565b610f8a565b6040516104c49190613c78565b60405180910390f35b3480156104d957600080fd5b506104e2611043565b005b3480156104f057600080fd5b5061050b60048036038101906105069190613b74565b61104d565b005b34801561051957600080fd5b50610534600480360381019061052f9190613b74565b611067565b005b34801561054257600080fd5b5061055d60048036038101906105589190613e09565b611081565b005b34801561056b57600080fd5b5061058660048036038101906105819190613e5c565b611131565b60405161059391906140bc565b60405180910390f35b3480156105a857600080fd5b506105b161155c565b6040516105be9190613be2565b60405180910390f35b6105e160048036038101906105dc9190613cc9565b611586565b005b3480156105ef57600080fd5b506105f861165b565b6040516106059190613b1c565b60405180910390f35b34801561061a57600080fd5b50610635600480360381019061063091906140de565b6116ed565b60405161064291906140bc565b60405180910390f35b34801561065757600080fd5b50610672600480360381019061066d919061411e565b611985565b005b34801561068057600080fd5b5061069b6004803603810190610696919061418a565b611a15565b005b3480156106a957600080fd5b506106b2611b8d565b6040516106bf9190613c78565b60405180910390f35b3480156106d457600080fd5b506106ef60048036038101906106ea9190613b74565b611b9f565b005b3480156106fd57600080fd5b50610718600480360381019061071391906142ff565b611bb9565b005b34801561072657600080fd5b50610741600480360381019061073c9190613b74565b611c2c565b005b34801561074f57600080fd5b5061076a60048036038101906107659190613b74565b611ca5565b6040516107779190613b1c565b60405180910390f35b34801561078c57600080fd5b506107a760048036038101906107a29190613b74565b611d44565b6040516107b49190614447565b60405180910390f35b6107d760048036038101906107d2919061450a565b611ed1565b005b3480156107e557600080fd5b5061080060048036038101906107fb9190614579565b61201a565b60405161080d9190613a68565b60405180910390f35b34801561082257600080fd5b5061083d60048036038101906108389190613d6f565b6120ae565b005b61085960048036038101906108549190614619565b6121d3565b005b34801561086757600080fd5b50610882600480360381019061087d9190613ddc565b6124fa565b005b34801561089057600080fd5b506108ab60048036038101906108a69190613b74565b612505565b005b60006301ffc9a760e01b827bffffffffffffffffffffffffffffffffffffffffffffffffffffffff1916148061090857506380ac58cd60e01b827bffffffffffffffffffffffffffffffffffffffffffffffffffffffff1916145b806109385750635b5e139f60e01b827bffffffffffffffffffffffffffffffffffffffffffffffffffffffff1916145b9050919050565b60606002805461094e906146a8565b80601f016020809104026020016040519081016040528092919081815260200182805461097a906146a8565b80156109c75780601f1061099c576101008083540402835291602001916109c7565b820191906000526020600020905b8154815290600101906020018083116109aa57829003601f168201915b5050505050905090565b60006109dc8261251f565b610a12576040517fcf4700e400000000000000000000000000000000000000000000000000000000815260040160405180910390fd5b6006600083815260200190815260200160002060009054906101000a900473ffffffffffffffffffffffffffffffffffffffff169050919050565b6000610a5882610f78565b90508073ffffffffffffffffffffffffffffffffffffffff16610a7961257e565b73ffffffffffffffffffffffffffffffffffffffff1614610adc57610aa581610aa061257e565b61201a565b610adb576040517fcfb3b94200000000000000000000000000000000000000000000000000000000815260040160405180910390fd5b5b826006600084815260200190815260200160002060006101000a81548173ffffffffffffffffffffffffffffffffffffffff021916908373ffffffffffffffffffffffffffffffffffffffff160217905550818373ffffffffffffffffffffffffffffffffffffffff168273ffffffffffffffffffffffffffffffffffffffff167f8c5be1e5ebec7d5bd14f71427d1e84f3dd0314c0f7b2291e5b200ac8c7c3b92560405160405180910390a4505050565b6000610b98612586565b47905090565b60026009541415610be4576040517f08c379a0000000000000000000000000000000000000000000000000000000008152600401610bdb90614726565b60405180910390fd5b60026009819055506010610bf781612604565b610c02600285612679565b600f54341015610c47576040517f08c379a0000000000000000000000000000000000000000000000000000000008152600401610c3e90614792565b60405180910390fd5b8160118481548110610c5c57610c5b6147b2565b5b906000526020600020906009020160080181905550610c7c600f546126dd565b506001600981905550505050565b6000610c94612775565b6001546000540303905090565b6020610cac81612604565b610cb4612586565b610cbf84848461277e565b610cca848484612aa3565b610cd5826000612ce0565b50505050565b610ce3612586565b610cee600382612679565b610cf86000612d31565b50565b610d03612586565b610d0c81612df7565b50565b610d2a83838360405180602001604052806000815250611bb9565b505050565b610d37612586565b610d42600383612679565b80600a819055505050565b60026009541415610d93576040517f08c379a0000000000000000000000000000000000000000000000000000000008152600401610d8a90614726565b60405180910390fd5b60026009819055506008610da681612604565b610db1600184612679565b610dba82612e50565b6000610dc583610f78565b9050610dd2813385610d0f565b610ddd813385612aa3565b600060118481548110610df357610df26147b2565b5b90600052602060002090600902016006015434610e109190614810565b905060008134610e209190614810565b90506000606460105483610e349190614844565b610e3e91906148cd565b905060008183610e4e9190614810565b90503373ffffffffffffffffffffffffffffffffffffffff1684604051610e749061492f565b60006040518083038185875af1925050503d8060008114610eb1576040519150601f19603f3d011682016040523d82523d6000602084013e610eb6565b606091505b50505060008573ffffffffffffffffffffffffffffffffffffffff1682604051610edf9061492f565b60006040518083038185875af1925050503d8060008114610f1c576040519150601f19603f3d011682016040523d82523d6000602084013e610f21565b606091505b5050905080610f65576040517f08c379a0000000000000000000000000000000000000000000000000000000008152600401610f5c90614990565b60405180910390fd5b5050505050505060016009819055505050565b6000610f8382612f49565b9050919050565b60008073ffffffffffffffffffffffffffffffffffffffff168273ffffffffffffffffffffffffffffffffffffffff161415610ff2576040517f8f4eb60400000000000000000000000000000000000000000000000000000000815260040160405180910390fd5b67ffffffffffffffff600560008473ffffffffffffffffffffffffffffffffffffffff1673ffffffffffffffffffffffffffffffffffffffff16815260200190815260200160002054169050919050565b61104b612586565b565b611055612586565b61105e81613017565b600d8190555050565b61106f612586565b61107881613017565b600e8190555050565b604061108c81612604565b611094612586565b61109f600385612679565b6000831415806110b0575060018314155b806110bc575060028314155b806110c8575060038314155b15611108576040517f08c379a00000000000000000000000000000000000000000000000000000000081526004016110ff906149fc565b60405180910390fd5b81600b848154811061111d5761111c6147b2565b5b906000526020600020018190555050505050565b60606000601260008673ffffffffffffffffffffffffffffffffffffffff1673ffffffffffffffffffffffffffffffffffffffff1681526020019081526020016000208054905014156111b9576040517f08c379a00000000000000000000000000000000000000000000000000000000081526004016111b090614a68565b60405180910390fd5b600083108061121557506001601260008673ffffffffffffffffffffffffffffffffffffffff1673ffffffffffffffffffffffffffffffffffffffff168152602001908152602001600020805490506112129190614810565b83115b15611255576040517f08c379a000000000000000000000000000000000000000000000000000000000815260040161124c90614ad4565b60405180910390fd5b60008210806112a55750601260008573ffffffffffffffffffffffffffffffffffffffff1673ffffffffffffffffffffffffffffffffffffffff1681526020019081526020016000208054905082115b156112e5576040517f08c379a00000000000000000000000000000000000000000000000000000000081526004016112dc90614b40565b60405180910390fd5b600082141561133457601260008573ffffffffffffffffffffffffffffffffffffffff1673ffffffffffffffffffffffffffffffffffffffff1681526020019081526020016000208054905091505b60606000805b8481101561154f57601260008873ffffffffffffffffffffffffffffffffffffffff1673ffffffffffffffffffffffffffffffffffffffff1681526020019081526020016000208181548110611393576113926147b2565b5b90600052602060002001549150601182815481106113b4576113b36147b2565b5b9060005260206000209060090201604051806101200160405290816000820160009054906101000a900460ff1615151515815260200160018201548152602001600282018054611403906146a8565b80601f016020809104026020016040519081016040528092919081815260200182805461142f906146a8565b801561147c5780601f106114515761010080835404028352916020019161147c565b820191906000526020600020905b81548152906001019060200180831161145f57829003601f168201915b5050505050815260200160038201548152602001600482015481526020016005820160009054906101000a900460ff16151515158152602001600682015481526020016007820160009054906101000a900473ffffffffffffffffffffffffffffffffffffffff1673ffffffffffffffffffffffffffffffffffffffff1673ffffffffffffffffffffffffffffffffffffffff168152602001600882015481525050838281518110611531576115306147b2565b5b6020026020010181905250808061154790614b60565b91505061133a565b5081925050509392505050565b6000600860009054906101000a900473ffffffffffffffffffffffffffffffffffffffff16905090565b600260095414156115cc576040517f08c379a00000000000000000000000000000000000000000000000000000000081526004016115c390614726565b60405180910390fd5b600260098190555060086115df81612604565b6115ea600185612679565b6115f383612e50565b600e54341015611638576040517f08c379a000000000000000000000000000000000000000000000000000000000815260040161162f90614bf5565b60405180910390fd5b6116428383612ce0565b61164d600d546126dd565b506001600981905550505050565b60606003805461166a906146a8565b80601f0160208091040260200160405190810160405280929190818152602001828054611696906146a8565b80156116e35780601f106116b8576101008083540402835291602001916116e3565b820191906000526020600020905b8154815290600101906020018083116116c657829003601f168201915b5050505050905090565b6060600083108061170e5750600160118054905061170b9190614810565b83115b1561174e576040517f08c379a000000000000000000000000000000000000000000000000000000000815260040161174590614ad4565b60405180910390fd5b6000821080611761575060118054905082115b156117a1576040517f08c379a000000000000000000000000000000000000000000000000000000000815260040161179890614b40565b60405180910390fd5b60008214156117b35760118054905091505b606060005b8381101561197a57601181866117ce9190614c15565b815481106117df576117de6147b2565b5b9060005260206000209060090201604051806101200160405290816000820160009054906101000a900460ff161515151581526020016001820154815260200160028201805461182e906146a8565b80601f016020809104026020016040519081016040528092919081815260200182805461185a906146a8565b80156118a75780601f1061187c576101008083540402835291602001916118a7565b820191906000526020600020905b81548152906001019060200180831161188a57829003601f168201915b5050505050815260200160038201548152602001600482015481526020016005820160009054906101000a900460ff16151515158152602001600682015481526020016007820160009054906101000a900473ffffffffffffffffffffffffffffffffffffffff1673ffffffffffffffffffffffffffffffffffffffff1673ffffffffffffffffffffffffffffffffffffffff16815260200160088201548152505082828151811061195c5761195b6147b2565b5b6020026020010181905250808061197290614b60565b9150506117b8565b508091505092915050565b61198d612586565b611998600383612679565b600073ffffffffffffffffffffffffffffffffffffffff168173ffffffffffffffffffffffffffffffffffffffff161415611a08576040517f08c379a00000000000000000000000000000000000000000000000000000000081526004016119ff90614cdd565b60405180910390fd5b611a1181612d31565b5050565b611a1d61257e565b73ffffffffffffffffffffffffffffffffffffffff168273ffffffffffffffffffffffffffffffffffffffff161415611a82576040517fb06307db00000000000000000000000000000000000000000000000000000000815260040160405180910390fd5b8060076000611a8f61257e565b73ffffffffffffffffffffffffffffffffffffffff1673ffffffffffffffffffffffffffffffffffffffff16815260200190815260200160002060008473ffffffffffffffffffffffffffffffffffffffff1673ffffffffffffffffffffffffffffffffffffffff16815260200190815260200160002060006101000a81548160ff0219169083151502179055508173ffffffffffffffffffffffffffffffffffffffff16611b3c61257e565b73ffffffffffffffffffffffffffffffffffffffff167f17307eab39ab6107e8899845ad3d59bd9653f200f220920489ca2b5937696c3183604051611b819190613a68565b60405180910390a35050565b6000611b97612586565b600a54905090565b611ba7612586565b611bb081613017565b600f8190555050565b611bc4848484610ca1565b60008373ffffffffffffffffffffffffffffffffffffffff163b14611c2657611bef84848484613041565b611c25576040517fd1a57ed600000000000000000000000000000000000000000000000000000000815260040160405180910390fd5b5b50505050565b60026009541415611c72576040517f08c379a0000000000000000000000000000000000000000000000000000000008152600401611c6990614726565b60405180910390fd5b60026009819055506008611c8581612604565b611c8e82612e50565b611c99826000612ce0565b50600160098190555050565b6060611cb08261251f565b611ce6576040517fa14c4b5000000000000000000000000000000000000000000000000000000000815260040160405180910390fd5b6000611cf06131a1565b9050600081511415611d115760405180602001604052806000815250611d3c565b80611d1b846131b8565b604051602001611d2c929190614d39565b6040516020818303038152906040525b915050919050565b611d4c6138a5565b60118281548110611d6057611d5f6147b2565b5b9060005260206000209060090201604051806101200160405290816000820160009054906101000a900460ff1615151515815260200160018201548152602001600282018054611daf906146a8565b80601f0160208091040260200160405190810160405280929190818152602001828054611ddb906146a8565b8015611e285780601f10611dfd57610100808354040283529160200191611e28565b820191906000526020600020905b815481529060010190602001808311611e0b57829003601f168201915b5050505050815260200160038201548152602001600482015481526020016005820160009054906101000a900460ff16151515158152602001600682015481526020016007820160009054906101000a900473ffffffffffffffffffffffffffffffffffffffff1673ffffffffffffffffffffffffffffffffffffffff1673ffffffffffffffffffffffffffffffffffffffff1681526020016008820154815250509050919050565b60026009541415611f17576040517f08c379a0000000000000000000000000000000000000000000000000000000008152600401611f0e90614726565b60405180910390fd5b60026009819055506004611f2a81612604565b611f35600185612679565b611f3e83612e50565b600e54341015611f83576040517f08c379a0000000000000000000000000000000000000000000000000000000008152600401611f7a90614da9565b60405180910390fd5b6020825110611fc7576040517f08c379a0000000000000000000000000000000000000000000000000000000008152600401611fbe90614e15565b60405180910390fd5b8160118481548110611fdc57611fdb6147b2565b5b90600052602060002090600902016002019080519060200190612000929190613911565b5061200c600e546126dd565b506001600981905550505050565b6000600760008473ffffffffffffffffffffffffffffffffffffffff1673ffffffffffffffffffffffffffffffffffffffff16815260200190815260200160002060008373ffffffffffffffffffffffffffffffffffffffff1673ffffffffffffffffffffffffffffffffffffffff16815260200190815260200160002060009054906101000a900460ff16905092915050565b600260095414156120f4576040517f08c379a00000000000000000000000000000000000000000000000000000000081526004016120eb90614726565b60405180910390fd5b6002600981905550604061210781612604565b61210f612586565b61211a600383612679565b60003373ffffffffffffffffffffffffffffffffffffffff16476040516121409061492f565b60006040518083038185875af1925050503d806000811461217d576040519150601f19603f3d011682016040523d82523d6000602084013e612182565b606091505b50509050806121c6576040517f08c379a00000000000000000000000000000000000000000000000000000000081526004016121bd90614e81565b60405180910390fd5b5050600160098190555050565b60026121de81612604565b6121e9600085612679565b60006121f3613212565b9050600c5434101561223a576040517f08c379a000000000000000000000000000000000000000000000000000000000815260040161223190614eed565b60405180910390fd5b60208484905010612280576040517f08c379a000000000000000000000000000000000000000000000000000000000815260040161227790614e15565b60405180910390fd5b61271061228b610c8a565b106122cb576040517f08c379a00000000000000000000000000000000000000000000000000000000081526004016122c290614f59565b60405180910390fd5b6122d633600161321b565b60405180610120016040528060011515815260200182815260200185858080601f016020809104026020016040519081016040528093929190818152602001838380828437600081840152601f19601f820116905080830192505050505050508152602001612343613239565b8152602001612350613239565b8152602001600015158152602001600081526020013373ffffffffffffffffffffffffffffffffffffffff16815260200160008152506011828154811061239a576123996147b2565b5b906000526020600020906009020160008201518160000160006101000a81548160ff0219169083151502179055506020820151816001015560408201518160020190805190602001906123ee929190613911565b50606082015181600301556080820151816004015560a08201518160050160006101000a81548160ff02191690831515021790555060c0820151816006015560e08201518160070160006101000a81548173ffffffffffffffffffffffffffffffffffffffff021916908373ffffffffffffffffffffffffffffffffffffffff1602179055506101008201518160080155905050601260003373ffffffffffffffffffffffffffffffffffffffff1673ffffffffffffffffffffffffffffffffffffffff1681526020019081526020016000208190806001815401808255809150506001900390600052602060002001600090919091909150556124f3600c546126dd565b5050505050565b612502612586565b50565b61250d612586565b61251681613017565b600c8190555050565b60008161252a612775565b11158015612539575060005482105b8015612577575060007c0100000000000000000000000000000000000000000000000000000000600460008581526020019081526020016000205416145b9050919050565b600033905090565b61258e61328c565b73ffffffffffffffffffffffffffffffffffffffff166125ac61155c565b73ffffffffffffffffffffffffffffffffffffffff1614612602576040517f08c379a00000000000000000000000000000000000000000000000000000000081526004016125f990614fc5565b60405180910390fd5b565b8081600a541614156126765761261b600a54613294565b60405160200161262b9190615031565b6040516020818303038152906040526040517f08c379a000000000000000000000000000000000000000000000000000000000815260040161266d9190613b1c565b60405180910390fd5b50565b80600b838154811061268e5761268d6147b2565b5b9060005260206000200154146126d9576040517f08c379a00000000000000000000000000000000000000000000000000000000081526004016126d09061509f565b60405180910390fd5b5050565b600081346126eb9190614810565b9050600081346126fb9190614810565b90506000821115612770573373ffffffffffffffffffffffffffffffffffffffff168260405161272a9061492f565b60006040518083038185875af1925050503d8060008114612767576040519150601f19603f3d011682016040523d82523d6000602084013e61276c565b606091505b5050505b505050565b60006001905090565b600061278982612f49565b90508373ffffffffffffffffffffffffffffffffffffffff168173ffffffffffffffffffffffffffffffffffffffff16146127f0576040517fa114810000000000000000000000000000000000000000000000000000000000815260040160405180910390fd5b6000806127fc8461331a565b91509150612812818761280d61257e565b61333c565b61285e576128278661282261257e565b61201a565b61285d576040517f59c896be00000000000000000000000000000000000000000000000000000000815260040160405180910390fd5b5b600073ffffffffffffffffffffffffffffffffffffffff168573ffffffffffffffffffffffffffffffffffffffff1614156128c5576040517fea553b3400000000000000000000000000000000000000000000000000000000815260040160405180910390fd5b6128d28686866001613380565b80156128dd57600082555b600560008773ffffffffffffffffffffffffffffffffffffffff1673ffffffffffffffffffffffffffffffffffffffff168152602001908152602001600020600081546001900391905081905550600560008673ffffffffffffffffffffffffffffffffffffffff1673ffffffffffffffffffffffffffffffffffffffff16815260200190815260200160002060008154600101919050819055506129ab85612987888887613386565b7c0200000000000000000000000000000000000000000000000000000000176133ae565b600460008681526020019081526020016000208190555060007c020000000000000000000000000000000000000000000000000000000084161415612a33576000600185019050600060046000838152602001908152602001600020541415612a31576000548114612a30578360046000838152602001908152602001600020819055505b5b505b838573ffffffffffffffffffffffffffffffffffffffff168773ffffffffffffffffffffffffffffffffffffffff167fddf252ad1be2c89b69c2b068fc378daa952ba7f163c4a11628f55a4df523b3ef60405160405180910390a4612a9b86868660016133d9565b505050505050565b8160118281548110612ab857612ab76147b2565b5b906000526020600020906009020160070160006101000a81548173ffffffffffffffffffffffffffffffffffffffff021916908373ffffffffffffffffffffffffffffffffffffffff160217905550601260008473ffffffffffffffffffffffffffffffffffffffff1673ffffffffffffffffffffffffffffffffffffffff1681526020019081526020016000206001601260008673ffffffffffffffffffffffffffffffffffffffff1673ffffffffffffffffffffffffffffffffffffffff16815260200190815260200160002080549050612b959190614810565b81548110612ba657612ba56147b2565b5b9060005260206000200154601260008573ffffffffffffffffffffffffffffffffffffffff1673ffffffffffffffffffffffffffffffffffffffff1681526020019081526020016000208281548110612c0257612c016147b2565b5b9060005260206000200181905550601260008473ffffffffffffffffffffffffffffffffffffffff1673ffffffffffffffffffffffffffffffffffffffff168152602001908152602001600020805480612c5f57612c5e6150bf565b5b60019003818190600052602060002001600090559055601260008373ffffffffffffffffffffffffffffffffffffffff1673ffffffffffffffffffffffffffffffffffffffff168152602001908152602001600020819080600181540180825580915050600190039060005260206000200160009091909190915055505050565b600060118381548110612cf657612cf56147b2565b5b9060005260206000209060090201905060008160050160006101000a81548160ff021916908315150217905550818160060181905550505050565b6000600860009054906101000a900473ffffffffffffffffffffffffffffffffffffffff16905081600860006101000a81548173ffffffffffffffffffffffffffffffffffffffff021916908373ffffffffffffffffffffffffffffffffffffffff1602179055508173ffffffffffffffffffffffffffffffffffffffff168173ffffffffffffffffffffffffffffffffffffffff167f8be0079c531659141344cd1fd0a4f28419497f9722a3daafe3b4186f6b6457e060405160405180910390a35050565b6000811080612e065750606481115b15612e46576040517f08c379a0000000000000000000000000000000000000000000000000000000008152600401612e3d9061513a565b60405180910390fd5b8060108190555050565b6000151560118281548110612e6857612e676147b2565b5b906000526020600020906009020160000160009054906101000a900460ff1615151415612eca576040517f08c379a0000000000000000000000000000000000000000000000000000000008152600401612ec1906151a6565b60405180910390fd5b6000612ed582610f78565b90508073ffffffffffffffffffffffffffffffffffffffff163373ffffffffffffffffffffffffffffffffffffffff1614612f45576040517f08c379a0000000000000000000000000000000000000000000000000000000008152600401612f3c90615212565b60405180910390fd5b5050565b60008082905080612f58612775565b11612fe057600054811015612fdf5760006004600083815260200190815260200160002054905060007c010000000000000000000000000000000000000000000000000000000082161415612fdd575b6000811415612fd3576004600083600190039350838152602001908152602001600020549050612fa8565b8092505050613012565b505b5b6040517fdf2d9b4200000000000000000000000000000000000000000000000000000000815260040160405180910390fd5b919050565b60006103e882670de0b6b3a76400006130309190614844565b61303a91906148cd565b9050919050565b60008373ffffffffffffffffffffffffffffffffffffffff1663150b7a0261306761257e565b8786866040518563ffffffff1660e01b81526004016130899493929190615287565b602060405180830381600087803b1580156130a357600080fd5b505af19250505080156130d457506040513d601f19601f820116820180604052508101906130d191906152e8565b60015b61314e573d8060008114613104576040519150601f19603f3d011682016040523d82523d6000602084013e613109565b606091505b50600081511415613146576040517fd1a57ed600000000000000000000000000000000000000000000000000000000815260040160405180910390fd5b805181602001fd5b63150b7a0260e01b7bffffffffffffffffffffffffffffffffffffffffffffffffffffffff1916817bffffffffffffffffffffffffffffffffffffffffffffffffffffffff191614915050949350505050565b606060405180602001604052806000815250905090565b60606080604051019050806040528082600183039250600a81066030018353600a810490505b80156131fe57600183039250600a81066030018353600a810490506131de565b508181036020830392508083525050919050565b60008054905090565b6132358282604051806020016040528060008152506133df565b5050565b6000424360804361324a9190615315565b42186101004361325a9190615315565b4217336040516020016132719594939291906153af565b60405160208183030381529060405280519060200120905090565b600033905090565b606060008214156132dc576040518060400160405280600481526020017f30783030000000000000000000000000000000000000000000000000000000008152509050613315565b600082905060005b600082146133065780806132f790614b60565b915050600882901c91506132e4565b613310848261347c565b925050505b919050565b6000806000600690508360005280602052604060002092508254915050915091565b600073ffffffffffffffffffffffffffffffffffffffff8316925073ffffffffffffffffffffffffffffffffffffffff821691508382148383141790509392505050565b50505050565b60008060e883901c905060e861339d8686846136b8565b62ffffff16901b9150509392505050565b600073ffffffffffffffffffffffffffffffffffffffff83169250814260a01b178317905092915050565b50505050565b6133e983836136c1565b60008373ffffffffffffffffffffffffffffffffffffffff163b1461347757600080549050600083820390505b6134296000868380600101945086613041565b61345f576040517fd1a57ed600000000000000000000000000000000000000000000000000000000815260040160405180910390fd5b81811061341657816000541461347457600080fd5b50505b505050565b60606000600283600261348f9190614844565b6134999190614c15565b67ffffffffffffffff8111156134b2576134b16141d4565b5b6040519080825280601f01601f1916602001820160405280156134e45781602001600182028036833780820191505090505b5090507f30000000000000000000000000000000000000000000000000000000000000008160008151811061351c5761351b6147b2565b5b60200101907effffffffffffffffffffffffffffffffffffffffffffffffffffffffffffff1916908160001a9053507f7800000000000000000000000000000000000000000000000000000000000000816001815181106135805761357f6147b2565b5b60200101907effffffffffffffffffffffffffffffffffffffffffffffffffffffffffffff1916908160001a905350600060018460026135c09190614844565b6135ca9190614c15565b90505b600181111561366a577f3031323334353637383961626364656600000000000000000000000000000000600f86166010811061360c5761360b6147b2565b5b1a60f81b828281518110613623576136226147b2565b5b60200101907effffffffffffffffffffffffffffffffffffffffffffffffffffffffffffff1916908160001a905350600485901c9450806136639061540e565b90506135cd565b50600084146136ae576040517f08c379a00000000000000000000000000000000000000000000000000000000081526004016136a590615484565b60405180910390fd5b8091505092915050565b60009392505050565b600080549050600073ffffffffffffffffffffffffffffffffffffffff168373ffffffffffffffffffffffffffffffffffffffff16141561372e576040517f2e07630000000000000000000000000000000000000000000000000000000000815260040160405180910390fd5b6000821415613769576040517fb562e8dd00000000000000000000000000000000000000000000000000000000815260040160405180910390fd5b6137766000848385613380565b600160406001901b178202600560008573ffffffffffffffffffffffffffffffffffffffff1673ffffffffffffffffffffffffffffffffffffffff168152602001908152602001600020600082825401925050819055506137ed836137de6000866000613386565b6137e785613895565b176133ae565b60046000838152602001908152602001600020819055506000819050600083830190505b818060010192508573ffffffffffffffffffffffffffffffffffffffff16600073ffffffffffffffffffffffffffffffffffffffff167fddf252ad1be2c89b69c2b068fc378daa952ba7f163c4a11628f55a4df523b3ef60405160405180910390a48082106138115780600081905550505061389060008483856133d9565b505050565b60006001821460e11b9050919050565b6040518061012001604052806000151581526020016000815260200160608152602001600080191681526020016000801916815260200160001515815260200160008152602001600073ffffffffffffffffffffffffffffffffffffffff168152602001600081525090565b82805461391d906146a8565b90600052602060002090601f01602090048101928261393f5760008555613986565b82601f1061395857805160ff1916838001178555613986565b82800160010185558215613986579182015b8281111561398557825182559160200191906001019061396a565b5b5090506139939190613997565b5090565b5b808211156139b0576000816000905550600101613998565b5090565b6000604051905090565b600080fd5b600080fd5b60007fffffffff0000000000000000000000000000000000000000000000000000000082169050919050565b6139fd816139c8565b8114613a0857600080fd5b50565b600081359050613a1a816139f4565b92915050565b600060208284031215613a3657613a356139be565b5b6000613a4484828501613a0b565b91505092915050565b60008115159050919050565b613a6281613a4d565b82525050565b6000602082019050613a7d6000830184613a59565b92915050565b600081519050919050565b600082825260208201905092915050565b60005b83811015613abd578082015181840152602081019050613aa2565b83811115613acc576000848401525b50505050565b6000601f19601f8301169050919050565b6000613aee82613a83565b613af88185613a8e565b9350613b08818560208601613a9f565b613b1181613ad2565b840191505092915050565b60006020820190508181036000830152613b368184613ae3565b905092915050565b6000819050919050565b613b5181613b3e565b8114613b5c57600080fd5b50565b600081359050613b6e81613b48565b92915050565b600060208284031215613b8a57613b896139be565b5b6000613b9884828501613b5f565b91505092915050565b600073ffffffffffffffffffffffffffffffffffffffff82169050919050565b6000613bcc82613ba1565b9050919050565b613bdc81613bc1565b82525050565b6000602082019050613bf76000830184613bd3565b92915050565b613c0681613bc1565b8114613c1157600080fd5b50565b600081359050613c2381613bfd565b92915050565b60008060408385031215613c4057613c3f6139be565b5b6000613c4e85828601613c14565b9250506020613c5f85828601613b5f565b9150509250929050565b613c7281613b3e565b82525050565b6000602082019050613c8d6000830184613c69565b92915050565b6000819050919050565b613ca681613c93565b8114613cb157600080fd5b50565b600081359050613cc381613c9d565b92915050565b600080600060608486031215613ce257613ce16139be565b5b6000613cf086828701613cb4565b9350506020613d0186828701613b5f565b9250506040613d1286828701613b5f565b9150509250925092565b600080600060608486031215613d3557613d346139be565b5b6000613d4386828701613c14565b9350506020613d5486828701613c14565b9250506040613d6586828701613b5f565b9150509250925092565b600060208284031215613d8557613d846139be565b5b6000613d9384828501613cb4565b91505092915050565b60008060408385031215613db357613db26139be565b5b6000613dc185828601613cb4565b9250506020613dd285828601613b5f565b9150509250929050565b600060208284031215613df257613df16139be565b5b6000613e0084828501613c14565b91505092915050565b600080600060608486031215613e2257613e216139be565b5b6000613e3086828701613cb4565b9350506020613e4186828701613b5f565b9250506040613e5286828701613cb4565b9150509250925092565b600080600060608486031215613e7557613e746139be565b5b6000613e8386828701613c14565b9350506020613e9486828701613b5f565b9250506040613ea586828701613b5f565b9150509250925092565b600081519050919050565b600082825260208201905092915050565b6000819050602082019050919050565b613ee481613a4d565b82525050565b613ef381613b3e565b82525050565b600082825260208201905092915050565b6000613f1582613a83565b613f1f8185613ef9565b9350613f2f818560208601613a9f565b613f3881613ad2565b840191505092915050565b613f4c81613c93565b82525050565b613f5b81613bc1565b82525050565b600061012083016000830151613f7a6000860182613edb565b506020830151613f8d6020860182613eea565b5060408301518482036040860152613fa58282613f0a565b9150506060830151613fba6060860182613f43565b506080830151613fcd6080860182613f43565b5060a0830151613fe060a0860182613edb565b5060c0830151613ff360c0860182613eea565b5060e083015161400660e0860182613f52565b5061010083015161401b610100860182613eea565b508091505092915050565b60006140328383613f61565b905092915050565b6000602082019050919050565b600061405282613eaf565b61405c8185613eba565b93508360208202850161406e85613ecb565b8060005b858110156140aa578484038952815161408b8582614026565b94506140968361403a565b925060208a01995050600181019050614072565b50829750879550505050505092915050565b600060208201905081810360008301526140d68184614047565b905092915050565b600080604083850312156140f5576140f46139be565b5b600061410385828601613b5f565b925050602061411485828601613b5f565b9150509250929050565b60008060408385031215614135576141346139be565b5b600061414385828601613cb4565b925050602061415485828601613c14565b9150509250929050565b61416781613a4d565b811461417257600080fd5b50565b6000813590506141848161415e565b92915050565b600080604083850312156141a1576141a06139be565b5b60006141af85828601613c14565b92505060206141c085828601614175565b9150509250929050565b600080fd5b600080fd5b7f4e487b7100000000000000000000000000000000000000000000000000000000600052604160045260246000fd5b61420c82613ad2565b810181811067ffffffffffffffff8211171561422b5761422a6141d4565b5b80604052505050565b600061423e6139b4565b905061424a8282614203565b919050565b600067ffffffffffffffff82111561426a576142696141d4565b5b61427382613ad2565b9050602081019050919050565b82818337600083830152505050565b60006142a261429d8461424f565b614234565b9050828152602081018484840111156142be576142bd6141cf565b5b6142c9848285614280565b509392505050565b600082601f8301126142e6576142e56141ca565b5b81356142f684826020860161428f565b91505092915050565b60008060008060808587031215614319576143186139be565b5b600061432787828801613c14565b945050602061433887828801613c14565b935050604061434987828801613b5f565b925050606085013567ffffffffffffffff81111561436a576143696139c3565b5b614376878288016142d1565b91505092959194509250565b60006101208301600083015161439b6000860182613edb565b5060208301516143ae6020860182613eea565b50604083015184820360408601526143c68282613f0a565b91505060608301516143db6060860182613f43565b5060808301516143ee6080860182613f43565b5060a083015161440160a0860182613edb565b5060c083015161441460c0860182613eea565b5060e083015161442760e0860182613f52565b5061010083015161443c610100860182613eea565b508091505092915050565b600060208201905081810360008301526144618184614382565b905092915050565b600067ffffffffffffffff821115614484576144836141d4565b5b61448d82613ad2565b9050602081019050919050565b60006144ad6144a884614469565b614234565b9050828152602081018484840111156144c9576144c86141cf565b5b6144d4848285614280565b509392505050565b600082601f8301126144f1576144f06141ca565b5b813561450184826020860161449a565b91505092915050565b600080600060608486031215614523576145226139be565b5b600061453186828701613cb4565b935050602061454286828701613b5f565b925050604084013567ffffffffffffffff811115614563576145626139c3565b5b61456f868287016144dc565b9150509250925092565b600080604083850312156145905761458f6139be565b5b600061459e85828601613c14565b92505060206145af85828601613c14565b9150509250929050565b600080fd5b600080fd5b60008083601f8401126145d9576145d86141ca565b5b8235905067ffffffffffffffff8111156145f6576145f56145b9565b5b602083019150836001820283011115614612576146116145be565b5b9250929050565b600080600060408486031215614632576146316139be565b5b600061464086828701613cb4565b935050602084013567ffffffffffffffff811115614661576146606139c3565b5b61466d868287016145c3565b92509250509250925092565b7f4e487b7100000000000000000000000000000000000000000000000000000000600052602260045260246000fd5b600060028204905060018216806146c057607f821691505b602082108114156146d4576146d3614679565b5b50919050565b7f5265656e7472616e637947756172643a207265656e7472616e742063616c6c00600082015250565b6000614710601f83613a8e565b915061471b826146da565b602082019050919050565b6000602082019050818103600083015261473f81614703565b9050919050565b7f414348494556454d454e54535f5041594d454e545f544f4f5f4c4f5700000000600082015250565b600061477c601c83613a8e565b915061478782614746565b602082019050919050565b600060208201905081810360008301526147ab8161476f565b9050919050565b7f4e487b7100000000000000000000000000000000000000000000000000000000600052603260045260246000fd5b7f4e487b7100000000000000000000000000000000000000000000000000000000600052601160045260246000fd5b600061481b82613b3e565b915061482683613b3e565b925082821015614839576148386147e1565b5b828203905092915050565b600061484f82613b3e565b915061485a83613b3e565b9250817fffffffffffffffffffffffffffffffffffffffffffffffffffffffffffffffff0483118215151615614893576148926147e1565b5b828202905092915050565b7f4e487b7100000000000000000000000000000000000000000000000000000000600052601260045260246000fd5b60006148d882613b3e565b91506148e383613b3e565b9250826148f3576148f261489e565b5b828204905092915050565b600081905092915050565b50565b60006149196000836148fe565b915061492482614909565b600082019050919050565b600061493a8261490c565b9150819050919050565b7f4255595f5452414e534645525f4641494c454400000000000000000000000000600082015250565b600061497a601383613a8e565b915061498582614944565b602082019050919050565b600060208201905081810360008301526149a98161496d565b9050919050565b7f494e56414c49445f4143434553535f504152414d455445520000000000000000600082015250565b60006149e6601883613a8e565b91506149f1826149b0565b602082019050919050565b60006020820190508181036000830152614a15816149d9565b9050919050565b7f544f4b454e5f4f574e45525f444f45534e545f45584953540000000000000000600082015250565b6000614a52601883613a8e565b9150614a5d82614a1c565b602082019050919050565b60006020820190508181036000830152614a8181614a45565b9050919050565b7f53544152545f494e4445585f4f55545f4f465f52414e47450000000000000000600082015250565b6000614abe601883613a8e565b9150614ac982614a88565b602082019050919050565b60006020820190508181036000830152614aed81614ab1565b9050919050565b7f544f54414c5f4f55545f4f465f52414e47450000000000000000000000000000600082015250565b6000614b2a601283613a8e565b9150614b3582614af4565b602082019050919050565b60006020820190508181036000830152614b5981614b1d565b9050919050565b6000614b6b82613b3e565b91507fffffffffffffffffffffffffffffffffffffffffffffffffffffffffffffffff821415614b9e57614b9d6147e1565b5b600182019050919050565b7f4c495354494e475f5041594d454e545f544f4f5f4c4f57000000000000000000600082015250565b6000614bdf601783613a8e565b9150614bea82614ba9565b602082019050919050565b60006020820190508181036000830152614c0e81614bd2565b9050919050565b6000614c2082613b3e565b9150614c2b83613b3e565b9250827fffffffffffffffffffffffffffffffffffffffffffffffffffffffffffffffff03821115614c6057614c5f6147e1565b5b828201905092915050565b7f4f776e61626c653a206e6577206f776e657220697320746865207a65726f206160008201527f6464726573730000000000000000000000000000000000000000000000000000602082015250565b6000614cc7602683613a8e565b9150614cd282614c6b565b604082019050919050565b60006020820190508181036000830152614cf681614cba565b9050919050565b600081905092915050565b6000614d1382613a83565b614d1d8185614cfd565b9350614d2d818560208601613a9f565b80840191505092915050565b6000614d458285614d08565b9150614d518284614d08565b91508190509392505050565b7f4348414e47455f4e414d455f5041594d454e545f544f4f5f4c4f570000000000600082015250565b6000614d93601b83613a8e565b9150614d9e82614d5d565b602082019050919050565b60006020820190508181036000830152614dc281614d86565b9050919050565b7f4e414d455f544f4f5f4c4f4e4700000000000000000000000000000000000000600082015250565b6000614dff600d83613a8e565b9150614e0a82614dc9565b602082019050919050565b60006020820190508181036000830152614e2e81614df2565b9050919050565b7f54524541535552595f5452414e534645525f4641494c45440000000000000000600082015250565b6000614e6b601883613a8e565b9150614e7682614e35565b602082019050919050565b60006020820190508181036000830152614e9a81614e5e565b9050919050565b7f4e4f545f454e4f5547485f455448000000000000000000000000000000000000600082015250565b6000614ed7600e83613a8e565b9150614ee282614ea1565b602082019050919050565b60006020820190508181036000830152614f0681614eca565b9050919050565b7f4d494e5445445f4f555400000000000000000000000000000000000000000000600082015250565b6000614f43600a83613a8e565b9150614f4e82614f0d565b602082019050919050565b60006020820190508181036000830152614f7281614f36565b9050919050565b7f4f776e61626c653a2063616c6c6572206973206e6f7420746865206f776e6572600082015250565b6000614faf602083613a8e565b9150614fba82614f79565b602082019050919050565b60006020820190508181036000830152614fde81614fa2565b9050919050565b7f46554e4354494f4e5f44495341424c45445f42595f4d4f44455f000000000000600082015250565b600061501b601a83614cfd565b915061502682614fe5565b601a82019050919050565b600061503c8261500e565b91506150488284614d08565b915081905092915050565b7f4143434553534b45595f494e56414c4944000000000000000000000000000000600082015250565b6000615089601183613a8e565b915061509482615053565b602082019050919050565b600060208201905081810360008301526150b88161507c565b9050919050565b7f4e487b7100000000000000000000000000000000000000000000000000000000600052603160045260246000fd5b7f524f59414c54595f4f55545f4f465f52414e4745000000000000000000000000600082015250565b6000615124601483613a8e565b915061512f826150ee565b602082019050919050565b6000602082019050818103600083015261515381615117565b9050919050565b7f544f4b454e5f444f45535f4e4f545f4558495354000000000000000000000000600082015250565b6000615190601483613a8e565b915061519b8261515a565b602082019050919050565b600060208201905081810360008301526151bf81615183565b9050919050565b7f53454e4445525f4e4f545f544f4b454e5f4f574e455200000000000000000000600082015250565b60006151fc601683613a8e565b9150615207826151c6565b602082019050919050565b6000602082019050818103600083015261522b816151ef565b9050919050565b600081519050919050565b600082825260208201905092915050565b600061525982615232565b615263818561523d565b9350615273818560208601613a9f565b61527c81613ad2565b840191505092915050565b600060808201905061529c6000830187613bd3565b6152a96020830186613bd3565b6152b66040830185613c69565b81810360608301526152c8818461524e565b905095945050505050565b6000815190506152e2816139f4565b92915050565b6000602082840312156152fe576152fd6139be565b5b600061530c848285016152d3565b91505092915050565b600061532082613b3e565b915061532b83613b3e565b92508261533b5761533a61489e565b5b828206905092915050565b6000819050919050565b61536161535c82613b3e565b615346565b82525050565b60008160601b9050919050565b600061537f82615367565b9050919050565b600061539182615374565b9050919050565b6153a96153a482613bc1565b615386565b82525050565b60006153bb8288615350565b6020820191506153cb8287615350565b6020820191506153db8286615350565b6020820191506153eb8285615350565b6020820191506153fb8284615398565b6014820191508190509695505050505050565b600061541982613b3e565b9150600082141561542d5761542c6147e1565b5b600182039050919050565b7f537472696e67733a20686578206c656e67746820696e73756666696369656e74600082015250565b600061546e602083613a8e565b915061547982615438565b602082019050919050565b6000602082019050818103600083015261549d81615461565b905091905056fea26469706673582212208523435ae6321c34cab178f52404bd138c1a400b80b31fbc522b6db7843dccbe64736f6c63430008090033",
  "linkReferences": {},
  "deployedLinkReferences": {}
}