{
  "_format": "hh-sol-artifact-1",
  "contractName": "BlueDream",
  "sourceName": "contracts/Lemuria.sol",
  "abi": [
    {
      "inputs": [],
      "stateMutability": "nonpayable",
      "type": "constructor"
    },
    {
      "inputs": [],
      "name": "ApprovalCallerNotOwnerNorApproved",
      "type": "error"
    },
    {
      "inputs": [],
      "name": "ApprovalQueryForNonexistentToken",
      "type": "error"
    },
    {
      "inputs": [],
      "name": "ApproveToCaller",
      "type": "error"
    },
    {
      "inputs": [],
      "name": "BalanceQueryForZeroAddress",
      "type": "error"
    },
    {
      "inputs": [],
      "name": "MintERC2309QuantityExceedsLimit",
      "type": "error"
    },
    {
      "inputs": [],
      "name": "MintToZeroAddress",
      "type": "error"
    },
    {
      "inputs": [],
      "name": "MintZeroQuantity",
      "type": "error"
    },
    {
      "inputs": [],
      "name": "OwnerQueryForNonexistentToken",
      "type": "error"
    },
    {
      "inputs": [],
      "name": "OwnershipNotInitializedForExtraData",
      "type": "error"
    },
    {
      "inputs": [],
      "name": "TransferCallerNotOwnerNorApproved",
      "type": "error"
    },
    {
      "inputs": [],
      "name": "TransferFromIncorrectOwner",
      "type": "error"
    },
    {
      "inputs": [],
      "name": "TransferToNonERC721ReceiverImplementer",
      "type": "error"
    },
    {
      "inputs": [],
      "name": "TransferToZeroAddress",
      "type": "error"
    },
    {
      "inputs": [],
      "name": "URIQueryForNonexistentToken",
      "type": "error"
    },
    {
      "anonymous": false,
      "inputs": [
        {
          "indexed": true,
          "internalType": "address",
          "name": "owner",
          "type": "address"
        },
        {
          "indexed": true,
          "internalType": "address",
          "name": "approved",
          "type": "address"
        },
        {
          "indexed": true,
          "internalType": "uint256",
          "name": "tokenId",
          "type": "uint256"
        }
      ],
      "name": "Approval",
      "type": "event"
    },
    {
      "anonymous": false,
      "inputs": [
        {
          "indexed": true,
          "internalType": "address",
          "name": "owner",
          "type": "address"
        },
        {
          "indexed": true,
          "internalType": "address",
          "name": "operator",
          "type": "address"
        },
        {
          "indexed": false,
          "internalType": "bool",
          "name": "approved",
          "type": "bool"
        }
      ],
      "name": "ApprovalForAll",
      "type": "event"
    },
    {
      "anonymous": false,
      "inputs": [
        {
          "indexed": true,
          "internalType": "uint256",
          "name": "fromTokenId",
          "type": "uint256"
        },
        {
          "indexed": false,
          "internalType": "uint256",
          "name": "toTokenId",
          "type": "uint256"
        },
        {
          "indexed": true,
          "internalType": "address",
          "name": "from",
          "type": "address"
        },
        {
          "indexed": true,
          "internalType": "address",
          "name": "to",
          "type": "address"
        }
      ],
      "name": "ConsecutiveTransfer",
      "type": "event"
    },
    {
      "anonymous": false,
      "inputs": [
        {
          "indexed": true,
          "internalType": "address",
          "name": "previousOwner",
          "type": "address"
        },
        {
          "indexed": true,
          "internalType": "address",
          "name": "newOwner",
          "type": "address"
        }
      ],
      "name": "OwnershipTransferred",
      "type": "event"
    },
    {
      "anonymous": false,
      "inputs": [
        {
          "indexed": true,
          "internalType": "address",
          "name": "from",
          "type": "address"
        },
        {
          "indexed": true,
          "internalType": "address",
          "name": "to",
          "type": "address"
        },
        {
          "indexed": true,
          "internalType": "uint256",
          "name": "tokenId",
          "type": "uint256"
        }
      ],
      "name": "Transfer",
      "type": "event"
    },
    {
      "inputs": [
        {
          "internalType": "address",
          "name": "to",
          "type": "address"
        },
        {
          "internalType": "uint256",
          "name": "tokenId",
          "type": "uint256"
        }
      ],
      "name": "approve",
      "outputs": [],
      "stateMutability": "nonpayable",
      "type": "function"
    },
    {
      "inputs": [
        {
          "internalType": "address",
          "name": "owner",
          "type": "address"
        }
      ],
      "name": "balanceOf",
      "outputs": [
        {
          "internalType": "uint256",
          "name": "",
          "type": "uint256"
        }
      ],
      "stateMutability": "view",
      "type": "function"
    },
    {
      "inputs": [
        {
          "internalType": "uint256",
          "name": "tokenId",
          "type": "uint256"
        }
      ],
      "name": "buyToken",
      "outputs": [],
      "stateMutability": "payable",
      "type": "function"
    },
    {
      "inputs": [
        {
          "internalType": "uint256",
          "name": "tokenId",
          "type": "uint256"
        }
      ],
      "name": "delistToken",
      "outputs": [],
      "stateMutability": "payable",
      "type": "function"
    },
    {
      "inputs": [
        {
          "internalType": "uint256",
          "name": "startIndex",
          "type": "uint256"
        },
        {
          "internalType": "uint256",
          "name": "total",
          "type": "uint256"
        }
      ],
      "name": "getAllTokens",
      "outputs": [
        {
          "components": [
            {
              "internalType": "string",
              "name": "name",
              "type": "string"
            },
            {
              "internalType": "bytes32",
              "name": "dna",
              "type": "bytes32"
            },
            {
              "internalType": "bytes32",
              "name": "attributes",
              "type": "bytes32"
            },
            {
              "internalType": "bool",
              "name": "listed",
              "type": "bool"
            },
            {
              "internalType": "uint256",
              "name": "price",
              "type": "uint256"
            },
            {
              "internalType": "address",
              "name": "owner",
              "type": "address"
            }
          ],
          "internalType": "struct BlueDream.t_token[]",
          "name": "",
          "type": "tuple[]"
        }
      ],
      "stateMutability": "view",
      "type": "function"
    },
    {
      "inputs": [
        {
          "internalType": "uint256",
          "name": "tokenId",
          "type": "uint256"
        }
      ],
      "name": "getApproved",
      "outputs": [
        {
          "internalType": "address",
          "name": "",
          "type": "address"
        }
      ],
      "stateMutability": "view",
      "type": "function"
    },
    {
      "inputs": [],
      "name": "getContractMode",
      "outputs": [
        {
          "internalType": "uint256",
          "name": "",
          "type": "uint256"
        }
      ],
      "stateMutability": "view",
      "type": "function"
    },
    {
      "inputs": [
        {
          "internalType": "uint256",
          "name": "id",
          "type": "uint256"
        }
      ],
      "name": "getToken",
      "outputs": [
        {
          "components": [
            {
              "internalType": "string",
              "name": "name",
              "type": "string"
            },
            {
              "internalType": "bytes32",
              "name": "dna",
              "type": "bytes32"
            },
            {
              "internalType": "bytes32",
              "name": "attributes",
              "type": "bytes32"
            },
            {
              "internalType": "bool",
              "name": "listed",
              "type": "bool"
            },
            {
              "internalType": "uint256",
              "name": "price",
              "type": "uint256"
            },
            {
              "internalType": "address",
              "name": "owner",
              "type": "address"
            }
          ],
          "internalType": "struct BlueDream.t_token",
          "name": "",
          "type": "tuple"
        }
      ],
      "stateMutability": "view",
      "type": "function"
    },
    {
      "inputs": [
        {
          "internalType": "address",
          "name": "owner",
          "type": "address"
        },
        {
          "internalType": "uint256",
          "name": "startIndex",
          "type": "uint256"
        },
        {
          "internalType": "uint256",
          "name": "total",
          "type": "uint256"
        }
      ],
      "name": "getTokensOfOwner",
      "outputs": [
        {
          "components": [
            {
              "internalType": "string",
              "name": "name",
              "type": "string"
            },
            {
              "internalType": "bytes32",
              "name": "dna",
              "type": "bytes32"
            },
            {
              "internalType": "bytes32",
              "name": "attributes",
              "type": "bytes32"
            },
            {
              "internalType": "bool",
              "name": "listed",
              "type": "bool"
            },
            {
              "internalType": "uint256",
              "name": "price",
              "type": "uint256"
            },
            {
              "internalType": "address",
              "name": "owner",
              "type": "address"
            }
          ],
          "internalType": "struct BlueDream.t_token[]",
          "name": "",
          "type": "tuple[]"
        }
      ],
      "stateMutability": "view",
      "type": "function"
    },
    {
      "inputs": [
        {
          "internalType": "address",
          "name": "owner",
          "type": "address"
        },
        {
          "internalType": "address",
          "name": "operator",
          "type": "address"
        }
      ],
      "name": "isApprovedForAll",
      "outputs": [
        {
          "internalType": "bool",
          "name": "",
          "type": "bool"
        }
      ],
      "stateMutability": "view",
      "type": "function"
    },
    {
      "inputs": [
        {
          "internalType": "uint256",
          "name": "tokenId",
          "type": "uint256"
        },
        {
          "internalType": "uint256",
          "name": "price",
          "type": "uint256"
        }
      ],
      "name": "listToken",
      "outputs": [],
      "stateMutability": "payable",
      "type": "function"
    },
    {
      "inputs": [
        {
          "internalType": "string",
          "name": "name",
          "type": "string"
        }
      ],
      "name": "mint",
      "outputs": [],
      "stateMutability": "payable",
      "type": "function"
    },
    {
      "inputs": [],
      "name": "name",
      "outputs": [
        {
          "internalType": "string",
          "name": "",
          "type": "string"
        }
      ],
      "stateMutability": "view",
      "type": "function"
    },
    {
      "inputs": [],
      "name": "owner",
      "outputs": [
        {
          "internalType": "address",
          "name": "",
          "type": "address"
        }
      ],
      "stateMutability": "view",
      "type": "function"
    },
    {
      "inputs": [
        {
          "internalType": "uint256",
          "name": "tokenId",
          "type": "uint256"
        }
      ],
      "name": "ownerOf",
      "outputs": [
        {
          "internalType": "address",
          "name": "",
          "type": "address"
        }
      ],
      "stateMutability": "view",
      "type": "function"
    },
    {
      "inputs": [],
      "name": "renounceOwnership",
      "outputs": [],
      "stateMutability": "nonpayable",
      "type": "function"
    },
    {
      "inputs": [
        {
          "internalType": "address",
          "name": "from",
          "type": "address"
        },
        {
          "internalType": "address",
          "name": "to",
          "type": "address"
        },
        {
          "internalType": "uint256",
          "name": "tokenId",
          "type": "uint256"
        }
      ],
      "name": "safeTransferFrom",
      "outputs": [],
      "stateMutability": "nonpayable",
      "type": "function"
    },
    {
      "inputs": [
        {
          "internalType": "address",
          "name": "from",
          "type": "address"
        },
        {
          "internalType": "address",
          "name": "to",
          "type": "address"
        },
        {
          "internalType": "uint256",
          "name": "tokenId",
          "type": "uint256"
        },
        {
          "internalType": "bytes",
          "name": "_data",
          "type": "bytes"
        }
      ],
      "name": "safeTransferFrom",
      "outputs": [],
      "stateMutability": "nonpayable",
      "type": "function"
    },
    {
      "inputs": [
        {
          "internalType": "address",
          "name": "operator",
          "type": "address"
        },
        {
          "internalType": "bool",
          "name": "approved",
          "type": "bool"
        }
      ],
      "name": "setApprovalForAll",
      "outputs": [],
      "stateMutability": "nonpayable",
      "type": "function"
    },
    {
      "inputs": [
        {
          "internalType": "uint256",
          "name": "_mode",
          "type": "uint256"
        }
      ],
      "name": "setContractMode",
      "outputs": [],
      "stateMutability": "nonpayable",
      "type": "function"
    },
    {
      "inputs": [
        {
          "internalType": "uint256",
          "name": "price",
          "type": "uint256"
        }
      ],
      "name": "setListingPrice",
      "outputs": [],
      "stateMutability": "nonpayable",
      "type": "function"
    },
    {
      "inputs": [
        {
          "internalType": "uint256",
          "name": "price",
          "type": "uint256"
        }
      ],
      "name": "setMintPrice",
      "outputs": [],
      "stateMutability": "nonpayable",
      "type": "function"
    },
    {
      "inputs": [
        {
          "internalType": "uint256",
          "name": "percentage",
          "type": "uint256"
        }
      ],
      "name": "setRoyalty",
      "outputs": [],
      "stateMutability": "nonpayable",
      "type": "function"
    },
    {
      "inputs": [
        {
          "internalType": "bytes4",
          "name": "interfaceId",
          "type": "bytes4"
        }
      ],
      "name": "supportsInterface",
      "outputs": [
        {
          "internalType": "bool",
          "name": "",
          "type": "bool"
        }
      ],
      "stateMutability": "view",
      "type": "function"
    },
    {
      "inputs": [],
      "name": "symbol",
      "outputs": [
        {
          "internalType": "string",
          "name": "",
          "type": "string"
        }
      ],
      "stateMutability": "view",
      "type": "function"
    },
    {
      "inputs": [
        {
          "internalType": "uint256",
          "name": "tokenId",
          "type": "uint256"
        }
      ],
      "name": "tokenURI",
      "outputs": [
        {
          "internalType": "string",
          "name": "",
          "type": "string"
        }
      ],
      "stateMutability": "view",
      "type": "function"
    },
    {
      "inputs": [],
      "name": "totalSupply",
      "outputs": [
        {
          "internalType": "uint256",
          "name": "",
          "type": "uint256"
        }
      ],
      "stateMutability": "view",
      "type": "function"
    },
    {
      "inputs": [
        {
          "internalType": "address",
          "name": "from",
          "type": "address"
        },
        {
          "internalType": "address",
          "name": "to",
          "type": "address"
        },
        {
          "internalType": "uint256",
          "name": "tokenId",
          "type": "uint256"
        }
      ],
      "name": "transferFrom",
      "outputs": [],
      "stateMutability": "nonpayable",
      "type": "function"
    },
    {
      "inputs": [
        {
          "internalType": "address",
          "name": "newOwner",
          "type": "address"
        }
      ],
      "name": "transferOwnership",
      "outputs": [],
      "stateMutability": "nonpayable",
      "type": "function"
    },
    {
      "inputs": [],
      "name": "vaultBalance",
      "outputs": [
        {
          "internalType": "uint256",
          "name": "",
          "type": "uint256"
        }
      ],
      "stateMutability": "view",
      "type": "function"
    },
    {
      "inputs": [],
      "name": "withdrawVault",
      "outputs": [],
      "stateMutability": "nonpayable",
      "type": "function"
    }
  ],
  "bytecode": "0x60806040523480156200001157600080fd5b506040518060400160405280600a81526020017f426c756520447265616d000000000000000000000000000000000000000000008152506040518060400160405280600281526020017f4d55000000000000000000000000000000000000000000000000000000000000815250816002908051906020019062000096929190620002b8565b508060039080519060200190620000af929190620002b8565b50620000c06200012c60201b60201c565b6000819055505050620000e8620000dc6200013160201b60201c565b6200013960201b60201c565b6001600981905550620001026001620001ff60201b60201c565b6200011460056200022d60201b60201c565b6200012660086200025b60201b60201c565b62000551565b600090565b600033905090565b6000600860009054906101000a900473ffffffffffffffffffffffffffffffffffffffff16905081600860006101000a81548173ffffffffffffffffffffffffffffffffffffffff021916908373ffffffffffffffffffffffffffffffffffffffff1602179055508173ffffffffffffffffffffffffffffffffffffffff168173ffffffffffffffffffffffffffffffffffffffff167f8be0079c531659141344cd1fd0a4f28419497f9722a3daafe3b4186f6b6457e060405160405180910390a35050565b6103e881670de0b6b3a7640000620002189190620003a1565b62000224919062000431565b600b8190555050565b6103e881670de0b6b3a7640000620002469190620003a1565b62000252919062000431565b600c8190555050565b60008110806200026b5750606481115b15620002ae576040517f08c379a0000000000000000000000000000000000000000000000000000000008152600401620002a590620004ca565b60405180910390fd5b80600d8190555050565b828054620002c6906200051b565b90600052602060002090601f016020900481019282620002ea576000855562000336565b82601f106200030557805160ff191683800117855562000336565b8280016001018555821562000336579182015b828111156200033557825182559160200191906001019062000318565b5b50905062000345919062000349565b5090565b5b80821115620003645760008160009055506001016200034a565b5090565b6000819050919050565b7f4e487b7100000000000000000000000000000000000000000000000000000000600052601160045260246000fd5b6000620003ae8262000368565b9150620003bb8362000368565b9250817fffffffffffffffffffffffffffffffffffffffffffffffffffffffffffffffff0483118215151615620003f757620003f662000372565b5b828202905092915050565b7f4e487b7100000000000000000000000000000000000000000000000000000000600052601260045260246000fd5b60006200043e8262000368565b91506200044b8362000368565b9250826200045e576200045d62000402565b5b828204905092915050565b600082825260208201905092915050565b7f524f59414c54595f4f55545f4f465f52414e4745000000000000000000000000600082015250565b6000620004b260148362000469565b9150620004bf826200047a565b602082019050919050565b60006020820190508181036000830152620004e581620004a3565b9050919050565b7f4e487b7100000000000000000000000000000000000000000000000000000000600052602260045260246000fd5b600060028204905060018216806200053457607f821691505b602082108114156200054b576200054a620004ec565b5b50919050565b6148b180620005616000396000f3fe6080604052600436106101d85760003560e01c80637c726b6911610102578063bed659bc11610095578063e4b50cb811610064578063e4b50cb814610670578063e985e9c5146106ad578063f2fde38b146106ea578063f4a0a52814610713576101d8565b8063bed659bc146105e4578063c87b56dd14610600578063d0d0ed051461063d578063d85d3d2714610654576101d8565b80639a043832116100d15780639a0438321461052a578063a22cb46514610567578063a43da3bd14610590578063b88d4fde146105bb576101d8565b80637c726b691461046e57806389edc438146104975780638da5cb5b146104d457806395d89b41146104ff576101d8565b806323b872dd1161017a5780636352211e116101495780636352211e146103c157806370a08231146103fe578063715018a61461043b57806375c1631d14610452576101d8565b806323b872dd1461032a5780632d296bf1146103535780634209a2e11461036f57806342842e0e14610398576101d8565b8063095ea7b3116101b6578063095ea7b3146102825780630bf6cc08146102ab57806316d307de146102d657806318160ddd146102ff576101d8565b806301ffc9a7146101dd57806306fdde031461021a578063081812fc14610245575b600080fd5b3480156101e957600080fd5b5061020460048036038101906101ff919061332d565b61073c565b6040516102119190613375565b60405180910390f35b34801561022657600080fd5b5061022f6107ce565b60405161023c9190613429565b60405180910390f35b34801561025157600080fd5b5061026c60048036038101906102679190613481565b610860565b60405161027991906134ef565b60405180910390f35b34801561028e57600080fd5b506102a960048036038101906102a49190613536565b6108dc565b005b3480156102b757600080fd5b506102c0610a1d565b6040516102cd9190613585565b60405180910390f35b3480156102e257600080fd5b506102fd60048036038101906102f89190613481565b610a2d565b005b34801561030b57600080fd5b50610314610a3f565b6040516103219190613585565b60405180910390f35b34801561033657600080fd5b50610351600480360381019061034c91906135a0565b610a56565b005b61036d60048036038101906103689190613481565b610a90565b005b34801561037b57600080fd5b5061039660048036038101906103919190613481565b610cf3565b005b3480156103a457600080fd5b506103bf60048036038101906103ba91906135a0565b610d07565b005b3480156103cd57600080fd5b506103e860048036038101906103e39190613481565b610d27565b6040516103f591906134ef565b60405180910390f35b34801561040a57600080fd5b50610425600480360381019061042091906135f3565b610d39565b6040516104329190613585565b60405180910390f35b34801561044757600080fd5b50610450610df2565b005b61046c60048036038101906104679190613620565b610e06565b005b34801561047a57600080fd5b5061049560048036038101906104909190613481565b610ef2565b005b3480156104a357600080fd5b506104be60048036038101906104b99190613660565b610f06565b6040516104cb919061388e565b60405180910390f35b3480156104e057600080fd5b506104e9611301565b6040516104f691906134ef565b60405180910390f35b34801561050b57600080fd5b5061051461132b565b6040516105219190613429565b60405180910390f35b34801561053657600080fd5b50610551600480360381019061054c9190613620565b6113bd565b60405161055e919061388e565b60405180910390f35b34801561057357600080fd5b5061058e600480360381019061058991906138dc565b611625565b005b34801561059c57600080fd5b506105a561179d565b6040516105b29190613585565b60405180910390f35b3480156105c757600080fd5b506105e260048036038101906105dd9190613a51565b6117af565b005b6105fe60048036038101906105f99190613481565b611822565b005b34801561060c57600080fd5b5061062760048036038101906106229190613481565b61190e565b6040516106349190613429565b60405180910390f35b34801561064957600080fd5b506106526119ad565b005b61066e60048036038101906106699190613b34565b611ac6565b005b34801561067c57600080fd5b5061069760048036038101906106929190613481565b611d8a565b6040516106a49190613c0a565b60405180910390f35b3480156106b957600080fd5b506106d460048036038101906106cf9190613c2c565b611ee7565b6040516106e19190613375565b60405180910390f35b3480156106f657600080fd5b50610711600480360381019061070c91906135f3565b611f7b565b005b34801561071f57600080fd5b5061073a60048036038101906107359190613481565b611fff565b005b60006301ffc9a760e01b827bffffffffffffffffffffffffffffffffffffffffffffffffffffffff1916148061079757506380ac58cd60e01b827bffffffffffffffffffffffffffffffffffffffffffffffffffffffff1916145b806107c75750635b5e139f60e01b827bffffffffffffffffffffffffffffffffffffffffffffffffffffffff1916145b9050919050565b6060600280546107dd90613c9b565b80601f016020809104026020016040519081016040528092919081815260200182805461080990613c9b565b80156108565780601f1061082b57610100808354040283529160200191610856565b820191906000526020600020905b81548152906001019060200180831161083957829003601f168201915b5050505050905090565b600061086b82612013565b6108a1576040517fcf4700e400000000000000000000000000000000000000000000000000000000815260040160405180910390fd5b6006600083815260200190815260200160002060009054906101000a900473ffffffffffffffffffffffffffffffffffffffff169050919050565b60006108e782610d27565b90508073ffffffffffffffffffffffffffffffffffffffff16610908612072565b73ffffffffffffffffffffffffffffffffffffffff161461096b576109348161092f612072565b611ee7565b61096a576040517fcfb3b94200000000000000000000000000000000000000000000000000000000815260040160405180910390fd5b5b826006600084815260200190815260200160002060006101000a81548173ffffffffffffffffffffffffffffffffffffffff021916908373ffffffffffffffffffffffffffffffffffffffff160217905550818373ffffffffffffffffffffffffffffffffffffffff168273ffffffffffffffffffffffffffffffffffffffff167f8c5be1e5ebec7d5bd14f71427d1e84f3dd0314c0f7b2291e5b200ac8c7c3b92560405160405180910390a4505050565b6000610a2761207a565b47905090565b610a3561207a565b80600a8190555050565b6000610a496120f8565b6001546000540303905090565b6004610a61816120fd565b610a6961207a565b610a74848484612172565b610a7f848484612497565b610a8a8260006126d4565b50505050565b60026009541415610ad6576040517f08c379a0000000000000000000000000000000000000000000000000000000008152600401610acd90613d19565b60405180910390fd5b60026009819055506002610ae9816120fd565b6000600e8381548110610aff57610afe613d39565b5b906000526020600020906006020190508060040154341015610b56576040517f08c379a0000000000000000000000000000000000000000000000000000000008152600401610b4d90613db4565b60405180910390fd5b6000610b6184610d27565b9050610b6e813386610d07565b610b79813386612497565b6000826004015434610b8b9190613e03565b905060008134610b9b9190613e03565b905060006064600d5483610baf9190613e37565b610bb99190613ec0565b905060008183610bc99190613e03565b90503373ffffffffffffffffffffffffffffffffffffffff1684604051610bef90613f22565b60006040518083038185875af1925050503d8060008114610c2c576040519150601f19603f3d011682016040523d82523d6000602084013e610c31565b606091505b50505060008573ffffffffffffffffffffffffffffffffffffffff1682604051610c5a90613f22565b60006040518083038185875af1925050503d8060008114610c97576040519150601f19603f3d011682016040523d82523d6000602084013e610c9c565b606091505b5050905080610ce0576040517f08c379a0000000000000000000000000000000000000000000000000000000008152600401610cd790613f83565b60405180910390fd5b5050505050505050600160098190555050565b610cfb61207a565b610d0481612725565b50565b610d22838383604051806020016040528060008152506117af565b505050565b6000610d328261277e565b9050919050565b60008073ffffffffffffffffffffffffffffffffffffffff168273ffffffffffffffffffffffffffffffffffffffff161415610da1576040517f8f4eb60400000000000000000000000000000000000000000000000000000000815260040160405180910390fd5b67ffffffffffffffff600560008473ffffffffffffffffffffffffffffffffffffffff1673ffffffffffffffffffffffffffffffffffffffff16815260200190815260200160002054169050919050565b610dfa61207a565b610e04600061284c565b565b60026009541415610e4c576040517f08c379a0000000000000000000000000000000000000000000000000000000008152600401610e4390613d19565b60405180910390fd5b60026009819055506002610e5f816120fd565b6000610e6a84610d27565b90508073ffffffffffffffffffffffffffffffffffffffff163373ffffffffffffffffffffffffffffffffffffffff1614610eda576040517f08c379a0000000000000000000000000000000000000000000000000000000008152600401610ed190613fef565b60405180910390fd5b610ee484846126d4565b505060016009819055505050565b610efa61207a565b610f0381612912565b50565b60606000600f60008673ffffffffffffffffffffffffffffffffffffffff1673ffffffffffffffffffffffffffffffffffffffff168152602001908152602001600020805490501415610f8e576040517f08c379a0000000000000000000000000000000000000000000000000000000008152600401610f859061405b565b60405180910390fd5b6000831080610fea57506001600f60008673ffffffffffffffffffffffffffffffffffffffff1673ffffffffffffffffffffffffffffffffffffffff16815260200190815260200160002080549050610fe79190613e03565b83115b1561102a576040517f08c379a0000000000000000000000000000000000000000000000000000000008152600401611021906140c7565b60405180910390fd5b600082108061107a5750600f60008573ffffffffffffffffffffffffffffffffffffffff1673ffffffffffffffffffffffffffffffffffffffff1681526020019081526020016000208054905082115b156110ba576040517f08c379a00000000000000000000000000000000000000000000000000000000081526004016110b190614133565b60405180910390fd5b600082141561110957600f60008573ffffffffffffffffffffffffffffffffffffffff1673ffffffffffffffffffffffffffffffffffffffff1681526020019081526020016000208054905091505b60606000805b848110156112f457600f60008873ffffffffffffffffffffffffffffffffffffffff1673ffffffffffffffffffffffffffffffffffffffff168152602001908152602001600020818154811061116857611167613d39565b5b90600052602060002001549150600e828154811061118957611188613d39565b5b90600052602060002090600602016040518060c00160405290816000820180546111b290613c9b565b80601f01602080910402602001604051908101604052809291908181526020018280546111de90613c9b565b801561122b5780601f106112005761010080835404028352916020019161122b565b820191906000526020600020905b81548152906001019060200180831161120e57829003601f168201915b5050505050815260200160018201548152602001600282015481526020016003820160009054906101000a900460ff16151515158152602001600482015481526020016005820160009054906101000a900473ffffffffffffffffffffffffffffffffffffffff1673ffffffffffffffffffffffffffffffffffffffff1673ffffffffffffffffffffffffffffffffffffffff16815250508382815181106112d6576112d5613d39565b5b602002602001018190525080806112ec90614153565b91505061110f565b5081925050509392505050565b6000600860009054906101000a900473ffffffffffffffffffffffffffffffffffffffff16905090565b60606003805461133a90613c9b565b80601f016020809104026020016040519081016040528092919081815260200182805461136690613c9b565b80156113b35780601f10611388576101008083540402835291602001916113b3565b820191906000526020600020905b81548152906001019060200180831161139657829003601f168201915b5050505050905090565b606060008310806113de57506001600e805490506113db9190613e03565b83115b1561141e576040517f08c379a0000000000000000000000000000000000000000000000000000000008152600401611415906140c7565b60405180910390fd5b60008210806114315750600e8054905082115b15611471576040517f08c379a000000000000000000000000000000000000000000000000000000000815260040161146890614133565b60405180910390fd5b600082141561148357600e8054905091505b606060005b8381101561161a57600e818661149e919061419c565b815481106114af576114ae613d39565b5b90600052602060002090600602016040518060c00160405290816000820180546114d890613c9b565b80601f016020809104026020016040519081016040528092919081815260200182805461150490613c9b565b80156115515780601f1061152657610100808354040283529160200191611551565b820191906000526020600020905b81548152906001019060200180831161153457829003601f168201915b5050505050815260200160018201548152602001600282015481526020016003820160009054906101000a900460ff16151515158152602001600482015481526020016005820160009054906101000a900473ffffffffffffffffffffffffffffffffffffffff1673ffffffffffffffffffffffffffffffffffffffff1673ffffffffffffffffffffffffffffffffffffffff16815250508282815181106115fc576115fb613d39565b5b6020026020010181905250808061161290614153565b915050611488565b508091505092915050565b61162d612072565b73ffffffffffffffffffffffffffffffffffffffff168273ffffffffffffffffffffffffffffffffffffffff161415611692576040517fb06307db00000000000000000000000000000000000000000000000000000000815260040160405180910390fd5b806007600061169f612072565b73ffffffffffffffffffffffffffffffffffffffff1673ffffffffffffffffffffffffffffffffffffffff16815260200190815260200160002060008473ffffffffffffffffffffffffffffffffffffffff1673ffffffffffffffffffffffffffffffffffffffff16815260200190815260200160002060006101000a81548160ff0219169083151502179055508173ffffffffffffffffffffffffffffffffffffffff1661174c612072565b73ffffffffffffffffffffffffffffffffffffffff167f17307eab39ab6107e8899845ad3d59bd9653f200f220920489ca2b5937696c31836040516117919190613375565b60405180910390a35050565b60006117a761207a565b600a54905090565b6117ba848484610a56565b60008373ffffffffffffffffffffffffffffffffffffffff163b1461181c576117e58484848461293c565b61181b576040517fd1a57ed600000000000000000000000000000000000000000000000000000000815260040160405180910390fd5b5b50505050565b60026009541415611868576040517f08c379a000000000000000000000000000000000000000000000000000000000815260040161185f90613d19565b60405180910390fd5b6002600981905550600261187b816120fd565b600061188683610d27565b90508073ffffffffffffffffffffffffffffffffffffffff163373ffffffffffffffffffffffffffffffffffffffff16146118f6576040517f08c379a00000000000000000000000000000000000000000000000000000000081526004016118ed90613fef565b60405180910390fd5b6119018360006126d4565b5050600160098190555050565b606061191982612013565b61194f576040517fa14c4b5000000000000000000000000000000000000000000000000000000000815260040160405180910390fd5b6000611959612a9c565b905060008151141561197a57604051806020016040528060008152506119a5565b8061198484612ab3565b60405160200161199592919061422e565b6040516020818303038152906040525b915050919050565b600260095414156119f3576040517f08c379a00000000000000000000000000000000000000000000000000000000081526004016119ea90613d19565b60405180910390fd5b60026009819055506008611a06816120fd565b611a0e61207a565b60003373ffffffffffffffffffffffffffffffffffffffff1647604051611a3490613f22565b60006040518083038185875af1925050503d8060008114611a71576040519150601f19603f3d011682016040523d82523d6000602084013e611a76565b606091505b5050905080611aba576040517f08c379a0000000000000000000000000000000000000000000000000000000008152600401611ab19061429e565b60405180910390fd5b50506001600981905550565b6001611ad1816120fd565b6000611adb612b0d565b9050600b54341015611b22576040517f08c379a0000000000000000000000000000000000000000000000000000000008152600401611b199061430a565b60405180910390fd5b60208484905010611b68576040517f08c379a0000000000000000000000000000000000000000000000000000000008152600401611b5f90614376565b60405180910390fd5b612710611b73610a3f565b10611bb3576040517f08c379a0000000000000000000000000000000000000000000000000000000008152600401611baa906143e2565b60405180910390fd5b611bbe336001612b16565b6040518060c0016040528085858080601f016020809104026020016040519081016040528093929190818152602001838380828437600081840152601f19601f820116905080830192505050505050508152602001611c1b612b34565b8152602001611c28612b34565b8152602001600015158152602001600081526020013373ffffffffffffffffffffffffffffffffffffffff16815250600e8281548110611c6b57611c6a613d39565b5b90600052602060002090600602016000820151816000019080519060200190611c959291906131ca565b50602082015181600101556040820151816002015560608201518160030160006101000a81548160ff0219169083151502179055506080820151816004015560a08201518160050160006101000a81548173ffffffffffffffffffffffffffffffffffffffff021916908373ffffffffffffffffffffffffffffffffffffffff160217905550905050600f60003373ffffffffffffffffffffffffffffffffffffffff1673ffffffffffffffffffffffffffffffffffffffff16815260200190815260200160002081908060018154018082558091505060019003906000526020600020016000909190919091505550505050565b611d92613250565b600e8281548110611da657611da5613d39565b5b90600052602060002090600602016040518060c0016040529081600082018054611dcf90613c9b565b80601f0160208091040260200160405190810160405280929190818152602001828054611dfb90613c9b565b8015611e485780601f10611e1d57610100808354040283529160200191611e48565b820191906000526020600020905b815481529060010190602001808311611e2b57829003601f168201915b5050505050815260200160018201548152602001600282015481526020016003820160009054906101000a900460ff16151515158152602001600482015481526020016005820160009054906101000a900473ffffffffffffffffffffffffffffffffffffffff1673ffffffffffffffffffffffffffffffffffffffff1673ffffffffffffffffffffffffffffffffffffffff16815250509050919050565b6000600760008473ffffffffffffffffffffffffffffffffffffffff1673ffffffffffffffffffffffffffffffffffffffff16815260200190815260200160002060008373ffffffffffffffffffffffffffffffffffffffff1673ffffffffffffffffffffffffffffffffffffffff16815260200190815260200160002060009054906101000a900460ff16905092915050565b611f8361207a565b600073ffffffffffffffffffffffffffffffffffffffff168173ffffffffffffffffffffffffffffffffffffffff161415611ff3576040517f08c379a0000000000000000000000000000000000000000000000000000000008152600401611fea90614474565b60405180910390fd5b611ffc8161284c565b50565b61200761207a565b61201081612b87565b50565b60008161201e6120f8565b1115801561202d575060005482105b801561206b575060007c0100000000000000000000000000000000000000000000000000000000600460008581526020019081526020016000205416145b9050919050565b600033905090565b612082612bb1565b73ffffffffffffffffffffffffffffffffffffffff166120a0611301565b73ffffffffffffffffffffffffffffffffffffffff16146120f6576040517f08c379a00000000000000000000000000000000000000000000000000000000081526004016120ed906144e0565b60405180910390fd5b565b600090565b8081600a5416141561216f57612114600a54612bb9565b604051602001612124919061454c565b6040516020818303038152906040526040517f08c379a00000000000000000000000000000000000000000000000000000000081526004016121669190613429565b60405180910390fd5b50565b600061217d8261277e565b90508373ffffffffffffffffffffffffffffffffffffffff168173ffffffffffffffffffffffffffffffffffffffff16146121e4576040517fa114810000000000000000000000000000000000000000000000000000000000815260040160405180910390fd5b6000806121f084612c3f565b915091506122068187612201612072565b612c61565b6122525761221b86612216612072565b611ee7565b612251576040517f59c896be00000000000000000000000000000000000000000000000000000000815260040160405180910390fd5b5b600073ffffffffffffffffffffffffffffffffffffffff168573ffffffffffffffffffffffffffffffffffffffff1614156122b9576040517fea553b3400000000000000000000000000000000000000000000000000000000815260040160405180910390fd5b6122c68686866001612ca5565b80156122d157600082555b600560008773ffffffffffffffffffffffffffffffffffffffff1673ffffffffffffffffffffffffffffffffffffffff168152602001908152602001600020600081546001900391905081905550600560008673ffffffffffffffffffffffffffffffffffffffff1673ffffffffffffffffffffffffffffffffffffffff168152602001908152602001600020600081546001019190508190555061239f8561237b888887612cab565b7c020000000000000000000000000000000000000000000000000000000017612cd3565b600460008681526020019081526020016000208190555060007c020000000000000000000000000000000000000000000000000000000084161415612427576000600185019050600060046000838152602001908152602001600020541415612425576000548114612424578360046000838152602001908152602001600020819055505b5b505b838573ffffffffffffffffffffffffffffffffffffffff168773ffffffffffffffffffffffffffffffffffffffff167fddf252ad1be2c89b69c2b068fc378daa952ba7f163c4a11628f55a4df523b3ef60405160405180910390a461248f8686866001612cfe565b505050505050565b81600e82815481106124ac576124ab613d39565b5b906000526020600020906006020160050160006101000a81548173ffffffffffffffffffffffffffffffffffffffff021916908373ffffffffffffffffffffffffffffffffffffffff160217905550600f60008473ffffffffffffffffffffffffffffffffffffffff1673ffffffffffffffffffffffffffffffffffffffff1681526020019081526020016000206001600f60008673ffffffffffffffffffffffffffffffffffffffff1673ffffffffffffffffffffffffffffffffffffffff168152602001908152602001600020805490506125899190613e03565b8154811061259a57612599613d39565b5b9060005260206000200154600f60008573ffffffffffffffffffffffffffffffffffffffff1673ffffffffffffffffffffffffffffffffffffffff16815260200190815260200160002082815481106125f6576125f5613d39565b5b9060005260206000200181905550600f60008473ffffffffffffffffffffffffffffffffffffffff1673ffffffffffffffffffffffffffffffffffffffff1681526020019081526020016000208054806126535761265261456e565b5b60019003818190600052602060002001600090559055600f60008373ffffffffffffffffffffffffffffffffffffffff1673ffffffffffffffffffffffffffffffffffffffff168152602001908152602001600020819080600181540180825580915050600190039060005260206000200160009091909190915055505050565b6000600e83815481106126ea576126e9613d39565b5b9060005260206000209060060201905060008160030160006101000a81548160ff021916908315150217905550818160040181905550505050565b60008110806127345750606481115b15612774576040517f08c379a000000000000000000000000000000000000000000000000000000000815260040161276b906145e9565b60405180910390fd5b80600d8190555050565b6000808290508061278d6120f8565b11612815576000548110156128145760006004600083815260200190815260200160002054905060007c010000000000000000000000000000000000000000000000000000000082161415612812575b60008114156128085760046000836001900393508381526020019081526020016000205490506127dd565b8092505050612847565b505b5b6040517fdf2d9b4200000000000000000000000000000000000000000000000000000000815260040160405180910390fd5b919050565b6000600860009054906101000a900473ffffffffffffffffffffffffffffffffffffffff16905081600860006101000a81548173ffffffffffffffffffffffffffffffffffffffff021916908373ffffffffffffffffffffffffffffffffffffffff1602179055508173ffffffffffffffffffffffffffffffffffffffff168173ffffffffffffffffffffffffffffffffffffffff167f8be0079c531659141344cd1fd0a4f28419497f9722a3daafe3b4186f6b6457e060405160405180910390a35050565b6103e881670de0b6b3a76400006129299190613e37565b6129339190613ec0565b600c8190555050565b60008373ffffffffffffffffffffffffffffffffffffffff1663150b7a02612962612072565b8786866040518563ffffffff1660e01b8152600401612984949392919061465e565b602060405180830381600087803b15801561299e57600080fd5b505af19250505080156129cf57506040513d601f19601f820116820180604052508101906129cc91906146bf565b60015b612a49573d80600081146129ff576040519150601f19603f3d011682016040523d82523d6000602084013e612a04565b606091505b50600081511415612a41576040517fd1a57ed600000000000000000000000000000000000000000000000000000000815260040160405180910390fd5b805181602001fd5b63150b7a0260e01b7bffffffffffffffffffffffffffffffffffffffffffffffffffffffff1916817bffffffffffffffffffffffffffffffffffffffffffffffffffffffff191614915050949350505050565b606060405180602001604052806000815250905090565b60606080604051019050806040528082600183039250600a81066030018353600a810490505b8015612af957600183039250600a81066030018353600a81049050612ad9565b508181036020830392508083525050919050565b60008054905090565b612b30828260405180602001604052806000815250612d04565b5050565b60004243608043612b4591906146ec565b421861010043612b5591906146ec565b421733604051602001612b6c959493929190614786565b60405160208183030381529060405280519060200120905090565b6103e881670de0b6b3a7640000612b9e9190613e37565b612ba89190613ec0565b600b8190555050565b600033905090565b60606000821415612c01576040518060400160405280600481526020017f30783030000000000000000000000000000000000000000000000000000000008152509050612c3a565b600082905060005b60008214612c2b578080612c1c90614153565b915050600882901c9150612c09565b612c358482612da1565b925050505b919050565b6000806000600690508360005280602052604060002092508254915050915091565b600073ffffffffffffffffffffffffffffffffffffffff8316925073ffffffffffffffffffffffffffffffffffffffff821691508382148383141790509392505050565b50505050565b60008060e883901c905060e8612cc2868684612fdd565b62ffffff16901b9150509392505050565b600073ffffffffffffffffffffffffffffffffffffffff83169250814260a01b178317905092915050565b50505050565b612d0e8383612fe6565b60008373ffffffffffffffffffffffffffffffffffffffff163b14612d9c57600080549050600083820390505b612d4e600086838060010194508661293c565b612d84576040517fd1a57ed600000000000000000000000000000000000000000000000000000000815260040160405180910390fd5b818110612d3b578160005414612d9957600080fd5b50505b505050565b606060006002836002612db49190613e37565b612dbe919061419c565b67ffffffffffffffff811115612dd757612dd6613926565b5b6040519080825280601f01601f191660200182016040528015612e095781602001600182028036833780820191505090505b5090507f300000000000000000000000000000000000000000000000000000000000000081600081518110612e4157612e40613d39565b5b60200101907effffffffffffffffffffffffffffffffffffffffffffffffffffffffffffff1916908160001a9053507f780000000000000000000000000000000000000000000000000000000000000081600181518110612ea557612ea4613d39565b5b60200101907effffffffffffffffffffffffffffffffffffffffffffffffffffffffffffff1916908160001a90535060006001846002612ee59190613e37565b612eef919061419c565b90505b6001811115612f8f577f3031323334353637383961626364656600000000000000000000000000000000600f861660108110612f3157612f30613d39565b5b1a60f81b828281518110612f4857612f47613d39565b5b60200101907effffffffffffffffffffffffffffffffffffffffffffffffffffffffffffff1916908160001a905350600485901c945080612f88906147e5565b9050612ef2565b5060008414612fd3576040517f08c379a0000000000000000000000000000000000000000000000000000000008152600401612fca9061485b565b60405180910390fd5b8091505092915050565b60009392505050565b600080549050600073ffffffffffffffffffffffffffffffffffffffff168373ffffffffffffffffffffffffffffffffffffffff161415613053576040517f2e07630000000000000000000000000000000000000000000000000000000000815260040160405180910390fd5b600082141561308e576040517fb562e8dd00000000000000000000000000000000000000000000000000000000815260040160405180910390fd5b61309b6000848385612ca5565b600160406001901b178202600560008573ffffffffffffffffffffffffffffffffffffffff1673ffffffffffffffffffffffffffffffffffffffff16815260200190815260200160002060008282540192505081905550613112836131036000866000612cab565b61310c856131ba565b17612cd3565b60046000838152602001908152602001600020819055506000819050600083830190505b818060010192508573ffffffffffffffffffffffffffffffffffffffff16600073ffffffffffffffffffffffffffffffffffffffff167fddf252ad1be2c89b69c2b068fc378daa952ba7f163c4a11628f55a4df523b3ef60405160405180910390a4808210613136578060008190555050506131b56000848385612cfe565b505050565b60006001821460e11b9050919050565b8280546131d690613c9b565b90600052602060002090601f0160209004810192826131f8576000855561323f565b82601f1061321157805160ff191683800117855561323f565b8280016001018555821561323f579182015b8281111561323e578251825591602001919060010190613223565b5b50905061324c91906132a4565b5090565b6040518060c0016040528060608152602001600080191681526020016000801916815260200160001515815260200160008152602001600073ffffffffffffffffffffffffffffffffffffffff1681525090565b5b808211156132bd5760008160009055506001016132a5565b5090565b6000604051905090565b600080fd5b600080fd5b60007fffffffff0000000000000000000000000000000000000000000000000000000082169050919050565b61330a816132d5565b811461331557600080fd5b50565b60008135905061332781613301565b92915050565b600060208284031215613343576133426132cb565b5b600061335184828501613318565b91505092915050565b60008115159050919050565b61336f8161335a565b82525050565b600060208201905061338a6000830184613366565b92915050565b600081519050919050565b600082825260208201905092915050565b60005b838110156133ca5780820151818401526020810190506133af565b838111156133d9576000848401525b50505050565b6000601f19601f8301169050919050565b60006133fb82613390565b613405818561339b565b93506134158185602086016133ac565b61341e816133df565b840191505092915050565b6000602082019050818103600083015261344381846133f0565b905092915050565b6000819050919050565b61345e8161344b565b811461346957600080fd5b50565b60008135905061347b81613455565b92915050565b600060208284031215613497576134966132cb565b5b60006134a58482850161346c565b91505092915050565b600073ffffffffffffffffffffffffffffffffffffffff82169050919050565b60006134d9826134ae565b9050919050565b6134e9816134ce565b82525050565b600060208201905061350460008301846134e0565b92915050565b613513816134ce565b811461351e57600080fd5b50565b6000813590506135308161350a565b92915050565b6000806040838503121561354d5761354c6132cb565b5b600061355b85828601613521565b925050602061356c8582860161346c565b9150509250929050565b61357f8161344b565b82525050565b600060208201905061359a6000830184613576565b92915050565b6000806000606084860312156135b9576135b86132cb565b5b60006135c786828701613521565b93505060206135d886828701613521565b92505060406135e98682870161346c565b9150509250925092565b600060208284031215613609576136086132cb565b5b600061361784828501613521565b91505092915050565b60008060408385031215613637576136366132cb565b5b60006136458582860161346c565b92505060206136568582860161346c565b9150509250929050565b600080600060608486031215613679576136786132cb565b5b600061368786828701613521565b93505060206136988682870161346c565b92505060406136a98682870161346c565b9150509250925092565b600081519050919050565b600082825260208201905092915050565b6000819050602082019050919050565b600082825260208201905092915050565b60006136fb82613390565b61370581856136df565b93506137158185602086016133ac565b61371e816133df565b840191505092915050565b6000819050919050565b61373c81613729565b82525050565b61374b8161335a565b82525050565b61375a8161344b565b82525050565b613769816134ce565b82525050565b600060c083016000830151848203600086015261378c82826136f0565b91505060208301516137a16020860182613733565b5060408301516137b46040860182613733565b5060608301516137c76060860182613742565b5060808301516137da6080860182613751565b5060a08301516137ed60a0860182613760565b508091505092915050565b6000613804838361376f565b905092915050565b6000602082019050919050565b6000613824826136b3565b61382e81856136be565b935083602082028501613840856136cf565b8060005b8581101561387c578484038952815161385d85826137f8565b94506138688361380c565b925060208a01995050600181019050613844565b50829750879550505050505092915050565b600060208201905081810360008301526138a88184613819565b905092915050565b6138b98161335a565b81146138c457600080fd5b50565b6000813590506138d6816138b0565b92915050565b600080604083850312156138f3576138f26132cb565b5b600061390185828601613521565b9250506020613912858286016138c7565b9150509250929050565b600080fd5b600080fd5b7f4e487b7100000000000000000000000000000000000000000000000000000000600052604160045260246000fd5b61395e826133df565b810181811067ffffffffffffffff8211171561397d5761397c613926565b5b80604052505050565b60006139906132c1565b905061399c8282613955565b919050565b600067ffffffffffffffff8211156139bc576139bb613926565b5b6139c5826133df565b9050602081019050919050565b82818337600083830152505050565b60006139f46139ef846139a1565b613986565b905082815260208101848484011115613a1057613a0f613921565b5b613a1b8482856139d2565b509392505050565b600082601f830112613a3857613a3761391c565b5b8135613a488482602086016139e1565b91505092915050565b60008060008060808587031215613a6b57613a6a6132cb565b5b6000613a7987828801613521565b9450506020613a8a87828801613521565b9350506040613a9b8782880161346c565b925050606085013567ffffffffffffffff811115613abc57613abb6132d0565b5b613ac887828801613a23565b91505092959194509250565b600080fd5b600080fd5b60008083601f840112613af457613af361391c565b5b8235905067ffffffffffffffff811115613b1157613b10613ad4565b5b602083019150836001820283011115613b2d57613b2c613ad9565b5b9250929050565b60008060208385031215613b4b57613b4a6132cb565b5b600083013567ffffffffffffffff811115613b6957613b686132d0565b5b613b7585828601613ade565b92509250509250929050565b600060c0830160008301518482036000860152613b9e82826136f0565b9150506020830151613bb36020860182613733565b506040830151613bc66040860182613733565b506060830151613bd96060860182613742565b506080830151613bec6080860182613751565b5060a0830151613bff60a0860182613760565b508091505092915050565b60006020820190508181036000830152613c248184613b81565b905092915050565b60008060408385031215613c4357613c426132cb565b5b6000613c5185828601613521565b9250506020613c6285828601613521565b9150509250929050565b7f4e487b7100000000000000000000000000000000000000000000000000000000600052602260045260246000fd5b60006002820490506001821680613cb357607f821691505b60208210811415613cc757613cc6613c6c565b5b50919050565b7f5265656e7472616e637947756172643a207265656e7472616e742063616c6c00600082015250565b6000613d03601f8361339b565b9150613d0e82613ccd565b602082019050919050565b60006020820190508181036000830152613d3281613cf6565b9050919050565b7f4e487b7100000000000000000000000000000000000000000000000000000000600052603260045260246000fd5b7f4255595f50524943455f544f4f5f4c4f57000000000000000000000000000000600082015250565b6000613d9e60118361339b565b9150613da982613d68565b602082019050919050565b60006020820190508181036000830152613dcd81613d91565b9050919050565b7f4e487b7100000000000000000000000000000000000000000000000000000000600052601160045260246000fd5b6000613e0e8261344b565b9150613e198361344b565b925082821015613e2c57613e2b613dd4565b5b828203905092915050565b6000613e428261344b565b9150613e4d8361344b565b9250817fffffffffffffffffffffffffffffffffffffffffffffffffffffffffffffffff0483118215151615613e8657613e85613dd4565b5b828202905092915050565b7f4e487b7100000000000000000000000000000000000000000000000000000000600052601260045260246000fd5b6000613ecb8261344b565b9150613ed68361344b565b925082613ee657613ee5613e91565b5b828204905092915050565b600081905092915050565b50565b6000613f0c600083613ef1565b9150613f1782613efc565b600082019050919050565b6000613f2d82613eff565b9150819050919050565b7f4255595f5452414e534645525f4641494c454400000000000000000000000000600082015250565b6000613f6d60138361339b565b9150613f7882613f37565b602082019050919050565b60006020820190508181036000830152613f9c81613f60565b9050919050565b7f53454e4445525f4e4f545f544f4b454e5f4f574e455200000000000000000000600082015250565b6000613fd960168361339b565b9150613fe482613fa3565b602082019050919050565b6000602082019050818103600083015261400881613fcc565b9050919050565b7f544f4b454e5f4f574e45525f444f45534e545f45584953540000000000000000600082015250565b600061404560188361339b565b91506140508261400f565b602082019050919050565b6000602082019050818103600083015261407481614038565b9050919050565b7f53544152545f494e4445585f4f55545f4f465f52414e47450000000000000000600082015250565b60006140b160188361339b565b91506140bc8261407b565b602082019050919050565b600060208201905081810360008301526140e0816140a4565b9050919050565b7f544f54414c5f4f55545f4f465f52414e47450000000000000000000000000000600082015250565b600061411d60128361339b565b9150614128826140e7565b602082019050919050565b6000602082019050818103600083015261414c81614110565b9050919050565b600061415e8261344b565b91507fffffffffffffffffffffffffffffffffffffffffffffffffffffffffffffffff82141561419157614190613dd4565b5b600182019050919050565b60006141a78261344b565b91506141b28361344b565b9250827fffffffffffffffffffffffffffffffffffffffffffffffffffffffffffffffff038211156141e7576141e6613dd4565b5b828201905092915050565b600081905092915050565b600061420882613390565b61421281856141f2565b93506142228185602086016133ac565b80840191505092915050565b600061423a82856141fd565b915061424682846141fd565b91508190509392505050565b7f5452414e534645525f4641494c45440000000000000000000000000000000000600082015250565b6000614288600f8361339b565b915061429382614252565b602082019050919050565b600060208201905081810360008301526142b78161427b565b9050919050565b7f4e4f545f454e4f5547485f455448000000000000000000000000000000000000600082015250565b60006142f4600e8361339b565b91506142ff826142be565b602082019050919050565b60006020820190508181036000830152614323816142e7565b9050919050565b7f4e414d455f544f4f5f4c4f4e4700000000000000000000000000000000000000600082015250565b6000614360600d8361339b565b915061436b8261432a565b602082019050919050565b6000602082019050818103600083015261438f81614353565b9050919050565b7f4d494e5445445f4f555400000000000000000000000000000000000000000000600082015250565b60006143cc600a8361339b565b91506143d782614396565b602082019050919050565b600060208201905081810360008301526143fb816143bf565b9050919050565b7f4f776e61626c653a206e6577206f776e657220697320746865207a65726f206160008201527f6464726573730000000000000000000000000000000000000000000000000000602082015250565b600061445e60268361339b565b915061446982614402565b604082019050919050565b6000602082019050818103600083015261448d81614451565b9050919050565b7f4f776e61626c653a2063616c6c6572206973206e6f7420746865206f776e6572600082015250565b60006144ca60208361339b565b91506144d582614494565b602082019050919050565b600060208201905081810360008301526144f9816144bd565b9050919050565b7f46554e4354494f4e5f44495341424c45445f42595f4d4f44455f000000000000600082015250565b6000614536601a836141f2565b915061454182614500565b601a82019050919050565b600061455782614529565b915061456382846141fd565b915081905092915050565b7f4e487b7100000000000000000000000000000000000000000000000000000000600052603160045260246000fd5b7f524f59414c54595f4f55545f4f465f52414e4745000000000000000000000000600082015250565b60006145d360148361339b565b91506145de8261459d565b602082019050919050565b60006020820190508181036000830152614602816145c6565b9050919050565b600081519050919050565b600082825260208201905092915050565b600061463082614609565b61463a8185614614565b935061464a8185602086016133ac565b614653816133df565b840191505092915050565b600060808201905061467360008301876134e0565b61468060208301866134e0565b61468d6040830185613576565b818103606083015261469f8184614625565b905095945050505050565b6000815190506146b981613301565b92915050565b6000602082840312156146d5576146d46132cb565b5b60006146e3848285016146aa565b91505092915050565b60006146f78261344b565b91506147028361344b565b92508261471257614711613e91565b5b828206905092915050565b6000819050919050565b6147386147338261344b565b61471d565b82525050565b60008160601b9050919050565b60006147568261473e565b9050919050565b60006147688261474b565b9050919050565b61478061477b826134ce565b61475d565b82525050565b60006147928288614727565b6020820191506147a28287614727565b6020820191506147b28286614727565b6020820191506147c28285614727565b6020820191506147d2828461476f565b6014820191508190509695505050505050565b60006147f08261344b565b9150600082141561480457614803613dd4565b5b600182039050919050565b7f537472696e67733a20686578206c656e67746820696e73756666696369656e74600082015250565b600061484560208361339b565b91506148508261480f565b602082019050919050565b6000602082019050818103600083015261487481614838565b905091905056fea264697066735822122032c5836f2f0df2cb8735ad9b68a2cdbcaf615497fd1fa985886da2b6196650b164736f6c63430008090033",
  "linkReferences": {},
  "deployedLinkReferences": {}
}