{
  "_format": "hh-sol-artifact-1",
  "contractName": "Lemuria",
  "sourceName": "contracts/Lemuria.sol",
  "abi": [
    {
      "inputs": [],
      "stateMutability": "nonpayable",
      "type": "constructor"
    },
    {
      "inputs": [],
      "name": "ApprovalCallerNotOwnerNorApproved",
      "type": "error"
    },
    {
      "inputs": [],
      "name": "ApprovalQueryForNonexistentToken",
      "type": "error"
    },
    {
      "inputs": [],
      "name": "ApproveToCaller",
      "type": "error"
    },
    {
      "inputs": [],
      "name": "BalanceQueryForZeroAddress",
      "type": "error"
    },
    {
      "inputs": [],
      "name": "MaxSupplyReached",
      "type": "error"
    },
    {
      "inputs": [],
      "name": "MintERC2309QuantityExceedsLimit",
      "type": "error"
    },
    {
      "inputs": [],
      "name": "MintToZeroAddress",
      "type": "error"
    },
    {
      "inputs": [],
      "name": "MintZeroQuantity",
      "type": "error"
    },
    {
      "inputs": [],
      "name": "NameTooLong",
      "type": "error"
    },
    {
      "inputs": [],
      "name": "NotEnoughETH",
      "type": "error"
    },
    {
      "inputs": [],
      "name": "OwnerQueryForNonexistentToken",
      "type": "error"
    },
    {
      "inputs": [],
      "name": "OwnershipNotInitializedForExtraData",
      "type": "error"
    },
    {
      "inputs": [],
      "name": "TransferCallerNotOwnerNorApproved",
      "type": "error"
    },
    {
      "inputs": [],
      "name": "TransferFromIncorrectOwner",
      "type": "error"
    },
    {
      "inputs": [],
      "name": "TransferToNonERC721ReceiverImplementer",
      "type": "error"
    },
    {
      "inputs": [],
      "name": "TransferToZeroAddress",
      "type": "error"
    },
    {
      "inputs": [],
      "name": "URIQueryForNonexistentToken",
      "type": "error"
    },
    {
      "anonymous": false,
      "inputs": [
        {
          "indexed": true,
          "internalType": "address",
          "name": "owner",
          "type": "address"
        },
        {
          "indexed": true,
          "internalType": "address",
          "name": "approved",
          "type": "address"
        },
        {
          "indexed": true,
          "internalType": "uint256",
          "name": "tokenId",
          "type": "uint256"
        }
      ],
      "name": "Approval",
      "type": "event"
    },
    {
      "anonymous": false,
      "inputs": [
        {
          "indexed": true,
          "internalType": "address",
          "name": "owner",
          "type": "address"
        },
        {
          "indexed": true,
          "internalType": "address",
          "name": "operator",
          "type": "address"
        },
        {
          "indexed": false,
          "internalType": "bool",
          "name": "approved",
          "type": "bool"
        }
      ],
      "name": "ApprovalForAll",
      "type": "event"
    },
    {
      "anonymous": false,
      "inputs": [
        {
          "indexed": true,
          "internalType": "uint256",
          "name": "fromTokenId",
          "type": "uint256"
        },
        {
          "indexed": false,
          "internalType": "uint256",
          "name": "toTokenId",
          "type": "uint256"
        },
        {
          "indexed": true,
          "internalType": "address",
          "name": "from",
          "type": "address"
        },
        {
          "indexed": true,
          "internalType": "address",
          "name": "to",
          "type": "address"
        }
      ],
      "name": "ConsecutiveTransfer",
      "type": "event"
    },
    {
      "anonymous": false,
      "inputs": [
        {
          "indexed": true,
          "internalType": "address",
          "name": "previousOwner",
          "type": "address"
        },
        {
          "indexed": true,
          "internalType": "address",
          "name": "newOwner",
          "type": "address"
        }
      ],
      "name": "OwnershipTransferred",
      "type": "event"
    },
    {
      "anonymous": false,
      "inputs": [
        {
          "indexed": true,
          "internalType": "address",
          "name": "from",
          "type": "address"
        },
        {
          "indexed": true,
          "internalType": "address",
          "name": "to",
          "type": "address"
        },
        {
          "indexed": true,
          "internalType": "uint256",
          "name": "tokenId",
          "type": "uint256"
        }
      ],
      "name": "Transfer",
      "type": "event"
    },
    {
      "inputs": [
        {
          "internalType": "address",
          "name": "to",
          "type": "address"
        },
        {
          "internalType": "uint256",
          "name": "tokenId",
          "type": "uint256"
        }
      ],
      "name": "approve",
      "outputs": [],
      "stateMutability": "nonpayable",
      "type": "function"
    },
    {
      "inputs": [
        {
          "internalType": "address",
          "name": "owner",
          "type": "address"
        }
      ],
      "name": "balanceOf",
      "outputs": [
        {
          "internalType": "uint256",
          "name": "",
          "type": "uint256"
        }
      ],
      "stateMutability": "view",
      "type": "function"
    },
    {
      "inputs": [
        {
          "internalType": "uint256",
          "name": "tokenId",
          "type": "uint256"
        }
      ],
      "name": "getApproved",
      "outputs": [
        {
          "internalType": "address",
          "name": "",
          "type": "address"
        }
      ],
      "stateMutability": "view",
      "type": "function"
    },
    {
      "inputs": [
        {
          "internalType": "uint256",
          "name": "id",
          "type": "uint256"
        }
      ],
      "name": "getLemurian",
      "outputs": [
        {
          "components": [
            {
              "internalType": "string",
              "name": "name",
              "type": "string"
            },
            {
              "internalType": "bytes32",
              "name": "dna",
              "type": "bytes32"
            }
          ],
          "internalType": "struct Lemuria.Lemurian",
          "name": "",
          "type": "tuple"
        }
      ],
      "stateMutability": "view",
      "type": "function"
    },
    {
      "inputs": [
        {
          "internalType": "address",
          "name": "owner",
          "type": "address"
        },
        {
          "internalType": "address",
          "name": "operator",
          "type": "address"
        }
      ],
      "name": "isApprovedForAll",
      "outputs": [
        {
          "internalType": "bool",
          "name": "",
          "type": "bool"
        }
      ],
      "stateMutability": "view",
      "type": "function"
    },
    {
      "inputs": [
        {
          "internalType": "string",
          "name": "name",
          "type": "string"
        }
      ],
      "name": "mint",
      "outputs": [],
      "stateMutability": "payable",
      "type": "function"
    },
    {
      "inputs": [],
      "name": "name",
      "outputs": [
        {
          "internalType": "string",
          "name": "",
          "type": "string"
        }
      ],
      "stateMutability": "view",
      "type": "function"
    },
    {
      "inputs": [],
      "name": "owner",
      "outputs": [
        {
          "internalType": "address",
          "name": "",
          "type": "address"
        }
      ],
      "stateMutability": "view",
      "type": "function"
    },
    {
      "inputs": [
        {
          "internalType": "uint256",
          "name": "tokenId",
          "type": "uint256"
        }
      ],
      "name": "ownerOf",
      "outputs": [
        {
          "internalType": "address",
          "name": "",
          "type": "address"
        }
      ],
      "stateMutability": "view",
      "type": "function"
    },
    {
      "inputs": [],
      "name": "renounceOwnership",
      "outputs": [],
      "stateMutability": "nonpayable",
      "type": "function"
    },
    {
      "inputs": [
        {
          "internalType": "address",
          "name": "from",
          "type": "address"
        },
        {
          "internalType": "address",
          "name": "to",
          "type": "address"
        },
        {
          "internalType": "uint256",
          "name": "tokenId",
          "type": "uint256"
        }
      ],
      "name": "safeTransferFrom",
      "outputs": [],
      "stateMutability": "nonpayable",
      "type": "function"
    },
    {
      "inputs": [
        {
          "internalType": "address",
          "name": "from",
          "type": "address"
        },
        {
          "internalType": "address",
          "name": "to",
          "type": "address"
        },
        {
          "internalType": "uint256",
          "name": "tokenId",
          "type": "uint256"
        },
        {
          "internalType": "bytes",
          "name": "_data",
          "type": "bytes"
        }
      ],
      "name": "safeTransferFrom",
      "outputs": [],
      "stateMutability": "nonpayable",
      "type": "function"
    },
    {
      "inputs": [
        {
          "internalType": "address",
          "name": "operator",
          "type": "address"
        },
        {
          "internalType": "bool",
          "name": "approved",
          "type": "bool"
        }
      ],
      "name": "setApprovalForAll",
      "outputs": [],
      "stateMutability": "nonpayable",
      "type": "function"
    },
    {
      "inputs": [
        {
          "internalType": "bytes4",
          "name": "interfaceId",
          "type": "bytes4"
        }
      ],
      "name": "supportsInterface",
      "outputs": [
        {
          "internalType": "bool",
          "name": "",
          "type": "bool"
        }
      ],
      "stateMutability": "view",
      "type": "function"
    },
    {
      "inputs": [],
      "name": "symbol",
      "outputs": [
        {
          "internalType": "string",
          "name": "",
          "type": "string"
        }
      ],
      "stateMutability": "view",
      "type": "function"
    },
    {
      "inputs": [
        {
          "internalType": "uint256",
          "name": "tokenId",
          "type": "uint256"
        }
      ],
      "name": "tokenURI",
      "outputs": [
        {
          "internalType": "string",
          "name": "",
          "type": "string"
        }
      ],
      "stateMutability": "view",
      "type": "function"
    },
    {
      "inputs": [],
      "name": "totalSupply",
      "outputs": [
        {
          "internalType": "uint256",
          "name": "",
          "type": "uint256"
        }
      ],
      "stateMutability": "view",
      "type": "function"
    },
    {
      "inputs": [
        {
          "internalType": "address",
          "name": "from",
          "type": "address"
        },
        {
          "internalType": "address",
          "name": "to",
          "type": "address"
        },
        {
          "internalType": "uint256",
          "name": "tokenId",
          "type": "uint256"
        }
      ],
      "name": "transferFrom",
      "outputs": [],
      "stateMutability": "nonpayable",
      "type": "function"
    },
    {
      "inputs": [
        {
          "internalType": "address",
          "name": "newOwner",
          "type": "address"
        }
      ],
      "name": "transferOwnership",
      "outputs": [],
      "stateMutability": "nonpayable",
      "type": "function"
    },
    {
      "inputs": [],
      "name": "vaultBalance",
      "outputs": [
        {
          "internalType": "uint256",
          "name": "",
          "type": "uint256"
        }
      ],
      "stateMutability": "view",
      "type": "function"
    },
    {
      "inputs": [],
      "name": "withdrawVault",
      "outputs": [],
      "stateMutability": "nonpayable",
      "type": "function"
    }
  ],
  "bytecode": "0x60806040523480156200001157600080fd5b506040518060400160405280600781526020017f4c656d75726961000000000000000000000000000000000000000000000000008152506040518060400160405280600281526020017f4d55000000000000000000000000000000000000000000000000000000000000815250816002908051906020019062000096929190620001c9565b508060039080519060200190620000af929190620001c9565b50620000c0620000f660201b60201c565b6000819055505050620000e8620000dc620000fb60201b60201c565b6200010360201b60201c565b6001600981905550620002de565b600090565b600033905090565b6000600860009054906101000a900473ffffffffffffffffffffffffffffffffffffffff16905081600860006101000a81548173ffffffffffffffffffffffffffffffffffffffff021916908373ffffffffffffffffffffffffffffffffffffffff1602179055508173ffffffffffffffffffffffffffffffffffffffff168173ffffffffffffffffffffffffffffffffffffffff167f8be0079c531659141344cd1fd0a4f28419497f9722a3daafe3b4186f6b6457e060405160405180910390a35050565b828054620001d790620002a8565b90600052602060002090601f016020900481019282620001fb576000855562000247565b82601f106200021657805160ff191683800117855562000247565b8280016001018555821562000247579182015b828111156200024657825182559160200191906001019062000229565b5b5090506200025691906200025a565b5090565b5b80821115620002755760008160009055506001016200025b565b5090565b7f4e487b7100000000000000000000000000000000000000000000000000000000600052602260045260246000fd5b60006002820490506001821680620002c157607f821691505b60208210811415620002d857620002d762000279565b5b50919050565b61284480620002ee6000396000f3fe60806040526004361061012a5760003560e01c8063715018a6116100ab578063b88d4fde1161006f578063b88d4fde146103f2578063c87b56dd1461041b578063d0d0ed0514610458578063d85d3d271461046f578063e985e9c51461048b578063f2fde38b146104c85761012a565b8063715018a61461031f57806379ee72eb146103365780638da5cb5b1461037357806395d89b411461039e578063a22cb465146103c95761012a565b806318160ddd116100f257806318160ddd1461022857806323b872dd1461025357806342842e0e1461027c5780636352211e146102a557806370a08231146102e25761012a565b806301ffc9a71461012f57806306fdde031461016c578063081812fc14610197578063095ea7b3146101d45780630bf6cc08146101fd575b600080fd5b34801561013b57600080fd5b5061015660048036038101906101519190611cf3565b6104f1565b6040516101639190611d3b565b60405180910390f35b34801561017857600080fd5b50610181610583565b60405161018e9190611def565b60405180910390f35b3480156101a357600080fd5b506101be60048036038101906101b99190611e47565b610615565b6040516101cb9190611eb5565b60405180910390f35b3480156101e057600080fd5b506101fb60048036038101906101f69190611efc565b610691565b005b34801561020957600080fd5b506102126107d2565b60405161021f9190611f4b565b60405180910390f35b34801561023457600080fd5b5061023d6107e2565b60405161024a9190611f4b565b60405180910390f35b34801561025f57600080fd5b5061027a60048036038101906102759190611f66565b6107f9565b005b34801561028857600080fd5b506102a3600480360381019061029e9190611f66565b610b1e565b005b3480156102b157600080fd5b506102cc60048036038101906102c79190611e47565b610b3e565b6040516102d99190611eb5565b60405180910390f35b3480156102ee57600080fd5b5061030960048036038101906103049190611fb9565b610b50565b6040516103169190611f4b565b60405180910390f35b34801561032b57600080fd5b50610334610c09565b005b34801561034257600080fd5b5061035d60048036038101906103589190611e47565b610c1d565b60405161036a9190612086565b60405180910390f35b34801561037f57600080fd5b50610388610ce6565b6040516103959190611eb5565b60405180910390f35b3480156103aa57600080fd5b506103b3610d10565b6040516103c09190611def565b60405180910390f35b3480156103d557600080fd5b506103f060048036038101906103eb91906120d4565b610da2565b005b3480156103fe57600080fd5b5061041960048036038101906104149190612249565b610f1a565b005b34801561042757600080fd5b50610442600480360381019061043d9190611e47565b610f8d565b60405161044f9190611def565b60405180910390f35b34801561046457600080fd5b5061046d61102c565b005b6104896004803603810190610484919061232c565b611139565b005b34801561049757600080fd5b506104b260048036038101906104ad9190612379565b6112b2565b6040516104bf9190611d3b565b60405180910390f35b3480156104d457600080fd5b506104ef60048036038101906104ea9190611fb9565b611346565b005b60006301ffc9a760e01b827bffffffffffffffffffffffffffffffffffffffffffffffffffffffff1916148061054c57506380ac58cd60e01b827bffffffffffffffffffffffffffffffffffffffffffffffffffffffff1916145b8061057c5750635b5e139f60e01b827bffffffffffffffffffffffffffffffffffffffffffffffffffffffff1916145b9050919050565b606060028054610592906123e8565b80601f01602080910402602001604051908101604052809291908181526020018280546105be906123e8565b801561060b5780601f106105e05761010080835404028352916020019161060b565b820191906000526020600020905b8154815290600101906020018083116105ee57829003601f168201915b5050505050905090565b6000610620826113ca565b610656576040517fcf4700e400000000000000000000000000000000000000000000000000000000815260040160405180910390fd5b6006600083815260200190815260200160002060009054906101000a900473ffffffffffffffffffffffffffffffffffffffff169050919050565b600061069c82610b3e565b90508073ffffffffffffffffffffffffffffffffffffffff166106bd611429565b73ffffffffffffffffffffffffffffffffffffffff1614610720576106e9816106e4611429565b6112b2565b61071f576040517fcfb3b94200000000000000000000000000000000000000000000000000000000815260040160405180910390fd5b5b826006600084815260200190815260200160002060006101000a81548173ffffffffffffffffffffffffffffffffffffffff021916908373ffffffffffffffffffffffffffffffffffffffff160217905550818373ffffffffffffffffffffffffffffffffffffffff168273ffffffffffffffffffffffffffffffffffffffff167f8c5be1e5ebec7d5bd14f71427d1e84f3dd0314c0f7b2291e5b200ac8c7c3b92560405160405180910390a4505050565b60006107dc611431565b47905090565b60006107ec6114af565b6001546000540303905090565b6000610804826114b4565b90508373ffffffffffffffffffffffffffffffffffffffff168173ffffffffffffffffffffffffffffffffffffffff161461086b576040517fa114810000000000000000000000000000000000000000000000000000000000815260040160405180910390fd5b60008061087784611582565b9150915061088d8187610888611429565b6115a4565b6108d9576108a28661089d611429565b6112b2565b6108d8576040517f59c896be00000000000000000000000000000000000000000000000000000000815260040160405180910390fd5b5b600073ffffffffffffffffffffffffffffffffffffffff168573ffffffffffffffffffffffffffffffffffffffff161415610940576040517fea553b3400000000000000000000000000000000000000000000000000000000815260040160405180910390fd5b61094d86868660016115e8565b801561095857600082555b600560008773ffffffffffffffffffffffffffffffffffffffff1673ffffffffffffffffffffffffffffffffffffffff168152602001908152602001600020600081546001900391905081905550600560008673ffffffffffffffffffffffffffffffffffffffff1673ffffffffffffffffffffffffffffffffffffffff1681526020019081526020016000206000815460010191905081905550610a2685610a028888876115ee565b7c020000000000000000000000000000000000000000000000000000000017611616565b600460008681526020019081526020016000208190555060007c020000000000000000000000000000000000000000000000000000000084161415610aae576000600185019050600060046000838152602001908152602001600020541415610aac576000548114610aab578360046000838152602001908152602001600020819055505b5b505b838573ffffffffffffffffffffffffffffffffffffffff168773ffffffffffffffffffffffffffffffffffffffff167fddf252ad1be2c89b69c2b068fc378daa952ba7f163c4a11628f55a4df523b3ef60405160405180910390a4610b168686866001611641565b505050505050565b610b3983838360405180602001604052806000815250610f1a565b505050565b6000610b49826114b4565b9050919050565b60008073ffffffffffffffffffffffffffffffffffffffff168273ffffffffffffffffffffffffffffffffffffffff161415610bb8576040517f8f4eb60400000000000000000000000000000000000000000000000000000000815260040160405180910390fd5b67ffffffffffffffff600560008473ffffffffffffffffffffffffffffffffffffffff1673ffffffffffffffffffffffffffffffffffffffff16815260200190815260200160002054169050919050565b610c11611431565b610c1b6000611647565b565b610c25611bc7565b600b6000838152602001908152602001600020604051806040016040529081600082018054610c53906123e8565b80601f0160208091040260200160405190810160405280929190818152602001828054610c7f906123e8565b8015610ccc5780601f10610ca157610100808354040283529160200191610ccc565b820191906000526020600020905b815481529060010190602001808311610caf57829003601f168201915b505050505081526020016001820154815250509050919050565b6000600860009054906101000a900473ffffffffffffffffffffffffffffffffffffffff16905090565b606060038054610d1f906123e8565b80601f0160208091040260200160405190810160405280929190818152602001828054610d4b906123e8565b8015610d985780601f10610d6d57610100808354040283529160200191610d98565b820191906000526020600020905b815481529060010190602001808311610d7b57829003601f168201915b5050505050905090565b610daa611429565b73ffffffffffffffffffffffffffffffffffffffff168273ffffffffffffffffffffffffffffffffffffffff161415610e0f576040517fb06307db00000000000000000000000000000000000000000000000000000000815260040160405180910390fd5b8060076000610e1c611429565b73ffffffffffffffffffffffffffffffffffffffff1673ffffffffffffffffffffffffffffffffffffffff16815260200190815260200160002060008473ffffffffffffffffffffffffffffffffffffffff1673ffffffffffffffffffffffffffffffffffffffff16815260200190815260200160002060006101000a81548160ff0219169083151502179055508173ffffffffffffffffffffffffffffffffffffffff16610ec9611429565b73ffffffffffffffffffffffffffffffffffffffff167f17307eab39ab6107e8899845ad3d59bd9653f200f220920489ca2b5937696c3183604051610f0e9190611d3b565b60405180910390a35050565b610f258484846107f9565b60008373ffffffffffffffffffffffffffffffffffffffff163b14610f8757610f508484848461170d565b610f86576040517fd1a57ed600000000000000000000000000000000000000000000000000000000815260040160405180910390fd5b5b50505050565b6060610f98826113ca565b610fce576040517fa14c4b5000000000000000000000000000000000000000000000000000000000815260040160405180910390fd5b6000610fd861186d565b9050600081511415610ff95760405180602001604052806000815250611024565b8061100384611884565b604051602001611014929190612456565b6040516020818303038152906040525b915050919050565b611034611431565b6002600954141561107a576040517f08c379a0000000000000000000000000000000000000000000000000000000008152600401611071906124c6565b60405180910390fd5b600260098190555060003373ffffffffffffffffffffffffffffffffffffffff16476040516110a890612517565b60006040518083038185875af1925050503d80600081146110e5576040519150601f19603f3d011682016040523d82523d6000602084013e6110ea565b606091505b505090508061112e576040517f08c379a000000000000000000000000000000000000000000000000000000000815260040161112590612578565b60405180910390fd5b506001600981905550565b60006111436118de565b9050662386f26fc10000341015611186576040517f583aa02600000000000000000000000000000000000000000000000000000000815260040160405180910390fd5b602083839050106111c3576040517f680b6caf00000000000000000000000000000000000000000000000000000000815260040160405180910390fd5b6127106111ce6107e2565b10611205576040517fd05cb60900000000000000000000000000000000000000000000000000000000815260040160405180910390fd5b6112103360016118e7565b604051806040016040528084848080601f016020809104026020016040519081016040528093929190818152602001838380828437600081840152601f19601f82011690508083019250505050505050815260200161126d611905565b815250600b6000838152602001908152602001600020600082015181600001908051906020019061129f929190611be4565b5060208201518160010155905050505050565b6000600760008473ffffffffffffffffffffffffffffffffffffffff1673ffffffffffffffffffffffffffffffffffffffff16815260200190815260200160002060008373ffffffffffffffffffffffffffffffffffffffff1673ffffffffffffffffffffffffffffffffffffffff16815260200190815260200160002060009054906101000a900460ff16905092915050565b61134e611431565b600073ffffffffffffffffffffffffffffffffffffffff168173ffffffffffffffffffffffffffffffffffffffff1614156113be576040517f08c379a00000000000000000000000000000000000000000000000000000000081526004016113b59061260a565b60405180910390fd5b6113c781611647565b50565b6000816113d56114af565b111580156113e4575060005482105b8015611422575060007c0100000000000000000000000000000000000000000000000000000000600460008581526020019081526020016000205416145b9050919050565b600033905090565b611439611935565b73ffffffffffffffffffffffffffffffffffffffff16611457610ce6565b73ffffffffffffffffffffffffffffffffffffffff16146114ad576040517f08c379a00000000000000000000000000000000000000000000000000000000081526004016114a490612676565b60405180910390fd5b565b600090565b600080829050806114c36114af565b1161154b5760005481101561154a5760006004600083815260200190815260200160002054905060007c010000000000000000000000000000000000000000000000000000000082161415611548575b600081141561153e576004600083600190039350838152602001908152602001600020549050611513565b809250505061157d565b505b5b6040517fdf2d9b4200000000000000000000000000000000000000000000000000000000815260040160405180910390fd5b919050565b6000806000600690508360005280602052604060002092508254915050915091565b600073ffffffffffffffffffffffffffffffffffffffff8316925073ffffffffffffffffffffffffffffffffffffffff821691508382148383141790509392505050565b50505050565b60008060e883901c905060e861160586868461193d565b62ffffff16901b9150509392505050565b600073ffffffffffffffffffffffffffffffffffffffff83169250814260a01b178317905092915050565b50505050565b6000600860009054906101000a900473ffffffffffffffffffffffffffffffffffffffff16905081600860006101000a81548173ffffffffffffffffffffffffffffffffffffffff021916908373ffffffffffffffffffffffffffffffffffffffff1602179055508173ffffffffffffffffffffffffffffffffffffffff168173ffffffffffffffffffffffffffffffffffffffff167f8be0079c531659141344cd1fd0a4f28419497f9722a3daafe3b4186f6b6457e060405160405180910390a35050565b60008373ffffffffffffffffffffffffffffffffffffffff1663150b7a02611733611429565b8786866040518563ffffffff1660e01b815260040161175594939291906126eb565b602060405180830381600087803b15801561176f57600080fd5b505af19250505080156117a057506040513d601f19601f8201168201806040525081019061179d919061274c565b60015b61181a573d80600081146117d0576040519150601f19603f3d011682016040523d82523d6000602084013e6117d5565b606091505b50600081511415611812576040517fd1a57ed600000000000000000000000000000000000000000000000000000000815260040160405180910390fd5b805181602001fd5b63150b7a0260e01b7bffffffffffffffffffffffffffffffffffffffffffffffffffffffff1916817bffffffffffffffffffffffffffffffffffffffffffffffffffffffff191614915050949350505050565b606060405180602001604052806000815250905090565b60606080604051019050806040528082600183039250600a81066030018353600a810490505b80156118ca57600183039250600a81066030018353600a810490506118aa565b508181036020830392508083525050919050565b60008054905090565b611901828260405180602001604052806000815250611946565b5050565b6000423360405160200161191a9291906127e2565b60405160208183030381529060405280519060200120905090565b600033905090565b60009392505050565b61195083836119e3565b60008373ffffffffffffffffffffffffffffffffffffffff163b146119de57600080549050600083820390505b611990600086838060010194508661170d565b6119c6576040517fd1a57ed600000000000000000000000000000000000000000000000000000000815260040160405180910390fd5b81811061197d5781600054146119db57600080fd5b50505b505050565b600080549050600073ffffffffffffffffffffffffffffffffffffffff168373ffffffffffffffffffffffffffffffffffffffff161415611a50576040517f2e07630000000000000000000000000000000000000000000000000000000000815260040160405180910390fd5b6000821415611a8b576040517fb562e8dd00000000000000000000000000000000000000000000000000000000815260040160405180910390fd5b611a9860008483856115e8565b600160406001901b178202600560008573ffffffffffffffffffffffffffffffffffffffff1673ffffffffffffffffffffffffffffffffffffffff16815260200190815260200160002060008282540192505081905550611b0f83611b0060008660006115ee565b611b0985611bb7565b17611616565b60046000838152602001908152602001600020819055506000819050600083830190505b818060010192508573ffffffffffffffffffffffffffffffffffffffff16600073ffffffffffffffffffffffffffffffffffffffff167fddf252ad1be2c89b69c2b068fc378daa952ba7f163c4a11628f55a4df523b3ef60405160405180910390a4808210611b3357806000819055505050611bb26000848385611641565b505050565b60006001821460e11b9050919050565b604051806040016040528060608152602001600080191681525090565b828054611bf0906123e8565b90600052602060002090601f016020900481019282611c125760008555611c59565b82601f10611c2b57805160ff1916838001178555611c59565b82800160010185558215611c59579182015b82811115611c58578251825591602001919060010190611c3d565b5b509050611c669190611c6a565b5090565b5b80821115611c83576000816000905550600101611c6b565b5090565b6000604051905090565b600080fd5b600080fd5b60007fffffffff0000000000000000000000000000000000000000000000000000000082169050919050565b611cd081611c9b565b8114611cdb57600080fd5b50565b600081359050611ced81611cc7565b92915050565b600060208284031215611d0957611d08611c91565b5b6000611d1784828501611cde565b91505092915050565b60008115159050919050565b611d3581611d20565b82525050565b6000602082019050611d506000830184611d2c565b92915050565b600081519050919050565b600082825260208201905092915050565b60005b83811015611d90578082015181840152602081019050611d75565b83811115611d9f576000848401525b50505050565b6000601f19601f8301169050919050565b6000611dc182611d56565b611dcb8185611d61565b9350611ddb818560208601611d72565b611de481611da5565b840191505092915050565b60006020820190508181036000830152611e098184611db6565b905092915050565b6000819050919050565b611e2481611e11565b8114611e2f57600080fd5b50565b600081359050611e4181611e1b565b92915050565b600060208284031215611e5d57611e5c611c91565b5b6000611e6b84828501611e32565b91505092915050565b600073ffffffffffffffffffffffffffffffffffffffff82169050919050565b6000611e9f82611e74565b9050919050565b611eaf81611e94565b82525050565b6000602082019050611eca6000830184611ea6565b92915050565b611ed981611e94565b8114611ee457600080fd5b50565b600081359050611ef681611ed0565b92915050565b60008060408385031215611f1357611f12611c91565b5b6000611f2185828601611ee7565b9250506020611f3285828601611e32565b9150509250929050565b611f4581611e11565b82525050565b6000602082019050611f606000830184611f3c565b92915050565b600080600060608486031215611f7f57611f7e611c91565b5b6000611f8d86828701611ee7565b9350506020611f9e86828701611ee7565b9250506040611faf86828701611e32565b9150509250925092565b600060208284031215611fcf57611fce611c91565b5b6000611fdd84828501611ee7565b91505092915050565b600082825260208201905092915050565b600061200282611d56565b61200c8185611fe6565b935061201c818560208601611d72565b61202581611da5565b840191505092915050565b6000819050919050565b61204381612030565b82525050565b600060408301600083015184820360008601526120668282611ff7565b915050602083015161207b602086018261203a565b508091505092915050565b600060208201905081810360008301526120a08184612049565b905092915050565b6120b181611d20565b81146120bc57600080fd5b50565b6000813590506120ce816120a8565b92915050565b600080604083850312156120eb576120ea611c91565b5b60006120f985828601611ee7565b925050602061210a858286016120bf565b9150509250929050565b600080fd5b600080fd5b7f4e487b7100000000000000000000000000000000000000000000000000000000600052604160045260246000fd5b61215682611da5565b810181811067ffffffffffffffff821117156121755761217461211e565b5b80604052505050565b6000612188611c87565b9050612194828261214d565b919050565b600067ffffffffffffffff8211156121b4576121b361211e565b5b6121bd82611da5565b9050602081019050919050565b82818337600083830152505050565b60006121ec6121e784612199565b61217e565b90508281526020810184848401111561220857612207612119565b5b6122138482856121ca565b509392505050565b600082601f8301126122305761222f612114565b5b81356122408482602086016121d9565b91505092915050565b6000806000806080858703121561226357612262611c91565b5b600061227187828801611ee7565b945050602061228287828801611ee7565b935050604061229387828801611e32565b925050606085013567ffffffffffffffff8111156122b4576122b3611c96565b5b6122c08782880161221b565b91505092959194509250565b600080fd5b600080fd5b60008083601f8401126122ec576122eb612114565b5b8235905067ffffffffffffffff811115612309576123086122cc565b5b602083019150836001820283011115612325576123246122d1565b5b9250929050565b6000806020838503121561234357612342611c91565b5b600083013567ffffffffffffffff81111561236157612360611c96565b5b61236d858286016122d6565b92509250509250929050565b600080604083850312156123905761238f611c91565b5b600061239e85828601611ee7565b92505060206123af85828601611ee7565b9150509250929050565b7f4e487b7100000000000000000000000000000000000000000000000000000000600052602260045260246000fd5b6000600282049050600182168061240057607f821691505b60208210811415612414576124136123b9565b5b50919050565b600081905092915050565b600061243082611d56565b61243a818561241a565b935061244a818560208601611d72565b80840191505092915050565b60006124628285612425565b915061246e8284612425565b91508190509392505050565b7f5265656e7472616e637947756172643a207265656e7472616e742063616c6c00600082015250565b60006124b0601f83611d61565b91506124bb8261247a565b602082019050919050565b600060208201905081810360008301526124df816124a3565b9050919050565b600081905092915050565b50565b60006125016000836124e6565b915061250c826124f1565b600082019050919050565b6000612522826124f4565b9150819050919050565b7f5472616e73666572206661696c65642e00000000000000000000000000000000600082015250565b6000612562601083611d61565b915061256d8261252c565b602082019050919050565b6000602082019050818103600083015261259181612555565b9050919050565b7f4f776e61626c653a206e6577206f776e657220697320746865207a65726f206160008201527f6464726573730000000000000000000000000000000000000000000000000000602082015250565b60006125f4602683611d61565b91506125ff82612598565b604082019050919050565b60006020820190508181036000830152612623816125e7565b9050919050565b7f4f776e61626c653a2063616c6c6572206973206e6f7420746865206f776e6572600082015250565b6000612660602083611d61565b915061266b8261262a565b602082019050919050565b6000602082019050818103600083015261268f81612653565b9050919050565b600081519050919050565b600082825260208201905092915050565b60006126bd82612696565b6126c781856126a1565b93506126d7818560208601611d72565b6126e081611da5565b840191505092915050565b60006080820190506127006000830187611ea6565b61270d6020830186611ea6565b61271a6040830185611f3c565b818103606083015261272c81846126b2565b905095945050505050565b60008151905061274681611cc7565b92915050565b60006020828403121561276257612761611c91565b5b600061277084828501612737565b91505092915050565b6000819050919050565b61279461278f82611e11565b612779565b82525050565b60008160601b9050919050565b60006127b28261279a565b9050919050565b60006127c4826127a7565b9050919050565b6127dc6127d782611e94565b6127b9565b82525050565b60006127ee8285612783565b6020820191506127fe82846127cb565b601482019150819050939250505056fea2646970667358221220e77acc3078e908e22c4466f0fa14d80abefabc8ac1b67cace2c2e28c6b9c325164736f6c63430008090033",
  "linkReferences": {},
  "deployedLinkReferences": {}
}