{
  "_format": "hh-sol-artifact-1",
  "contractName": "BlueDream",
  "sourceName": "contracts/BlueDream.sol",
  "abi": [
    {
      "inputs": [
        {
          "internalType": "address",
          "name": "_controller",
          "type": "address"
        }
      ],
      "stateMutability": "nonpayable",
      "type": "constructor"
    },
    {
      "inputs": [],
      "name": "ApprovalCallerNotOwnerNorApproved",
      "type": "error"
    },
    {
      "inputs": [],
      "name": "ApprovalQueryForNonexistentToken",
      "type": "error"
    },
    {
      "inputs": [],
      "name": "ApproveToCaller",
      "type": "error"
    },
    {
      "inputs": [],
      "name": "BalanceQueryForZeroAddress",
      "type": "error"
    },
    {
      "inputs": [],
      "name": "MintERC2309QuantityExceedsLimit",
      "type": "error"
    },
    {
      "inputs": [],
      "name": "MintToZeroAddress",
      "type": "error"
    },
    {
      "inputs": [],
      "name": "MintZeroQuantity",
      "type": "error"
    },
    {
      "inputs": [],
      "name": "OwnerQueryForNonexistentToken",
      "type": "error"
    },
    {
      "inputs": [],
      "name": "OwnershipNotInitializedForExtraData",
      "type": "error"
    },
    {
      "inputs": [],
      "name": "TransferCallerNotOwnerNorApproved",
      "type": "error"
    },
    {
      "inputs": [],
      "name": "TransferFromIncorrectOwner",
      "type": "error"
    },
    {
      "inputs": [],
      "name": "TransferToNonERC721ReceiverImplementer",
      "type": "error"
    },
    {
      "inputs": [],
      "name": "TransferToZeroAddress",
      "type": "error"
    },
    {
      "inputs": [],
      "name": "URIQueryForNonexistentToken",
      "type": "error"
    },
    {
      "anonymous": false,
      "inputs": [
        {
          "indexed": true,
          "internalType": "address",
          "name": "owner",
          "type": "address"
        },
        {
          "indexed": true,
          "internalType": "address",
          "name": "approved",
          "type": "address"
        },
        {
          "indexed": true,
          "internalType": "uint256",
          "name": "tokenId",
          "type": "uint256"
        }
      ],
      "name": "Approval",
      "type": "event"
    },
    {
      "anonymous": false,
      "inputs": [
        {
          "indexed": true,
          "internalType": "address",
          "name": "owner",
          "type": "address"
        },
        {
          "indexed": true,
          "internalType": "address",
          "name": "operator",
          "type": "address"
        },
        {
          "indexed": false,
          "internalType": "bool",
          "name": "approved",
          "type": "bool"
        }
      ],
      "name": "ApprovalForAll",
      "type": "event"
    },
    {
      "anonymous": false,
      "inputs": [
        {
          "indexed": true,
          "internalType": "uint256",
          "name": "fromTokenId",
          "type": "uint256"
        },
        {
          "indexed": false,
          "internalType": "uint256",
          "name": "toTokenId",
          "type": "uint256"
        },
        {
          "indexed": true,
          "internalType": "address",
          "name": "from",
          "type": "address"
        },
        {
          "indexed": true,
          "internalType": "address",
          "name": "to",
          "type": "address"
        }
      ],
      "name": "ConsecutiveTransfer",
      "type": "event"
    },
    {
      "anonymous": false,
      "inputs": [
        {
          "indexed": true,
          "internalType": "address",
          "name": "previousOwner",
          "type": "address"
        },
        {
          "indexed": true,
          "internalType": "address",
          "name": "newOwner",
          "type": "address"
        }
      ],
      "name": "OwnershipTransferred",
      "type": "event"
    },
    {
      "anonymous": false,
      "inputs": [
        {
          "indexed": false,
          "internalType": "address",
          "name": "account",
          "type": "address"
        }
      ],
      "name": "Paused",
      "type": "event"
    },
    {
      "anonymous": false,
      "inputs": [
        {
          "indexed": true,
          "internalType": "address",
          "name": "from",
          "type": "address"
        },
        {
          "indexed": true,
          "internalType": "address",
          "name": "to",
          "type": "address"
        },
        {
          "indexed": true,
          "internalType": "uint256",
          "name": "tokenId",
          "type": "uint256"
        }
      ],
      "name": "Transfer",
      "type": "event"
    },
    {
      "anonymous": false,
      "inputs": [
        {
          "indexed": false,
          "internalType": "address",
          "name": "account",
          "type": "address"
        }
      ],
      "name": "Unpaused",
      "type": "event"
    },
    {
      "anonymous": false,
      "inputs": [],
      "name": "mintOK",
      "type": "event"
    },
    {
      "anonymous": false,
      "inputs": [],
      "name": "nameChangeOK",
      "type": "event"
    },
    {
      "inputs": [
        {
          "internalType": "address",
          "name": "to",
          "type": "address"
        },
        {
          "internalType": "uint256",
          "name": "tokenId",
          "type": "uint256"
        }
      ],
      "name": "approve",
      "outputs": [],
      "stateMutability": "nonpayable",
      "type": "function"
    },
    {
      "inputs": [
        {
          "internalType": "address",
          "name": "owner",
          "type": "address"
        }
      ],
      "name": "balanceOf",
      "outputs": [
        {
          "internalType": "uint256",
          "name": "",
          "type": "uint256"
        }
      ],
      "stateMutability": "view",
      "type": "function"
    },
    {
      "inputs": [
        {
          "internalType": "uint256",
          "name": "tokenId",
          "type": "uint256"
        },
        {
          "internalType": "string",
          "name": "name",
          "type": "string"
        }
      ],
      "name": "changeName",
      "outputs": [],
      "stateMutability": "payable",
      "type": "function"
    },
    {
      "inputs": [
        {
          "internalType": "uint256",
          "name": "startIndex",
          "type": "uint256"
        },
        {
          "internalType": "uint256",
          "name": "total",
          "type": "uint256"
        }
      ],
      "name": "getAllTokens",
      "outputs": [
        {
          "components": [
            {
              "internalType": "uint256",
              "name": "tokenId",
              "type": "uint256"
            },
            {
              "internalType": "string",
              "name": "name",
              "type": "string"
            },
            {
              "internalType": "bytes32",
              "name": "dna",
              "type": "bytes32"
            },
            {
              "internalType": "bytes32",
              "name": "attributes",
              "type": "bytes32"
            },
            {
              "internalType": "address",
              "name": "owner",
              "type": "address"
            }
          ],
          "internalType": "struct BlueDream.t_token[]",
          "name": "",
          "type": "tuple[]"
        }
      ],
      "stateMutability": "view",
      "type": "function"
    },
    {
      "inputs": [
        {
          "internalType": "uint256",
          "name": "tokenId",
          "type": "uint256"
        }
      ],
      "name": "getApproved",
      "outputs": [
        {
          "internalType": "address",
          "name": "",
          "type": "address"
        }
      ],
      "stateMutability": "view",
      "type": "function"
    },
    {
      "inputs": [
        {
          "internalType": "address",
          "name": "owner",
          "type": "address"
        }
      ],
      "name": "getOwnersTotalTokens",
      "outputs": [
        {
          "internalType": "uint256",
          "name": "",
          "type": "uint256"
        }
      ],
      "stateMutability": "view",
      "type": "function"
    },
    {
      "inputs": [],
      "name": "getState",
      "outputs": [
        {
          "components": [
            {
              "internalType": "address",
              "name": "controller",
              "type": "address"
            },
            {
              "internalType": "string",
              "name": "contractURI",
              "type": "string"
            },
            {
              "internalType": "string",
              "name": "tokenURI",
              "type": "string"
            },
            {
              "internalType": "bool",
              "name": "mintPaused",
              "type": "bool"
            }
          ],
          "internalType": "struct BlueDream.t_state",
          "name": "",
          "type": "tuple"
        }
      ],
      "stateMutability": "view",
      "type": "function"
    },
    {
      "inputs": [
        {
          "internalType": "uint256",
          "name": "tokenId",
          "type": "uint256"
        }
      ],
      "name": "getToken",
      "outputs": [
        {
          "components": [
            {
              "internalType": "uint256",
              "name": "tokenId",
              "type": "uint256"
            },
            {
              "internalType": "string",
              "name": "name",
              "type": "string"
            },
            {
              "internalType": "bytes32",
              "name": "dna",
              "type": "bytes32"
            },
            {
              "internalType": "bytes32",
              "name": "attributes",
              "type": "bytes32"
            },
            {
              "internalType": "address",
              "name": "owner",
              "type": "address"
            }
          ],
          "internalType": "struct BlueDream.t_token",
          "name": "",
          "type": "tuple"
        }
      ],
      "stateMutability": "view",
      "type": "function"
    },
    {
      "inputs": [
        {
          "internalType": "address",
          "name": "owner",
          "type": "address"
        },
        {
          "internalType": "uint256",
          "name": "startIndex",
          "type": "uint256"
        },
        {
          "internalType": "uint256",
          "name": "total",
          "type": "uint256"
        }
      ],
      "name": "getTokensOfOwner",
      "outputs": [
        {
          "components": [
            {
              "internalType": "uint256",
              "name": "tokenId",
              "type": "uint256"
            },
            {
              "internalType": "string",
              "name": "name",
              "type": "string"
            },
            {
              "internalType": "bytes32",
              "name": "dna",
              "type": "bytes32"
            },
            {
              "internalType": "bytes32",
              "name": "attributes",
              "type": "bytes32"
            },
            {
              "internalType": "address",
              "name": "owner",
              "type": "address"
            }
          ],
          "internalType": "struct BlueDream.t_token[]",
          "name": "",
          "type": "tuple[]"
        }
      ],
      "stateMutability": "view",
      "type": "function"
    },
    {
      "inputs": [
        {
          "internalType": "address",
          "name": "owner",
          "type": "address"
        },
        {
          "internalType": "address",
          "name": "operator",
          "type": "address"
        }
      ],
      "name": "isApprovedForAll",
      "outputs": [
        {
          "internalType": "bool",
          "name": "",
          "type": "bool"
        }
      ],
      "stateMutability": "view",
      "type": "function"
    },
    {
      "inputs": [
        {
          "internalType": "address",
          "name": "owner",
          "type": "address"
        },
        {
          "internalType": "string",
          "name": "name",
          "type": "string"
        }
      ],
      "name": "mint",
      "outputs": [],
      "stateMutability": "payable",
      "type": "function"
    },
    {
      "inputs": [],
      "name": "name",
      "outputs": [
        {
          "internalType": "string",
          "name": "",
          "type": "string"
        }
      ],
      "stateMutability": "view",
      "type": "function"
    },
    {
      "inputs": [],
      "name": "owner",
      "outputs": [
        {
          "internalType": "address",
          "name": "",
          "type": "address"
        }
      ],
      "stateMutability": "view",
      "type": "function"
    },
    {
      "inputs": [
        {
          "internalType": "uint256",
          "name": "tokenId",
          "type": "uint256"
        }
      ],
      "name": "ownerOf",
      "outputs": [
        {
          "internalType": "address",
          "name": "",
          "type": "address"
        }
      ],
      "stateMutability": "view",
      "type": "function"
    },
    {
      "inputs": [],
      "name": "paused",
      "outputs": [
        {
          "internalType": "bool",
          "name": "",
          "type": "bool"
        }
      ],
      "stateMutability": "view",
      "type": "function"
    },
    {
      "inputs": [],
      "name": "renounceOwnership",
      "outputs": [],
      "stateMutability": "nonpayable",
      "type": "function"
    },
    {
      "inputs": [
        {
          "internalType": "address",
          "name": "from",
          "type": "address"
        },
        {
          "internalType": "address",
          "name": "to",
          "type": "address"
        },
        {
          "internalType": "uint256",
          "name": "tokenId",
          "type": "uint256"
        }
      ],
      "name": "safeTransferFrom",
      "outputs": [],
      "stateMutability": "nonpayable",
      "type": "function"
    },
    {
      "inputs": [
        {
          "internalType": "address",
          "name": "from",
          "type": "address"
        },
        {
          "internalType": "address",
          "name": "to",
          "type": "address"
        },
        {
          "internalType": "uint256",
          "name": "tokenId",
          "type": "uint256"
        },
        {
          "internalType": "bytes",
          "name": "_data",
          "type": "bytes"
        }
      ],
      "name": "safeTransferFrom",
      "outputs": [],
      "stateMutability": "nonpayable",
      "type": "function"
    },
    {
      "inputs": [
        {
          "internalType": "address",
          "name": "operator",
          "type": "address"
        },
        {
          "internalType": "bool",
          "name": "approved",
          "type": "bool"
        }
      ],
      "name": "setApprovalForAll",
      "outputs": [],
      "stateMutability": "nonpayable",
      "type": "function"
    },
    {
      "inputs": [
        {
          "internalType": "address",
          "name": "__controller",
          "type": "address"
        },
        {
          "internalType": "string",
          "name": "__contractURI",
          "type": "string"
        },
        {
          "internalType": "string",
          "name": "__tokenURI",
          "type": "string"
        },
        {
          "internalType": "bool",
          "name": "pauseMint",
          "type": "bool"
        }
      ],
      "name": "setState",
      "outputs": [],
      "stateMutability": "nonpayable",
      "type": "function"
    },
    {
      "inputs": [
        {
          "internalType": "bytes4",
          "name": "interfaceId",
          "type": "bytes4"
        }
      ],
      "name": "supportsInterface",
      "outputs": [
        {
          "internalType": "bool",
          "name": "",
          "type": "bool"
        }
      ],
      "stateMutability": "view",
      "type": "function"
    },
    {
      "inputs": [],
      "name": "symbol",
      "outputs": [
        {
          "internalType": "string",
          "name": "",
          "type": "string"
        }
      ],
      "stateMutability": "view",
      "type": "function"
    },
    {
      "inputs": [
        {
          "internalType": "uint256",
          "name": "tokenId",
          "type": "uint256"
        }
      ],
      "name": "tokenURI",
      "outputs": [
        {
          "internalType": "string",
          "name": "",
          "type": "string"
        }
      ],
      "stateMutability": "view",
      "type": "function"
    },
    {
      "inputs": [],
      "name": "totalSupply",
      "outputs": [
        {
          "internalType": "uint256",
          "name": "",
          "type": "uint256"
        }
      ],
      "stateMutability": "view",
      "type": "function"
    },
    {
      "inputs": [
        {
          "internalType": "address",
          "name": "from",
          "type": "address"
        },
        {
          "internalType": "address",
          "name": "to",
          "type": "address"
        },
        {
          "internalType": "uint256",
          "name": "tokenId",
          "type": "uint256"
        }
      ],
      "name": "transferFrom",
      "outputs": [],
      "stateMutability": "nonpayable",
      "type": "function"
    },
    {
      "inputs": [
        {
          "internalType": "address",
          "name": "newOwner",
          "type": "address"
        }
      ],
      "name": "transferOwnership",
      "outputs": [],
      "stateMutability": "nonpayable",
      "type": "function"
    },
    {
      "inputs": [],
      "name": "withdrawVault",
      "outputs": [],
      "stateMutability": "nonpayable",
      "type": "function"
    }
  ],
  "bytecode": "0x60806040526000600d553480156200001657600080fd5b5060405162004ac538038062004ac583398181016040528101906200003c9190620003c6565b6040518060400160405280600a81526020017f426c756520447265616d000000000000000000000000000000000000000000008152506040518060400160405280600281526020017f4d550000000000000000000000000000000000000000000000000000000000008152508160029080519060200190620000c0929190620002ac565b508060039080519060200190620000d9929190620002ac565b50620000ea620001d560201b60201c565b60008190555050506200011262000106620001de60201b60201c565b620001e660201b60201c565b6000600860146101000a81548160ff021916908315150217905550600160098190555080600a60006101000a81548173ffffffffffffffffffffffffffffffffffffffff021916908373ffffffffffffffffffffffffffffffffffffffff16021790555060405180602001604052806000815250600b90805190602001906200019d929190620002ac565b5060405180602001604052806000815250600c9080519060200190620001c5929190620002ac565b506001600d81905550506200045d565b60006001905090565b600033905090565b6000600860009054906101000a900473ffffffffffffffffffffffffffffffffffffffff16905081600860006101000a81548173ffffffffffffffffffffffffffffffffffffffff021916908373ffffffffffffffffffffffffffffffffffffffff1602179055508173ffffffffffffffffffffffffffffffffffffffff168173ffffffffffffffffffffffffffffffffffffffff167f8be0079c531659141344cd1fd0a4f28419497f9722a3daafe3b4186f6b6457e060405160405180910390a35050565b828054620002ba9062000427565b90600052602060002090601f016020900481019282620002de57600085556200032a565b82601f10620002f957805160ff19168380011785556200032a565b828001600101855582156200032a579182015b82811115620003295782518255916020019190600101906200030c565b5b5090506200033991906200033d565b5090565b5b80821115620003585760008160009055506001016200033e565b5090565b600080fd5b600073ffffffffffffffffffffffffffffffffffffffff82169050919050565b60006200038e8262000361565b9050919050565b620003a08162000381565b8114620003ac57600080fd5b50565b600081519050620003c08162000395565b92915050565b600060208284031215620003df57620003de6200035c565b5b6000620003ef84828501620003af565b91505092915050565b7f4e487b7100000000000000000000000000000000000000000000000000000000600052602260045260246000fd5b600060028204905060018216806200044057607f821691505b60208210811415620004575762000456620003f8565b5b50919050565b614658806200046d6000396000f3fe60806040526004361061019c5760003560e01c8063715018a6116100ec578063c39cbef11161008a578063d0def52111610064578063d0def521146105cb578063e4b50cb8146105e7578063e985e9c514610624578063f2fde38b146106615761019c565b8063c39cbef11461055b578063c87b56dd14610577578063d0d0ed05146105b45761019c565b806395d89b41116100c657806395d89b41146104a15780639a043832146104cc578063a22cb46514610509578063b88d4fde146105325761019c565b8063715018a61461042257806389edc438146104395780638da5cb5b146104765761019c565b80631865c57d116101595780635c975abb116101335780635c975abb146103405780636352211e1461036b5780636f49b96a146103a857806370a08231146103e55761019c565b80631865c57d146102c357806323b872dd146102ee57806342842e0e146103175761019c565b806301ffc9a7146101a157806306fdde03146101de578063081812fc14610209578063095ea7b3146102465780631185e8431461026f57806318160ddd14610298575b600080fd5b3480156101ad57600080fd5b506101c860048036038101906101c391906130d3565b61068a565b6040516101d5919061311b565b60405180910390f35b3480156101ea57600080fd5b506101f361071c565b60405161020091906131cf565b60405180910390f35b34801561021557600080fd5b50610230600480360381019061022b9190613227565b6107ae565b60405161023d9190613295565b60405180910390f35b34801561025257600080fd5b5061026d600480360381019061026891906132dc565b61082d565b005b34801561027b57600080fd5b50610296600480360381019061029191906133ad565b610971565b005b3480156102a457600080fd5b506102ad610a02565b6040516102ba9190613463565b60405180910390f35b3480156102cf57600080fd5b506102d8610a19565b6040516102e59190613550565b60405180910390f35b3480156102fa57600080fd5b5061031560048036038101906103109190613572565b610ba4565b005b34801561032357600080fd5b5061033e60048036038101906103399190613572565b610ec9565b005b34801561034c57600080fd5b50610355610ee9565b604051610362919061311b565b60405180910390f35b34801561037757600080fd5b50610392600480360381019061038d9190613227565b610f00565b60405161039f9190613295565b60405180910390f35b3480156103b457600080fd5b506103cf60048036038101906103ca91906135c5565b610f12565b6040516103dc9190613463565b60405180910390f35b3480156103f157600080fd5b5061040c600480360381019061040791906135c5565b610f5b565b6040516104199190613463565b60405180910390f35b34801561042e57600080fd5b50610437611014565b005b34801561044557600080fd5b50610460600480360381019061045b91906135f2565b611028565b60405161046d91906137a5565b60405180910390f35b34801561048257600080fd5b5061048b6112c0565b6040516104989190613295565b60405180910390f35b3480156104ad57600080fd5b506104b66112ea565b6040516104c391906131cf565b60405180910390f35b3480156104d857600080fd5b506104f360048036038101906104ee91906137c7565b61137c565b60405161050091906137a5565b60405180910390f35b34801561051557600080fd5b50610530600480360381019061052b9190613807565b6115d0565b005b34801561053e57600080fd5b5061055960048036038101906105549190613977565b611748565b005b61057560048036038101906105709190613a9b565b6117bb565b005b34801561058357600080fd5b5061059e60048036038101906105999190613227565b6118fa565b6040516105ab91906131cf565b60405180910390f35b3480156105c057600080fd5b506105c9611999565b005b6105e560048036038101906105e09190613af7565b611aa6565b005b3480156105f357600080fd5b5061060e60048036038101906106099190613227565b611d10565b60405161061b9190613bc9565b60405180910390f35b34801561063057600080fd5b5061064b60048036038101906106469190613beb565b611e68565b604051610658919061311b565b60405180910390f35b34801561066d57600080fd5b50610688600480360381019061068391906135c5565b611efc565b005b60006301ffc9a760e01b827bffffffffffffffffffffffffffffffffffffffffffffffffffffffff191614806106e557506380ac58cd60e01b827bffffffffffffffffffffffffffffffffffffffffffffffffffffffff1916145b806107155750635b5e139f60e01b827bffffffffffffffffffffffffffffffffffffffffffffffffffffffff1916145b9050919050565b60606002805461072b90613c5a565b80601f016020809104026020016040519081016040528092919081815260200182805461075790613c5a565b80156107a45780601f10610779576101008083540402835291602001916107a4565b820191906000526020600020905b81548152906001019060200180831161078757829003601f168201915b5050505050905090565b60006107b982611f80565b6107ef576040517fcf4700e400000000000000000000000000000000000000000000000000000000815260040160405180910390fd5b6006600083815260200190815260200160002060000160009054906101000a900473ffffffffffffffffffffffffffffffffffffffff169050919050565b600061083882610f00565b90508073ffffffffffffffffffffffffffffffffffffffff16610859611fdf565b73ffffffffffffffffffffffffffffffffffffffff16146108bc5761088581610880611fdf565b611e68565b6108bb576040517fcfb3b94200000000000000000000000000000000000000000000000000000000815260040160405180910390fd5b5b826006600084815260200190815260200160002060000160006101000a81548173ffffffffffffffffffffffffffffffffffffffff021916908373ffffffffffffffffffffffffffffffffffffffff160217905550818373ffffffffffffffffffffffffffffffffffffffff168273ffffffffffffffffffffffffffffffffffffffff167f8c5be1e5ebec7d5bd14f71427d1e84f3dd0314c0f7b2291e5b200ac8c7c3b92560405160405180910390a4505050565b610979611fe7565b85600a60006101000a81548173ffffffffffffffffffffffffffffffffffffffff021916908373ffffffffffffffffffffffffffffffffffffffff1602179055508484600b91906109cb929190612eb3565b508282600c91906109dd929190612eb3565b5080156109f1576109ec612065565b6109fa565b6109f96120c8565b5b505050505050565b6000610a0c61212b565b6001546000540303905090565b610a21612f39565b610a29611fe7565b6040518060800160405280600a60009054906101000a900473ffffffffffffffffffffffffffffffffffffffff1673ffffffffffffffffffffffffffffffffffffffff168152602001600b8054610a7f90613c5a565b80601f0160208091040260200160405190810160405280929190818152602001828054610aab90613c5a565b8015610af85780601f10610acd57610100808354040283529160200191610af8565b820191906000526020600020905b815481529060010190602001808311610adb57829003601f168201915b50505050508152602001600c8054610b0f90613c5a565b80601f0160208091040260200160405190810160405280929190818152602001828054610b3b90613c5a565b8015610b885780601f10610b5d57610100808354040283529160200191610b88565b820191906000526020600020905b815481529060010190602001808311610b6b57829003601f168201915b50505050508152602001610b9a610ee9565b1515815250905090565b6000610baf82612134565b90508373ffffffffffffffffffffffffffffffffffffffff168173ffffffffffffffffffffffffffffffffffffffff1614610c16576040517fa114810000000000000000000000000000000000000000000000000000000000815260040160405180910390fd5b600080610c2284612202565b91509150610c388187610c33611fdf565b612229565b610c8457610c4d86610c48611fdf565b611e68565b610c83576040517f59c896be00000000000000000000000000000000000000000000000000000000815260040160405180910390fd5b5b600073ffffffffffffffffffffffffffffffffffffffff168573ffffffffffffffffffffffffffffffffffffffff161415610ceb576040517fea553b3400000000000000000000000000000000000000000000000000000000815260040160405180910390fd5b610cf8868686600161226d565b8015610d0357600082555b600560008773ffffffffffffffffffffffffffffffffffffffff1673ffffffffffffffffffffffffffffffffffffffff168152602001908152602001600020600081546001900391905081905550600560008673ffffffffffffffffffffffffffffffffffffffff1673ffffffffffffffffffffffffffffffffffffffff1681526020019081526020016000206000815460010191905081905550610dd185610dad888887612273565b7c02000000000000000000000000000000000000000000000000000000001761229b565b600460008681526020019081526020016000208190555060007c020000000000000000000000000000000000000000000000000000000084161415610e59576000600185019050600060046000838152602001908152602001600020541415610e57576000548114610e56578360046000838152602001908152602001600020819055505b5b505b838573ffffffffffffffffffffffffffffffffffffffff168773ffffffffffffffffffffffffffffffffffffffff167fddf252ad1be2c89b69c2b068fc378daa952ba7f163c4a11628f55a4df523b3ef60405160405180910390a4610ec186868660016122c6565b505050505050565b610ee483838360405180602001604052806000815250611748565b505050565b6000600860149054906101000a900460ff16905090565b6000610f0b82612134565b9050919050565b6000601060008373ffffffffffffffffffffffffffffffffffffffff1673ffffffffffffffffffffffffffffffffffffffff168152602001908152602001600020549050919050565b60008073ffffffffffffffffffffffffffffffffffffffff168273ffffffffffffffffffffffffffffffffffffffff161415610fc3576040517f8f4eb60400000000000000000000000000000000000000000000000000000000815260040160405180910390fd5b67ffffffffffffffff600560008473ffffffffffffffffffffffffffffffffffffffff1673ffffffffffffffffffffffffffffffffffffffff16815260200190815260200160002054169050919050565b61101c611fe7565b61102660006122d7565b565b60606000600f60008673ffffffffffffffffffffffffffffffffffffffff1673ffffffffffffffffffffffffffffffffffffffff16815260200190815260200160002090508080549050841061107d57600093505b600083148061109a57508381805490506110979190613cbb565b83115b156110b2578381805490506110af9190613cbb565b92505b60008367ffffffffffffffff8111156110ce576110cd61384c565b5b60405190808252806020026020018201604052801561110757816020015b6110f4612f79565b8152602001906001900390816110ec5790505b5090506000828054905014156111215780925050506112b9565b600080600090505b858110156112b15783818861113e9190613cef565b8154811061114f5761114e613d45565b5b90600052602060002001549150600e60008381526020019081526020016000206040518060a00160405290816000820154815260200160018201805461119490613c5a565b80601f01602080910402602001604051908101604052809291908181526020018280546111c090613c5a565b801561120d5780601f106111e25761010080835404028352916020019161120d565b820191906000526020600020905b8154815290600101906020018083116111f057829003601f168201915b5050505050815260200160028201548152602001600382015481526020016004820160009054906101000a900473ffffffffffffffffffffffffffffffffffffffff1673ffffffffffffffffffffffffffffffffffffffff1673ffffffffffffffffffffffffffffffffffffffff168152505083828151811061129357611292613d45565b5b602002602001018190525080806112a990613d74565b915050611129565b829450505050505b9392505050565b6000600860009054906101000a900473ffffffffffffffffffffffffffffffffffffffff16905090565b6060600380546112f990613c5a565b80601f016020809104026020016040519081016040528092919081815260200182805461132590613c5a565b80156113725780601f1061134757610100808354040283529160200191611372565b820191906000526020600020905b81548152906001019060200180831161135557829003601f168201915b5050505050905090565b60606000611388610a02565b9050600084148061139857508084115b156113a257600193505b60008314806113c75750836001826113ba9190613cef565b6113c49190613cbb565b83115b156113e757836001826113da9190613cef565b6113e49190613cbb565b92505b60008367ffffffffffffffff8111156114035761140261384c565b5b60405190808252806020026020018201604052801561143c57816020015b611429612f79565b8152602001906001900390816114215790505b50905060008214156114525780925050506115ca565b60005b848110156115c3576000600e6000838961146f9190613cef565b81526020019081526020016000209050806040518060a0016040529081600082015481526020016001820180546114a590613c5a565b80601f01602080910402602001604051908101604052809291908181526020018280546114d190613c5a565b801561151e5780601f106114f35761010080835404028352916020019161151e565b820191906000526020600020905b81548152906001019060200180831161150157829003601f168201915b5050505050815260200160028201548152602001600382015481526020016004820160009054906101000a900473ffffffffffffffffffffffffffffffffffffffff1673ffffffffffffffffffffffffffffffffffffffff1673ffffffffffffffffffffffffffffffffffffffff16815250508383815181106115a4576115a3613d45565b5b60200260200101819052505080806115bb90613d74565b915050611455565b5080925050505b92915050565b6115d8611fdf565b73ffffffffffffffffffffffffffffffffffffffff168273ffffffffffffffffffffffffffffffffffffffff16141561163d576040517fb06307db00000000000000000000000000000000000000000000000000000000815260040160405180910390fd5b806007600061164a611fdf565b73ffffffffffffffffffffffffffffffffffffffff1673ffffffffffffffffffffffffffffffffffffffff16815260200190815260200160002060008473ffffffffffffffffffffffffffffffffffffffff1673ffffffffffffffffffffffffffffffffffffffff16815260200190815260200160002060006101000a81548160ff0219169083151502179055508173ffffffffffffffffffffffffffffffffffffffff166116f7611fdf565b73ffffffffffffffffffffffffffffffffffffffff167f17307eab39ab6107e8899845ad3d59bd9653f200f220920489ca2b5937696c318360405161173c919061311b565b60405180910390a35050565b611753848484610ba4565b60008373ffffffffffffffffffffffffffffffffffffffff163b146117b55761177e8484848461239d565b6117b4576040517fd1a57ed600000000000000000000000000000000000000000000000000000000815260040160405180910390fd5b5b50505050565b600a60009054906101000a900473ffffffffffffffffffffffffffffffffffffffff1673ffffffffffffffffffffffffffffffffffffffff166117fc611fdf565b73ffffffffffffffffffffffffffffffffffffffff1614611852576040517f08c379a000000000000000000000000000000000000000000000000000000000815260040161184990613e2f565b60405180910390fd5b61185b826124fd565b602081511061189f576040517f08c379a000000000000000000000000000000000000000000000000000000000815260040161189690613e9b565b60405180910390fd5b80600e600084815260200190815260200160002060010190805190602001906118c9929190612fc4565b507f7a01d97180cb1a63fc0324e7fb74b4914563c02e6d0dbf5653ea4fb10bd0d19260405160405180910390a15050565b606061190582611f80565b61193b576040517fa14c4b5000000000000000000000000000000000000000000000000000000000815260040160405180910390fd5b60006119456125dd565b90506000815114156119665760405180602001604052806000815250611991565b806119708461266f565b604051602001611981929190613ef7565b6040516020818303038152906040525b915050919050565b600260095414156119df576040517f08c379a00000000000000000000000000000000000000000000000000000000081526004016119d690613f67565b60405180910390fd5b60026009819055506119ef611fe7565b60003373ffffffffffffffffffffffffffffffffffffffff1647604051611a1590613fb8565b60006040518083038185875af1925050503d8060008114611a52576040519150601f19603f3d011682016040523d82523d6000602084013e611a57565b606091505b5050905080611a9b576040517f08c379a0000000000000000000000000000000000000000000000000000000008152600401611a9290614019565b60405180910390fd5b506001600981905550565b600a60009054906101000a900473ffffffffffffffffffffffffffffffffffffffff1673ffffffffffffffffffffffffffffffffffffffff16611ae7611fdf565b73ffffffffffffffffffffffffffffffffffffffff1614611b3d576040517f08c379a0000000000000000000000000000000000000000000000000000000008152600401611b3490613e2f565b60405180910390fd5b611b456126c9565b60026009541415611b8b576040517f08c379a0000000000000000000000000000000000000000000000000000000008152600401611b8290613f67565b60405180910390fd5b60026009819055506014611b9d610a02565b10611bdd576040517f08c379a0000000000000000000000000000000000000000000000000000000008152600401611bd490614085565b60405180910390fd5b6000611be7612713565b9050611bf483600161271c565b6040518060a00160405280828152602001838152602001611c1361273a565b8152602001611c2061273a565b81526020018473ffffffffffffffffffffffffffffffffffffffff16815250600e6000838152602001908152602001600020600082015181600001556020820151816001019080519060200190611c78929190612fc4565b50604082015181600201556060820151816003015560808201518160040160006101000a81548173ffffffffffffffffffffffffffffffffffffffff021916908373ffffffffffffffffffffffffffffffffffffffff1602179055509050507f2bd97f55f36ba4381547ce09e7c83bad49675c9c38a7c9096a31f20ac07dbf4e60405160405180910390a15060016009819055505050565b611d18612f79565b6000611d22610a02565b90506000831480611d3257508083115b15611d3c57600192505b600e60008481526020019081526020016000206040518060a001604052908160008201548152602001600182018054611d7490613c5a565b80601f0160208091040260200160405190810160405280929190818152602001828054611da090613c5a565b8015611ded5780601f10611dc257610100808354040283529160200191611ded565b820191906000526020600020905b815481529060010190602001808311611dd057829003601f168201915b5050505050815260200160028201548152602001600382015481526020016004820160009054906101000a900473ffffffffffffffffffffffffffffffffffffffff1673ffffffffffffffffffffffffffffffffffffffff1673ffffffffffffffffffffffffffffffffffffffff1681525050915050919050565b6000600760008473ffffffffffffffffffffffffffffffffffffffff1673ffffffffffffffffffffffffffffffffffffffff16815260200190815260200160002060008373ffffffffffffffffffffffffffffffffffffffff1673ffffffffffffffffffffffffffffffffffffffff16815260200190815260200160002060009054906101000a900460ff16905092915050565b611f04611fe7565b600073ffffffffffffffffffffffffffffffffffffffff168173ffffffffffffffffffffffffffffffffffffffff161415611f74576040517f08c379a0000000000000000000000000000000000000000000000000000000008152600401611f6b90614117565b60405180910390fd5b611f7d816122d7565b50565b600081611f8b61212b565b11158015611f9a575060005482105b8015611fd8575060007c0100000000000000000000000000000000000000000000000000000000600460008581526020019081526020016000205416145b9050919050565b600033905090565b611fef61281b565b73ffffffffffffffffffffffffffffffffffffffff1661200d6112c0565b73ffffffffffffffffffffffffffffffffffffffff1614612063576040517f08c379a000000000000000000000000000000000000000000000000000000000815260040161205a90614183565b60405180910390fd5b565b61206d6126c9565b6001600860146101000a81548160ff0219169083151502179055507f62e78cea01bee320cd4e420270b5ea74000d11b0c9f74754ebdbfc544b05a2586120b161281b565b6040516120be9190613295565b60405180910390a1565b6120d0612823565b6000600860146101000a81548160ff0219169083151502179055507f5db9ee0a495bf2e6ff9c91a7834c1ba4fdd244a5e8aa4e537bd38aeae4b073aa61211461281b565b6040516121219190613295565b60405180910390a1565b60006001905090565b6000808290508061214361212b565b116121cb576000548110156121ca5760006004600083815260200190815260200160002054905060007c0100000000000000000000000000000000000000000000000000000000821614156121c8575b60008114156121be576004600083600190039350838152602001908152602001600020549050612193565b80925050506121fd565b505b5b6040517fdf2d9b4200000000000000000000000000000000000000000000000000000000815260040160405180910390fd5b919050565b60008060006006600085815260200190815260200160002090508092508254915050915091565b600073ffffffffffffffffffffffffffffffffffffffff8316925073ffffffffffffffffffffffffffffffffffffffff821691508382148383141790509392505050565b50505050565b60008060e883901c905060e861228a86868461286c565b62ffffff16901b9150509392505050565b600073ffffffffffffffffffffffffffffffffffffffff83169250814260a01b178317905092915050565b6122d1848484612875565b50505050565b6000600860009054906101000a900473ffffffffffffffffffffffffffffffffffffffff16905081600860006101000a81548173ffffffffffffffffffffffffffffffffffffffff021916908373ffffffffffffffffffffffffffffffffffffffff1602179055508173ffffffffffffffffffffffffffffffffffffffff168173ffffffffffffffffffffffffffffffffffffffff167f8be0079c531659141344cd1fd0a4f28419497f9722a3daafe3b4186f6b6457e060405160405180910390a35050565b60008373ffffffffffffffffffffffffffffffffffffffff1663150b7a026123c3611fdf565b8786866040518563ffffffff1660e01b81526004016123e594939291906141f8565b602060405180830381600087803b1580156123ff57600080fd5b505af192505050801561243057506040513d601f19601f8201168201806040525081019061242d9190614259565b60015b6124aa573d8060008114612460576040519150601f19603f3d011682016040523d82523d6000602084013e612465565b606091505b506000815114156124a2576040517fd1a57ed600000000000000000000000000000000000000000000000000000000815260040160405180910390fd5b805181602001fd5b63150b7a0260e01b7bffffffffffffffffffffffffffffffffffffffffffffffffffffffff1916817bffffffffffffffffffffffffffffffffffffffffffffffffffffffff191614915050949350505050565b6000600e6000838152602001908152602001600020600001541415612557576040517f08c379a000000000000000000000000000000000000000000000000000000000815260040161254e906142d2565b60405180910390fd5b600061256282610f00565b90508073ffffffffffffffffffffffffffffffffffffffff16612583611fdf565b73ffffffffffffffffffffffffffffffffffffffff16146125d9576040517f08c379a00000000000000000000000000000000000000000000000000000000081526004016125d09061433e565b60405180910390fd5b5050565b6060600c80546125ec90613c5a565b80601f016020809104026020016040519081016040528092919081815260200182805461261890613c5a565b80156126655780601f1061263a57610100808354040283529160200191612665565b820191906000526020600020905b81548152906001019060200180831161264857829003601f168201915b5050505050905090565b60606080604051019050806040528082600183039250600a81066030018353600a810490505b80156126b557600183039250600a81066030018353600a81049050612695565b508181036020830392508083525050919050565b6126d1610ee9565b15612711576040517f08c379a0000000000000000000000000000000000000000000000000000000008152600401612708906143aa565b60405180910390fd5b565b60008054905090565b612736828260405180602001604052806000815250612c49565b5050565b600062010000600d541115612756576001600d8190555061276f565b600d600081548092919061276990613d74565b91905055505b6002600d5461277e91906143ca565b426003600d5461278e91906143ca565b436127999190613cef565b60806005600d546127aa91906143ca565b6127b49190614453565b436127bf9190613cef565b42186101006007600d546127d391906143ca565b6127dd9190614453565b436127e89190613cef565b421733604051602001612800969594939291906144ed565b60405160208183030381529060405280519060200120905090565b600033905090565b61282b610ee9565b61286a576040517f08c379a0000000000000000000000000000000000000000000000000000000008152600401612861906145a9565b60405180910390fd5b565b60009392505050565b81600e600083815260200190815260200160002060040160006101000a81548173ffffffffffffffffffffffffffffffffffffffff021916908373ffffffffffffffffffffffffffffffffffffffff16021790555060008073ffffffffffffffffffffffffffffffffffffffff168473ffffffffffffffffffffffffffffffffffffffff1614612b885760005b600f60008673ffffffffffffffffffffffffffffffffffffffff1673ffffffffffffffffffffffffffffffffffffffff16815260200190815260200160002080549050811015612b865782600f60008773ffffffffffffffffffffffffffffffffffffffff1673ffffffffffffffffffffffffffffffffffffffff168152602001908152602001600020828154811061299e5761299d613d45565b5b90600052602060002001541415612b7357600f60008673ffffffffffffffffffffffffffffffffffffffff1673ffffffffffffffffffffffffffffffffffffffff1681526020019081526020016000206001600f60008873ffffffffffffffffffffffffffffffffffffffff1673ffffffffffffffffffffffffffffffffffffffff16815260200190815260200160002080549050612a3d9190613cbb565b81548110612a4e57612a4d613d45565b5b9060005260206000200154600f60008773ffffffffffffffffffffffffffffffffffffffff1673ffffffffffffffffffffffffffffffffffffffff1681526020019081526020016000208381548110612aaa57612aa9613d45565b5b9060005260206000200181905550600f60008673ffffffffffffffffffffffffffffffffffffffff1673ffffffffffffffffffffffffffffffffffffffff168152602001908152602001600020805480612b0757612b066145c9565b5b60019003818190600052602060002001600090559055601060008673ffffffffffffffffffffffffffffffffffffffff1673ffffffffffffffffffffffffffffffffffffffff1681526020019081526020016000206000815480929190612b6d906145f8565b91905055505b8080612b7e90613d74565b915050612902565b505b601060008473ffffffffffffffffffffffffffffffffffffffff1673ffffffffffffffffffffffffffffffffffffffff1681526020019081526020016000206000815480929190612bd890613d74565b9190505550600f60008473ffffffffffffffffffffffffffffffffffffffff1673ffffffffffffffffffffffffffffffffffffffff16815260200190815260200160002082908060018154018082558091505060019003906000526020600020016000909190919091505550505050565b612c538383612ce6565b60008373ffffffffffffffffffffffffffffffffffffffff163b14612ce157600080549050600083820390505b612c93600086838060010194508661239d565b612cc9576040517fd1a57ed600000000000000000000000000000000000000000000000000000000815260040160405180910390fd5b818110612c80578160005414612cde57600080fd5b50505b505050565b6000805490506000821415612d27576040517fb562e8dd00000000000000000000000000000000000000000000000000000000815260040160405180910390fd5b612d34600084838561226d565b600160406001901b178202600560008573ffffffffffffffffffffffffffffffffffffffff1673ffffffffffffffffffffffffffffffffffffffff16815260200190815260200160002060008282540192505081905550612dab83612d9c6000866000612273565b612da585612ea3565b1761229b565b6004600083815260200190815260200160002081905550600080838301905073ffffffffffffffffffffffffffffffffffffffff85169150828260007fddf252ad1be2c89b69c2b068fc378daa952ba7f163c4a11628f55a4df523b3ef600080a4600183015b818114612e4c57808360007fddf252ad1be2c89b69c2b068fc378daa952ba7f163c4a11628f55a4df523b3ef600080a4600181019050612e11565b506000821415612e88576040517f2e07630000000000000000000000000000000000000000000000000000000000815260040160405180910390fd5b806000819055505050612e9e60008483856122c6565b505050565b60006001821460e11b9050919050565b828054612ebf90613c5a565b90600052602060002090601f016020900481019282612ee15760008555612f28565b82601f10612efa57803560ff1916838001178555612f28565b82800160010185558215612f28579182015b82811115612f27578235825591602001919060010190612f0c565b5b509050612f35919061304a565b5090565b6040518060800160405280600073ffffffffffffffffffffffffffffffffffffffff16815260200160608152602001606081526020016000151581525090565b6040518060a0016040528060008152602001606081526020016000801916815260200160008019168152602001600073ffffffffffffffffffffffffffffffffffffffff1681525090565b828054612fd090613c5a565b90600052602060002090601f016020900481019282612ff25760008555613039565b82601f1061300b57805160ff1916838001178555613039565b82800160010185558215613039579182015b8281111561303857825182559160200191906001019061301d565b5b509050613046919061304a565b5090565b5b8082111561306357600081600090555060010161304b565b5090565b6000604051905090565b600080fd5b600080fd5b60007fffffffff0000000000000000000000000000000000000000000000000000000082169050919050565b6130b08161307b565b81146130bb57600080fd5b50565b6000813590506130cd816130a7565b92915050565b6000602082840312156130e9576130e8613071565b5b60006130f7848285016130be565b91505092915050565b60008115159050919050565b61311581613100565b82525050565b6000602082019050613130600083018461310c565b92915050565b600081519050919050565b600082825260208201905092915050565b60005b83811015613170578082015181840152602081019050613155565b8381111561317f576000848401525b50505050565b6000601f19601f8301169050919050565b60006131a182613136565b6131ab8185613141565b93506131bb818560208601613152565b6131c481613185565b840191505092915050565b600060208201905081810360008301526131e98184613196565b905092915050565b6000819050919050565b613204816131f1565b811461320f57600080fd5b50565b600081359050613221816131fb565b92915050565b60006020828403121561323d5761323c613071565b5b600061324b84828501613212565b91505092915050565b600073ffffffffffffffffffffffffffffffffffffffff82169050919050565b600061327f82613254565b9050919050565b61328f81613274565b82525050565b60006020820190506132aa6000830184613286565b92915050565b6132b981613274565b81146132c457600080fd5b50565b6000813590506132d6816132b0565b92915050565b600080604083850312156132f3576132f2613071565b5b6000613301858286016132c7565b925050602061331285828601613212565b9150509250929050565b600080fd5b600080fd5b600080fd5b60008083601f8401126133415761334061331c565b5b8235905067ffffffffffffffff81111561335e5761335d613321565b5b60208301915083600182028301111561337a57613379613326565b5b9250929050565b61338a81613100565b811461339557600080fd5b50565b6000813590506133a781613381565b92915050565b600080600080600080608087890312156133ca576133c9613071565b5b60006133d889828a016132c7565b965050602087013567ffffffffffffffff8111156133f9576133f8613076565b5b61340589828a0161332b565b9550955050604087013567ffffffffffffffff81111561342857613427613076565b5b61343489828a0161332b565b9350935050606061344789828a01613398565b9150509295509295509295565b61345d816131f1565b82525050565b60006020820190506134786000830184613454565b92915050565b61348781613274565b82525050565b600082825260208201905092915050565b60006134a982613136565b6134b3818561348d565b93506134c3818560208601613152565b6134cc81613185565b840191505092915050565b6134e081613100565b82525050565b60006080830160008301516134fe600086018261347e565b5060208301518482036020860152613516828261349e565b91505060408301518482036040860152613530828261349e565b915050606083015161354560608601826134d7565b508091505092915050565b6000602082019050818103600083015261356a81846134e6565b905092915050565b60008060006060848603121561358b5761358a613071565b5b6000613599868287016132c7565b93505060206135aa868287016132c7565b92505060406135bb86828701613212565b9150509250925092565b6000602082840312156135db576135da613071565b5b60006135e9848285016132c7565b91505092915050565b60008060006060848603121561360b5761360a613071565b5b6000613619868287016132c7565b935050602061362a86828701613212565b925050604061363b86828701613212565b9150509250925092565b600081519050919050565b600082825260208201905092915050565b6000819050602082019050919050565b61367a816131f1565b82525050565b6000819050919050565b61369381613680565b82525050565b600060a0830160008301516136b16000860182613671565b50602083015184820360208601526136c9828261349e565b91505060408301516136de604086018261368a565b5060608301516136f1606086018261368a565b506080830151613704608086018261347e565b508091505092915050565b600061371b8383613699565b905092915050565b6000602082019050919050565b600061373b82613645565b6137458185613650565b93508360208202850161375785613661565b8060005b858110156137935784840389528151613774858261370f565b945061377f83613723565b925060208a0199505060018101905061375b565b50829750879550505050505092915050565b600060208201905081810360008301526137bf8184613730565b905092915050565b600080604083850312156137de576137dd613071565b5b60006137ec85828601613212565b92505060206137fd85828601613212565b9150509250929050565b6000806040838503121561381e5761381d613071565b5b600061382c858286016132c7565b925050602061383d85828601613398565b9150509250929050565b600080fd5b7f4e487b7100000000000000000000000000000000000000000000000000000000600052604160045260246000fd5b61388482613185565b810181811067ffffffffffffffff821117156138a3576138a261384c565b5b80604052505050565b60006138b6613067565b90506138c2828261387b565b919050565b600067ffffffffffffffff8211156138e2576138e161384c565b5b6138eb82613185565b9050602081019050919050565b82818337600083830152505050565b600061391a613915846138c7565b6138ac565b90508281526020810184848401111561393657613935613847565b5b6139418482856138f8565b509392505050565b600082601f83011261395e5761395d61331c565b5b813561396e848260208601613907565b91505092915050565b6000806000806080858703121561399157613990613071565b5b600061399f878288016132c7565b94505060206139b0878288016132c7565b93505060406139c187828801613212565b925050606085013567ffffffffffffffff8111156139e2576139e1613076565b5b6139ee87828801613949565b91505092959194509250565b600067ffffffffffffffff821115613a1557613a1461384c565b5b613a1e82613185565b9050602081019050919050565b6000613a3e613a39846139fa565b6138ac565b905082815260208101848484011115613a5a57613a59613847565b5b613a658482856138f8565b509392505050565b600082601f830112613a8257613a8161331c565b5b8135613a92848260208601613a2b565b91505092915050565b60008060408385031215613ab257613ab1613071565b5b6000613ac085828601613212565b925050602083013567ffffffffffffffff811115613ae157613ae0613076565b5b613aed85828601613a6d565b9150509250929050565b60008060408385031215613b0e57613b0d613071565b5b6000613b1c858286016132c7565b925050602083013567ffffffffffffffff811115613b3d57613b3c613076565b5b613b4985828601613a6d565b9150509250929050565b600060a083016000830151613b6b6000860182613671565b5060208301518482036020860152613b83828261349e565b9150506040830151613b98604086018261368a565b506060830151613bab606086018261368a565b506080830151613bbe608086018261347e565b508091505092915050565b60006020820190508181036000830152613be38184613b53565b905092915050565b60008060408385031215613c0257613c01613071565b5b6000613c10858286016132c7565b9250506020613c21858286016132c7565b9150509250929050565b7f4e487b7100000000000000000000000000000000000000000000000000000000600052602260045260246000fd5b60006002820490506001821680613c7257607f821691505b60208210811415613c8657613c85613c2b565b5b50919050565b7f4e487b7100000000000000000000000000000000000000000000000000000000600052601160045260246000fd5b6000613cc6826131f1565b9150613cd1836131f1565b925082821015613ce457613ce3613c8c565b5b828203905092915050565b6000613cfa826131f1565b9150613d05836131f1565b9250827fffffffffffffffffffffffffffffffffffffffffffffffffffffffffffffffff03821115613d3a57613d39613c8c565b5b828201905092915050565b7f4e487b7100000000000000000000000000000000000000000000000000000000600052603260045260246000fd5b6000613d7f826131f1565b91507fffffffffffffffffffffffffffffffffffffffffffffffffffffffffffffffff821415613db257613db1613c8c565b5b600182019050919050565b7f53454e4445525f4e4f545f5448455f434f4e54524f4c4c45525f41444452455360008201527f5300000000000000000000000000000000000000000000000000000000000000602082015250565b6000613e19602183613141565b9150613e2482613dbd565b604082019050919050565b60006020820190508181036000830152613e4881613e0c565b9050919050565b7f4e414d455f544f4f5f4c4f4e4700000000000000000000000000000000000000600082015250565b6000613e85600d83613141565b9150613e9082613e4f565b602082019050919050565b60006020820190508181036000830152613eb481613e78565b9050919050565b600081905092915050565b6000613ed182613136565b613edb8185613ebb565b9350613eeb818560208601613152565b80840191505092915050565b6000613f038285613ec6565b9150613f0f8284613ec6565b91508190509392505050565b7f5265656e7472616e637947756172643a207265656e7472616e742063616c6c00600082015250565b6000613f51601f83613141565b9150613f5c82613f1b565b602082019050919050565b60006020820190508181036000830152613f8081613f44565b9050919050565b600081905092915050565b50565b6000613fa2600083613f87565b9150613fad82613f92565b600082019050919050565b6000613fc382613f95565b9150819050919050565b7f54524541535552595f5452414e534645525f4641494c45440000000000000000600082015250565b6000614003601883613141565b915061400e82613fcd565b602082019050919050565b6000602082019050818103600083015261403281613ff6565b9050919050565b7f4d494e5445445f4f555400000000000000000000000000000000000000000000600082015250565b600061406f600a83613141565b915061407a82614039565b602082019050919050565b6000602082019050818103600083015261409e81614062565b9050919050565b7f4f776e61626c653a206e6577206f776e657220697320746865207a65726f206160008201527f6464726573730000000000000000000000000000000000000000000000000000602082015250565b6000614101602683613141565b915061410c826140a5565b604082019050919050565b60006020820190508181036000830152614130816140f4565b9050919050565b7f4f776e61626c653a2063616c6c6572206973206e6f7420746865206f776e6572600082015250565b600061416d602083613141565b915061417882614137565b602082019050919050565b6000602082019050818103600083015261419c81614160565b9050919050565b600081519050919050565b600082825260208201905092915050565b60006141ca826141a3565b6141d481856141ae565b93506141e4818560208601613152565b6141ed81613185565b840191505092915050565b600060808201905061420d6000830187613286565b61421a6020830186613286565b6142276040830185613454565b818103606083015261423981846141bf565b905095945050505050565b600081519050614253816130a7565b92915050565b60006020828403121561426f5761426e613071565b5b600061427d84828501614244565b91505092915050565b7f544f4b454e5f444f45535f4e4f545f4558495354000000000000000000000000600082015250565b60006142bc601483613141565b91506142c782614286565b602082019050919050565b600060208201905081810360008301526142eb816142af565b9050919050565b7f53454e4445525f4e4f545f544f4b454e5f4f574e455200000000000000000000600082015250565b6000614328601683613141565b9150614333826142f2565b602082019050919050565b600060208201905081810360008301526143578161431b565b9050919050565b7f5061757361626c653a2070617573656400000000000000000000000000000000600082015250565b6000614394601083613141565b915061439f8261435e565b602082019050919050565b600060208201905081810360008301526143c381614387565b9050919050565b60006143d5826131f1565b91506143e0836131f1565b9250817fffffffffffffffffffffffffffffffffffffffffffffffffffffffffffffffff048311821515161561441957614418613c8c565b5b828202905092915050565b7f4e487b7100000000000000000000000000000000000000000000000000000000600052601260045260246000fd5b600061445e826131f1565b9150614469836131f1565b92508261447957614478614424565b5b828206905092915050565b6000819050919050565b61449f61449a826131f1565b614484565b82525050565b60008160601b9050919050565b60006144bd826144a5565b9050919050565b60006144cf826144b2565b9050919050565b6144e76144e282613274565b6144c4565b82525050565b60006144f9828961448e565b602082019150614509828861448e565b602082019150614519828761448e565b602082019150614529828661448e565b602082019150614539828561448e565b60208201915061454982846144d6565b601482019150819050979650505050505050565b7f5061757361626c653a206e6f7420706175736564000000000000000000000000600082015250565b6000614593601483613141565b915061459e8261455d565b602082019050919050565b600060208201905081810360008301526145c281614586565b9050919050565b7f4e487b7100000000000000000000000000000000000000000000000000000000600052603160045260246000fd5b6000614603826131f1565b9150600082141561461757614616613c8c565b5b60018203905091905056fea26469706673582212202bc712c2c677eddef520a72c384d19bfe07dcf26b081b326bb669cfa789b6ff264736f6c63430008090033",
  "linkReferences": {},
  "deployedLinkReferences": {}
}