{
  "_format": "hh-sol-artifact-1",
  "contractName": "BlueDream",
  "sourceName": "contracts/BlueDream.sol",
  "abi": [
    {
      "inputs": [
        {
          "internalType": "address",
          "name": "_controller",
          "type": "address"
        }
      ],
      "stateMutability": "nonpayable",
      "type": "constructor"
    },
    {
      "inputs": [],
      "name": "ApprovalCallerNotOwnerNorApproved",
      "type": "error"
    },
    {
      "inputs": [],
      "name": "ApprovalQueryForNonexistentToken",
      "type": "error"
    },
    {
      "inputs": [],
      "name": "ApproveToCaller",
      "type": "error"
    },
    {
      "inputs": [],
      "name": "BalanceQueryForZeroAddress",
      "type": "error"
    },
    {
      "inputs": [],
      "name": "MintERC2309QuantityExceedsLimit",
      "type": "error"
    },
    {
      "inputs": [],
      "name": "MintToZeroAddress",
      "type": "error"
    },
    {
      "inputs": [],
      "name": "MintZeroQuantity",
      "type": "error"
    },
    {
      "inputs": [],
      "name": "OwnerQueryForNonexistentToken",
      "type": "error"
    },
    {
      "inputs": [],
      "name": "OwnershipNotInitializedForExtraData",
      "type": "error"
    },
    {
      "inputs": [],
      "name": "TransferCallerNotOwnerNorApproved",
      "type": "error"
    },
    {
      "inputs": [],
      "name": "TransferFromIncorrectOwner",
      "type": "error"
    },
    {
      "inputs": [],
      "name": "TransferToNonERC721ReceiverImplementer",
      "type": "error"
    },
    {
      "inputs": [],
      "name": "TransferToZeroAddress",
      "type": "error"
    },
    {
      "inputs": [],
      "name": "URIQueryForNonexistentToken",
      "type": "error"
    },
    {
      "anonymous": false,
      "inputs": [
        {
          "indexed": true,
          "internalType": "address",
          "name": "owner",
          "type": "address"
        },
        {
          "indexed": true,
          "internalType": "address",
          "name": "approved",
          "type": "address"
        },
        {
          "indexed": true,
          "internalType": "uint256",
          "name": "tokenId",
          "type": "uint256"
        }
      ],
      "name": "Approval",
      "type": "event"
    },
    {
      "anonymous": false,
      "inputs": [
        {
          "indexed": true,
          "internalType": "address",
          "name": "owner",
          "type": "address"
        },
        {
          "indexed": true,
          "internalType": "address",
          "name": "operator",
          "type": "address"
        },
        {
          "indexed": false,
          "internalType": "bool",
          "name": "approved",
          "type": "bool"
        }
      ],
      "name": "ApprovalForAll",
      "type": "event"
    },
    {
      "anonymous": false,
      "inputs": [
        {
          "indexed": true,
          "internalType": "uint256",
          "name": "fromTokenId",
          "type": "uint256"
        },
        {
          "indexed": false,
          "internalType": "uint256",
          "name": "toTokenId",
          "type": "uint256"
        },
        {
          "indexed": true,
          "internalType": "address",
          "name": "from",
          "type": "address"
        },
        {
          "indexed": true,
          "internalType": "address",
          "name": "to",
          "type": "address"
        }
      ],
      "name": "ConsecutiveTransfer",
      "type": "event"
    },
    {
      "anonymous": false,
      "inputs": [
        {
          "indexed": true,
          "internalType": "address",
          "name": "previousOwner",
          "type": "address"
        },
        {
          "indexed": true,
          "internalType": "address",
          "name": "newOwner",
          "type": "address"
        }
      ],
      "name": "OwnershipTransferred",
      "type": "event"
    },
    {
      "anonymous": false,
      "inputs": [
        {
          "indexed": false,
          "internalType": "address",
          "name": "account",
          "type": "address"
        }
      ],
      "name": "Paused",
      "type": "event"
    },
    {
      "anonymous": false,
      "inputs": [
        {
          "indexed": true,
          "internalType": "address",
          "name": "from",
          "type": "address"
        },
        {
          "indexed": true,
          "internalType": "address",
          "name": "to",
          "type": "address"
        },
        {
          "indexed": true,
          "internalType": "uint256",
          "name": "tokenId",
          "type": "uint256"
        }
      ],
      "name": "Transfer",
      "type": "event"
    },
    {
      "anonymous": false,
      "inputs": [
        {
          "indexed": false,
          "internalType": "address",
          "name": "account",
          "type": "address"
        }
      ],
      "name": "Unpaused",
      "type": "event"
    },
    {
      "anonymous": false,
      "inputs": [],
      "name": "mintOK",
      "type": "event"
    },
    {
      "anonymous": false,
      "inputs": [],
      "name": "nameChangeOK",
      "type": "event"
    },
    {
      "inputs": [
        {
          "internalType": "address",
          "name": "to",
          "type": "address"
        },
        {
          "internalType": "uint256",
          "name": "tokenId",
          "type": "uint256"
        }
      ],
      "name": "approve",
      "outputs": [],
      "stateMutability": "nonpayable",
      "type": "function"
    },
    {
      "inputs": [
        {
          "internalType": "address",
          "name": "owner",
          "type": "address"
        }
      ],
      "name": "balanceOf",
      "outputs": [
        {
          "internalType": "uint256",
          "name": "",
          "type": "uint256"
        }
      ],
      "stateMutability": "view",
      "type": "function"
    },
    {
      "inputs": [
        {
          "internalType": "uint256",
          "name": "tokenId",
          "type": "uint256"
        },
        {
          "internalType": "string",
          "name": "name",
          "type": "string"
        }
      ],
      "name": "changeName",
      "outputs": [],
      "stateMutability": "payable",
      "type": "function"
    },
    {
      "inputs": [
        {
          "internalType": "uint256",
          "name": "startIndex",
          "type": "uint256"
        },
        {
          "internalType": "uint256",
          "name": "total",
          "type": "uint256"
        }
      ],
      "name": "getAllTokens",
      "outputs": [
        {
          "components": [
            {
              "internalType": "uint256",
              "name": "tokenId",
              "type": "uint256"
            },
            {
              "internalType": "string",
              "name": "name",
              "type": "string"
            },
            {
              "internalType": "bytes32",
              "name": "dna",
              "type": "bytes32"
            },
            {
              "internalType": "bytes32",
              "name": "attributes",
              "type": "bytes32"
            },
            {
              "internalType": "address",
              "name": "owner",
              "type": "address"
            }
          ],
          "internalType": "struct BlueDream.t_token[]",
          "name": "",
          "type": "tuple[]"
        }
      ],
      "stateMutability": "view",
      "type": "function"
    },
    {
      "inputs": [
        {
          "internalType": "uint256",
          "name": "tokenId",
          "type": "uint256"
        }
      ],
      "name": "getApproved",
      "outputs": [
        {
          "internalType": "address",
          "name": "",
          "type": "address"
        }
      ],
      "stateMutability": "view",
      "type": "function"
    },
    {
      "inputs": [
        {
          "internalType": "uint256",
          "name": "tokenId",
          "type": "uint256"
        }
      ],
      "name": "getToken",
      "outputs": [
        {
          "components": [
            {
              "internalType": "uint256",
              "name": "tokenId",
              "type": "uint256"
            },
            {
              "internalType": "string",
              "name": "name",
              "type": "string"
            },
            {
              "internalType": "bytes32",
              "name": "dna",
              "type": "bytes32"
            },
            {
              "internalType": "bytes32",
              "name": "attributes",
              "type": "bytes32"
            },
            {
              "internalType": "address",
              "name": "owner",
              "type": "address"
            }
          ],
          "internalType": "struct BlueDream.t_token",
          "name": "",
          "type": "tuple"
        }
      ],
      "stateMutability": "view",
      "type": "function"
    },
    {
      "inputs": [
        {
          "internalType": "address",
          "name": "owner",
          "type": "address"
        },
        {
          "internalType": "uint256",
          "name": "startIndex",
          "type": "uint256"
        },
        {
          "internalType": "uint256",
          "name": "total",
          "type": "uint256"
        }
      ],
      "name": "getTokensOfOwner",
      "outputs": [
        {
          "components": [
            {
              "internalType": "uint256",
              "name": "tokenId",
              "type": "uint256"
            },
            {
              "internalType": "string",
              "name": "name",
              "type": "string"
            },
            {
              "internalType": "bytes32",
              "name": "dna",
              "type": "bytes32"
            },
            {
              "internalType": "bytes32",
              "name": "attributes",
              "type": "bytes32"
            },
            {
              "internalType": "address",
              "name": "owner",
              "type": "address"
            }
          ],
          "internalType": "struct BlueDream.t_token[]",
          "name": "",
          "type": "tuple[]"
        }
      ],
      "stateMutability": "view",
      "type": "function"
    },
    {
      "inputs": [
        {
          "internalType": "address",
          "name": "owner",
          "type": "address"
        },
        {
          "internalType": "address",
          "name": "operator",
          "type": "address"
        }
      ],
      "name": "isApprovedForAll",
      "outputs": [
        {
          "internalType": "bool",
          "name": "",
          "type": "bool"
        }
      ],
      "stateMutability": "view",
      "type": "function"
    },
    {
      "inputs": [
        {
          "internalType": "address",
          "name": "owner",
          "type": "address"
        },
        {
          "internalType": "string",
          "name": "name",
          "type": "string"
        }
      ],
      "name": "mint",
      "outputs": [],
      "stateMutability": "payable",
      "type": "function"
    },
    {
      "inputs": [],
      "name": "name",
      "outputs": [
        {
          "internalType": "string",
          "name": "",
          "type": "string"
        }
      ],
      "stateMutability": "view",
      "type": "function"
    },
    {
      "inputs": [],
      "name": "owner",
      "outputs": [
        {
          "internalType": "address",
          "name": "",
          "type": "address"
        }
      ],
      "stateMutability": "view",
      "type": "function"
    },
    {
      "inputs": [
        {
          "internalType": "uint256",
          "name": "tokenId",
          "type": "uint256"
        }
      ],
      "name": "ownerOf",
      "outputs": [
        {
          "internalType": "address",
          "name": "",
          "type": "address"
        }
      ],
      "stateMutability": "view",
      "type": "function"
    },
    {
      "inputs": [],
      "name": "paused",
      "outputs": [
        {
          "internalType": "bool",
          "name": "",
          "type": "bool"
        }
      ],
      "stateMutability": "view",
      "type": "function"
    },
    {
      "inputs": [],
      "name": "renounceOwnership",
      "outputs": [],
      "stateMutability": "nonpayable",
      "type": "function"
    },
    {
      "inputs": [
        {
          "internalType": "address",
          "name": "from",
          "type": "address"
        },
        {
          "internalType": "address",
          "name": "to",
          "type": "address"
        },
        {
          "internalType": "uint256",
          "name": "tokenId",
          "type": "uint256"
        }
      ],
      "name": "safeTransferFrom",
      "outputs": [],
      "stateMutability": "nonpayable",
      "type": "function"
    },
    {
      "inputs": [
        {
          "internalType": "address",
          "name": "from",
          "type": "address"
        },
        {
          "internalType": "address",
          "name": "to",
          "type": "address"
        },
        {
          "internalType": "uint256",
          "name": "tokenId",
          "type": "uint256"
        },
        {
          "internalType": "bytes",
          "name": "_data",
          "type": "bytes"
        }
      ],
      "name": "safeTransferFrom",
      "outputs": [],
      "stateMutability": "nonpayable",
      "type": "function"
    },
    {
      "inputs": [
        {
          "internalType": "address",
          "name": "operator",
          "type": "address"
        },
        {
          "internalType": "bool",
          "name": "approved",
          "type": "bool"
        }
      ],
      "name": "setApprovalForAll",
      "outputs": [],
      "stateMutability": "nonpayable",
      "type": "function"
    },
    {
      "inputs": [
        {
          "internalType": "bytes4",
          "name": "interfaceId",
          "type": "bytes4"
        }
      ],
      "name": "supportsInterface",
      "outputs": [
        {
          "internalType": "bool",
          "name": "",
          "type": "bool"
        }
      ],
      "stateMutability": "view",
      "type": "function"
    },
    {
      "inputs": [],
      "name": "symbol",
      "outputs": [
        {
          "internalType": "string",
          "name": "",
          "type": "string"
        }
      ],
      "stateMutability": "view",
      "type": "function"
    },
    {
      "inputs": [
        {
          "internalType": "uint256",
          "name": "tokenId",
          "type": "uint256"
        }
      ],
      "name": "tokenURI",
      "outputs": [
        {
          "internalType": "string",
          "name": "",
          "type": "string"
        }
      ],
      "stateMutability": "view",
      "type": "function"
    },
    {
      "inputs": [],
      "name": "totalSupply",
      "outputs": [
        {
          "internalType": "uint256",
          "name": "",
          "type": "uint256"
        }
      ],
      "stateMutability": "view",
      "type": "function"
    },
    {
      "inputs": [
        {
          "internalType": "address",
          "name": "from",
          "type": "address"
        },
        {
          "internalType": "address",
          "name": "to",
          "type": "address"
        },
        {
          "internalType": "uint256",
          "name": "tokenId",
          "type": "uint256"
        }
      ],
      "name": "transferFrom",
      "outputs": [],
      "stateMutability": "nonpayable",
      "type": "function"
    },
    {
      "inputs": [
        {
          "internalType": "address",
          "name": "newOwner",
          "type": "address"
        }
      ],
      "name": "transferOwnership",
      "outputs": [],
      "stateMutability": "nonpayable",
      "type": "function"
    },
    {
      "inputs": [],
      "name": "withdrawVault",
      "outputs": [],
      "stateMutability": "nonpayable",
      "type": "function"
    }
  ],
  "bytecode": "0x60806040526000600d553480156200001657600080fd5b506040516200431d3803806200431d83398181016040528101906200003c9190620003c6565b6040518060400160405280600a81526020017f426c756520447265616d000000000000000000000000000000000000000000008152506040518060400160405280600281526020017f4d550000000000000000000000000000000000000000000000000000000000008152508160029080519060200190620000c0929190620002ac565b508060039080519060200190620000d9929190620002ac565b50620000ea620001d560201b60201c565b60008190555050506200011262000106620001de60201b60201c565b620001e660201b60201c565b6000600860146101000a81548160ff021916908315150217905550600160098190555080600a60006101000a81548173ffffffffffffffffffffffffffffffffffffffff021916908373ffffffffffffffffffffffffffffffffffffffff16021790555060405180602001604052806000815250600b90805190602001906200019d929190620002ac565b5060405180602001604052806000815250600c9080519060200190620001c5929190620002ac565b506001600d81905550506200045d565b60006001905090565b600033905090565b6000600860009054906101000a900473ffffffffffffffffffffffffffffffffffffffff16905081600860006101000a81548173ffffffffffffffffffffffffffffffffffffffff021916908373ffffffffffffffffffffffffffffffffffffffff1602179055508173ffffffffffffffffffffffffffffffffffffffff168173ffffffffffffffffffffffffffffffffffffffff167f8be0079c531659141344cd1fd0a4f28419497f9722a3daafe3b4186f6b6457e060405160405180910390a35050565b828054620002ba9062000427565b90600052602060002090601f016020900481019282620002de57600085556200032a565b82601f10620002f957805160ff19168380011785556200032a565b828001600101855582156200032a579182015b82811115620003295782518255916020019190600101906200030c565b5b5090506200033991906200033d565b5090565b5b80821115620003585760008160009055506001016200033e565b5090565b600080fd5b600073ffffffffffffffffffffffffffffffffffffffff82169050919050565b60006200038e8262000361565b9050919050565b620003a08162000381565b8114620003ac57600080fd5b50565b600081519050620003c08162000395565b92915050565b600060208284031215620003df57620003de6200035c565b5b6000620003ef84828501620003af565b91505092915050565b7f4e487b7100000000000000000000000000000000000000000000000000000000600052602260045260246000fd5b600060028204905060018216806200044057607f821691505b60208210811415620004575762000456620003f8565b5b50919050565b613eb0806200046d6000396000f3fe60806040526004361061014b5760003560e01c80638da5cb5b116100b6578063c87b56dd1161006f578063c87b56dd14610495578063d0d0ed05146104d2578063d0def521146104e9578063e4b50cb814610505578063e985e9c514610542578063f2fde38b1461057f5761014b565b80638da5cb5b1461039457806395d89b41146103bf5780639a043832146103ea578063a22cb46514610427578063b88d4fde14610450578063c39cbef1146104795761014b565b806342842e0e1161010857806342842e0e146102725780635c975abb1461029b5780636352211e146102c657806370a0823114610303578063715018a61461034057806389edc438146103575761014b565b806301ffc9a71461015057806306fdde031461018d578063081812fc146101b8578063095ea7b3146101f557806318160ddd1461021e57806323b872dd14610249575b600080fd5b34801561015c57600080fd5b5061017760048036038101906101729190612b63565b6105a8565b6040516101849190612bab565b60405180910390f35b34801561019957600080fd5b506101a261063a565b6040516101af9190612c5f565b60405180910390f35b3480156101c457600080fd5b506101df60048036038101906101da9190612cb7565b6106cc565b6040516101ec9190612d25565b60405180910390f35b34801561020157600080fd5b5061021c60048036038101906102179190612d6c565b61074b565b005b34801561022a57600080fd5b5061023361088f565b6040516102409190612dbb565b60405180910390f35b34801561025557600080fd5b50610270600480360381019061026b9190612dd6565b6108a6565b005b34801561027e57600080fd5b5061029960048036038101906102949190612dd6565b610bcb565b005b3480156102a757600080fd5b506102b0610beb565b6040516102bd9190612bab565b60405180910390f35b3480156102d257600080fd5b506102ed60048036038101906102e89190612cb7565b610c02565b6040516102fa9190612d25565b60405180910390f35b34801561030f57600080fd5b5061032a60048036038101906103259190612e29565b610c14565b6040516103379190612dbb565b60405180910390f35b34801561034c57600080fd5b50610355610ccd565b005b34801561036357600080fd5b5061037e60048036038101906103799190612e56565b610ce1565b60405161038b9190613062565b60405180910390f35b3480156103a057600080fd5b506103a9610f79565b6040516103b69190612d25565b60405180910390f35b3480156103cb57600080fd5b506103d4610fa3565b6040516103e19190612c5f565b60405180910390f35b3480156103f657600080fd5b50610411600480360381019061040c9190613084565b611035565b60405161041e9190613062565b60405180910390f35b34801561043357600080fd5b5061044e600480360381019061044991906130f0565b611289565b005b34801561045c57600080fd5b5061047760048036038101906104729190613265565b611401565b005b610493600480360381019061048e9190613389565b611474565b005b3480156104a157600080fd5b506104bc60048036038101906104b79190612cb7565b611609565b6040516104c99190612c5f565b60405180910390f35b3480156104de57600080fd5b506104e76116a8565b005b61050360048036038101906104fe91906133e5565b6117b5565b005b34801561051157600080fd5b5061052c60048036038101906105279190612cb7565b611a1f565b60405161053991906134b7565b60405180910390f35b34801561054e57600080fd5b50610569600480360381019061056491906134d9565b611b77565b6040516105769190612bab565b60405180910390f35b34801561058b57600080fd5b506105a660048036038101906105a19190612e29565b611c0b565b005b60006301ffc9a760e01b827bffffffffffffffffffffffffffffffffffffffffffffffffffffffff1916148061060357506380ac58cd60e01b827bffffffffffffffffffffffffffffffffffffffffffffffffffffffff1916145b806106335750635b5e139f60e01b827bffffffffffffffffffffffffffffffffffffffffffffffffffffffff1916145b9050919050565b60606002805461064990613548565b80601f016020809104026020016040519081016040528092919081815260200182805461067590613548565b80156106c25780601f10610697576101008083540402835291602001916106c2565b820191906000526020600020905b8154815290600101906020018083116106a557829003601f168201915b5050505050905090565b60006106d782611c8f565b61070d576040517fcf4700e400000000000000000000000000000000000000000000000000000000815260040160405180910390fd5b6006600083815260200190815260200160002060000160009054906101000a900473ffffffffffffffffffffffffffffffffffffffff169050919050565b600061075682610c02565b90508073ffffffffffffffffffffffffffffffffffffffff16610777611cee565b73ffffffffffffffffffffffffffffffffffffffff16146107da576107a38161079e611cee565b611b77565b6107d9576040517fcfb3b94200000000000000000000000000000000000000000000000000000000815260040160405180910390fd5b5b826006600084815260200190815260200160002060000160006101000a81548173ffffffffffffffffffffffffffffffffffffffff021916908373ffffffffffffffffffffffffffffffffffffffff160217905550818373ffffffffffffffffffffffffffffffffffffffff168273ffffffffffffffffffffffffffffffffffffffff167f8c5be1e5ebec7d5bd14f71427d1e84f3dd0314c0f7b2291e5b200ac8c7c3b92560405160405180910390a4505050565b6000610899611cf6565b6001546000540303905090565b60006108b182611cff565b90508373ffffffffffffffffffffffffffffffffffffffff168173ffffffffffffffffffffffffffffffffffffffff1614610918576040517fa114810000000000000000000000000000000000000000000000000000000000815260040160405180910390fd5b60008061092484611dcd565b9150915061093a8187610935611cee565b611df4565b6109865761094f8661094a611cee565b611b77565b610985576040517f59c896be00000000000000000000000000000000000000000000000000000000815260040160405180910390fd5b5b600073ffffffffffffffffffffffffffffffffffffffff168573ffffffffffffffffffffffffffffffffffffffff1614156109ed576040517fea553b3400000000000000000000000000000000000000000000000000000000815260040160405180910390fd5b6109fa8686866001611e38565b8015610a0557600082555b600560008773ffffffffffffffffffffffffffffffffffffffff1673ffffffffffffffffffffffffffffffffffffffff168152602001908152602001600020600081546001900391905081905550600560008673ffffffffffffffffffffffffffffffffffffffff1673ffffffffffffffffffffffffffffffffffffffff1681526020019081526020016000206000815460010191905081905550610ad385610aaf888887611e3e565b7c020000000000000000000000000000000000000000000000000000000017611e66565b600460008681526020019081526020016000208190555060007c020000000000000000000000000000000000000000000000000000000084161415610b5b576000600185019050600060046000838152602001908152602001600020541415610b59576000548114610b58578360046000838152602001908152602001600020819055505b5b505b838573ffffffffffffffffffffffffffffffffffffffff168773ffffffffffffffffffffffffffffffffffffffff167fddf252ad1be2c89b69c2b068fc378daa952ba7f163c4a11628f55a4df523b3ef60405160405180910390a4610bc38686866001611e91565b505050505050565b610be683838360405180602001604052806000815250611401565b505050565b6000600860149054906101000a900460ff16905090565b6000610c0d82611cff565b9050919050565b60008073ffffffffffffffffffffffffffffffffffffffff168273ffffffffffffffffffffffffffffffffffffffff161415610c7c576040517f8f4eb60400000000000000000000000000000000000000000000000000000000815260040160405180910390fd5b67ffffffffffffffff600560008473ffffffffffffffffffffffffffffffffffffffff1673ffffffffffffffffffffffffffffffffffffffff16815260200190815260200160002054169050919050565b610cd5611ea2565b610cdf6000611f20565b565b60606000600f60008673ffffffffffffffffffffffffffffffffffffffff1673ffffffffffffffffffffffffffffffffffffffff168152602001908152602001600020905080805490508410610d3657600093505b6000831480610d535750838180549050610d5091906135a9565b83115b15610d6b57838180549050610d6891906135a9565b92505b60008367ffffffffffffffff811115610d8757610d8661313a565b5b604051908082528060200260200182016040528015610dc057816020015b610dad612a09565b815260200190600190039081610da55790505b509050600082805490501415610dda578092505050610f72565b600080600090505b85811015610f6a57838188610df791906135dd565b81548110610e0857610e07613633565b5b90600052602060002001549150600e60008381526020019081526020016000206040518060a001604052908160008201548152602001600182018054610e4d90613548565b80601f0160208091040260200160405190810160405280929190818152602001828054610e7990613548565b8015610ec65780601f10610e9b57610100808354040283529160200191610ec6565b820191906000526020600020905b815481529060010190602001808311610ea957829003601f168201915b5050505050815260200160028201548152602001600382015481526020016004820160009054906101000a900473ffffffffffffffffffffffffffffffffffffffff1673ffffffffffffffffffffffffffffffffffffffff1673ffffffffffffffffffffffffffffffffffffffff1681525050838281518110610f4c57610f4b613633565b5b60200260200101819052508080610f6290613662565b915050610de2565b829450505050505b9392505050565b6000600860009054906101000a900473ffffffffffffffffffffffffffffffffffffffff16905090565b606060038054610fb290613548565b80601f0160208091040260200160405190810160405280929190818152602001828054610fde90613548565b801561102b5780601f106110005761010080835404028352916020019161102b565b820191906000526020600020905b81548152906001019060200180831161100e57829003601f168201915b5050505050905090565b6060600061104161088f565b9050600084148061105157508084115b1561105b57600193505b600083148061108057508360018261107391906135dd565b61107d91906135a9565b83115b156110a0578360018261109391906135dd565b61109d91906135a9565b92505b60008367ffffffffffffffff8111156110bc576110bb61313a565b5b6040519080825280602002602001820160405280156110f557816020015b6110e2612a09565b8152602001906001900390816110da5790505b509050600082141561110b578092505050611283565b60005b8481101561127c576000600e6000838961112891906135dd565b81526020019081526020016000209050806040518060a00160405290816000820154815260200160018201805461115e90613548565b80601f016020809104026020016040519081016040528092919081815260200182805461118a90613548565b80156111d75780601f106111ac576101008083540402835291602001916111d7565b820191906000526020600020905b8154815290600101906020018083116111ba57829003601f168201915b5050505050815260200160028201548152602001600382015481526020016004820160009054906101000a900473ffffffffffffffffffffffffffffffffffffffff1673ffffffffffffffffffffffffffffffffffffffff1673ffffffffffffffffffffffffffffffffffffffff168152505083838151811061125d5761125c613633565b5b602002602001018190525050808061127490613662565b91505061110e565b5080925050505b92915050565b611291611cee565b73ffffffffffffffffffffffffffffffffffffffff168273ffffffffffffffffffffffffffffffffffffffff1614156112f6576040517fb06307db00000000000000000000000000000000000000000000000000000000815260040160405180910390fd5b8060076000611303611cee565b73ffffffffffffffffffffffffffffffffffffffff1673ffffffffffffffffffffffffffffffffffffffff16815260200190815260200160002060008473ffffffffffffffffffffffffffffffffffffffff1673ffffffffffffffffffffffffffffffffffffffff16815260200190815260200160002060006101000a81548160ff0219169083151502179055508173ffffffffffffffffffffffffffffffffffffffff166113b0611cee565b73ffffffffffffffffffffffffffffffffffffffff167f17307eab39ab6107e8899845ad3d59bd9653f200f220920489ca2b5937696c31836040516113f59190612bab565b60405180910390a35050565b61140c8484846108a6565b60008373ffffffffffffffffffffffffffffffffffffffff163b1461146e5761143784848484611fe6565b61146d576040517fd1a57ed600000000000000000000000000000000000000000000000000000000815260040160405180910390fd5b5b50505050565b600a60009054906101000a900473ffffffffffffffffffffffffffffffffffffffff1673ffffffffffffffffffffffffffffffffffffffff166114b5611cee565b73ffffffffffffffffffffffffffffffffffffffff161461150b576040517f08c379a00000000000000000000000000000000000000000000000000000000081526004016115029061371d565b60405180910390fd5b60026009541415611551576040517f08c379a000000000000000000000000000000000000000000000000000000000815260040161154890613789565b60405180910390fd5b600260098190555061156282612146565b60208151106115a6576040517f08c379a000000000000000000000000000000000000000000000000000000000815260040161159d906137f5565b60405180910390fd5b80600e600084815260200190815260200160002060010190805190602001906115d0929190612a54565b507f7a01d97180cb1a63fc0324e7fb74b4914563c02e6d0dbf5653ea4fb10bd0d19260405160405180910390a160016009819055505050565b606061161482611c8f565b61164a576040517fa14c4b5000000000000000000000000000000000000000000000000000000000815260040160405180910390fd5b6000611654612226565b905060008151141561167557604051806020016040528060008152506116a0565b8061167f846122b8565b604051602001611690929190613851565b6040516020818303038152906040525b915050919050565b600260095414156116ee576040517f08c379a00000000000000000000000000000000000000000000000000000000081526004016116e590613789565b60405180910390fd5b60026009819055506116fe611ea2565b60003373ffffffffffffffffffffffffffffffffffffffff1647604051611724906138a6565b60006040518083038185875af1925050503d8060008114611761576040519150601f19603f3d011682016040523d82523d6000602084013e611766565b606091505b50509050806117aa576040517f08c379a00000000000000000000000000000000000000000000000000000000081526004016117a190613907565b60405180910390fd5b506001600981905550565b600a60009054906101000a900473ffffffffffffffffffffffffffffffffffffffff1673ffffffffffffffffffffffffffffffffffffffff166117f6611cee565b73ffffffffffffffffffffffffffffffffffffffff161461184c576040517f08c379a00000000000000000000000000000000000000000000000000000000081526004016118439061371d565b60405180910390fd5b611854612312565b6002600954141561189a576040517f08c379a000000000000000000000000000000000000000000000000000000000815260040161189190613789565b60405180910390fd5b600260098190555060146118ac61088f565b106118ec576040517f08c379a00000000000000000000000000000000000000000000000000000000081526004016118e390613973565b60405180910390fd5b60006118f661235c565b9050611903836001612365565b6040518060a00160405280828152602001838152602001611922612383565b815260200161192f612383565b81526020018473ffffffffffffffffffffffffffffffffffffffff16815250600e6000838152602001908152602001600020600082015181600001556020820151816001019080519060200190611987929190612a54565b50604082015181600201556060820151816003015560808201518160040160006101000a81548173ffffffffffffffffffffffffffffffffffffffff021916908373ffffffffffffffffffffffffffffffffffffffff1602179055509050507f2bd97f55f36ba4381547ce09e7c83bad49675c9c38a7c9096a31f20ac07dbf4e60405160405180910390a15060016009819055505050565b611a27612a09565b6000611a3161088f565b90506000831480611a4157508083115b15611a4b57600192505b600e60008481526020019081526020016000206040518060a001604052908160008201548152602001600182018054611a8390613548565b80601f0160208091040260200160405190810160405280929190818152602001828054611aaf90613548565b8015611afc5780601f10611ad157610100808354040283529160200191611afc565b820191906000526020600020905b815481529060010190602001808311611adf57829003601f168201915b5050505050815260200160028201548152602001600382015481526020016004820160009054906101000a900473ffffffffffffffffffffffffffffffffffffffff1673ffffffffffffffffffffffffffffffffffffffff1673ffffffffffffffffffffffffffffffffffffffff1681525050915050919050565b6000600760008473ffffffffffffffffffffffffffffffffffffffff1673ffffffffffffffffffffffffffffffffffffffff16815260200190815260200160002060008373ffffffffffffffffffffffffffffffffffffffff1673ffffffffffffffffffffffffffffffffffffffff16815260200190815260200160002060009054906101000a900460ff16905092915050565b611c13611ea2565b600073ffffffffffffffffffffffffffffffffffffffff168173ffffffffffffffffffffffffffffffffffffffff161415611c83576040517f08c379a0000000000000000000000000000000000000000000000000000000008152600401611c7a90613a05565b60405180910390fd5b611c8c81611f20565b50565b600081611c9a611cf6565b11158015611ca9575060005482105b8015611ce7575060007c0100000000000000000000000000000000000000000000000000000000600460008581526020019081526020016000205416145b9050919050565b600033905090565b60006001905090565b60008082905080611d0e611cf6565b11611d9657600054811015611d955760006004600083815260200190815260200160002054905060007c010000000000000000000000000000000000000000000000000000000082161415611d93575b6000811415611d89576004600083600190039350838152602001908152602001600020549050611d5e565b8092505050611dc8565b505b5b6040517fdf2d9b4200000000000000000000000000000000000000000000000000000000815260040160405180910390fd5b919050565b60008060006006600085815260200190815260200160002090508092508254915050915091565b600073ffffffffffffffffffffffffffffffffffffffff8316925073ffffffffffffffffffffffffffffffffffffffff821691508382148383141790509392505050565b50505050565b60008060e883901c905060e8611e55868684612464565b62ffffff16901b9150509392505050565b600073ffffffffffffffffffffffffffffffffffffffff83169250814260a01b178317905092915050565b611e9c84848461246d565b50505050565b611eaa612797565b73ffffffffffffffffffffffffffffffffffffffff16611ec8610f79565b73ffffffffffffffffffffffffffffffffffffffff1614611f1e576040517f08c379a0000000000000000000000000000000000000000000000000000000008152600401611f1590613a71565b60405180910390fd5b565b6000600860009054906101000a900473ffffffffffffffffffffffffffffffffffffffff16905081600860006101000a81548173ffffffffffffffffffffffffffffffffffffffff021916908373ffffffffffffffffffffffffffffffffffffffff1602179055508173ffffffffffffffffffffffffffffffffffffffff168173ffffffffffffffffffffffffffffffffffffffff167f8be0079c531659141344cd1fd0a4f28419497f9722a3daafe3b4186f6b6457e060405160405180910390a35050565b60008373ffffffffffffffffffffffffffffffffffffffff1663150b7a0261200c611cee565b8786866040518563ffffffff1660e01b815260040161202e9493929190613ae6565b602060405180830381600087803b15801561204857600080fd5b505af192505050801561207957506040513d601f19601f820116820180604052508101906120769190613b47565b60015b6120f3573d80600081146120a9576040519150601f19603f3d011682016040523d82523d6000602084013e6120ae565b606091505b506000815114156120eb576040517fd1a57ed600000000000000000000000000000000000000000000000000000000815260040160405180910390fd5b805181602001fd5b63150b7a0260e01b7bffffffffffffffffffffffffffffffffffffffffffffffffffffffff1916817bffffffffffffffffffffffffffffffffffffffffffffffffffffffff191614915050949350505050565b6000600e60008381526020019081526020016000206000015414156121a0576040517f08c379a000000000000000000000000000000000000000000000000000000000815260040161219790613bc0565b60405180910390fd5b60006121ab82610c02565b90508073ffffffffffffffffffffffffffffffffffffffff166121cc611cee565b73ffffffffffffffffffffffffffffffffffffffff1614612222576040517f08c379a000000000000000000000000000000000000000000000000000000000815260040161221990613c2c565b60405180910390fd5b5050565b6060600c805461223590613548565b80601f016020809104026020016040519081016040528092919081815260200182805461226190613548565b80156122ae5780601f10612283576101008083540402835291602001916122ae565b820191906000526020600020905b81548152906001019060200180831161229157829003601f168201915b5050505050905090565b60606080604051019050806040528082600183039250600a81066030018353600a810490505b80156122fe57600183039250600a81066030018353600a810490506122de565b508181036020830392508083525050919050565b61231a610beb565b1561235a576040517f08c379a000000000000000000000000000000000000000000000000000000000815260040161235190613c98565b60405180910390fd5b565b60008054905090565b61237f82826040518060200160405280600081525061279f565b5050565b600062010000600d54111561239f576001600d819055506123b8565b600d60008154809291906123b290613662565b91905055505b6002600d546123c79190613cb8565b426003600d546123d79190613cb8565b436123e291906135dd565b60806005600d546123f39190613cb8565b6123fd9190613d41565b4361240891906135dd565b42186101006007600d5461241c9190613cb8565b6124269190613d41565b4361243191906135dd565b42173360405160200161244996959493929190613ddb565b60405160208183030381529060405280519060200120905090565b60009392505050565b81600e600083815260200190815260200160002060040160006101000a81548173ffffffffffffffffffffffffffffffffffffffff021916908373ffffffffffffffffffffffffffffffffffffffff16021790555060008073ffffffffffffffffffffffffffffffffffffffff168473ffffffffffffffffffffffffffffffffffffffff161461272b5760005b600f60008673ffffffffffffffffffffffffffffffffffffffff1673ffffffffffffffffffffffffffffffffffffffff168152602001908152602001600020805490508110156127295782600f60008773ffffffffffffffffffffffffffffffffffffffff1673ffffffffffffffffffffffffffffffffffffffff168152602001908152602001600020828154811061259657612595613633565b5b9060005260206000200154141561271657600f60008673ffffffffffffffffffffffffffffffffffffffff1673ffffffffffffffffffffffffffffffffffffffff1681526020019081526020016000206001600f60008873ffffffffffffffffffffffffffffffffffffffff1673ffffffffffffffffffffffffffffffffffffffff1681526020019081526020016000208054905061263591906135a9565b8154811061264657612645613633565b5b9060005260206000200154600f60008773ffffffffffffffffffffffffffffffffffffffff1673ffffffffffffffffffffffffffffffffffffffff16815260200190815260200160002083815481106126a2576126a1613633565b5b9060005260206000200181905550600f60008673ffffffffffffffffffffffffffffffffffffffff1673ffffffffffffffffffffffffffffffffffffffff1681526020019081526020016000208054806126ff576126fe613e4b565b5b600190038181906000526020600020016000905590555b808061272190613662565b9150506124fa565b505b600f60008473ffffffffffffffffffffffffffffffffffffffff1673ffffffffffffffffffffffffffffffffffffffff16815260200190815260200160002082908060018154018082558091505060019003906000526020600020016000909190919091505550505050565b600033905090565b6127a9838361283c565b60008373ffffffffffffffffffffffffffffffffffffffff163b1461283757600080549050600083820390505b6127e96000868380600101945086611fe6565b61281f576040517fd1a57ed600000000000000000000000000000000000000000000000000000000815260040160405180910390fd5b8181106127d657816000541461283457600080fd5b50505b505050565b600080549050600082141561287d576040517fb562e8dd00000000000000000000000000000000000000000000000000000000815260040160405180910390fd5b61288a6000848385611e38565b600160406001901b178202600560008573ffffffffffffffffffffffffffffffffffffffff1673ffffffffffffffffffffffffffffffffffffffff16815260200190815260200160002060008282540192505081905550612901836128f26000866000611e3e565b6128fb856129f9565b17611e66565b6004600083815260200190815260200160002081905550600080838301905073ffffffffffffffffffffffffffffffffffffffff85169150828260007fddf252ad1be2c89b69c2b068fc378daa952ba7f163c4a11628f55a4df523b3ef600080a4600183015b8181146129a257808360007fddf252ad1be2c89b69c2b068fc378daa952ba7f163c4a11628f55a4df523b3ef600080a4600181019050612967565b5060008214156129de576040517f2e07630000000000000000000000000000000000000000000000000000000000815260040160405180910390fd5b8060008190555050506129f46000848385611e91565b505050565b60006001821460e11b9050919050565b6040518060a0016040528060008152602001606081526020016000801916815260200160008019168152602001600073ffffffffffffffffffffffffffffffffffffffff1681525090565b828054612a6090613548565b90600052602060002090601f016020900481019282612a825760008555612ac9565b82601f10612a9b57805160ff1916838001178555612ac9565b82800160010185558215612ac9579182015b82811115612ac8578251825591602001919060010190612aad565b5b509050612ad69190612ada565b5090565b5b80821115612af3576000816000905550600101612adb565b5090565b6000604051905090565b600080fd5b600080fd5b60007fffffffff0000000000000000000000000000000000000000000000000000000082169050919050565b612b4081612b0b565b8114612b4b57600080fd5b50565b600081359050612b5d81612b37565b92915050565b600060208284031215612b7957612b78612b01565b5b6000612b8784828501612b4e565b91505092915050565b60008115159050919050565b612ba581612b90565b82525050565b6000602082019050612bc06000830184612b9c565b92915050565b600081519050919050565b600082825260208201905092915050565b60005b83811015612c00578082015181840152602081019050612be5565b83811115612c0f576000848401525b50505050565b6000601f19601f8301169050919050565b6000612c3182612bc6565b612c3b8185612bd1565b9350612c4b818560208601612be2565b612c5481612c15565b840191505092915050565b60006020820190508181036000830152612c798184612c26565b905092915050565b6000819050919050565b612c9481612c81565b8114612c9f57600080fd5b50565b600081359050612cb181612c8b565b92915050565b600060208284031215612ccd57612ccc612b01565b5b6000612cdb84828501612ca2565b91505092915050565b600073ffffffffffffffffffffffffffffffffffffffff82169050919050565b6000612d0f82612ce4565b9050919050565b612d1f81612d04565b82525050565b6000602082019050612d3a6000830184612d16565b92915050565b612d4981612d04565b8114612d5457600080fd5b50565b600081359050612d6681612d40565b92915050565b60008060408385031215612d8357612d82612b01565b5b6000612d9185828601612d57565b9250506020612da285828601612ca2565b9150509250929050565b612db581612c81565b82525050565b6000602082019050612dd06000830184612dac565b92915050565b600080600060608486031215612def57612dee612b01565b5b6000612dfd86828701612d57565b9350506020612e0e86828701612d57565b9250506040612e1f86828701612ca2565b9150509250925092565b600060208284031215612e3f57612e3e612b01565b5b6000612e4d84828501612d57565b91505092915050565b600080600060608486031215612e6f57612e6e612b01565b5b6000612e7d86828701612d57565b9350506020612e8e86828701612ca2565b9250506040612e9f86828701612ca2565b9150509250925092565b600081519050919050565b600082825260208201905092915050565b6000819050602082019050919050565b612ede81612c81565b82525050565b600082825260208201905092915050565b6000612f0082612bc6565b612f0a8185612ee4565b9350612f1a818560208601612be2565b612f2381612c15565b840191505092915050565b6000819050919050565b612f4181612f2e565b82525050565b612f5081612d04565b82525050565b600060a083016000830151612f6e6000860182612ed5565b5060208301518482036020860152612f868282612ef5565b9150506040830151612f9b6040860182612f38565b506060830151612fae6060860182612f38565b506080830151612fc16080860182612f47565b508091505092915050565b6000612fd88383612f56565b905092915050565b6000602082019050919050565b6000612ff882612ea9565b6130028185612eb4565b93508360208202850161301485612ec5565b8060005b8581101561305057848403895281516130318582612fcc565b945061303c83612fe0565b925060208a01995050600181019050613018565b50829750879550505050505092915050565b6000602082019050818103600083015261307c8184612fed565b905092915050565b6000806040838503121561309b5761309a612b01565b5b60006130a985828601612ca2565b92505060206130ba85828601612ca2565b9150509250929050565b6130cd81612b90565b81146130d857600080fd5b50565b6000813590506130ea816130c4565b92915050565b6000806040838503121561310757613106612b01565b5b600061311585828601612d57565b9250506020613126858286016130db565b9150509250929050565b600080fd5b600080fd5b7f4e487b7100000000000000000000000000000000000000000000000000000000600052604160045260246000fd5b61317282612c15565b810181811067ffffffffffffffff821117156131915761319061313a565b5b80604052505050565b60006131a4612af7565b90506131b08282613169565b919050565b600067ffffffffffffffff8211156131d0576131cf61313a565b5b6131d982612c15565b9050602081019050919050565b82818337600083830152505050565b6000613208613203846131b5565b61319a565b90508281526020810184848401111561322457613223613135565b5b61322f8482856131e6565b509392505050565b600082601f83011261324c5761324b613130565b5b813561325c8482602086016131f5565b91505092915050565b6000806000806080858703121561327f5761327e612b01565b5b600061328d87828801612d57565b945050602061329e87828801612d57565b93505060406132af87828801612ca2565b925050606085013567ffffffffffffffff8111156132d0576132cf612b06565b5b6132dc87828801613237565b91505092959194509250565b600067ffffffffffffffff8211156133035761330261313a565b5b61330c82612c15565b9050602081019050919050565b600061332c613327846132e8565b61319a565b90508281526020810184848401111561334857613347613135565b5b6133538482856131e6565b509392505050565b600082601f8301126133705761336f613130565b5b8135613380848260208601613319565b91505092915050565b600080604083850312156133a05761339f612b01565b5b60006133ae85828601612ca2565b925050602083013567ffffffffffffffff8111156133cf576133ce612b06565b5b6133db8582860161335b565b9150509250929050565b600080604083850312156133fc576133fb612b01565b5b600061340a85828601612d57565b925050602083013567ffffffffffffffff81111561342b5761342a612b06565b5b6134378582860161335b565b9150509250929050565b600060a0830160008301516134596000860182612ed5565b50602083015184820360208601526134718282612ef5565b91505060408301516134866040860182612f38565b5060608301516134996060860182612f38565b5060808301516134ac6080860182612f47565b508091505092915050565b600060208201905081810360008301526134d18184613441565b905092915050565b600080604083850312156134f0576134ef612b01565b5b60006134fe85828601612d57565b925050602061350f85828601612d57565b9150509250929050565b7f4e487b7100000000000000000000000000000000000000000000000000000000600052602260045260246000fd5b6000600282049050600182168061356057607f821691505b6020821081141561357457613573613519565b5b50919050565b7f4e487b7100000000000000000000000000000000000000000000000000000000600052601160045260246000fd5b60006135b482612c81565b91506135bf83612c81565b9250828210156135d2576135d161357a565b5b828203905092915050565b60006135e882612c81565b91506135f383612c81565b9250827fffffffffffffffffffffffffffffffffffffffffffffffffffffffffffffffff038211156136285761362761357a565b5b828201905092915050565b7f4e487b7100000000000000000000000000000000000000000000000000000000600052603260045260246000fd5b600061366d82612c81565b91507fffffffffffffffffffffffffffffffffffffffffffffffffffffffffffffffff8214156136a05761369f61357a565b5b600182019050919050565b7f53454e4445525f4e4f545f5448455f434f4e54524f4c4c45525f41444452455360008201527f5300000000000000000000000000000000000000000000000000000000000000602082015250565b6000613707602183612bd1565b9150613712826136ab565b604082019050919050565b60006020820190508181036000830152613736816136fa565b9050919050565b7f5265656e7472616e637947756172643a207265656e7472616e742063616c6c00600082015250565b6000613773601f83612bd1565b915061377e8261373d565b602082019050919050565b600060208201905081810360008301526137a281613766565b9050919050565b7f4e414d455f544f4f5f4c4f4e4700000000000000000000000000000000000000600082015250565b60006137df600d83612bd1565b91506137ea826137a9565b602082019050919050565b6000602082019050818103600083015261380e816137d2565b9050919050565b600081905092915050565b600061382b82612bc6565b6138358185613815565b9350613845818560208601612be2565b80840191505092915050565b600061385d8285613820565b91506138698284613820565b91508190509392505050565b600081905092915050565b50565b6000613890600083613875565b915061389b82613880565b600082019050919050565b60006138b182613883565b9150819050919050565b7f54524541535552595f5452414e534645525f4641494c45440000000000000000600082015250565b60006138f1601883612bd1565b91506138fc826138bb565b602082019050919050565b60006020820190508181036000830152613920816138e4565b9050919050565b7f4d494e5445445f4f555400000000000000000000000000000000000000000000600082015250565b600061395d600a83612bd1565b915061396882613927565b602082019050919050565b6000602082019050818103600083015261398c81613950565b9050919050565b7f4f776e61626c653a206e6577206f776e657220697320746865207a65726f206160008201527f6464726573730000000000000000000000000000000000000000000000000000602082015250565b60006139ef602683612bd1565b91506139fa82613993565b604082019050919050565b60006020820190508181036000830152613a1e816139e2565b9050919050565b7f4f776e61626c653a2063616c6c6572206973206e6f7420746865206f776e6572600082015250565b6000613a5b602083612bd1565b9150613a6682613a25565b602082019050919050565b60006020820190508181036000830152613a8a81613a4e565b9050919050565b600081519050919050565b600082825260208201905092915050565b6000613ab882613a91565b613ac28185613a9c565b9350613ad2818560208601612be2565b613adb81612c15565b840191505092915050565b6000608082019050613afb6000830187612d16565b613b086020830186612d16565b613b156040830185612dac565b8181036060830152613b278184613aad565b905095945050505050565b600081519050613b4181612b37565b92915050565b600060208284031215613b5d57613b5c612b01565b5b6000613b6b84828501613b32565b91505092915050565b7f544f4b454e5f444f45535f4e4f545f4558495354000000000000000000000000600082015250565b6000613baa601483612bd1565b9150613bb582613b74565b602082019050919050565b60006020820190508181036000830152613bd981613b9d565b9050919050565b7f53454e4445525f4e4f545f544f4b454e5f4f574e455200000000000000000000600082015250565b6000613c16601683612bd1565b9150613c2182613be0565b602082019050919050565b60006020820190508181036000830152613c4581613c09565b9050919050565b7f5061757361626c653a2070617573656400000000000000000000000000000000600082015250565b6000613c82601083612bd1565b9150613c8d82613c4c565b602082019050919050565b60006020820190508181036000830152613cb181613c75565b9050919050565b6000613cc382612c81565b9150613cce83612c81565b9250817fffffffffffffffffffffffffffffffffffffffffffffffffffffffffffffffff0483118215151615613d0757613d0661357a565b5b828202905092915050565b7f4e487b7100000000000000000000000000000000000000000000000000000000600052601260045260246000fd5b6000613d4c82612c81565b9150613d5783612c81565b925082613d6757613d66613d12565b5b828206905092915050565b6000819050919050565b613d8d613d8882612c81565b613d72565b82525050565b60008160601b9050919050565b6000613dab82613d93565b9050919050565b6000613dbd82613da0565b9050919050565b613dd5613dd082612d04565b613db2565b82525050565b6000613de78289613d7c565b602082019150613df78288613d7c565b602082019150613e078287613d7c565b602082019150613e178286613d7c565b602082019150613e278285613d7c565b602082019150613e378284613dc4565b601482019150819050979650505050505050565b7f4e487b7100000000000000000000000000000000000000000000000000000000600052603160045260246000fdfea26469706673582212209e7e3ef50defd0f648614ac9e8f1b7d01092c20f5b4e8a7b728cb962f9f05e6364736f6c63430008090033",
  "linkReferences": {},
  "deployedLinkReferences": {}
}